:060000000A128A11122809
:10000800FE00030E83120313B0000408B1000A08AF
:10001800B2007F08B3000A128A117E2F0A128A15CD
:10002800EB2A033083120313BF000830BE00783078
:10003800BD00BD0B1D28BE0B1D28BF0B1D280030A1
:100048000A128A15D9230A128A1183120313D001BE
:1000580014305002031C31283228342864286428BC
:100068000314500D4A3E840090300318013EFF00EF
:100078000A168A1100200A128A11BD003D08B7002D
:100088005008BE003E074A3E840090300318013EE7
:10009800FF000A168A1100200A128A1120380A1253
:1000A8008A1537220A128A11013083120313BD0000
:1000B8003D08D00714305002031C632864283428F4
:1000C800D10105305102031C6A286B286D288B2842
:1000D8008B285108953E840090300318013EFF009C
:1000E8000A168A1100200A128A11BD005108443EDE
:1000F80084003D08831380000130BD003D08D1070E
:1001080005305102031C89288A286D288B28443021
:10011800BD003D08B7000530BE003E08B8002A30D3
:100128000A128A152F230A128A1183120313D10186
:1001380005305102031CA128A228A428C228C228DD
:1001480051089A3E840090300318013EFF000A16B9
:100158008A1100200A128A11BD005108443E840009
:100168003D08831380000130BD003D08D1070530EC
:100178005102031CC028C128A428C2284430BD004D
:100188003D08B7000530BE003E08B8002B300A1203
:100198008A152F230A128A1183120313D1010530FD
:1001A8005102031CD828D928DB28F928F928510836
:1001B800953E840090300318013EFF000A168A110C
:1001C80000200A128A11BD005108443E84003D08EF
:1001D800831380000130BD003D08D107053051026E
:1001E800031CF728F828DB28F9284430BD003D080F
:1001F800B7000530BE003E08B80030300A128A1534
:100208002F230A128A111D300A128A1594220A1203
:100218008A1183120313BD003D08D000D008031DC6
:100228001629172922297330BD003D08B700503020
:100238000A128A1537220A128A11222916308312C5
:100248000313BD003D08D0001530500203182D29B6
:100258002E2930295F295F290314500D4A3E840056
:1002680090300318013EFF000A168A1100200A1276
:100278008A11BD003D08B7005008BE003E074A3E3F
:10028800840090300318013EFF000A168A110020EE
:100298000A128A1120380A128A1537220A128A117C
:1002A800013083120313D0021530500203185D2960
:1002B8005E2930295F2901300A128A15D9230A12CA
:1002C8008A1183120313D00109305002031C6D29CF
:1002D8006E297029E429E429D10104305102031C54
:1002E800762977297929C829C8295008BD000130FD
:1002F8000310BD0DFF3E031D7C2903103D0D123E6A
:10030800840090300318013EFF000A168A1100206D
:100318000A128A11BE000A168A1100200A128A11CE
:10032800BF000A168A1100200A128A11C0000A1694
:100338008A1100200A128A11C1005108C200023035
:100348000310C20DFF3E031DA4290310420D013EF8
:10035800B2290310C10CC00CBF0CBE0CFF3E031D1C
:10036800AD293E08C3005108443E84004308831366
:1003780080000130BD003D08D10704305102031C44
:10038800C629C7297929C8294430BD003D08B700C6
:100398000430BE003E08B800500820380A128A15FA
:1003A8002F230A128A11013083120313BD003D085E
:1003B800D00709305002031CE229E3297029E429F7
:1003C8000930BD003D08D0000E305002031CED2955
:1003D800EE29F029652A652AD10104305102031C4F
:1003E800F629F729F9294A2A4A2A5008BD00013076
:1003F8000310BD0DFF3E031DFC2903103D0D123EE9
:10040800840090300318013EFF000A168A1100206C
:100418000A128A11BE000A168A1100200A128A11CD
:10042800BF000A168A1100200A128A11C0000A1693
:100438008A1100200A128A11C1005103FF3AC20032
:1004480002300310C20DFF3E031D252A0310420D82
:10045800183E013E342A0310C10CC00CBF0CBE0C60
:10046800FF3E031D2F2A3E08C3005108443E840066
:100478004308831380000130BD003D08D1070430D4
:100488005102031C482A492AF9294A2A4430BD0046
:100498003D08B7000430BE003E08B80050082038B8
:1004A8000A128A152F230A128A11013083120313A4
:1004B800BD003D08D0070E305002031C642A652A8F
:1004C800F029D1010B305102031C6B2A6C2A6E2AC9
:1004D8008C2A8C2A5108783E840090300318013EFB
:1004E800FF000A168A1100200A128A11BD0051085D
:1004F800443E84003D08831380000130BD003D0860
:10050800D1070B305102031C8A2A8B2A6E2A8C2AA7
:100518004430BD003D08B7000B30BE003E08B800AF
:100528002E300A128A152F230A128A1183120313F6
:10053800D10104305102031CA22AA32AA52AE82AC1
:10054800E82A223084009030FF000A168A11002021
:100558000A128A11BD000A168A1100200A128A118D
:10056800BE000A168A1100200A128A11BF000A1654
:100578008A1100200A128A11C0005108C1000230F5
:100588000310C10DFF3E031DC42A0310410D013E97
:10059800D22A0310C00CBF0CBE0CBD0CFF3E031DBD
:1005A800CD2A3D08C2005108443E84004208831306
:1005B80080000130BD003D08D10704305102031C02
:1005C800E62AE72AA52AE82A44080638BD003D0895
:1005D800C4004430BD003D08B7000430BE003E08EA
:1005E800B80024300A128A152F230A128A1183129E
:1005F80003134408F939BD003D08C4004430BD0068
:100608003D08B7000430BE003E08B80024300A1286
:100618008A152F230A128A11823083120313BE000F
:10062800DD30BD00BD0B162BBE0B162B1B2B00306F
:100638000A128A15D9230A128A1183120313071181
:100648000800003083160313D4000030D3000030B4
:10065800D2000030D1001008CF392038900083161E
:100668000317071387138316031307138316031738
:1006780007110811871288108316031309158316AA
:100688000317091583160313071108118711871219
:100698000716881483120313071108158711871288
:1006A8008316031308108316031708108316031301
:1006B80009158316031709158316031309148316DE
:1006C8000317091083120313081083160313091460
:1006D800831603170914831603138811831203134F
:1006E8008811831603138816831603178812831636
:1006F80003130817881783160317081388138B1713
:100708000B17831603130C141030831203138F0076
:100718008E0110083F3980389000303090048316DD
:1007280003138F17831203131015901510148316D3
:1007380003138510051185110512851205138513FC
:1007480083160317851005118511051285120513E7
:10075800851383120313851005118511051285125F
:1007680005138513831603130610861006118611C8
:1007780006128612831603170610861006118611B4
:1007880006128612831203130610861006118611AC
:10079800061286128316031308128316031708120B
:1007A8008312031308128316031389108316031781
:1007B8008910831203138910080883160313AA00EB
:1007C80004300310AA0CFF3E031DE52B2A08AB00DA
:1007D8002B08DD000A128A1563220A128A110A12EE
:1007E8008A154D220A128A110A128A11F5270A124D
:1007F8008A1100300A128A150A230A128A118312F2
:100808000313080883160313AA0006300310AA0C62
:10081800FF3E031D0A2C2A080339AB002B0883125C
:100828000313D6002630C2009130C3005608831641
:100838000313AA00AB012A0883120313C40083160A
:1008480003132B0883120313C5000A128A11CE253D
:100858000A128A11630063000A128A15AE230A126B
:100868008A1183160313AA00AB012A08CF002B08AC
:10087800D000662C63000A128A15AE230A128A1168
:1008880083160313AA00AB012A08CF002B08D00057
:10089800FA3083120313C2009030C3008316031387
:1008A800500883120313C501C507831603134F08A5
:1008B80083120313C401C4070A128A11CE250A122F
:1008C8008A11662C831603135008803AFF00803083
:1008D8007F02031D712C78304F020318742C752C7D
:1008E8007D2C83120313881E7A2C7B2C3E2C7D2CA6
:1008F8007D2CA33083120313C2009030C3008316EB
:100908000313500883120313C501C5078316031385
:100918004F0883120313C401C4070A128A11CE2593
:100928000A128A110A128A1115200A128A11003035
:100938000A128A150A230A128A11630083160313FE
:10094800D501D601A72C01300A128A150A230A12EA
:100958008A11003083160313D4000030D30000300E
:10096800D2000030D1005408803AFF000030803AAD
:100978007F02031DC92C00305302031DC92C00300F
:100988005202031DC92C02305102031CCC2CCD2C61
:10099800CF2CFF2CFF2C5108D83E8400831300086D
:1009A800AA005108AE3E84002A0880000130D10711
:1009B800003003180130D207003003180130D30784
:1009C800003003180130D4075408803AFF00003083
:1009D800803A7F02031DFA2C00305302031DFA2CC3
:1009E80000305202031DFA2C02305102031CFD2C68
:1009F800FE2CCF2CFF2C0A128A1583230A128A1187
:100A080083160313AA002A08D8000A128A15AE23EF
:100A18000A128A1183160313AA002A08D900550856
:100A2800AA002A08DA005608AA002A08DB005D088E
:100A3800AA002A08DC00793059020318242D252D34
:100A48002C2D83120313881E2A2D2B2D432D2C2D7C
:100A5800D83083160313AA002A0883120313D4007C
:100A6800053083160313AB002B0883120313D5003C
:100A7800B0300A128A156E250A128A115E2DC83006
:100A880083120313C2009030C3008316031359085E
:100A9800AA00AB012A0883120313C40083160313A8
:100AA8002B0883120313C5000A128A11CE250A12D5
:100AB8008A115E2D83120313071100300A128A155A
:100AC8000A230A128A1183120313101010308F00A0
:100AD8008E0110141130C2009130C30056088316DD
:100AE8000313AA00AB012A0883120313C400831658
:100AF80003132B0883120313C5000A128A11CE258B
:100B08000A128A1183160313CE01B52D4D308312B4
:100B18000313C2009130C300831603134E08AA00C2
:100B2800AB012A0883120313C400831603132B088E
:100B380083120313C500831603135708AC00AD01D5
:100B48002C0883120313C600831603132D0883127F
:100B58000313C7000A128A11CE250A128A116300EC
:100B6800B52D013083160313CE07FF304E07AA00B8
:100B780057082A02031CC12DC22D8A2DC32D01300E
:100B8800D5070318D60A0030D607A72CA72C0A12B7
:100B98008A111228443083120313C8004808CC0075
:100BA800602F5308253A0319DA2DDB2DE22D53085F
:100BB8000A128A152B220A128A11602FCE01F12DF2
:100BC8007D2F152E152ECE17152E53080A128A15AD
:100BD8002B220A128A11602F152E83120313430841
:100BE800C9004208C8000130C2070318C30A4908EF
:100BF800FF00480884000A168A1100200A128A1188
:100C0800D300003A03197D2F583A0319E72D3C3ACF
:100C18000319152E0D3A0319152E113A0319E72D4C
:100C2800E92D83120313CE1B1A2E1B2E362E4C08C9
:100C3800840083130008CF00840A0008D000023023
:100C4800C8004808CC07D01F2A2E2B2EB32E0330FD
:100C5800C8004808CE04CF09D009CF0A0319D00A22
:100C6800B32EB32E4C08840083130008CF00840AE7
:100C78000008D0000230C8004808CC07B32EB32EB5
:100C8800D301D30A5308053A031D4B2E4C2E4E2E82
:100C9800BC2EBC2E5308C8004807833E8400903001
:100CA8000318013EFF000A168A1100200A128A1151
:100CB800C9000A168A1100200A128A11CA004A08B5
:100CC8005002031D692E49084F0203186C2E6D2E21
:100CD8006F2EBC2EBC2E0130C8004808D30753081D
:100CE800053A031D782E792E4E2EBC2EBC2ED3012C
:100CF800D30A5308043A031D822E832E852EBC2E58
:100D0800BC2E5308C80048078D3E84009030031855
:100D1800013EFF000A168A1100200A128A11C90032
:100D28000A168A1100200A128A11CA004A085002BB
:100D3800031DA02E49084F020318A32EA42EA62E89
:100D4800BC2EBC2E0130C8004808D3075308043A0B
:100D5800031DAF2EB02E852EBC2EBC2EBC2E4E08E9
:100D68008039003A0319442E803A03197B2EBC2E91
:100D78004E0803390319C12EC22EC92E2D300A126E
:100D88008A152B220A128A11C92E831203135308BB
:100D9800C8004808CD00522F422F0A30BC0000304E
:100DA800BD004D08C8004807833E840090300318F2
:100DB800013EFF000A168A1100200A128A11B400A7
:100DC8000A168A1100200A128A11B5005008B701C4
:100DD800B7074F08B601B6070A128A151F250A1267
:100DE8008A11831203133508BF01BF073408BE01F7
:100DF800BE070A128A158D240A128A118312031358
:100E08003C08303EC9004908D3004B2F4D08C800A4
:100E180048078D3E840090300318013EFF000A16F3
:100E28008A1100200A128A11B4000A168A110020B9
:100E38000A128A11B5005008B701B7074F08B60162
:100E4800B6070A128A151F250A128A11831203137C
:100E580034080F39C9004908CB004B085F3E8400AD
:100E680091300318013EFF000A168A1100200A1269
:100E78008A11C8004808D3004B2F4B2F4E088039E1
:100E8800003A0319D12E803A03190A2F4B2F530821
:100E98000A128A152B220A128A11522FFF30831246
:100EA8000313C8004808CD074D08FF3A031D5D2FFE
:100EB8005E2F422F602F602F831203134308C9004F
:100EC8004208C8000130C2070318C30A4908FF00D6
:100ED800480884000A168A1100200A128A11CA00DA
:100EE8004A08D300D308031D7A2F7B2FD52D7D2FD9
:100EF8007D2F08000C1C812F822FEA2F0130AE00B5
:100F08002E08D70710308F008E0157085906031D89
:100F18008E2F8F2FE82F3A30A0009130A1000A12AF
:100F28008A1552260A128A11831203130808AE0082
:100F380004300310AE0CFF3E031D9D2F2E08AF009A
:100F48002F0883160313DD00831203130808AE006D
:100F580006300310AE0CFF3E031DAD2F2E080339DB
:100F6800AF002F08D600D62F83160313D701D70A50
:100F7800E52F14308312AE002E0883160313D70012
:100F8800E52F28308312AE002E0883160313D700EE
:100F9800E52F78308312AE002E0883160313D7008E
:100FA800E52FE52F83125608003A0319B82F013AA6
:100FB8000319BD2F033A0319C52F013A0319CD2F81
:100FC800E52F8312D70158140C10EA2F3308FF00BD
:100FD80032088A0031088400300E8300FE0E7E0E2F
:100FE8000900831603131F088F3910389F00033038
:080FF8009F041D1708000134DD
:10142E0064008001840A0406031900340406182A95
:10143E00F000212A831203130C1E262A272A212AA2
:10144E00282A70089900080083120313B4002F2A6B
:10145E000C1E322A332A2F2A342A34089900080007
:10146E0083120313B800081138080A128A157B225A
:10147E000A128A158312031337080A128A157B2261
:10148E000A128A1583120313081508008316031314
:10149E0087170713023098008312031398018316DF
:1014AE000313181118120C30990083120313981796
:1014BE00831603139816080083120313941614123E
:1014CE001408F0390238940083160313941314177A
:1014DE00823083120313B500DD30B400B40B752ACD
:1014EE00B50B752A7A2A080083120313B600360844
:1014FE0093000330B5009730B400B40B842AB50BBB
:10150E00842A892A8A2A831203138C1D8F2A902AF1
:10151E008A2A912A1308932A080083120313B8000B
:10152E00081138080A128A157B220A128A15003011
:10153E000A128A157B220A128A1583120313B70028
:10154E003708B90008153908AC2A080007300A1206
:10155E008A1594220A128A1583120313BA00BA1E30
:10156E00B92ABA2AC82A1030BA003A08B70027306A
:10157E000A128A1537220A128A150130CB2ACB2A73
:10158E00CB2A0030CB2ACB2A080007300A128A1544
:10159E0094220A128A1583120313BA00BA1ED82A8D
:1015AE00D92AE72A2030BA003A08B70027300A12A3
:1015BE008A1537220A128A150130EA2AEA2AEA2AFD
:1015CE000030EA2AEA2A0800D801D601D70183138F
:1015DE00D5308400DD300A128A1517220A128A15B8
:1015EE00831790308400B0300A128A1517220A121F
:1015FE008A150A128A11FF270A128A15D900830149
:10160E000A128A11252B83120313BB0000300A1213
:10161E008A1594220A128A1583120313BA003A0805
:10162E00BC00BB08031D1C2B1D2B222BFD30BA004A
:10163E003A08BC05242BBC14242B3C08BA003A08EB
:10164E00B70020300A128A1537220A128A150800AE
:10165E0083120313BA0008113A080A128A157B2264
:10166E000A128A1583120313BB01512B370884000B
:10167E00831300080A128A157B220A128A1501307A
:10168E0083120313B9003908B7070130B9003908BE
:10169E00BB07512B38083B02031C562B572B3D2BF7
:1016AE000815080083120313B701E1300A128A15D8
:1016BE0037220A128A1583120313071100300A12F9
:1016CE008A1594220A128A1583120313BA003A0855
:1016DE00BB003B08FE39BA003A08BB003B08BA0013
:1016EE003A08B70020300A128A1537220A128A15D4
:1016FE008312031307150800831203131F08C3393F
:10170E001C389F00831603131D08FC3901389D00F9
:10171E00831203131F1408140D30B500FB30B400F0
:10172E00B40B972BB50B972B9C2B831203139F1483
:10173E00A02B9F18A32BA42BA02BA52B1E08B40007
:10174E003408B6001F1008103608AD2B080083129F
:10175E0003131F08C33914389F00831603131D0883
:10176E00FC3902389D00831203131F1488150330B1
:10177E00B5009730B400B40BC22BB50BC22BC72BE0
:10178E00831203139F14CB2B9F18CE2BCF2BCB2B57
:10179E00D02B1E08B4003408B6001F10881136086E
:1017AE00D82B080083120313BB0007300A128A15C8
:1017BE0094220A128A1583120313BA003A08BC0047
:1017CE003C088039BA003A08BC003C08031DF02BD7
:1017DE00F52B3B08031DF42BFF2BF52BBC08031D2B
:1017EE00F92BFA2B0A2C3B08031DFE2B0A2CFF2B80
:1017FE005330BA003A08B70050300A128A15372211
:10180E000A128A150A2C080083120313B701E2305C
:10181E000A128A1537220A128A1507300A128A15F9
:10182E0094220A128A1583120313BA003A08BB00D7
:10183E003B08BA003A08B70027300A128A15372239
:10184E000A128A1583120313071100300A128A1521
:10185E0094220A128A1583120313BA003A08BB00A7
:10186E003B080138BA003A08BB003B08BA003A08F8
:10187E00B70020300A128A1537220A128A158312EF
:10188E000313071508007908780403194F2C502C00
:10189E00852CFD01FD0A5F2C01300310F80DF90DAA
:1018AE00FF3E031D542C0130FC007C08FD075F2C0D
:1018BE00F91F622C632C532C652C652C79087B0246
:1018CE00031D6B2C78087A02031C6E2C6F2C762C61
:1018DE007808FA027908031CFB03FB02762C013010
:1018EE000310F90CF80CFF3E031D772C0130FD029E
:1018FE00031D822C832C652C852C852C7B08F901ED
:10190E00F9077A08F801F8078C2C080083120313E4
:10191E003D083C040319942C952CCA2CC101C10A14
:10192E00A42C01300310BC0DBD0DFF3E031D992CE0
:10193E000130C0004008C107A42CBD1FA72CA82C45
:10194E00982CAA2CAA2C3D083F02031DB02C3C0853
:10195E003E02031CB32CB42CBB2C3C08BE023D082B
:10196E00031CBF03BF02BB2C01300310BD0CBC0C0B
:10197E00FF3E031DBC2C0130C102031DC72CC82C19
:10198E00AA2CCA2CCA2C3F08BD01BD073E08BC01BB
:10199E00BC07D12C0800F601F70171087004031979
:1019AE00D92CDA2C172DF501F50AE92C013003108C
:1019BE00F00DF10DFF3E031DDE2C0130F400740816
:1019CE00F507E92CF11FEC2CED2CDD2CEF2CEF2C78
:1019DE0001300310F60DF70DFF3E031DF02C7108BC
:1019EE007302031DFC2C70087202031CFF2C002DC9
:1019FE00082D7008F2027108031CF303F30276142B
:101A0E00082D01300310F10CF00CFF3E031D092DC3
:101A1E000130F502031D142D152DEF2C172D172D4A
:101A2E007708F101F1077608F001F0071E2D080086
:101A3E0083120313BA01BB01350834040319282D90
:101A4E00292D662DB901B90A382D01300310B40DB8
:101A5E00B50DFF3E031D2D2D0130B8003808B90716
:101A6E00382DB51F3B2D3C2D2C2D3E2D3E2D0130FE
:101A7E000310BA0DBB0DFF3E031D3F2D3508370277
:101A8E00031D4B2D34083602031C4E2D4F2D572DA2
:101A9E003408B6023508031CB703B7023A14572DA3
:101AAE0001300310B50CB40CFF3E031D582D013050
:101ABE00B902031D632D642D3E2D662D662D3B0848
:101ACE00B501B5073A08B401B4076D2D08008316A9
:101ADE000313A3000A128A1559230A128A15173006
:101AEE000A128A1594220A128A1583160313A0006D
:101AFE002008A400A41A842D852D512E8D3083121A
:101B0E000313C2009130C3000A128A11CE250A12A5
:101B1E008A1583160313A501BF2D9C308312031360
:101B2E00C2009130C30083160313250883120313DA
:101B3E00540783160313A0002008840083130008A3
:101B4E00A100A201210883120313C40083160313FC
:101B5E00220883120313C5000A128A11CE250A1217
:101B6E008A15013083160313A0002008A507BF2D88
:101B7E00831203135508831603132502031CC82D65
:101B8E00C92D942DCA2D993083120313C2009130A2
:101B9E00C3000A128A11CE250A128A158312031364
:101BAE000711540883160313A00020088312031391
:101BBE00B700550883160313A100210883120313DF
:101BCE00B8008316031323080A128A152F230A124C
:101BDE008A15831203130715063083160313A0000C
:101BEE00A00BF72D00008312031307110330831689
:101BFE000313A1009730A000A00B032EA10B032E00
:101C0E00082E402E0A128A15CC220A128A15003A84
:101C1E000319122E132E242E703083120313C200BA
:101C2E009130C3000A128A11CE250A128A150A12A1
:101C3E008A150B240A128A15242E0A128A15AD2231
:101C4E000A128A15003A03192D2E2E2E402EE2303E
:101C5E0083120313C2009030C3000A128A11CE25DC
:101C6E000A128A150A128A150B240A128A15402E98
:101C7E00402E83120313881C452E462E092E472E06
:101C8E009730C2009130C3000A128A11CE250A1273
:101C9E008A15512E0800223083120313A200220847
:101CAE00A600E22F2D08253A03195E2E5F2E662E12
:101CBE002D080A128A151F220A128A15E22FA80170
:101CCE00752EFF2F992E992EA817992E2D080A12D0
:101CDE008A151F220A128A15E22F992E83120313D8
:101CEE002108A3002008A2000130A0070318A10AB2
:101CFE002308FF00220884000A168A1100200A1207
:101D0E008A15AD00003A0319FF2F583A03196B2EAE
:101D1E003C3A0319992E0D3A0319992E113A0319CB
:101D2E006B2E6D2E83120313A81B9E2E9F2EBA2E82
:101D3E002608840083130008A900840A0008AA005C
:101D4E000230A2002208A607AA1FAE2EAF2E372FF2
:101D5E000330A2002208A804A909AA09A90A031996
:101D6E00AA0A372F372F2608840083130008A900EC
:101D7E00840A0008AA000230A2002208A607372F04
:101D8E00372FAD01AD0A2D08053A031DCF2ED02EEB
:101D9E00D22E402F402F2D08A2002207833E840012
:101DAE0090300318013EFF000A168A1100200A1215
:101DBE008A15A3000A168A1100200A128A15A40099
:101DCE0024082A02031DED2E230829020318F02EE3
:101DDE00F12EF32E402F402F0130A2002208AD0726
:101DEE002D08053A031DFC2EFD2ED22E402F402F1E
:101DFE00AD01AD0A2D08043A031D062F072F092F3A
:101E0E00402F402F2D08A20022078D3E84009030D7
:101E1E000318013EFF000A168A1100200A128A15C5
:101E2E00A3000A168A1100200A128A15A40024089B
:101E3E002A02031D242F230829020318272F282FD7
:101E4E002A2F402F402F0130A2002208AD072D0867
:101E5E00043A031D332F342F092F402F402F402FCC
:101E6E0028088039003A0319C82E803A0319FF2E2C
:101E7E00402F280803390319452F462F4D2F2D309B
:101E8E000A128A151F220A128A154D2F8312031366
:101E9E002D08A2002208A700D42FC42F0A30F80064
:101EAE000030F9002708A2002207833E84009030FC
:101EBE000318013EFF000A168A1100200A128A1525
:101ECE00F0000A168A1100200A128A15F1002A085B
:101EDE00F301F3072908F201F2070A128A15D22438
:101EEE000A128A157108FB01FB077008FA01FA073E
:101EFE000A128A154A240A128A157808303E83126D
:101F0E000313A3002308AD00CD2F2708A20022073C
:101F1E008D3E840090300318013EFF000A168A1190
:101F2E0000200A128A15F0000A168A1100200A12E1
:101F3E008A15F1002A08F301F3072908F201F207C6
:101F4E000A128A15D2240A128A1570080F398312C2
:101F5E000313A3002308A50025085F3E84009130DB
:101F6E000318013EFF000A168A1100200A128A1574
:101F7E00A2002208AD00CD2FCD2F28088039003ABF
:101F8E000319552F803A03198C2FCD2F2D080A12C5
:101F9E008A151F220A128A15D42FFF3083120313BB
:101FAE00A2002208A7072708FF3A031DDF2FE02F04
:101FBE00C42FE22FE22F831203132108A30020085F
:101FCE00A2000130A0070318A10A2308FF0022086F
:101FDE0084000A168A1100200A128A15A400240809
:101FEE00AD00AD08031DFC2FFD2F592EFF2FFF2F27
:101FFE000800FF1B0A2883137F1883170008840A22
:10200E000319FF0A08007F087F398A000408840A32
:10201E000319FF0A820040344B340134E234C034D9
:10202E004B3400340034D034FC348C3402349934C4
:10203E00003439344134F9349E3486340B3424342C
:10204E0006347F34A63400340034003400340034B7
:10205E0000340034003400340034003400340034D2
:10206E0000340034003400340034003400340034C2
:10207E00003400340034003473341234003400342D
:10208E008034B434363400340F3401343F340234E7
:10209E003F34033403340434FF3405341734063428
:1020AE0001340734073408340034093400340C3456
:1020BE00C3340D34C4340E34C5340F34C634113425
:1020CE002034123420341334203414342034153494
:1020DE00203416342034173400341C343F341D346D
:1020EE000734413420340834043481342034CF345E
:1020FE00F734FE34FF34FF34013400340A34003434
:10210E0064340034E834033410342734013400349A
:10211E001034003400340134003410343434433479
:10212E001034103401343934383437343634C23440
:10213E001C343F341D3407345634733474346F34C6
:10214E00723461346734653420344F344B34203468
:10215E006F34723420346D346534613473347534B5
:10216E0072346534203473346B34693470347034A3
:10217E00653464343A342034253464340D340A34EE
:10218E0000345634533474346F34723461346734DB
:10219E0065343A34203425346434203420343D34CC
:1021AE003E3420346E346F34743420344F344B3418
:1021BE000D340A3400344E346F34203464346134B8
:1021CE00743461342034733465346E3474343A3478
:1021DE0020344534523452344F34523420340D347A
:1021EE000A34203400345634733474346F347234F9
:1021FE00613467346534203474346F346F34203472
:10220E006C346F3477343A342034253464340D34DE
:10221E000A34003453346C346534653470342034ED
:10222E0063346F3475346E347434653472342034E0
:10223E003D342034253464340D340A3400345334A0
:10224E006C34653465347034203463346F347534D3
:10225E006E347434653472343A3420342534583440
:10226E000D340A3400344534633463346F346D34C2
:10227E00693420346E3465346C346C34273449340C
:10228E005334523421340D340A34003453346C3404
:10229E006534653470343A34203425346434203453
:1022AE006F346E342034253464340D340A340034E3
:1022BE0030343134323433343434353436343734D4
:1022CE00383439344134423443344434453446345A
:1022DE0000344434613474346134203473346534DE
:1022EE006E3474343A3420344F344B3420340D343D
:1022FE000A340034523465346334653469347634C8
:10230E0069346E3467343A342034003453346534CF
:10231E006E34643469346E3467343A3420340034A5
:10232E000A340D340A340D34003425345834003454
:04400E00F5FFCFFFEC
:00000001FF
