:060000000A128A11122809
:10000800FE00030E83120313B1000408B2000A08AD
:10001800B3007F08B4000A128A11882F0A168A11C1
:10002800F62B00308316031793000030920000303F
:10003800910000309000831603131008CF39203840
:1000480090008316031707138713831603130713E8
:1000580083160317071108118712881083160313D4
:100068000915831603170915831603130812831637
:1000780003170812831203130812831603130511BA
:10008800831603170511831203130515831603132B
:100098000711081187118712071688148312031392
:1000A8000711081587118712831603130810831682
:1000B8000317081083160313091583160317091568
:1000C80083160313091483160317091083120313E5
:1000D80008108316031309148316031709148316CB
:1000E80003138811831203138811831603138816C8
:1000F80083160317881283160313081788178316A5
:100108000317081388138B170B17831603130C1484
:100118001030831203138F008E0110083F39803886
:10012800900030309004831603138F178312031343
:10013800101590151014831603130614831603174D
:1001480006108316031305108510851105128512F4
:1001580005138513831603170510851085110512DD
:100168008512051385138312031305108510851155
:1001780005128512051385138316031386100611BD
:100188008611061286128316031786100611861129
:10019800061286128312031386100611861106169C
:1001A800861283160313891483160317891483127E
:1001B800031389100A168A117D220A128A110A1657
:1001C8008A1167220A128A110A168A110F220A1244
:1001D8008A1100300A168A1126230A128A118312FC
:1001E8000313080883160313DB0006300310DB0C27
:1001F800FF3E031DFA285B080339DC005C08831204
:100208000313D5002630C3009130C4005508831667
:100218000313DB00DC015B0883120313C50083169C
:1002280003135C0883120313C6000A128A150026FA
:100238000A128A1163003C296300FA3083120313FF
:10024800C3009030C400831603134708DB00DC01A9
:100258005B0883120313C500831603135C0883121B
:100268000313C6000A128A1500260A128A113C29AD
:100278000A168A119F230A128A1183160313DB00B8
:1002880058305B02031849294A297329831203133A
:10029800881A4F29502973290A168A1155240A12D7
:1002A8008A110A168A1105230A128A118312031366
:1002B8003D08C5003E08C6003F08C7000030C8001A
:1002C8000030C9000030CA000A168A11BC260A127A
:1002D8008A11031C70297129202973297329A330D5
:1002E80083120313C3009030C40083160313470816
:1002F800DB00DC015B0883120313C50083160313BC
:100308005C0883120313C6000A128A1500260A1213
:100318008A110A128A11FC230A128A1100300A165D
:100328008A1126230A128A11630083160313C20155
:10033800C3019E2901300A168A1126230A128A113E
:100348000A168A119F230A128A1183160313DB00E7
:100358005B08E3004208DB005B08E4004308DB00BD
:100368005B08E50083120313540883160313DB00AC
:100378005B08E6004008DB005B08E7004108DB009B
:100388005B08E8000A168A1155240A128A11831696
:100398000313DB005B08E9005F0883120313B50051
:1003A80083160313600883120313B600831603131E
:1003B800610883120313B7000A168A115A270A1212
:1003C8008A1183120313350883160313DB005B08B5
:1003D800EA005F0883120313B5008316031360084D
:1003E80083120313B60083160313610883120313E1
:1003F800B7000A168A115A270A128A1183120313A0
:10040800360883160313DB005B08EB0059306302E0
:1004180003180F2A102A172A83120313881E152A75
:10042800162A432A172A0A168A1125240A128A111B
:1004380083160313DB005B08E20083120313D4174F
:10044800540883160313DB005B08E600E230DB0088
:100458005B0883120313CC000A3083160313DC00F5
:100468005C0883120313CD00B0300A128A151A21D2
:100478000A128A1183160313C001C101292B003007
:100488008312C5000030C6000030C700831603136E
:1004980069080A168A1105230A128A11831203139E
:1004A8003D08C8003E08C9003F08CA000A168A115C
:1004B800BC260A128A110318622A632AB22A8316F2
:1004C800031363084702031C6A2A6B2AB22A8312A1
:1004D80003130618702A712AB22A05110A168A11FE
:1004E80025240A128A1183160313DB005B08E20035
:1004F8000A168A1155240A128A1183160313DB007F
:100508005B08E9007F30DB005B0883120313D40526
:10051800540883160313DB005B08E600E230DB00B7
:100528005B0883120313CC000A3083160313DC0024
:100538005C0883120313CD00B0300A128A151A2101
:100548000A128A1183120313051500308316031348
:10055800DF002030E0004130E100292B0030831219
:100568000313C5000030C6000030C700831603130C
:1005780069080A168A1105230A128A1183120313BD
:100588003D08C8003E08C9003F08CA000A168A117B
:10059800BC260A128A110318D22AD32A0C2B8316D6
:1005A800031363084702031CDA2ADB2A0C2B831285
:1005B8000313061CE02AE12A0C2B7F308316031351
:1005C800DB005B0883120313D40554088316031356
:1005D800DB005B08E600E230DB005B0883120313F4
:1005E800CC000A3083160313DC005C088312031363
:1005F800CD00B0300A128A151A210A128A11003069
:1006080083160313DF002030E0004130E100292B7E
:10061800C83083120313C3009030C4008316031339
:100628006308DB00DC015B0883120313C500831633
:1006380003135C0883120313C6000A128A150026E6
:100648000A128A11292B292B292B8312031307112C
:1006580000300A168A1126230A128A1183120313FC
:10066800101010308F008E0110140A168A119F2363
:100678000A128A1183160313DB005B08C7001130C6
:1006880083120313C3009130C40055088316031363
:10069800DB00DC015B0883120313C5008316031318
:1006A8005C0883120313C6000A128A1500260A1270
:1006B8008A11831603179401E12B4D30831203131B
:1006C800C3009130C400831603171408831603135C
:1006D800DB00DC015B0883120313C50083160313D8
:1006E8005C0883120313C600831603134608DD0053
:1006F800DE015D0883120313C700831603135E0827
:1007080083120313C8000A128A1500260A128A11D6
:100718000A128A15EC220A128A1183160313460854
:10072800DB00DC015B0883120313BB008316031391
:100738005C0883120313BC00831603134508DD000D
:10074800DE01DD09DE09DD0A0319DE0A44085D075A
:1007580083120313B500831603135E0803185E0A99
:1007680083120313B6008316031344084507831244
:100778000313B700B801B80D0A168A11CA230A1262
:100788008A11831203133608BE01BE073508BD015E
:10079800BD070A168A11CB250A128A118312031380
:1007A8003B0883160313C0070318C10A83120313F7
:1007B8003C0883160313C107E12B01308316031786
:1007C8009407FF30140783160313DB0046085B0207
:1007D800031CEF2BF02B612BF12B0130C207031800
:1007E800C30A0030C3079E299E290A128A111228BB
:1007F800033083120313C0000830BF007830BE00F6
:10080800BE0B042CBF0B042CC00B042C00300A16A2
:100818008A1185240A128A1183160313D40114300D
:100828005402031C182C192C1B2C532C532C031466
:10083800540D4A3E840090300318013E831203137E
:10084800FF000A168A1100200A128A11BE003E080B
:10085800B80083160313540883120313BF003F071D
:100868004A3E840090300318013EFF000A168A11A0
:1008780000200A128A1120380A168A1151220A12F7
:100888008A11013083120313BE003E088316031336
:10089800D40714305402031C522C532C1B2CD501A2
:1008A80005305502031C592C5A2C5C2C822C822CA6
:1008B8005508953E840090300318013E83120313B7
:1008C800FF000A168A1100200A128A11BE00831638
:1008D80003135508C83E8400831203133E0883138C
:1008E80080000130BE003E0883160313D50705308B
:1008F8005502031C802C812C5C2C822CC83083125E
:100908000313BE003E08B8000530BF003F08B90019
:100918002A300A168A114B230A128A1183160313E6
:10092800D50105305502031C9A2C9B2C9D2CC32CF9
:10093800C32C55089A3E840090300318013E831258
:100948000313FF000A168A1100200A128A11BE003A
:10095800831603135508C83E8400831203133E0808
:10096800831380000130BE003E0883160313D507A9
:1009780005305502031CC12CC22C9D2CC32CC83039
:1009880083120313BE003E08B8000530BF003F08BD
:10099800B9002B300A168A114B230A128A118316C2
:1009A8000313D50105305502031CDB2CDC2CDE2C8F
:1009B800042D042D5508953E840090300318013EFF
:1009C80083120313FF000A168A1100200A128A11E3
:1009D800BE00831603135508C83E84008312031310
:1009E8003E08831380000130BE003E0883160313BF
:1009F800D50705305502031C022D032DDE2C042DCE
:100A0800C83083120313BE003E08B8000530BF008B
:100A18003F08B90030300A168A114B230A128A118E
:100A28001D300A168A11AE220A128A118312031384
:100A3800BE003E0883160313D400D408031D252DD9
:100A4800262D332D733083120313BE003E08B800E1
:100A580050300A168A1151220A128A11332D163083
:100A680083120313BE003E0883160313D400153007
:100A780054020318402D412D432D782D782D031451
:100A8800540D4A3E840090300318013E831203132C
:100A9800FF000A168A1100200A128A11BE003E08B9
:100AA800B80083160313540883120313BF003F07CB
:100AB8004A3E840090300318013EFF000A168A114E
:100AC80000200A128A1120380A168A1151220A12A5
:100AD8008A11013083160313D40215305402031807
:100AE800762D772D432D782D01300A168A1185240D
:100AF8000A128A1183160313D40109305402031C05
:100B0800862D872D892D0F2E0F2ED50104305502E5
:100B1800031C8F2D902D922DED2DED2D5408831251
:100B28000313BE0001300310BE0DFF3E031D972DB9
:100B380003103E0D123E840090300318013EFF0062
:100B48000A168A1100200A128A11BF000A168A1191
:100B580000200A128A11C0000A168A1100200A12FF
:100B68008A11C1000A168A1100200A128A11C200CD
:100B780083160313550883120313C30002300310AE
:100B8800C30DFF3E031DC32D0310430D013ED12DA0
:100B98000310C20CC10CC00CBF0CFF3E031DCC2DB2
:100BA8003F08C400831603135508C83E8400831207
:100BB80003134408831380000130BE003E088316E7
:100BC8000313D50704305502031CEB2DEC2D922D91
:100BD800ED2DC83083120313BE003E08B800043060
:100BE800BF003F08B90083160313540820380A16BB
:100BF8008A114B230A128A11013083120313BE0093
:100C08003E0883160313D40709305402031C0D2E23
:100C18000E2E892D0F2E093083120313BE003E08B5
:100C280083160313D4000E305402031C1C2E1D2EF1
:100C38001F2EA62EA62ED50104305502031C252EE4
:100C4800262E282E852E852E540883120313BE00C7
:100C580001300310BE0DFF3E031D2D2E03103E0D67
:100C6800123E840090300318013EFF000A168A11D4
:100C780000200A128A11BF000A168A1100200A12DF
:100C88008A11C0000A168A1100200A128A11C100AE
:100C98000A168A1100200A128A11C2008316031349
:100CA8005503FF3A83120313C30002300310C30D28
:100CB800FF3E031D5A2E0310430D183E013E692EB8
:100CC8000310C20CC10CC00CBF0CFF3E031D642EE8
:100CD8003F08C400831603135508C83E84008312D6
:100CE80003134408831380000130BE003E088316B6
:100CF8000313D50704305502031C832E842E282E97
:100D0800852EC83083120313BE003E08B800043095
:100D1800BF003F08B90083160313540820380A1689
:100D28008A114B230A128A11013083120313BE0061
:100D38003E0883160313D4070E305402031CA52E55
:100D4800A62E1F2ED5010B305502031CAC2EAD2E3E
:100D5800AF2ED52ED52E5508783E84009030031836
:100D6800013E83120313FF000A168A1100200A129B
:100D78008A11BE00831603135508C83E84008312E7
:100D880003133E08831380000130BE003E0883161B
:100D98000313D5070B305502031CD32ED42EAF2EC8
:100DA800D52EC83083120313BE003E08B8000B309E
:100DB800BF003F08B9002E300A168A114B230A12C9
:100DC8008A1183160313D50104305502031CED2E36
:100DD800EE2EF02E3F2F3F2F2230840090308312CA
:100DE8000313FF000A168A1100200A128A11BE0096
:100DF8000A168A1100200A128A11BF000A168A11DF
:100E080000200A128A11C0000A168A1100200A124C
:100E18008A11C10083160313550883120313C200F5
:100E280002300310C20DFF3E031D152F0310420DA3
:100E3800013E232F0310C10CC00CBF0CBE0CFF3E9B
:100E4800031D1E2F3E08C300831603135508C83E12
:100E58008400831203134308831380000130BE000B
:100E68003E0883160313D50704305502031C3D2F93
:100E78003E2FF02E3F2F4808063883120313BE007A
:100E88003E0883160313C800C83083120313BE003C
:100E98003E08B8000430BF003F08B90024300A16E5
:100EA8008A114B230A128A11831603134808F93949
:100EB80083120313BE003E0883160313C800C8300C
:100EC80083120313BE003E08B8000430BF003F0879
:100ED800B90024300A168A114B230A128A1182306B
:100EE80083120313BF00DD30BE00BE0B792FBF0B8A
:100EF800792F7E2F00300A168A1185240A128A114A
:100F080083120313071108000C1C8B2F8C2FF52F4D
:100F18000130AE002E08D60710308F008E0156081B
:100F28005906031D982F992FF32F3A30A0009130BE
:100F3800A1000A128A1552240A128A118312031375
:100F48000808AE0005300310AE0CFF3E031DA72FA6
:100F580007302E05AF00540880392F04B000300840
:100F6800D4000808AE0006300310AE0CFF3E031D87
:100F7800B82F2E080339AF002F08D500E12F8316AC
:100F88000313C601C60AF02F14308312AE002E08D0
:100F980083160313C600F02F28308312AE002E08E4
:100FA80083160313C600F02F78308312AE002E0884
:100FB80083160313C600F02FF02F83125508003A4A
:100FC8000319C32F013A0319C82F033A0319D02F65
:100FD800013A0319D82FF02F8312D6015A140C1096
:100FE800F52F3408FF0033088A0032088400310ED8
:100FF8008300FE0E7E0E09001A3400340134831279
:101008000313BB01BC013608350403190C280D284D
:101018004A28BA01BA0A1C2801300310B50DB60DCA
:10102800FF3E031D11280130B9003908BA071C28F2
:10103800B61F1F2820281028222822280130031034
:10104800BB0DBC0DFF3E031D232836083802031DC7
:101058002F2835083702031C322833283B28350847
:10106800B7023608031CB803B8023B143B2801300A
:101078000310B60CB50CFF3E031D3C280130BA0224
:10108800031D4728482822284A284A283C08B60130
:10109800B6073B08B501B5075128080083120313AA
:1010A8004008C3004108C4004208C5000310440DAD
:1010B800450DC6004608CB00CB08031D64286528EB
:1010C8006D280030BD000030BE000030BF00192977
:1010D80019293D08C3003E08C4003F08C500031095
:1010E800440D450DC6004608CC00CC08031D7D28DC
:1010F8007E2886280030BD000030BE000030BF00CA
:10110800192919290030C8000030C9000030CA0068
:1011180089304C07C3004308CB024008C30041088C
:10112800C4004208C50010300310C50CC40CC30C21
:10113800FF3E031D98284308C6004608CC003D081A
:10114800C3003E08C4003F08C50010300310C50C9A
:10115800C40CC30CFF3E031DAA284308C60046085A
:10116800CC068030C3004308CC05C117FF30C0054A
:10117800FF30C1050030C205BE17FF30BD05FF3086
:10118800BE050030BF051830C3004308C700CC288F
:1011980001300310C80DC90DCA0DFF3E031DCD282F
:1011A8003F084202031DDE283E084102031DDE28D7
:1011B8003D084002031CE128E228EE283D08C00251
:1011C8003E08031C3E0FC1023F08031C3F0AC2022F
:1011D8004814EE2801300310C00DC10DC20DFF3EAA
:1011E800031DEF280130C702031DFB28FC28CC286B
:1011F800FD284808B5004908B6004A08B7004B085A
:10120800C3004308B8004C08C4004408B9000A16D3
:101218008A113F260A128A15831203133508BD0066
:101228003608BE003708BF001929080083160313C3
:10123800D4000A168A1175230A128A1517300A165D
:101248008A11AE220A128A1583160313D100510897
:10125800D500D51A30293129FD298D308312031381
:10126800C3009130C4000A128A1500260A128A1592
:1012780083160313D6016B299C3083120313C30012
:101288009130C400831603135608831203134C07C6
:1012980083160313D1005108840083130008D20079
:1012A800D301520883120313C5008316031353088E
:1012B80083120313C6000A128A1500260A128A1519
:1012C800013083160313D1005108D6076B29831206
:1012D80003134D08831603135602031C742975293A
:1012E80040297629993083120313C3009130C40032
:1012F8000A128A1500260A128A1583120313071187
:101308004C0883160313D100510883120313B80045
:101318004D0883160313D200520883120313B90031
:101328008316031354080A168A114B230A128A15C6
:10133800831203130715063083160313D100D10B4C
:10134800A329000083120313071103308316031324
:10135800D2009730D100D10BAF29D20BAF29B429D5
:10136800EC290A168A11E6220A128A15003A03198C
:10137800BE29BF29D029703083120313C3009130CE
:10138800C4000A128A1500260A128A150A168A113A
:10139800B7240A128A15D0290A168A11C7220A12F6
:1013A8008A15003A0319D929DA29EC29E23083127F
:1013B8000313C3009030C4000A128A1500260A12CB
:1013C8008A150A168A11B7240A128A15EC29EC29FB
:1013D80083120313881CF129F229B529F3299730C0
:1013E800C3009130C4000A128A1500260A128A1511
:1013F800FD290800831203133D08C3003E08C400FA
:101408003F08C5000310440D450DC6004608C70037
:10141800C708031D102A112A192A0030BD00003000
:10142800BE000030BF00EB2AEB2A4008C300410889
:10143800C4004208C5000310440D450DC600460807
:10144800CC00CC08031D292A2A2A322A0030BD00E4
:101458000030BE000030BF00EB2AEB2A4C087B3E70
:10146800C3004308C7073D08C3003E08C4003F083F
:10147800C50010300310C50CC40CC30CFF3E031D7F
:101488003E2A4308C6004608CC004008C30041086D
:10149800C4004208C50010300310C50CC40CC30CAE
:1014A800FF3E031D502A4308C6004608CC0680307C
:1014B800C3004308CC05BE17C117FF30C005FF3075
:1014C800C1050030C2050030C8000030C900003036
:1014D800CA000730C3004308CB00722A3D1C752A96
:1014E800762A872A4008C807410803110318410AC9
:1014F80003197F2AC907420803110318420A03196E
:10150800862ACA07872A01300310BF0CBE0CBD0CFF
:10151800FF3E031D882A01300310C00DC10DC20D06
:10152800FF3E031D902A0130CB02031D9C2A9D2AF1
:10153800722A9E2A0930C3004308CB00A32A3D1C07
:10154800A62AA72AB82A4008C80741080311031881
:10155800410A0319B02AC907420803110318420AAD
:101568000319B72ACA07B82A01300310BF0CBE0CEA
:10157800BD0CFF3E031DB92A01300310CA0CC90C6B
:10158800C80CFF3E031DC12A0130CB02031DCD2A22
:10159800CE2AA32ACF2A4808B5004908B6004A0827
:1015A800B7004708C3004308B8004C08C400440803
:1015B800B9000A168A113F260A128A1583120313E4
:1015C8003508BD003608BE003708BF00EB2A080002
:1015D8000A168A119F230A128A1583120313CD0053
:1015E8004D0883160313C7005F0883120313B50061
:1015F80083160313600883120313B60083160313BC
:10160800610883120313B7000A168A115A270A12AF
:101618008A15831203133608D101D1073508D00182
:10162800D0077A30831603134702031C1C2B1D2B8B
:10163800452C83120313510850040319242B252B1E
:10164800452C881A282B292B452C83120317940123
:10165800A03093008312031310105108CE005008D5
:10166800CD000230FF000310CD0DCE0DFF0B372B40
:10167800CD09CE09CD0A0319CE0A4D08D2004E086D
:10168800D30053088F0052088E0010146300831291
:10169800031793018312031305150A168A119F2352
:1016A8000A128A1583120313CD004D08CF00520980
:1016B800CD005309CE00CD0A0319CE0A4D08003ECD
:1016C800D2004E080318013E103ED30010105308F4
:1016D8008F0052088E0010146300831203134F0802
:1016E80083160313470203187A2B7B2B812B470899
:1016F80083120313CD004D08CF0083160313470848
:1017080083120313CD004D0883160313C4008312FC
:1017180003134F08CD004D0883160313C500593035
:10172800831203134F02031C9A2B9B2BEF2B831658
:1017380003135F0883120313C5008316031360089D
:1017480083120313C600831603136108831203135D
:10175800C7004030C8001C30C9004630CA000A160D
:101768008A11BC260A128A150318BB2BBC2B512CD4
:10177800663083120313BD008630BE003F30BF00C1
:10178800831603135F0883120313C0008316031321
:10179800600883120313C1008316031361088312C0
:1017A8000313C2000A128A15FE210A128A1583122F
:1017B80003133D0883160313DF00831203133E0847
:1017C80083160313E000831203133F0883160313E1
:1017D800E100512C512C00308312C5000030C600A6
:1017E8000030C700831603135F0883120313C80071
:1017F80083160313600883120313C90083160313A7
:10180800610883120313CA000A168A11BC260A1239
:101818008A150318102C112C512C663083120313CF
:10182800BD008630BE003F30BF00831603135F083B
:1018380083120313C0008316031360088312031373
:10184800C10083160313610883120313C2000A122E
:101858008A1552200A128A15831203133D0883162B
:101868000313DF00831203133E0883160313E000FB
:10187800831203133F0883160313E100512C512CE4
:10188800512C8312101010308F008E011014630039
:1018980083160313C401C501512C0800223083129A
:1018A8000313A2002208A600E22D2D08253A0319E9
:1018B8005E2C5F2C662C2D080A168A1119220A1232
:1018C8008A15E22DA801752CFF2D992C992CA817A3
:1018D800992C2D080A168A1119220A128A15E22D46
:1018E800992C831203132108A3002008A2000130B9
:1018F800A0070318A10A2308FF00220884000A167B
:101908008A1100200A128A15AD00003A0319FF2D2A
:10191800583A03196B2C3C3A0319992C0D3A0319C0
:10192800992C113A03196B2C6D2C83120313A81BE5
:101938009E2C9F2CBA2C2608840083130008A9002B
:10194800840A0008AA000230A2002208A607AA1FDB
:10195800AE2CAF2C372D0330A2002208A804A90909
:10196800AA09A90A0319AA0A372D372D26088400BF
:1019780083130008A900840A0008AA000230A20004
:101988002208A607372D372DAD01AD0A2D08053AD7
:10199800031DCF2CD02CD22C402D402D2D08A20079
:1019A8002207833E840090300318013EFF000A1688
:1019B8008A1100200A128A15A3000A168A1100202B
:1019C8000A128A15A40024082A02031DED2C2308F4
:1019D80029020318F02CF12CF32C402D402D013056
:1019E800A2002208AD072D08053A031DFC2CFD2C8A
:1019F800D22C402D402DAD01AD0A2D08043A031D0F
:101A0800062D072D092D402D402D2D08A200220757
:101A18008D3E840090300318013EFF000A168A119B
:101A280000200A128A15A3000A168A1100200A1239
:101A38008A15A40024082A02031D242D230829023C
:101A48000318272D282D2A2D402D402D0130A200C6
:101A58002208AD072D08043A031D332D342D092D16
:101A6800402D402D402D28088039003A0319C82CF4
:101A7800803A0319FF2C402D280803390319452DF6
:101A8800462D4D2D2D300A168A1119220A128A1553
:101A98004D2D831203132D08A2002208A700D42D70
:101AA800C42D0A30F8000030F9002708A2002207E8
:101AB800833E840090300318013EFF000A168A1105
:101AC80000200A128A15F0000A168A1100200A124C
:101AD8008A15F1002A08F301F3072908F201F20731
:101AE8000A168A117E250A128A157108FB01FB075E
:101AF8007008FA01FA070A168A11F6240A128A15DA
:101B08007808303E83120313A3002308AD00CD2DBF
:101B18002708A20022078D3E840090300318013E5A
:101B2800FF000A168A1100200A128A15F0000A1608
:101B38008A1100200A128A15F1002A08F301F30716
:101B48002908F201F2070A168A117E250A128A1557
:101B580070080F3983120313A3002308A500250872
:101B68005F3E840091300318013EFF000A168A1177
:101B780000200A128A15A2002208AD00CD2DCD2D15
:101B880028088039003A0319552D803A03198C2DFD
:101B9800CD2D2D080A168A1119220A128A15D42D5C
:101BA800FF3083120313A2002208A7072708FF3A71
:101BB800031DDF2DE02DC42DE22DE22D831203132A
:101BC8002108A3002008A2000130A0070318A10AD9
:101BD8002308FF00220884000A168A1100200A122E
:101BE8008A15A4002408AD00AD08031DFC2DFD2DA9
:101BF800592CFF2DFF2D0800453083120313C9000F
:101C0800490883160313C900E02F5008253A031921
:101C18000E2E0F2E162E50080A168A1125220A1289
:101C28008A15E02FCB01252EFF2F4B2E4B2ECB17DD
:101C38004B2E50080A168A1125220A128A15E02FFF
:101C48004B2E831203134408CA004308C90001300D
:101C5800C3070318C40A4A08FF00490884000A1683
:101C68008A1100200A128A1583160313D000003A3D
:101C78000319FF2F583A03191B2E3C3A03194B2E10
:101C88000D3A03194B2E113A03191B2E1D2E8316DC
:101C98000313CB1B502E512E742E49088400831336
:101CA8000008CC00840A0008CD0002308312031318
:101CB800C900490883160313C907CD1F642E652E72
:101CC8000D2F033083120313C90049088316031329
:101CD800CB04CC09CD09CC0A0319CD0A0D2F0D2F41
:101CE8004908840083130008CC00840A0008CD004A
:101CF800023083120313C900490883160313C90766
:101D08000D2F0D2FD001D00A5008053A031D8D2E36
:101D18008E2E902E162F162F500883120313C900EB
:101D28004907833E840090300318013EFF000A16DD
:101D38008A1100200A128A15CA000A168A11002080
:101D48000A128A15CB004B08831603134D02031D94
:101D5800B32E831203134A08831603134C02031885
:101D6800B62EB72EB92E162F162F01308312031355
:101D7800C900490883160313D0075008053A031D04
:101D8800C62EC72E902E162F162FD001D00A500817
:101D9800043A031DD02ED12ED32E162F162F5008FD
:101DA80083120313C90049078D3E8400903003183D
:101DB800013EFF000A168A1100200A128A15CA007D
:101DC8000A168A1100200A128A15CB004B088316BE
:101DD80003134D02031DF62E831203134A088316BC
:101DE80003134C020318F92EFA2EFC2E162F162F69
:101DF800013083120313C900490883160313D0075F
:101E08005008043A031D092F0A2FD32E162F162F18
:101E1800162F4B088039003A0319862E803A031989
:101E2800C92E162F4B08033903191B2F1C2F232FDC
:101E38002D300A168A1125220A128A15232F831695
:101E48000313500883120313C900490883160313A8
:101E5800CA00D02FC02F0A3083120313BD000030F0
:101E6800BE00831603134A0883120313C9004907E7
:101E7800833E840090300318013EFF000A168A1141
:101E880000200A128A15B5000A168A1100200A12C3
:101E98008A15B600831603134D0883120313B8017D
:101EA800B807831603134C0883120313B701B70747
:101EB8000A128A1503200A128A1583120313360898
:101EC800C001C0073508BF01BF070A168A113925A6
:101ED8000A128A15831203133D08303ECA004A08C5
:101EE80083160313D000C92F4A0883120313C900AD
:101EF80049078D3E840090300318013EFF000A1602
:101F08008A1100200A128A15B5000A168A110020C3
:101F18000A128A15B600831603134D088312031399
:101F2800B801B807831603134C0883120313B701CB
:101F3800B7070A128A1503200A128A158312031397
:101F480035080F39CA004A0883160313C800480821
:101F58005F3E840091300318013E83120313FF0093
:101F68000A168A1100200A128A15C9004908831620
:101F78000313D000C92FC92F4B088039003A031921
:101F88002F2F803A0319782FC92F50080A168A1163
:101F980025220A128A15D02FFF3083120313C90095
:101FA800490883160313CA074A08FF3A031DDD2FA1
:101FB800DE2FC02FE02FE02F831203134408CA003E
:101FC8004308C9000130C3070318C40A4A08FF00C0
:101FD800490884000A168A1100200A128A15CB00C3
:101FE8004B0883160313D000D008031DFC2FFD2FC8
:101FF800092EFF2FFF2F0800FF1B0A2883137F18C5
:1020080083170008840A0319FF0A08007F087F392C
:102018008A000408840A0319FF0A820040344B34FA
:102028000134E234C0344B3400340034D034FC344E
:102038008C3402349934003439344134F9349E34C0
:1020480086340B34243406347F34A6340034003408
:1020580000340034003400340034003400340034D8
:1020680000340034003400340034003400340034C8
:102078000034003400340034003400340034733445
:102088001234003400348034B434363400340F341D
:1020980001343F3402343F34033403340434FF340E
:1020A800053417340634013407340734083400344F
:1020B800093400340C34C3340D34C4340E34C534FC
:1020C8000F34C634113420341234203413342034FD
:1020D80014342034153420341634203417340034A2
:1020E8001C343F341D34073441342034083404345C
:1020F80081342034CF34F734FE34FF34FF340134D4
:1021080000340A34003464340034E83403341034BE
:1021180027340134003410340034003401340034DE
:1021280010343434433410341034013439343834EE
:1021380037343634C2341C343F341D3407345634F3
:10214800733474346F3472346134673465342034D2
:102158004F344B3420346F34723420346D3465344A
:1021680061347334753472346534203473346B34A9
:10217800693470347034653464343A342034253426
:1021880064340D340A3400345634533474346F34A0
:1021980072346134673465343A3420342534643415
:1021A800203420343D343E3420346E346F3474345B
:1021B80020344F344B340D340A3400344E346F34E9
:1021C80020346434613474346134203473346534B5
:1021D8006E3474343A3420344534523452344F34E3
:1021E800523420340D340A342034003456347334D5
:1021F80074346F3472346134673465342034743421
:102208006F346F3420346C346F3477343A3420347C
:10221800253464340D340A34003453346C34653452
:1022280065347034203463346F3475346E347434E8
:102238006534723420343D342034253464340D340C
:102248000A34003453346C346534653470342034C3
:1022580063346F3475346E347434653472343A349C
:102268002034253458340D340A340034453463346A
:1022780063346F346D34693420346E3465346C34AF
:102288006C34273449345334523421340D340A34ED
:10229800003453346C346534653470343A34203443
:1022A8002534643420346F346E3420342534643457
:1022B8000D340A3400343034313432343334343465
:1022C800353436343734383439344134423443348D
:1022D800443445344634003444346134743461340D
:1022E8002034733465346E3474343A3420344F34C3
:1022F8004B3420340D340A3400345234653463349A
:1023080065346934763469346E3467343A34203449
:102318000034533465346E34643469346E3467344D
:102328003A34203400340A340D340A340D3400347D
:0623380025345834003486
:10240E0064008001840A0406031900340406082AB5
:10241E00831603131F088F3910389F0003309F0453
:10242E001D170800F0001B2A831203130C1E202A0E
:10243E00212A1B2A222A70089900080083120313EE
:10244E00B500292A0C1E2C2A2D2A292A2E2A3508B7
:10245E009900080000342034413400340034003434
:10246E0000340034AA34AA34AA34AA3400347E08C4
:10247E008A007F0882000A168A113E220A168A11E5
:10248E008000840A04087D0603190034FF0A03192C
:10249E00FE0A422A83120313B900081139080A16DC
:1024AE008A1195220A168A118312031338080A1606
:1024BE008A1195220A168A11831203130815080031
:1024CE008316031387170713023098008312031322
:1024DE00980183160313181118120C3099008312E9
:1024EE000313981783160313981608008312031309
:1024FE00941614121408F03902389400831603133C
:10250E0094131417823083120313B600DD30B50016
:10251E00B50B8F2AB60B8F2A942A08008312031349
:10252E00B700370893000330B6009730B500B50BEF
:10253E009E2AB60B9E2AA32AA42A831203138C1D4D
:10254E00A92AAA2AA42AAB2A1308AD2A08008312A4
:10255E000313B900081139080A168A1195220A16B2
:10256E008A1100300A168A1195220A168A118312D0
:10257E000313B8003808BA0008153A08C62A08002E
:10258E0007300A168A11AE220A168A118312031315
:10259E00BB00BB1ED32AD42AE22A1030BB003B0854
:1025AE00B80027300A168A1151220A168A110130F4
:1025BE00E52AE52AE52A0030E52AE52A0800073053
:1025CE000A168A11AE220A168A1183120313BB0051
:1025DE00BB1EF22AF32A012B2030BB003B08B800A9
:1025EE0027300A168A1151220A168A110130042B3D
:1025FE00042B042B0030042B042B0800831203132E
:10260E00C4004408C000C101C2014008B500410821
:10261E00B6004208B7008E30C3004308B800B901B7
:10262E000A168A113F260A168A11831203133508D9
:10263E00BD003608BE003708BF00252B08008312E8
:10264E000313BC0000300A168A11AE220A168A1134
:10265E0083120313BB003B08BD00BC08031D382BBF
:10266E00392B3E2BFD30BB003B08BD05402BBD1466
:10267E00402B3D08BB003B08B80020300A168A11DB
:10268E0051220A168A11080083120313BB00081187
:10269E003B080A168A1195220A168A118312031311
:1026AE00BC016D2B38088400831300080A168A11AA
:1026BE0095220A168A11013083120313BA003A08C2
:1026CE00B8070130BA003A08BC076D2B39083C0236
:1026DE00031C722B732B592B08150800831203133E
:1026EE00B801E1300A168A1151220A168A11831294
:1026FE000313071100300A168A11AE220A168A1128
:10270E0083120313BB003B08BC003C08FE39BB0020
:10271E003B08BC003C08BB003B08B80020300A1642
:10272E008A1151220A168A11831203130715080003
:10273E00831203131F08C33914389F008316031323
:10274E001D08FC3902389D00831203131F148815CF
:10275E000330B6009730B500B50BB32BB60BB32BC9
:10276E00B82B831203139F14BC2B9F18BF2BC02BA7
:10277E00BC2BC12B1E08B5003508B7001F108811E1
:10278E003708C92B080083120313B901BA01CF2BE6
:10279E00351CD22BD32BD92B3708B9070318BA0AFD
:1027AE003808BA0701300310B70DB80DFF3E031DF0
:1027BE00DA2B01300310B60CB50CFF3E031DE12BD6
:1027CE0036083504031DEC2BED2BCF2BEE2B3A08E0
:1027DE00B601B6073908B501B507F52B0800DA01C1
:1027EE00D001D101D201D301D401D501D601831379
:1027FE00A0308400C8300A168A1107220A168A11E0
:10280E00EC30FD001230FE003130FF00DF3084006E
:10281E000A168A1142220A168A115A30FD00083011
:10282E00FE000030FF00573084000A168A11422243
:10283E000A168A1183010A128A11152883120313AC
:10284E001F08C3391C389F00831603131D08FC395B
:10285E0001389D00322C9D1F352C362C322C8312C4
:10286E0003131F1408140330B6009730B500B50BD0
:10287E003E2CB60B3E2C432C831203139F14472C75
:10288E009F184A2C4B2C472C4C2C1E08B500350893
:10289E00B7001F1008103708542C080083120313BA
:1028AE001F08C33918389F00831603131D08FC39FF
:1028BE0001389D00622C9D1F652C662C622C8312A4
:1028CE0003131F1408160330B6009730B500B50B6E
:1028DE006E2CB60B6E2C732C831203139F14772C55
:1028EE009F187A2C7B2C772C7C2C1E08B500350873
:1028FE00B7001F1008123708842C08008312031328
:10290E00BC0007300A168A11AE220A168A118312EB
:10291E000313BB003B08BD003D088039BB003B08DC
:10292E00BD003D08031D9C2CA12C3C08031DA02CB2
:10293E00AB2CA12CBD08031DA52CA62CB62C3C0837
:10294E00031DAA2CB62CAB2C5330BB003B08B80091
:10295E0050300A168A1151220A168A11B62C080016
:10296E0083120313B801E2300A168A1151220A1695
:10297E008A1107300A168A11AE220A168A1183129C
:10298E000313BB003B08BC003C08BB003B08B8006F
:10299E0027300A168A1151220A168A11831203133E
:1029AE00071100300A168A11AE220A168A118312F6
:1029BE000313BB003B08BC003C080138BB003B08BE
:1029CE00BC003C08BB003B08B80020300A168A1138
:1029DE0051220A168A11831203130715080079086B
:1029EE0078040319FB2CFC2C312DFD01FD0A0B2D57
:1029FE0001300310F80DF90DFF3E031D002D0130BF
:102A0E00FC007C08FD070B2DF91F0E2D0F2DFF2C42
:102A1E00112D112D79087B02031D172D78087A02CE
:102A2E00031C1A2D1B2D222D7808FA027908031C7F
:102A3E00FB03FB02222D01300310F90CF80CFF3EB4
:102A4E00031D232D0130FD02031D2E2D2F2D112DC3
:102A5E00312D312D7B08F901F9077A08F801F807B5
:102A6E00382D0800831203133E083D040319402D30
:102A7E00412D762DC201C20A502D01300310BD0D1D
:102A8E00BE0DFF3E031D452D0130C1004108C2079A
:102A9E00502DBE1F532D542D442D562D562D3E0810
:102AAE004002031D5C2D3D083F02031C5F2D602D6F
:102ABE00672D3D08BF023E08031CC003C002672DF0
:102ACE0001300310BE0CBD0CFF3E031D682D0130FE
:102ADE00C202031D732D742D562D762D762D4008B2
:102AEE00BE01BE073F08BD01BD077D2D0800F601E2
:102AFE00F701710870040319852D862DC32DF5017C
:102B0E00F50A952D01300310F00DF10DFF3E031D5A
:102B1E008A2D0130F4007408F507952DF11F982DBC
:102B2E00992D892D9B2D9B2D01300310F60DF70D40
:102B3E00FF3E031D9C2D71087302031DA82D700806
:102B4E007202031CAB2DAC2DB42D7008F20271086D
:102B5E00031CF303F3027614B42D01300310F10CB1
:102B6E00F00CFF3E031DB52D0130F502031DC02DE7
:102B7E00C12D9B2DC32DC32D7708F101F1077608CA
:102B8E00F001F007CA2D080083120313C101BC1F08
:102B9E00D12DD22DDA2DBB09BC09BB0A0319BC0AF3
:102BAE00C101C10ADA2DBE1FDD2DDE2DE82DBD09B6
:102BBE00BE09BD0A0319BE0A0130BF003F08C10697
:102BCE00E82DC201C3013C083B040319EF2DF02D83
:102BDE002D2EC001C00AFF2D01300310BB0DBC0D00
:102BEE00FF3E031DF42D0130BF003F08C007FF2D2F
:102BFE00BC1F022E032EF32D052E052E01300310C1
:102C0E00C20DC30DFF3E031D062E3C083E02031DE2
:102C1E00122E3B083D02031C152E162E1E2E3B08AF
:102C2E00BD023C08031CBE03BE0242141E2E013020
:102C3E000310BC0CBB0CFF3E031D1F2E0130C00247
:102C4E00031D2A2E2B2E052E2D2E2D2E4108031D53
:102C5E00312E372EC209C309C20A0319C30A372EF1
:102C6E004308BC01BC074208BB01BB073E2E08004F
:102C7E00831203133808031D452E4D2E37083604D4
:102C8E003504031D4B2E4C2E632E4D2E0030B500F9
:102C9E000030B6000030B700BB2EBB2E632E0130C5
:102CAE00BA003A08B80701300310B70CB60CB50CD1
:102CBE00FF3E031D5B2E632EFE303705031D682E6F
:102CCE00692E562E812E812E0130BA003A08B80791
:102CDE000130B507003003180130B6070030031875
:102CEE000130B70701300310B70CB60CB50CFF3E20
:102CFE00031D7A2EFF303705031D862E872E6B2E71
:102D0E00942E942E0130B80201300310B50DB60D7D
:102D1E00B70DFF3E031D8C2E942EB61F972E982EA8
:102D2E00892E38189B2E9C2EA22EFF30B5057F3093
:102D3E00B605FF30B7050310B80C3808BA00BB0152
:102D4E00BC0110300310BA0DBB0DBC0DFF3E031DB0
:102D5E00A92E3A08B5043B08B6043C08B704390856
:102D6E00031DBA2EBB2EB717080083120313C71FFD
:102D7E00C12EC22E002F003083160313C800003060
:102D8E00C9008030CA00831203134509831603134A
:102D9E00CB0083120313460983160313CC00831250
:102DAE000313470983160313CD00CB0A0319CC0A6C
:102DBE000319CD0A4B08C8074C0803184C0FE82E10
:102DCE00E92EC9074D0803184D0FEE2EEF2ECA0738
:102DDE00480883120313C500831603134908831290
:102DEE000313C600831603134A0883120313C70086
:102DFE00002FCA1F032F042F422F003083160313F8
:102E0E00C8000030C9008030CA008312031348097D
:102E1E0083160313CB00831203134909831603137E
:102E2E00CC00831203134A0983160313CD00CB0A79
:102E3E000319CC0A0319CD0A4B08C8074C0803180E
:102E4E004C0F2A2F2B2FC9074D0803184D0F302F6B
:102E5E00312FCA07480883120313C80083160313C1
:102E6E00490883120313C900831603134A088312F9
:102E7E000313CA00422F8030C7068030CA064A08A4
:102E8E004702031D502F49084602031D502F4808C4
:102E9E0045020318532F542F562F0310592F031486
:102EAE00592F592F0800831203133508B90036081D
:102EBE00BA003708BB0003103A0D3B0DBC003C08AE
:102ECE00C200C208031D6C2F6D2F772F0030B80083
:102EDE000030B7000030B6000030B500FF2FFF2FD6
:102EEE003508B9003608BA003708BB001730031092
:102EFE00BB0CBA0CB90CFF3E031D7E2F3908BC006B
:102F0E003C08BD00B617FF30B505FF30B6050030E2
:102F1E00B7053508BE003608BF003708C000C1012E
:102F2E008E30C202C21F9C2F9D2FC22F4208803AA4
:102F3E008F3E0318A32FA42FAF2F0030B800003000
:102F4E00B7000030B6000030B500FF2FFF2FAF2FB7
:102F5E0001300310C10CC00CBF0CBE0CFF3E031D94
:102F6E00B02F0130B9003908C207031DBF2FC02F83
:102F7E00AF2FE62FE62F18304202031CC72FC82FA3
:102F8E00DF2F0030B8000030B7000030B600003040
:102F9E00B500FF2FFF2FDF2F0130B9000310BE0D3C
:102FAE00BF0DC00DC10DB90BD52F0130C202DF2FE1
:102FBE00C208031DE32FE42FD32FE62FE62F3D0883
:102FCE00031DEA2FF62FBE09BF09C009C109BE0AAB
:102FDE000319BF0A0319C00A0319C10AF62F4108C3
:102FEE00B8004008B7003F08B6003E08B500FF2FF6
:022FFE000800C9
:02400E00F5FCBF
:00000001FF
