:060000000A128A11122809
:10000800FE00030E83120313B1000408B2000A08AD
:10001800B3007F08B4000A168A11EA2E0A168A115C
:10002800C62C033083120313C0000830BF00783099
:10003800BE00BE0B1D28BF0B1D28C00B1D2800309D
:100048000A168A1155250A128A1183160313D2013A
:1000580014305202031C3128322834286C286C28AA
:100068000314520D4A3E840090300318013E831257
:100078000313FF000A168A1100200A128A11BE0013
:100088003E08B80083160313520883120313BF00F7
:100098003F074A3E840090300318013EFF000A16CD
:1000A8008A1100200A128A1120380A168A113A2366
:1000B8000A128A11013083120313BE003E08831608
:1000C8000313D20714305202031C6B286C283428FF
:1000D800D30105305302031C7228732875289B2806
:1000E8009B285308953E840090300318013E8312E4
:1000F8000313FF000A168A1100200A128A11BE0093
:10010800831603135308C63E8400831203133E0864
:10011800831380000130BE003E0883160313D30703
:1001280005305302031C99289A2875289B28C63045
:1001380083120313BE003E08B8000530BF003F0815
:10014800B9002A300A168A1145240A128A11831620
:100158000313D30105305302031CB328B428B6286F
:10016800DC28DC2853089A3E840090300318013EAE
:1001780083120313FF000A168A1100200A128A113B
:10018800BE00831603135308C63E8400831203136C
:100198003E08831380000130BE003E088316031317
:1001A800D30705305302031CDA28DB28B628DC28DD
:1001B800C63083120313BE003E08B8000530BF00E6
:1001C8003F08B9002B300A168A1145240A128A11F1
:1001D80083160313D30105305302031CF428F528B2
:1001E800F7281D291D295308953E840090300318CF
:1001F800013E83120313FF000A168A1100200A1217
:100208008A11BE00831603135308C63E8400831266
:1002180003133E08831380000130BE003E08831696
:100228000313D30705305302031C1B291C29F72885
:100238001D29C63083120313BE003E08B8000530DE
:10024800BF003F08B90030300A168A1145240A1247
:100258008A111D300A128A1504200A128A11831283
:100268000313BE003E0883160313D200D208031DF1
:100278003E293F294C29733083120313BE003E08E0
:10028800B80050300A168A113A230A128A114C29EA
:10029800163083120313BE003E0883160313D200E0
:1002A80015305202031859295A295C299129912994
:1002B8000314520D4A3E840090300318013E831205
:1002C8000313FF000A168A1100200A128A11BE00C1
:1002D8003E08B80083160313520883120313BF00A5
:1002E8003F074A3E840090300318013EFF000A167B
:1002F8008A1100200A128A1120380A168A113A2314
:100308000A128A11013083160313D20215305202E1
:1003180003188F2990295C29912901300A168A111E
:1003280055250A128A1183160313D2010930520285
:10033800031C9F29A029A229282A282AD30104308E
:100348005302031CA829A929AB29062A062A520800
:1003580083120313BE0001300310BE0DFF3E031DC0
:10036800B02903103E0D123E840090300318013E60
:10037800FF000A168A1100200A128A11BF000A1605
:100388008A1100200A128A11C0000A168A11002058
:100398000A128A11C1000A168A1100200A128A114B
:1003A800C20083160313530883120313C3000230D9
:1003B8000310C30DFF3E031DDC290310430D013E4E
:1003C800EA290310C20CC10CC00CBF0CFF3E031D70
:1003D800E5293F08C400831603135308C63E84006A
:1003E800831203134408831380000130BE003E08C3
:1003F80083160313D30704305302031C042A052A67
:10040800AB29062AC63083120313BE003E08B80083
:100418000430BF003F08B900831603135208203880
:100428000A168A1145240A128A110130831203130D
:10043800BE003E0883160313D20709305202031C7C
:10044800262A272AA229282A093083120313BE0044
:100458003E0883160313D2000E305202031C352ABD
:10046800362A382ABF2ABF2AD30104305302031C74
:100478003E2A3F2A412A9E2A9E2A520883120313A3
:10048800BE0001300310BE0DFF3E031D462A0310B7
:100498003E0D123E840090300318013EFF000A16FC
:1004A8008A1100200A128A11BF000A168A11002038
:1004B8000A128A11C0000A168A1100200A128A112B
:1004C800C1000A168A1100200A128A11C200831676
:1004D80003135303FF3A83120313C30002300310BC
:1004E800C30DFF3E031D732A0310430D183E013E42
:1004F800822A0310C20CC10CC00CBF0CFF3E031DA6
:100508007D2A3F08C400831603135308C63E84009F
:10051800831203134408831380000130BE003E0891
:1005280083160313D30704305302031C9C2A9D2A05
:10053800412A9E2AC63083120313BE003E08B80023
:100548000430BF003F08B90083160313520820384F
:100558000A168A1145240A128A11013083120313DC
:10056800BE003E0883160313D2070E305202031C46
:10057800BE2ABF2A382AD3010B305302031CC52ACE
:10058800C62AC82AEE2AEE2A5308783E84009030FC
:100598000318013E83120313FF000A168A11002074
:1005A8000A128A11BE00831603135308C63E84003C
:1005B800831203133E08831380000130BE003E08F7
:1005C80083160313D3070B305302031CEC2AED2ABE
:1005D800C82AEE2AC63083120313BE003E08B800AC
:1005E8000B30BF003F08B9002E300A168A11452487
:1005F8000A128A1183160313D30104305302031C11
:10060800062B072B092B582B582B223084009030AF
:1006180083120313FF000A168A1100200A128A1196
:10062800BE000A168A1100200A128A11BF000A1693
:100638008A1100200A128A11C0000A168A110020A5
:100648000A128A11C1008316031353088312031375
:10065800C20002300310C20DFF3E031D2E2B0310F3
:10066800420D013E3C2B0310C10CC00CBF0CBE0C4C
:10067800FF3E031D372B3E08C300831603135308A0
:10068800C63E84008312031343088313800001309D
:10069800BE003E0883160313D30704305302031C1D
:1006A800562B572B092B582B460806388312031351
:1006B800BE003E0883160313C600C6308312031318
:1006C800BE003E08B8000430BF003F08B90024301F
:1006D8000A168A1145240A128A118316031346083A
:1006E800F93983120313BE003E0883160313C600AC
:1006F800C63083120313BE003E08B8000430BF00A2
:100708003F08B90024300A168A1145240A128A11B2
:10071800823083120313BF00DD30BE00BE0B922B64
:10072800BF0B922B972B00300A168A1155250A12F7
:100738008A11831203130711080000308316031768
:100748009300003092000030910000309000950135
:100758009601831603131008CF39203890008316AA
:100768000317071387138316031307138316031737
:1007780007110811871288108316031309158316A9
:100788000317091583160313081283160317081293
:100798008312031308128316031305118316031714
:1007A8000511831203130515831603130711081186
:1007B8008711871207168814831203130711081567
:1007C800871187128316031308108316031708105E
:1007D80083160313091583160317091583160313C4
:1007E80009148316031709108312031308108316BC
:1007F80003130914831603170914831603138811A6
:10080800831203138811831603138816831603179C
:1008180088128316031308178817831603170813FB
:1008280088138B170B17831603130C1410308312BD
:1008380003138F008E0110083F3980389000303044
:100848009004831603138F17831203131015901542
:1008580010148316031305108510851105128512CF
:1008680005138513831603170510851085110512C6
:10087800851205138513831203130510851085113E
:1008880005128512051385138316031306108610A7
:100898000611861106128612831603170610861093
:1008A800061186110612861283120313061086108B
:1008B80006118611061686128316031389148316E9
:1008C800031789148312031389100A168A116623E1
:1008D8000A128A110A168A1150230A128A110A1654
:1008E8008A11F8220A128A1100300A168A11F62390
:1008F8000A128A1183120313080883160313D900F6
:1009080006300310D90CFF3E031D852C5908033906
:10091800DA005A0883120313D5002630C300913039
:10092800C400550883160313D900DA015908831245
:100938000313C500831603135A0883120313C60052
:100948000A128A1500260A128A116300C72C63004E
:10095800FA3083120313C3009030C40083160313C4
:100968004508D900DA01590883120313C500831614
:1009780003135A0883120313C6000A128A150026A5
:100988000A128A11C72C0A168A116F240A128A11B0
:1009980083160313D900583059020318D42CD52CC8
:1009A800FE2C83120313881ADA2CDB2CFE2C0A1671
:1009B8008A1125250A128A110A168A11D5230A12C4
:1009C8008A11831203133D08C5003E08C6003F087C
:1009D800C7000030C8000030C9000030CA000A163D
:1009E8008A1162270A128A11031CFB2CFC2CAB2CDF
:1009F800FE2CFE2CA33083120313C3009030C400D6
:100A0800831603134508D900DA0159088312031322
:100A1800C500831603135A0883120313C6000A126B
:100A28008A1500260A128A110A128A1115200A123A
:100A38008A1100300A168A11F6230A128A116300F5
:100A480083160313C001C101292D01300A168A112A
:100A5800F6230A128A110A168A116F240A128A11B9
:100A680083160313D9005908E1004008D900590832
:100A7800E2004108D9005908E3008312031354081F
:100A880083160313D9005908E4004308D900DA0192
:100A9800D909DA09D90A0319DA0A42085907831267
:100AA8000313B500831603135A0803185A0A83124E
:100AB8000313B60083160313420843078312031374
:100AC800B700B801B80D0A168A119A240A128A11B9
:100AD8008312031335088316031795070318960A1C
:100AE800831203133608831603179607150883160F
:100AF8000313D9005908E50083160317160883164F
:100B08000313D9005908E6000A168A1125250A1286
:100B18008A1183160313D9005908E7005D08831268
:100B28000313B500831603135E0883120313B6007C
:100B3800831603135F0883120313B7000A128A157A
:100B48009A200A128A118312031335088316031395
:100B5800D9005908E8005D0883120313B50083160D
:100B680003135E0883120313B600831603135F088A
:100B780083120313B7000A128A159A200A128A11DF
:100B880083120313360883160313D9005908E900A2
:100B9800593061020318D12DD22DD92D8312031398
:100BA800881ED72DD82D052ED92D0A168A11F52481
:100BB8000A128A1183160313D9005908E000831218
:100BC8000313D417540883160313D9005908E400F3
:100BD800E030D900590883120313CC000A30831679
:100BE8000313DA005A0883120313CD00B0300A1237
:100BF8008A1508220A128A1183160317950196018D
:100C08008D2E003083120313C5000030C60000305B
:100C1800C7008316031367080A168A11D5230A1218
:100C28008A11831203133D08C8003E08C9003F0813
:100C3800CA000A168A1162270A128A110318252E79
:100C4800262E712E8316031361084502031C2D2ED0
:100C58002E2E712E8312031305110A168A11F524FC
:100C68000A128A1183160313D9005908E0000A16DC
:100C78008A1125250A128A1183160313D9005908E7
:100C8800E7007F30D900590883120313D4055408AC
:100C980083160313D9005908E400E030D900590835
:100CA80083120313CC000A3083160313DA005A08A0
:100CB80083120313CD00B0300A128A1508220A12D3
:100CC8008A11831203130515003083160313DD0000
:100CD8002030DE004130DF008D2EC8308312031330
:100CE800C3009030C400831603136108D900DA01E9
:100CF800590883120313C500831603135A08831275
:100D08000313C6000A128A1500260A128A118D2EAC
:100D18008D2E83120313071100300A168A11F62349
:100D28000A128A1183120313101010308F008E01DB
:100D380010140A168A116F240A128A1183160313D3
:100D4800D9005908C500113083120313C30091302C
:100D5800C400550883160313D900DA015908831211
:100D68000313C500831603135A0883120313C6001E
:100D78000A128A1500260A128A118316031794018B
:100D8800F62E4D3083120313C3009130C40083162E
:100D98000317140883160313D900DA0159088312BC
:100DA8000313C500831603135A0883120313C600DE
:100DB800831603134408DB00DC015B08831203136A
:100DC800C700831603135C0883120313C8000A12B2
:100DD8008A1500260A128A110A128A15EC220A12AA
:100DE8008A11F62E0130831603179407FF30140773
:100DF80083160313D90044085902031C042F052F36
:100E0800C52E062F0130C0070318C10A0030C107DC
:100E1800292D292D0A128A111228831203133D083D
:100E2800C3003E08C4003F08C5000310440D450D2B
:100E3800C6004608C700C708031D232F242F2C2FE0
:100E48000030BD000030BE000030BF00FE2FFE2F76
:100E58004008C3004108C4004208C5000310440DFF
:100E6800450DC6004608CC00CC08031D3C2F3D2F7D
:100E7800452F0030BD000030BE000030BF00FE2FFF
:100E8800FE2F4C087B3EC3004308C7073D08C3003C
:100E98003E08C4003F08C50010300310C50CC40C40
:100EA800C30CFF3E031D512F4308C6004608CC0063
:100EB8004008C3004108C4004208C50010300310B0
:100EC800C50CC40CC30CFF3E031D632F4308C600AA
:100ED8004608CC068030C3004308CC05BE17C117AE
:100EE800FF30C005FF30C1050030C2050030C80022
:100EF8000030C9000030CA000730C3004308CB00E7
:100F0800852F3D1C882F892F9A2F4008C807410834
:100F180003110318410A0319922FC9074208031144
:100F28000318420A0319992FCA079A2F0130031090
:100F3800BF0CBE0CBD0CFF3E031D9B2F01300310E0
:100F4800C00DC10DC20DFF3E031DA32F0130CB0202
:100F5800031DAF2FB02F852FB12F0930C3004308D1
:100F6800CB00B62F3D1CB92FBA2FCB2F4008C8078E
:100F7800410803110318410A0319C32FC90742087E
:100F880003110318420A0319CA2FCA07CB2F0130CD
:100F98000310BF0CBE0CBD0CFF3E031DCC2F01304F
:100FA8000310CA0CC90CC80CFF3E031DD42F013016
:100FB800CB02031DE02FE12FB62FE22F4808B50022
:100FC8004908B6004A08B7004708C3004308B800F4
:100FD8004C08C4004408B9000A128A151D200A12D8
:100FE8008A11831203133508BD003608BE0037087E
:060FF800BF00FE2F0800FF
:101002001A340034013483120313B9000811390869
:101012000A168A117E230A128A1500300A168A11CC
:101022007E230A128A1583120313B8003808BA0005
:1010320008153A081C280800831203133808031DF8
:1010420023282B28370836043504031D29282A288B
:1010520041282B280030B5000030B6000030B70020
:101062009928992841280130BA003A08B807013076
:101072000310B70CB60CB50CFF3E031D39284128EE
:10108200FE303705031D4628472834285F285F288D
:101092000130BA003A08B8070130B507003003182A
:1010A2000130B607003003180130B70701300310D2
:1010B200B70CB60CB50CFF3E031D5828FF303705A0
:1010C200031D642865284928722872280130B80255
:1010D20001300310B50DB60DB70DFF3E031D6A2892
:1010E2007228B61F752876286728381879287A2832
:1010F2008028FF30B5057F30B605FF30B7050310F5
:10110200B80C3808BA00BB01BC0110300310BA0D8C
:10111200BB0DBC0DFF3E031D87283A08B5043B08F2
:10112200B6043C08B7043908031D98289928B71754
:101132000800831203133508B9003608BA003708CD
:10114200BB0003103A0D3B0DBC003C08C200C208B4
:10115200031DAC28AD28B7280030B8000030B70016
:101162000030B6000030B5003F293F293508B900EC
:101172003608BA003708BB0017300310BB0CBA0C94
:10118200B90CFF3E031DBE283908BC003C08BD0057
:10119200B617FF30B505FF30B6050030B705350884
:1011A200BE003608BF003708C000C1018E30C2023F
:1011B200C21FDC28DD2802294208803A8F3E03182C
:1011C200E328E428EF280030B8000030B7000030F0
:1011D200B6000030B5003F293F29EF280130031047
:1011E200C10CC00CBF0CBE0CFF3E031DF028013029
:1011F200B9003908C207031DFF280029EF28262954
:10120200262918304202031C072908291F29003009
:10121200B8000030B7000030B6000030B5003F29FA
:101222003F291F290130B9000310BE0DBF0DC00DAB
:10123200C10DB90B15290130C2021F29C208031DB5
:10124200232924291329262926293D08031D2A2971
:101252003629BE09BF09C009C109BE0A0319BF0A5E
:101262000319C00A0319C10A36294108B800400807
:10127200B7003F08B6003E08B5003F2908008312B8
:1012820003134008C3004108C4004208C50003100C
:10129200440D450DC6004608CB00CB08031D52295C
:1012A20053295B290030BD000030BE000030BF0072
:1012B200072A072A3D08C3003E08C4003F08C500AC
:1012C2000310440D450DC6004608CC00CC08031D92
:1012D2006B296C2974290030BD000030BE0000303B
:1012E200BF00072A072A0030C8000030C9000030BA
:1012F200CA0089304C07C3004308CB024008C30030
:101302004108C4004208C50010300310C50CC40CCB
:10131200C30CFF3E031D86294308C6004608CC00C5
:101322003D08C3003E08C4003F08C500103003104A
:10133200C50CC40CC30CFF3E031D98294308C6000C
:101342004608CC068030C3004308CC05C117FF30E5
:10135200C005FF30C1050030C205BE17FF30BD0514
:10136200FF30BE050030BF051830C3004308C70078
:10137200BA2901300310C80DC90DCA0DFF3E031D65
:10138200BB293F084202031DCC293E084102031D2E
:10139200CC293D084002031CCF29D029DC293D0875
:1013A200C0023E08031C3E0FC1023F08031C3F0A55
:1013B200C2024814DC2901300310C00DC10DC20D58
:1013C200FF3E031DDD290130C702031DE929EA2979
:1013D200BA29EB294808B5004908B6004A08B700FF
:1013E2004B08C3004308B8004C08C4004408B900C5
:1013F2000A128A151D200A128A1583120313350850
:10140200BD003608BE003708BF00072A0800831651
:101412000313D2000A168A111B240A128A151730E6
:101422000A128A1504200A128A1583160313CF00A2
:101432004F08D300D31A1E2A1F2AEB2A8D3083129B
:101442000313C3009130C4000A128A1500260A123F
:101452008A1583160313D401592A9C30831203136D
:10146200C3009130C400831603135408831203137C
:101472004C0783160313CF004F0884008313000820
:10148200D000D101500883120313C5008316031341
:10149200510883120313C6000A128A1500260A1283
:1014A2008A15013083160313CF004F08D407592A37
:1014B200831203134D08831603135402031C622A7A
:1014C200632A2E2A642A993083120313C3009130AF
:1014D200C4000A128A1500260A128A1583120313FF
:1014E20007114C0883160313CF004F08831203130E
:1014F200B8004D0883160313D0005008831203135B
:10150200B9008316031352080A168A1145240A12D7
:101512008A15831203130715063083160313CF00AF
:10152200CF0B912A00008312031307110330831695
:101532000313D0009730CF00CF0B9D2AD00B9D2AEA
:10154200A22ADA2A0A168A11B6230A128A15003A40
:101552000319AC2AAD2ABE2A703083120313C300CA
:101562009130C4000A128A1500260A128A150A1638
:101572008A1187250A128A15BE2A0A168A1197230A
:101582000A128A15003A0319C72AC82ADA2AE2304F
:1015920083120313C3009030C4000A128A15002676
:1015A2000A128A150A168A1187250A128A15DA2A58
:1015B200DA2A83120313881CDF2AE02AA32AE12AEB
:1015C2009730C3009130C4000A128A1500260A120D
:1015D2008A15EB2A08000A168A116F240A128A1544
:1015E20083120313CD004D0883160313C5005D0853
:1015F20083120313B500831603135E0883120313C9
:10160200B600831603135F0883120313B7000A128E
:101612008A159A200A128A15831203133608D101F9
:10162200D1073508D001D0077A308316031345025B
:10163200031C1C2B1D2B452C831203135108500431
:101642000319242B252B452C881A282B292B452CB2
:10165200831203179401A030930083120313101016
:101662005108CE005008CD000230FF000310CD0D0E
:10167200CE0DFF0B372BCD09CE09CD0A0319CE0AA9
:101682004D08D2004E08D30053088F0052088E0036
:1016920010146300831203179301831203130515B9
:1016A2000A168A116F240A128A1583120313CD00B7
:1016B2004D08CF005209CD005309CE00CD0A0319BF
:1016C200CE0A4D08003ED2004E080318013E103EDD
:1016D200D300101053088F0052088E0010146300BC
:1016E200831203134F0883160313450203187A2B40
:1016F2007B2B812B450883120313CD004D08CF00AD
:1017020083160313450883120313CD004D08831675
:101712000313C200831203134F08CD004D08831632
:101722000313C3005930831203134F02031C9A2B75
:101732009B2BEF2B831603135D0883120313C50043
:10174200831603135E0883120313C6008316031362
:101752005F0883120313C7004030C8001C30C90061
:101762004630CA000A168A1162270A128A1503181D
:10177200BB2BBC2B512C663083120313BD00863069
:10178200BE003F30BF00831603135D0883120313AC
:10179200C000831603135E0883120313C10083166D
:1017A20003135F0883120313C2000A128A1111275E
:1017B2000A128A15831203133D0883160313DD00F0
:1017C200831203133E0883160313DE0083120313EE
:1017D2003F0883160313DF00512C512C0030831273
:1017E200C5000030C6000030C700831603135D0831
:1017F20083120313C800831603135E0883120313B4
:10180200C900831603135F0883120313CA000A1662
:101812008A1162270A128A150318102C112C512CD6
:10182200663083120313BD008630BE003F30BF0016
:10183200831603135D0883120313C0008316031378
:101842005E0883120313C100831603135F08831219
:101852000313C2000A128A1540210A128A15831242
:1018620003133D0883160313DD00831203133E089E
:1018720083160313DE00831203133F088316031338
:10188200DF00512C512C512C8312101010308F007C
:101892008E011014630083160313C201C301512C7D
:1018A2000800223083120313A2002208A600E22DB0
:1018B2002D08253A03195E2C5F2C662C2D080A167A
:1018C2008A1102230A128A15E22DA801752CFF2D16
:1018D200992C992CA817992C2D080A168A110223E3
:1018E2000A128A15E22D992C831203132108A300F0
:1018F2002008A2000130A0070318A10A2308FF0054
:10190200220884000A168A1100200A128A15AD00E4
:10191200003A0319FF2D583A03196B2C3C3A03196C
:10192200992C0D3A0319992C113A03196B2C6D2C31
:1019320083120313A81B9E2C9F2CBA2C260884000A
:1019420083130008A900840A0008AA000230A2003A
:101952002208A607AA1FAE2CAF2C372D0330A200F7
:101962002208A804A909AA09A90A0319AA0A372D53
:10197200372D2608840083130008A900840A000872
:10198200AA000230A2002208A607372D372DAD018A
:10199200AD0A2D08053A031DCF2CD02CD22C402D98
:1019A200402D2D08A2002207833E840090300318A8
:1019B200013EFF000A168A1100200A128A15A300AE
:1019C2000A168A1100200A128A15A40024082A0283
:1019D200031DED2C230829020318F02CF12CF32C03
:1019E200402D402D0130A2002208AD072D08053AF6
:1019F200031DFC2CFD2CD22C402D402DAD01AD0A37
:101A02002D08043A031D062D072D092D402D402DCA
:101A12002D08A20022078D3E840090300318013E5B
:101A2200FF000A168A1100200A128A15A3000A165C
:101A32008A1100200A128A15A40024082A02031D12
:101A4200242D230829020318272D282D2A2D402D65
:101A5200402D0130A2002208AD072D08043A031DD3
:101A6200332D342D092D402D402D402D280880394D
:101A7200003A0319C82C803A0319FF2C402D28087C
:101A820003390319452D462D4D2D2D300A168A1185
:101A920002230A128A154D2D831203132D08A20068
:101AA2002208A700D42DC42D0A30F8000030F90016
:101AB2002708A2002207833E840090300318013ECB
:101AC200FF000A168A1100200A128A15F0000A166F
:101AD2008A1100200A128A15F1002A08F301F3077D
:101AE2002908F201F2070A168A114E260A128A15ED
:101AF2007108FB01FB077008FA01FA070A168A113E
:101B0200C6250A128A157808303E83120313A300F1
:101B12002308AD00CD2D2708A20022078D3E8400A8
:101B220090300318013EFF000A168A1100200A12A3
:101B32008A15F0000A168A1100200A128A15F1008D
:101B42002A08F301F3072908F201F2070A168A119B
:101B52004E260A128A1570080F3983120313A30046
:101B62002308A50025085F3E840091300318013E3A
:101B7200FF000A168A1100200A128A15A200220802
:101B8200AD00CD2DCD2D28088039003A0319552DF1
:101B9200803A03198C2DCD2D2D080A168A110223A5
:101BA2000A128A15D42DFF3083120313A2002208D1
:101BB200A7072708FF3A031DDF2DE02DC42DE22DD4
:101BC200E22D831203132108A3002008A200013092
:101BD200A0070318A10A2308FF00220884000A169E
:101BE2008A1100200A128A15A4002408AD00AD084B
:101BF200031DFC2DFD2D592CFF2DFF2D0800453016
:101C020083120313C900490883160313C700E02F88
:101C12004E08253A03190E2E0F2E162E4E080A16BE
:101C22008A110E230A128A15E02FC901252EFF2FD1
:101C32004B2E4B2EC9174B2E4E080A168A110E2315
:101C42000A128A15E02F4B2E831203134408CA008E
:101C52004308C9000130C3070318C40A4A08FF0039
:101C6200490884000A168A1100200A128A1583166E
:101C72000313CE00003A0319FF2F583A03191B2E03
:101C82003C3A03194B2E0D3A03194B2E113A031904
:101C92001B2E1D2E83160313C91B502E512E742E7C
:101CA2004708840083130008CA00840A0008CB0096
:101CB200023083120313C900490883160313C707AE
:101CC200CB1F642E652E0D2F033083120313C90020
:101CD200490883160313C904CA09CB09CA0A03199E
:101CE200CB0A0D2F0D2F4708840083130008CA006A
:101CF200840A0008CB00023083120313C90049088A
:101D020083160313C7070D2F0D2FCE01CE0A4E08DF
:101D1200053A031D8D2E8E2E902E162F162F4E084D
:101D220083120313C9004907833E840090300318CD
:101D3200013EFF000A168A1100200A128A15CA0003
:101D42000A168A1100200A128A15CB004B08831644
:101D520003134B02031DB32E831203134A08831687
:101D620003134A020318B62EB72EB92E162F162FBA
:101D7200013083120313C900490883160313CE07E7
:101D82004E08053A031DC62EC72E902E162F162F6B
:101D9200CE01CE0A4E08043A031DD02ED12ED32EE8
:101DA200162F162F4E0883120313C90049078D3EC2
:101DB200840090300318013EFF000A168A110020A9
:101DC2000A128A15CA000A168A1100200A128A15F6
:101DD200CB004B08831603134B02031DF62E83120E
:101DE20003134A08831603134A020318F92EFA2E24
:101DF200FC2E162F162F013083120313C900490837
:101E020083160313CE074E08043A031D092F0A2F27
:101E1200D32E162F162F162F49088039003A031990
:101E2200862E803A0319C92E162F49080339031941
:101E32001B2F1C2F232F2D300A168A110E230A1254
:101E42008A15232F831603134E0883120313C90026
:101E5200490883160313C800D02FC02F0A308312FB
:101E62000313BD000030BE0083160313480883121B
:101E72000313C9004907833E840090300318013ED2
:101E8200FF000A168A1100200A128A15B5000A16E6
:101E92008A1100200A128A15B600831603134B0812
:101EA20083120313B801B807831603134A08831277
:101EB2000313B701B7070A168A119B260A128A155D
:101EC200831203133608C001C0073508BF01BF07DC
:101ED2000A168A1109260A128A15831203133D086B
:101EE200303ECA004A0883160313CE00C92F4808A1
:101EF20083120313C90049078D3E840090300318F2
:101F0200013EFF000A168A1100200A128A15B50046
:101F12000A168A1100200A128A15B60083160313C4
:101F22004B0883120313B801B807831603134A0838
:101F320083120313B701B7070A168A119B260A12E6
:101F42008A158312031335080F39CA004A0883160B
:101F52000313C60046085F3E840091300318013E19
:101F620083120313FF000A168A1100200A128A152F
:101F7200C900490883160313CE00C92FC92F490887
:101F82008039003A03192F2F803A0319782FC92F6D
:101F92004E080A168A110E230A128A15D02FFF3014
:101FA20083120313C900490883160313C80748089C
:101FB200FF3A031DDD2FDE2FC02FE02FE02F83120B
:101FC20003134408CA004308C9000130C3070318B9
:101FD200C40A4A08FF00490884000A168A11002030
:101FE2000A128A15CB004B0883160313CE00CE08C3
:101FF200031DFC2FFD2F092EFF2FFF2F0800FF1BB3
:102002000A2883137F1883170008840A0319FF0A1A
:1020120008007F087F398A000408840A0319FF0A2E
:10202200820040344B340134E234C0344B34003447
:102032000034D034FC348C340234993400343934D2
:102042004134F9349E3486340B34243406347F34DC
:10205200A634003400340034003400340034003438
:1020620000340034003400340034003400340034CE
:1020720000340034003400340034003400340034BE
:102082000034003473341234003400348034B434F5
:10209200363400340F3401343F3402343F340334D5
:1020A20003340434FF34053417340634013407345E
:1020B200073408340034093400340C34C3340D348A
:1020C200C4340E34C5340F34C634113420341234BF
:1020D200203413342034143420341534203416348C
:1020E2002034173400341C343F341D340734413457
:1020F20020340834043481342034CF34F734FE34AD
:10210200FF34FF34013400340A34003464340034C0
:10211200E8340334103427340134003410340034EA
:102122000034013400341034343443341034103465
:1021320001343934383437343634C2341C343F3401
:102142001D3407345634733474346F34723461344A
:102152006734653420344F344B3420346F34723456
:1021620020346D34653461347334753472346534BB
:10217200203473346B3469347034703465346434AD
:102182003A342034253464340D340A34003456345D
:10219200533474346F3472346134673465343A348E
:1021A200203425346434203420343D343E34203409
:1021B2006E346F34743420344F344B340D340A345B
:1021C20000344E346F3420346434613474346134F6
:1021D2002034733465346E3474343A3420344534E4
:1021E200523452344F34523420340D340A342034B1
:1021F20000345634733474346F3472346134673457
:102202006534203474346F346F3420346C346F345A
:1022120077343A342034253464340D340A340034AB
:1022220053346C34653465347034203463346F3421
:1022320075346E3474346534723420343D34203451
:10224200253464340D340A34003453346C34653428
:1022520065347034203463346F3475346E347434BE
:10226200653472343A342034253458340D340A3407
:1022720000344534633463346F346D34693420344C
:102282006E3465346C346C342734493453345234EC
:1022920021340D340A34003453346C3465346534DB
:1022A20070343A3420342534643420346F346E343C
:1022B2002034253464340D340A340034303431345B
:1022C20032343334343435343634373438343934C0
:1022D2004134423443344434453446340034443483
:1022E2006134743461342034733465346E3474343C
:1022F2003A3420344F344B3420340D340A34003411
:1023020052346534633465346934763469346E34F6
:1023120067343A3420340034533465346E346434D0
:1023220069346E3467343A34203400340A340D345C
:0C2332000A340D340034253458340034D3
:1025E00064008001840A0406031900340406F12AF9
:1025F000831603131F088F3910389F0003309F0480
:102600001D170800F000042B831203130C1E092B66
:102610000A2B042B0B2B700899000800831203135C
:10262000B500122B0C1E152B162B122B172B350851
:102630009900080000342034413400340034003460
:1026400000340034AA34AA34AA34AA3400347E08F0
:102650008A007F0882000A168A1127230A168A1127
:102660008000840A04087D0603190034FF0A031958
:10267000FE0A2B2B83120313B900081139080A161E
:102680008A117E230A168A118312031338080A1648
:102690008A117E230A168A11831203130815080073
:1026A000831603138717071302309800831203134E
:1026B000980183160313181118120C309900831215
:1026C0000313981783160313981608008312031335
:1026D000941614121408F039023894008316031368
:1026E00094131417823083120313B600DD30B50043
:1026F000B50B782BB60B782B7D2B080083120313B8
:10270000B700370893000330B6009730B500B50B1B
:10271000872BB60B872B8C2B8D2B831203138C1DD1
:10272000922B932B8D2B942B1308962B080007309C
:102730000A128A1504200A168A1183120313BB0099
:10274000BB1EA32BA42BB22B1030BB003B08B80040
:1027500027300A168A113A230A168A110130B52B3E
:10276000B52BB52B0030B52BB52B080007300A125E
:102770008A1504200A168A1183120313BB00BB1E9C
:10278000C22BC32BD12B2030BB003B08B800273015
:102790000A168A113A230A168A110130D42BD42B37
:1027A000D42B0030D42BD42B080083120313C40085
:1027B0004408C000C101C2014008B5004108B6008C
:1027C0004208B7008E30C3004308B800B9010A12AE
:1027D0008A151D200A168A11831203133508BD00BD
:1027E0003608BE003708BF00F52B0800831203131C
:1027F000BC0000300A128A1504200A168A118312BE
:102800000313BB003B08BD00BC08031D082C092CAA
:102810000E2CFD30BB003B08BD05102CBD14102C48
:102820003D08BB003B08B80020300A168A113A2345
:102830000A168A11080083120313B801E1300A1640
:102840008A113A230A168A118312031307110030E2
:102850000A128A1504200A168A1183120313BB0078
:102860003B08BC003C08FE39BB003B08BC003C08F0
:10287000BB003B08B80020300A168A113A230A161A
:102880008A11831203130715080083120313BB0078
:1028900008113B080A168A117E230A168A11831230
:1028A0000313BC01672C38088400831300080A1640
:1028B0008A117E230A168A11013083120313BA008B
:1028C0003A08B8070130BA003A08BC07672C390843
:1028D0003C02031C6C2C6D2C532C08150800831231
:1028E00003131F08C33914389F00831603131D08F0
:1028F000FC3902389D00831203131F14881503301E
:10290000B6009730B500B50B832CB60B832C882C02
:10291000831203139F148C2C9F188F2C902C8C2CBB
:10292000912C1E08B5003508B7001F108811370814
:10293000992C080083120313B901BA019F2C351C8E
:10294000A22CA32CA92C3708B9070318BA0A3808F7
:10295000BA0701300310B70DB80DFF3E031DAA2CB6
:1029600001300310B60CB50CFF3E031DB12C360828
:102970003504031DBC2CBD2C9F2CBE2C3A08B6017F
:10298000B6073908B501B507C52C0800DA01D00132
:10299000D101D201D301D401D501D6018313A030D6
:1029A0008400C6300A168A11F0220A168A11EA300B
:1029B000FD001330FE001A30FF00DD3084000A16DF
:1029C0008A112B230A168A115A30FD000830FE00A6
:1029D0000130FF00573084000A168A112B230A1693
:1029E0008A1183010A128A11A12B831203131F0873
:1029F000C3391C389F00831603131D08FC390138A6
:102A00009D00022D9D1F052D062D022D83120313FF
:102A10001F1408140D30B600FB30B500B50B0E2D99
:102A2000B60B0E2D132D831203139F14172D9F1811
:102A30001A2D1B2D172D1C2D1E08B5003508B700AB
:102A40001F1008103708242D0800831203131F08D5
:102A5000C33918389F00831603131D08FC39013849
:102A60009D00322D9D1F352D362D322D83120313DF
:102A70001F1408160330B6009730B500B50B3E2D75
:102A8000B60B3E2D432D831203139F14472D9F1821
:102A90004A2D4B2D472D4C2D1E08B5003508B7008B
:102AA0001F1008123708542D080083120313BC00AE
:102AB00007300A128A1504200A168A11831203139A
:102AC000BB003B08BD003D088039BB003B08BD0092
:102AD0003D08031D6C2D712D3C08031D702D7B2DB1
:102AE000712DBD08031D752D762D862D3C08031D07
:102AF0007A2D862D7B2D5330BB003B08B80050301B
:102B00000A168A113A230A168A11862D08008312A2
:102B10000313B801E2300A168A113A230A168A1101
:102B200007300A128A1504200A168A118312031329
:102B3000BB003B08BC003C08BB003B08B80027308A
:102B40000A168A113A230A168A11831203130711EF
:102B500000300A128A1504200A168A118312031300
:102B6000BB003B08BC003C080138BB003B08BC0074
:102B70003C08BB003B08B80020300A168A113A23F3
:102B80000A168A11831203130715080079087804BE
:102B90000319CB2DCC2D012EFD01FD0ADB2D0130BB
:102BA0000310F80DF90DFF3E031DD02D0130FC0080
:102BB0007C08FD07DB2DF91FDE2DDF2DCF2DE12D4C
:102BC000E12D79087B02031DE72D78087A02031CAA
:102BD000EA2DEB2DF22D7808FA027908031CFB038D
:102BE000FB02F22D01300310F90CF80CFF3E031D1F
:102BF000F32D0130FD02031DFE2DFF2DE12D012ED1
:102C0000012E7B08F901F9077A08F801F807082E68
:102C10000800831203133E083D040319102E112EE1
:102C2000462EC201C20A202E01300310BD0DBE0D7A
:102C3000FF3E031D152E0130C1004108C207202EA2
:102C4000BE1F232E242E142E262E262E3E08400292
:102C5000031D2C2E3D083F02031C2F2E302E372E35
:102C60003D08BF023E08031CC003C002372E0130DE
:102C70000310BE0CBD0CFF3E031D382E0130C202F6
:102C8000031D432E442E262E462E462E4008BE01FE
:102C9000BE073F08BD01BD074D2E0800F601F70134
:102CA000710870040319552E562E932EF501F50A5E
:102CB000652E01300310F00DF10DFF3E031D5A2E5D
:102CC0000130F4007408F507652EF11F682E692E97
:102CD000592E6B2E6B2E01300310F60DF70DFF3EB3
:102CE000031D6C2E71087302031D782E700872028A
:102CF000031C7B2E7C2E842E7008F2027108031CAC
:102D0000F303F3027614842E01300310F10CF00C5F
:102D1000FF3E031D852E0130F502031D902E912EDE
:102D20006B2E932E932E7708F101F1077608F001B0
:102D3000F0079A2E080083120313BB01BC0136086A
:102D400035040319A42EA52EE22EBA01BA0AB42E18
:102D500001300310B50DB60DFF3E031DA92E013045
:102D6000B9003908BA07B42EB61FB72EB82EA82E50
:102D7000BA2EBA2E01300310BB0DBC0DFF3E031D51
:102D8000BB2E36083802031DC72E35083702031C38
:102D9000CA2ECB2ED32E3508B7023608031CB80333
:102DA000B8023B14D32E01300310B60CB50CFF3E15
:102DB000031DD42E0130BA02031DDF2EE02EBA2EE1
:102DC000E22EE22E3C08B601B6073B08B501B50776
:102DD000E92E08000C1CED2EEE2E572F0130AE0010
:102DE0002E08D60710308F008E0156085906031D95
:102DF000FA2EFB2E552F3A30A0009130A1000A1276
:102E00008A1552240A168A11831203130808AE0089
:102E100005300310AE0CFF3E031D092F07302E05B1
:102E2000AF00540880392F04B0003008D4000808DF
:102E3000AE0006300310AE0CFF3E031D1A2F2E0805
:102E40000339AF002F08D500432F83160313C401A5
:102E5000C40A522F14308312AE002E0883160313B7
:102E6000C400522F28308312AE002E08831603139D
:102E7000C400522F78308312AE002E08831603133D
:102E8000C400522F522F83125508003A0319252FE0
:102E9000013A03192A2F033A0319322F013A031971
:102EA0003A2F522F8312D6015A140C10572F340880
:102EB000FF0033088A0032088400310E8300FE0EC2
:102EC0007E0E090083120313C71F672F682FA62FDA
:102ED000003083160313C6000030C7008030C800DE
:102EE00083120313450983160313C90083120313C6
:102EF000460983160313CA00831203134709831676
:102F00000313CB00C90A0319CA0A0319CB0A4908DB
:102F1000C6074A0803184A0F8E2F8F2FC7074B0882
:102F200003184B0F942F952FC807460883120313DD
:102F3000C50083160313470883120313C6008316C4
:102F40000313480883120313C700A62FCA1FA92F13
:102F5000AA2FE82F003083160313C6000030C700E5
:102F60008030C80083120313480983160313C90075
:102F700083120313490983160313CA008312031330
:102F80004A0983160313CB00C90A0319CA0A031995
:102F9000CB0A4908C6074A0803184A0FD02FD12F79
:102FA000C7074B0803184B0FD62FD72FC807460863
:102FB00083120313C80083160313470883120313F5
:102FC000C90083160313480883120313CA00E82FAD
:102FD0008030C7068030CA064A084702031DF62F14
:102FE00049084602031DF62F480845020318F92F29
:102FF000FA2FFC2F0310FF2F0314FF2FFF2F0800C1
:02400E00F5FCBF
:00000001FF
