:060000000A128A11122809
:10000800FE00030E83120313AF000408B0000A08B1
:10001800B1007F08B2000A128A15A22D0A128A15A9
:10002800802C033083120313BE000830BD007830E3
:10003800BC00BC0B1D28BD0B1D28BE0B1D280030A5
:100048000A128A11C3270A128A1183120313CF01D5
:1000580014304F02031C31283228342864286428BD
:1000680003144F0D4A3E840088300318013EFF00F8
:100078000A128A1500200A128A11BC003C08B60030
:100088004F08BD003D074A3E840088300318013EF2
:10009800FF000A128A1500200A128A1120380A1253
:1000A8008A1554240A128A11013083120313BC00E2
:1000B8003C08CF0714304F02031C632864283428F7
:1000C800D00105305002031C6A286B286D288B2844
:1000D8008B285008953E840088300318013EFF00A5
:1000E8000A128A1500200A128A11BC005008433EE1
:1000F80084003C08831380000130BC003C08D00712
:1001080005305002031C89288A286D288B28433023
:10011800BC003C08B6000530BD003D08B7002A30D9
:100128000A128A154E250A128A1183120313D00166
:1001380005305002031CA128A228A428C228C228DE
:1001480050089A3E840088300318013EFF000A12C6
:100158008A1500200A128A11BC005008433E840008
:100168003C08831380000130BC003C08D0070530F0
:100178005002031CC028C128A428C2284330BC0050
:100188003C08B6000530BD003D08B7002B300A1208
:100198008A154E250A128A1183120313D0010530DD
:1001A8005002031CD828D928DB28F928F928500838
:1001B800953E840088300318013EFF000A128A1514
:1001C80000200A128A11BC005008433E84003C08F3
:1001D800831380000130BC003C08D0070530500272
:1001E800031CF728F828DB28F9284330BC003C0812
:1001F800B6000530BD003D08B70030300A128A1538
:100208004E250A128A111D300A128A15AE240A12C6
:100218008A1183120313BC003C08CF00CF08031DCA
:100228001629172922297330BC003C08B600503023
:100238000A128A1554240A128A11222916308312A6
:100248000313BC003C08CF0015304F0203182D29BA
:100258002E2930295F295F2903144F0D4A3E840057
:1002680088300318013EFF000A128A1500200A127E
:100278008A11BC003C08B6004F08BD003D074A3E45
:10028800840088300318013EFF000A128A150020F6
:100298000A128A1120380A128A1554240A128A115D
:1002A800013083120313CF0215304F0203185D2962
:1002B8005E2930295F2901300A128A11C3270A12E0
:1002C8008A1183120313CF0109304F02031C6D29D1
:1002D8006E297029E429E429D00104305002031C56
:1002E800762977297929C829C8294F08BC000130FF
:1002F8000310BC0DFF3E031D7C2903103C0D123E6C
:10030800840088300318013EFF000A128A15002075
:100318000A128A11BD000A128A1500200A128A11CF
:10032800BE000A128A1500200A128A11BF000A129A
:100338008A1500200A128A11C0005008C100023034
:100348000310C10DFF3E031DA4290310410D013EFA
:10035800B2290310C00CBF0CBE0CBD0CFF3E031D20
:10036800AD293D08C2005008433E8400420883136B
:1003780080000130BC003C08D00704305002031C48
:10038800C629C7297929C8294330BC003C08B600CA
:100398000430BD003D08B7004F0820380A128A15FE
:1003A8004E250A128A11013083120313BC003C083F
:1003B800CF0709304F02031CE229E3297029E429F9
:1003C8000930BC003C08CF000E304F02031CED2959
:1003D800EE29F029652A652AD00104305002031C51
:1003E800F629F729F9294A2A4A2A4F08BC00013078
:1003F8000310BC0DFF3E031DFC2903103C0D123EEB
:10040800840088300318013EFF000A128A15002074
:100418000A128A11BD000A128A1500200A128A11CE
:10042800BE000A128A1500200A128A11BF000A1299
:100438008A1500200A128A11C0005003FF3AC10031
:1004480002300310C10DFF3E031D252A0310410D84
:10045800183E013E342A0310C00CBF0CBE0CBD0C64
:10046800FF3E031D2F2A3D08C2005008433E84006A
:100478004208831380000130BC003C08D0070430D8
:100488005002031C482A492AF9294A2A4330BC0049
:100498003C08B6000430BD003D08B7004F082038BE
:1004A8000A128A154E250A128A1101308312031383
:1004B800BC003C08CF070E304F02031C642A652A93
:1004C800F029D0010B305002031C6B2A6C2A6E2ACB
:1004D8008C2A8C2A5008783E840088300318013E04
:1004E800FF000A128A1500200A128A11BC0050085F
:1004F800433E84003C08831380000130BC003C0864
:10050800D0070B305002031C8A2A8B2A6E2A8C2AA9
:100518004330BC003C08B6000B30BD003D08B700B6
:100528002E300A128A154E250A128A1183120313D5
:10053800D00104305002031CA22AA32AA52AE82AC3
:10054800E82A223084008830FF000A128A15002029
:100558000A128A11BC000A128A1500200A128A118E
:10056800BD000A128A1500200A128A11BE000A125A
:100578008A1500200A128A11BF005008C0000230F4
:100588000310C00DFF3E031DC42A0310400D013E99
:10059800D22A0310BF0CBE0CBD0CBC0CFF3E031DC1
:1005A800CD2A3C08C1005008433E8400410883130B
:1005B80080000130BC003C08D00704305002031C06
:1005C800E62AE72AA52AE82A43080638BC003C0898
:1005D800C3004330BC003C08B6000430BD003D08F1
:1005E800B70024300A128A154E250A128A1183127E
:1005F80003134308F939BC003C08C3004330BC006E
:100608003C08B6000430BD003D08B70024300A128B
:100618008A154E250A128A11823083120313BD00EF
:10062800DD30BC00BC0B162BBD0B162B1B2B003072
:100638000A128A11C3270A128A1183120313071197
:100648000800433083120313C5004508C900B72CBE
:100658005008253A0319312B322B392B50080A122E
:100668008A152A240A128A11B72CCB01482BD42CBC
:100678006C2B6C2BCB176C2B50080A128A152A246A
:100688000A128A11B72C6C2B831203134208C60076
:100698004108C5000130C1070318C20A4608FF0017
:1006A800450884000A128A1500200A128A11D0000F
:1006B800003A0319D42C583A03193E2B3C3A031933
:1006C8006C2B0D3A03196C2B113A03193E2B402B56
:1006D80083120313CB1B712B722B8D2B49088400BB
:1006E80083130008CC00840A0008CD000230C5003E
:1006F8004508C907CD1F812B822B0A2C0330C50062
:100708004508CB04CC09CD09CC0A0319CD0A0A2C1B
:100718000A2C4908840083130008CC00840A0008C6
:10072800CD000230C5004508C9070A2C0A2CD001A3
:10073800D00A5008053A031DA22BA32BA52B132C76
:10074800132C5008C5004507833E840088300318E1
:10075800013EFF000A128A1500200A128A11C600FB
:100768000A128A1500200A128A11C70047084D028A
:10077800031DC02B46084C020318C32BC42BC62BE1
:10078800132C132C0130C5004508D0075008053A32
:10079800031DCF2BD02BA52B132C132CD001D00A43
:1007A8005008043A031DD92BDA2BDC2B132C132CFD
:1007B8005008C50045078D3E840088300318013E67
:1007C800FF000A128A1500200A128A11C6000A12AE
:1007D8008A1500200A128A11C70047084D02031D16
:1007E800F72B46084C020318FA2BFB2BFD2B132C76
:1007F800132C0130C5004508D0075008043A031DE2
:10080800062C072CDC2B132C132C132C4B088039AB
:10081800003A03199B2B803A0319D22B132C4B084F
:1008280003390319182C192C202C2D300A128A157B
:100838002A240A128A11202C831203135008C50097
:100848004508CA00A92C992C0A30BB000030BC000E
:100858004A08C5004507833E840088300318013ED6
:10086800FF000A128A1500200A128A11B3000A1220
:100878008A1500200A128A11B4004D08B601B6077D
:100888004C08B501B5070A128A15E2260A128A1120
:10089800831203133408BE01BE073308BD01BD0728
:1008A8000A128A1550260A128A11831203133B086A
:1008B800303EC6004608D000A22C4A08C5004507AD
:1008C8008D3E840088300318013EFF000A128A1505
:1008D80000200A128A11B3000A128A1500200A128F
:1008E8008A11B4004D08B601B6074C08B501B50722
:1008F8000A128A15E2260A128A1183120313330890
:100908000F39C6004608C8004808CE3E8400883023
:100918000318013EFF000A128A1500200A128A11E4
:10092800C5004508D000A22CA22C4B088039003AFB
:100938000319282C803A0319612CA22C50080A129A
:100948008A152A240A128A11A92CFF30831203134C
:10095800C5004508CA074A08FF3A031DB42CB52C40
:10096800992CB72CB72C831203134208C6004108F0
:10097800C5000130C1070318C20A4608FF00450830
:1009880084000A128A1500200A128A11C700470833
:10099800D000D008031DD12CD22C2C2BD42CD42C35
:1009A8000800223083120313A2002208A600652E35
:1009B8002D08253A0319E12CE22CE92C2D080A12FE
:1009C8008A151E240A128A11652EA801F82C822E77
:1009D8001C2D1C2DA8171C2D2D080A128A151E2443
:1009E8000A128A11652E1C2D831203132108A300F5
:1009F8002008A2000130A0070318A10A2308FF005D
:100A0800220884000A128A1500200A128A11AD00F1
:100A1800003A0319822E583A0319EE2C3C3A03196E
:100A28001C2D0D3A03191C2D113A0319EE2CF02C2C
:100A380083120313A81B212D222D3D2D2608840087
:100A480083130008A900840A0008AA000230A20043
:100A58002208A607AA1F312D322DBA2D0330A20075
:100A68002208A804A909AA09A90A0319AA0ABA2DD9
:100A7800BA2D2608840083130008A900840A0008F8
:100A8800AA000230A2002208A607BA2DBA2DAD018D
:100A9800AD0A2D08053A031D522D532D552DC32D92
:100AA800C32D2D08A2002207833E84008830031836
:100AB800013EFF000A128A1500200A128A11A300BB
:100AC8000A128A1500200A128A11A40024082A0290
:100AD800031D702D230829020318732D742D762DFC
:100AE800C32DC32D0130A2002208AD072D08053AF9
:100AF800031D7F2D802D552DC32DC32DAD01AD0AAE
:100B08002D08043A031D892D8A2D8C2DC32DC32D44
:100B18002D08A20022078D3E840088300318013E6C
:100B2800FF000A128A1500200A128A11A3000A126D
:100B38008A1500200A128A11A40024082A02031D1B
:100B4800A72D230829020318AA2DAB2DAD2DC32DDF
:100B5800C32D0130A2002208AD072D08043A031D59
:100B6800B62DB72D8C2DC32DC32DC32D2808803944
:100B7800003A03194B2D803A0319822DC32D2808FA
:100B880003390319C82DC92DD02D2D300A128A1505
:100B98001E240A128A11D02D831203132D08A200D5
:100BA8002208A700572E472E0A30F8000030F90017
:100BB8002708A2002207833E840088300318013EDC
:100BC800FF000A128A1500200A128A11F0000A1280
:100BD8008A1500200A128A11F1002A08F301F30786
:100BE8002908F201F2070A128A1595260A128A11B3
:100BF8007108FB01FB077008FA01FA070A128A1547
:100C08000D260A128A117808303E83120313A300B6
:100C18002308AD00502E2708A20022078D3E84002D
:100C280088300318013EFF000A128A1500200A12B4
:100C38008A11F0000A128A1500200A128A11F1009E
:100C48002A08F301F3072908F201F2070A128A15A4
:100C580095260A128A1170080F3983120313A3000C
:100C68002308A5002508CE3E840088300318013EDD
:100C7800FF000A128A1500200A128A11A20022080F
:100C8800AD00502E502E28088039003A0319D82D6F
:100C9800803A03190F2E502E2D080A128A151E2489
:100CA8000A128A11572EFF3083120313A20022085A
:100CB800A7072708FF3A031D622E632E472E652ECD
:100CC800652E831203132108A3002008A200013017
:100CD800A0070318A10A2308FF00220884000A12AB
:100CE8008A1500200A128A11A4002408AD00AD0854
:100CF800031D7F2E802EDC2C822E822E08000030D1
:100D080083160313CA000030C9000030C800003041
:100D1800C7001008CF392038900083160317081031
:100D2800071387138316031308108312031308107D
:100D38008316031307138316031707110811871265
:100D480088108316031309158316031709158316CC
:100D580003130711081187118712071688148312C5
:100D6800031307118B170B17831603130C14831225
:100D780003130814023083160313A6000430A500D9
:100D8800BA30A400A40BC62EA50BC62EA60BC62EE1
:100D98000000831203130810023083160313A60001
:100DA8000430A500BA30A400A40BD82EA50BD82E69
:100DB800A60BD82E00006030831203138F008E011B
:100DC80010083F39803890003030900483160313A0
:100DD8008F17831203131015901510140A128A1511
:100DE8006A240A128A110A128A1596240A128A118A
:100DF8000A128A1536240A128A110A128A154324FD
:100E08000A128A11F03083120313C1008830C2001D
:100E18000A128A1543240A128A1183160313A4009E
:100E2800A501240883120313C3008316031325089E
:100E380083120313C4000A128A1125230A128A1185
:100E480000300A128A1529250A128A110A128A11F3
:100E580015200A128A11302F023083160313A600B8
:100E68000430A500BA30A400A40B382FA50B382FE6
:100E7800A60B382F0000003083160313CA00003079
:100E8800C9000030C8000030C7004A08803AFF0097
:100E98000030803A7F02031D5B2F00304902031D9A
:100EA8005B2F00304802031D5B2F01304702031CF3
:100EB8005E2F5F2F612F912F912F47085A3E840094
:100EC80083130008A4004708A73E84002408800074
:100ED8000130C707003003180130C8070030031875
:100EE8000130C907003003180130CA074A08803AA0
:100EF800FF000030803A7F02031D8C2F003049022A
:100F0800031D8C2F00304802031D8C2F013047022F
:100F1800031C8F2F902F612F912F5A30A400240883
:100F280083120313D100D201D20AB0300A128A15F3
:100F380031270A128A11013083160313A4002408EA
:100F480083120313DA07071110105F308F00E9309E
:100F58008E001014023083160313A6000430A50077
:100F6800BA30A400A40BB62FA50BB62FA60BB62F2C
:100F780000006300302F302F0A128A1112288312C2
:100F88000313BA0007300A128A15AE240A128A110E
:100F980083120313B9003908BB003B088039B90034
:100FA8003908BB003B08031DDA2FDF2F3A08031D61
:100FB800DE2FE92FDF2FBB08031DE32FE42FF42FCB
:100FC8003A08031DE82FF42FE92F5330B9003908E8
:100FD800B60050300A128A1554240A128A11F42FC6
:100FE800080064008001840A04060319003404061A
:040FF800F62F01349B
:10100000FF1B0A2883137F1883170008840A03191B
:10101000FF0A08007F087F398A000408840A031940
:10102000FF0A820040344B340134E234C0344B3484
:1010300000340034D034FC348C340234993400341D
:1010400039344134F9349E3486340B342434063434
:101050007F34A634003400340034003400340034CB
:1010600000340034003400340034003400340034E0
:1010700000340034003400340034003400340034D0
:1010800000340034003473341234003400348034BB
:10109000B434363400340F3401343F3402343F3436
:1010A000033403340434FF34053417340634013474
:1010B0000734073408340034093400340C34C334A2
:1010C0000D34C4340E34C5340F34C63411342034D6
:1010D00012342034133420341434203415342034A2
:1010E00016342034173400341C343F341D34073494
:1010F000413420340834043481342034CF34F7347C
:10110000FE34FF34FF34013400340A3400346434D4
:101110000034E834033410342734013400341034FC
:101120000034003401340034103434344334103487
:10113000103401343934383437343634C2341C3442
:101140003F341D3407344E346F34203464346134FA
:10115000743461342034733465346E3474343A3406
:1011600020344534523452344F34523420340D3408
:101170000A34203400344534633463346F346D34BE
:10118000693420346E3465346C346C34273449341B
:101190005334523421340D340A3400343034313471
:1011A00032343334343435343634373438343934F3
:1011B00041344234433444344534463400344434B6
:1011C0006134743461342034733465346E3474346F
:1011D0003A3420344F344B3420340D340A34003444
:1011E0004134443443342034763461346C347534BF
:1011F00065343A342034253464340D340A340034F0
:1012000052346534633465346934763469346E3409
:1012100067343A3420340034533465346E346434E3
:1012200069346E3467343A34203400340A340D346F
:0C1230000A340D340034253458340034E6
:10183C00F000202C831203130C1E252C262C202C9C
:10184C00272C70089900080083120313B3002E2C68
:10185C000C1E312C322C2E2C332C33089900080002
:10186C00831203131F08C3391C389F008F30831653
:10187C0003139F05FC309F050800831203131F14EC
:10188C009F14482C9F184B2C4C2C482C4D2C1E086C
:10189C00B3003308B4003408532C0800831203132C
:1018AC00B700081137080A128A1505250A128A157D
:1018BC008312031336080A128A1505250A128A1593
:1018CC0083120313081508008316031387170713D5
:1018DC000230980083120313980183160313181116
:1018EC0018120C30990083120313981783160313E4
:1018FC0098160800DB01D901DA018313CB30840080
:10190C00EB300A128A11F5270A128A150A128A116B
:10191C00FD270A128A15DC0083010A128A11832E14
:10192C0083120313941614121408F039023894001D
:10193C008316031394131417823083120313B40009
:10194C00DD30B300B30BA82CB40BA82CAD2C0800C5
:10195C0083120313B700081137080A128A150525DC
:10196C000A128A1500300A128A1505250A128A15E0
:10197C0083120313B6003608B80008153808C62CB5
:10198C00080007300A128A15AE240A128A1583122F
:10199C000313B900B91ED32CD42CE22C1030B9008F
:1019AC003908B60027300A128A1554240A128A15EF
:1019BC000130E52CE52CE52C0030E52CE52C08005D
:1019CC0007300A128A15AE240A128A1583120313E1
:1019DC00B900B91EF22CF32C012D2030B9003908B6
:1019EC00B60027300A128A1554240A128A150130BF
:1019FC00042D042D042D0030042D042D0800831219
:101A0C000313B500350893000B30B4006230B300FB
:101A1C00B30B0E2DB40B0E2D0000142D83120313DB
:101A2C008C1D192D1A2D142D1B2D0B30B40062306A
:101A3C00B300B30B1F2DB40B1F2D00008312031327
:101A4C001308282D080083120313BA0000300A1261
:101A5C008A15AE240A128A1583120313B9003908A9
:101A6C00BB00BA08031D3B2D3C2D412D0230B900A3
:101A7C003908BB06432DBB14432D3B08B90039086C
:101A8C00B60020300A128A1554240A128A1508004E
:101A9C0083120313B900081139080A128A15052597
:101AAC000A128A1583120313BA01702D36088400AA
:101ABC00831300080A128A1505250A128A150130AB
:101ACC0083120313B8003808B6070130B800380881
:101ADC00BA07702D37083A02031C752D762D5C2D34
:101AEC000815080083120313B601E1300A128A1597
:101AFC0054240A128A1583120313071100300A1298
:101B0C008A15AE240A128A1583120313B9003908F8
:101B1C00BA003A08FE39B9003908BA003A08B900D7
:101B2C003908B60020300A128A1554240A128A1574
:101B3C0083120313071508000C1CA52DA62DC32D0D
:101B4C000130AE002E08D90760308F008E01590885
:101B5C005C06031DB22DB32DC12DBB30A000883007
:101B6C00A1000A128A11D5240A128A1583120313B2
:101B7C00D9015B14C12D0C10C32D3208FF003108A4
:101B8C008A00300884002F0E8300FE0E7E0E0900A2
:101B9C0083120313B601E2300A128A1554240A1276
:101BAC008A1507300A128A15AE240A128A15831276
:101BBC000313B9003908BA003A08B9003908B6005D
:101BCC0027300A128A1554240A128A158312031319
:101BDC00071100300A128A15AE240A128A158312D4
:101BEC000313B9003908BA003A080138B9003908AA
:101BFC00BA003A08B9003908B60020300A128A1522
:101C0C0054240A128A158312031307150800790845
:101C1C0078040319122E132E482EFD01FD0A222ED4
:101C2C0001300310F80DF90DFF3E031D172E013086
:101C3C00FC007C08FD07222EF91F252E262E162EC1
:101C4C00282E282E79087B02031D2E2E78087A0266
:101C5C00031C312E322E392E7808FA027908031C17
:101C6C00FB03FB02392E01300310F90CF80CFF3E7C
:101C7C00031D3A2E0130FD02031D452E462E282E43
:101C8C00482E482E7B08F901F9077A08F801F80765
:101C9C004F2E0800831203133C083B040319572EE4
:101CAC00582E8D2EC001C00A672E01300310BB0DBB
:101CBC00BC0DFF3E031D5C2E0130BF003F08C0076A
:101CCC00672EBC1F6A2E6B2E5B2E6D2E6D2E3C0864
:101CDC003E02031D732E3B083D02031C762E772E0D
:101CEC007E2E3B08BD023C08031CBE03BE027E2EAA
:101CFC0001300310BC0CBB0CFF3E031D7F2E0130CA
:101D0C00C002031D8A2E8B2E6D2E8D2E8D2E3E081D
:101D1C00BC01BC073D08BB01BB07942E0800F601B3
:101D2C00F7017108700403199C2E9D2EDA2EF50113
:101D3C00F50AAC2E01300310F00DF10DFF3E031D22
:101D4C00A12E0130F4007408F507AC2EF11FAF2E54
:101D5C00B02EA02EB22EB22E01300310F60DF70DC0
:101D6C00FF3E031DB32E71087302031DBF2E7008B6
:101D7C007202031CC22EC32ECB2E7008F202710805
:101D8C00031CF303F3027614CB2E01300310F10C79
:101D9C00F00CFF3E031DCC2E0130F502031DD72E97
:101DAC00D82EB22EDA2EDA2E7708F101F10776084A
:101DBC00F001F007E12E080083120313B801B901FA
:101DCC00340833040319EB2EEC2E292FBA01BA0A6E
:101DDC00FB2E01300310B30DB40DFF3E031DF02E8E
:101DEC000130B7003708BA07FB2EB41FFE2EFF2EAA
:101DFC00EF2E012F012F01300310B80DB90DFF3E4E
:101E0C00031D022F34083602031D0E2F3308350232
:101E1C00031C112F122F1A2F3308B5023408031C80
:101E2C00B603B60238141A2F01300310B40CB30CDD
:101E3C00FF3E031D1B2F0130BA02031D262F272F37
:101E4C00012F292F292F3908B401B4073808B30101
:101E5C00B307302F080083120313D6000A128A1519
:101E6C0078250A128A1517300A128A15AE240A121E
:101E7C008A1583120313D3005308D700D71A472FA0
:101E8C00482FFF2F0C30C1008930C2000A128A1172
:101E9C0025230A128A1583120313D801722F1B30C3
:101EAC00C1008930C20058085107D3005308840080
:101EBC0083130008D400D5015408C3005508C4008E
:101ECC000A128A1125230A128A1501308312031370
:101EDC00D3005308D807722F52085802031C772FCF
:101EEC00782F552F792F1830C1008930C2000A1273
:101EFC008A1125230A128A1583120313071151081C
:101F0C00D3005308B6005208D4005408B700560842
:101F1C000A128A154E250A128A1583120313071505
:101F2C000630D300D30B982F000083120313071134
:101F3C000330D4009730D300D30BA22FD40BA22F95
:101F4C00A72FDF2F0A128A15E6240A128A15003AE7
:101F5C000319B12FB22FC32FDF3083120313C1002B
:101F6C008830C2000A128A1125230A128A150A1215
:101F7C008A15CE250A128A15C32F0A128A15C72470
:101F8C000A128A15003A0319CC2FCD2FDF2FA3305C
:101F9C0083120313C1008830C2000A128A11252350
:101FAC000A128A150A128A15CE250A128A15DF2FF3
:101FBC00DF2F83120313881CE42FE52FA82FE62FA5
:101FCC001630C1008930C2000A128A1125230A1268
:101FDC008A15023083120313D5000430D400BA30B2
:101FEC00D300D30BF72FD40BF72FD50BF72F000003
:041FFC00FF2F0800AB
:04400E00F5FCCFFFEF
:00000001FF
