:060000000A128A11122809
:10000800FE00030E83120313AF000408B0000A08B1
:10001800B1007F08B2000A128A15D02C0A128A157C
:10002800992B83160313C1000A128A15A6240A12F3
:100038008A1117300A128A15DC230A128A118312D0
:100048000313D500550883160313C200C21A2D28BE
:100058002E28E828283083120313C1009130C200EB
:100068000A128A11CC250A128A1183160313C301B6
:100078006228373083120313C1009130C2008316FF
:1000880003134308831203135307D500550884004C
:1000980083130008D600D7015608C3005708C400C8
:1000A8000A128A11CC250A128A110130831203130D
:1000B800D500550883160313C30762288312031358
:1000C8005408831603134302031C6B286C283D282D
:1000D8006D28343083120313C1009130C2000A1214
:1000E8008A11CC250A128A118312031307115308A7
:1000F800D5005508B6005408D6005608B700831630
:10010800031341080A128A157C240A128A118312E1
:10011800031307150630D500D50B9028000083126D
:10012800031307110330D6009730D500D50B9A2852
:10013800D60B9A289F28D7280A128A1514240A123F
:100148008A11003A0319A928AA28BB280B30831260
:100158000313C1009130C2000A128A11CC250A1279
:100168008A110A128A15FB240A128A11BB280A125C
:100178008A15F5230A128A11003A0319C428C528DA
:10018800D728A33083120313C1009030C2000A128B
:100198008A11CC250A128A110A128A15FB240A121E
:1001A8008A11D728D72883120313881CDC28DD2856
:1001B800A028DE283230C1009130C2000A128A110C
:1001C800CC250A128A11E82808008316031387171A
:1001D8000713023098008312031398018316031340
:1001E800181118120C3099008312031398178316EC
:0601F80003139816080035
:10020000FF0001308A007F08820705290A128A153B
:100210007D2D033083120313BE000830BD007830FB
:10022000BC00BC0B1129BD0B1129BE0B11290030DC
:100230000A128A11CB270A128A1183120313CF01E3
:1002400014304F02031C252926292829582958290A
:1002500003144F0D4A3E840090300318013EFF0006
:100260000A168A1100200A128A11BC003C08B60046
:100270004F08BD003D074A3E840090300318013E00
:10028000FF000A168A1100200A128A1120380A1269
:100290008A15AE230A128A11013083120313BC009F
:1002A0003C08CF0714304F02031C5729582928292E
:1002B000D00105305002031C5E295F2961297F2986
:1002C0007F295008953E840090300318013EFF00BE
:1002D0000A168A1100200A128A11BC005008433EF7
:1002E00084003C08831380000130BC003C08D00728
:1002F00005305002031C7D297E2961297F29433066
:10030000BC003C08B6000530BD003D08B7002A30EF
:100310000A128A157C240A128A1183120313D0014F
:1003200005305002031C952996299829B629B6292B
:1003300050089A3E840090300318013EFF000A16D0
:100340008A1100200A128A11BC005008433E840022
:100350003C08831380000130BC003C08D007053006
:100360005002031CB429B5299829B6294330BC0092
:100370003C08B6000530BD003D08B7002B300A121E
:100380008A157C240A128A1183120313D0010530C6
:100390005002031CCC29CD29CF29ED29ED29500885
:1003A000953E840090300318013EFF000A168A1122
:1003B00000200A128A11BC005008433E84003C0809
:1003C000831380000130BC003C08D0070530500288
:1003D000031CEB29EC29CF29ED294330BC003C0854
:1003E000B6000530BD003D08B70030300A128A154E
:1003F0007C240A128A111D300A128A15DC230A1283
:100400008A1183120313BC003C08CF00CF08031DE0
:100410000A2A0B2A162A7330BC003C08B60050305A
:100420000A128A15AE230A128A11162A163083126E
:100430000313BC003C08CF0015304F020318212ADB
:10044000222A242A532A532A03144F0D4A3E840099
:1004500090300318013EFF000A168A1100200A128C
:100460008A11BC003C08B6004F08BD003D074A3E5B
:10047000840090300318013EFF000A168A11002004
:100480000A128A1120380A128A15AE230A128A111A
:10049000013083120313CF0215304F020318512A83
:1004A000522A242A532A01300A128A11CB270A120F
:1004B0008A1183120313CF0109304F02031C612AF2
:1004C000622A642AD82AD82AD00104305002031C98
:1004D0006A2A6B2A6D2ABC2ABC2A4F08BC0001304C
:1004E0000310BC0DFF3E031D702A03103C0D123E8D
:1004F000840090300318013EFF000A168A11002084
:100500000A128A11BD000A168A1100200A128A11E5
:10051000BE000A168A1100200A128A11BF000A16AC
:100520008A1100200A128A11C0005008C10002304E
:100530000310C10DFF3E031D982A0310410D013E1B
:10054000A62A0310C00CBF0CBE0CBD0CFF3E031D41
:10055000A12A3D08C2005008433E8400420883138C
:1005600080000130BC003C08D00704305002031C5E
:10057000BA2ABB2A6D2ABC2A4330BC003C08B6000C
:100580000430BD003D08B7004F0820380A128A1514
:100590007C240A128A11013083120313BC003C0828
:1005A000CF0709304F02031CD62AD72A642AD82A3B
:1005B0000930BC003C08CF000E304F02031CE12A7A
:1005C000E22AE42A592B592BD00104305002031C93
:1005D000EA2AEB2AED2A3E2B3E2B4F08BC000130C5
:1005E0000310BC0DFF3E031DF02A03103C0D123E0C
:1005F000840090300318013EFF000A168A11002083
:100600000A128A11BD000A168A1100200A128A11E4
:10061000BE000A168A1100200A128A11BF000A16AB
:100620008A1100200A128A11C0005003FF3AC1004B
:1006300002300310C10DFF3E031D192B0310410DA5
:10064000183E013E282B0310C00CBF0CBE0CBD0C85
:10065000FF3E031D232B3D08C2005008433E84008B
:100660004208831380000130BC003C08D0070430EE
:100670005002031C3C2B3D2BED2A3E2B4330BC008B
:100680003C08B6000430BD003D08B7004F082038D4
:100690000A128A157C240A128A110130831203136C
:1006A000BC003C08CF070E304F02031C582B592BBF
:1006B000E42AD0010B305002031C5F2B602B622B0D
:1006C000802B802B5008783E840090300318013E28
:1006D000FF000A168A1100200A128A11BC00500875
:1006E000433E84003C08831380000130BC003C087A
:1006F000D0070B305002031C7E2B7F2B622B802BEC
:100700004330BC003C08B6000B30BD003D08B700CC
:100710002E300A128A157C240A128A1183120313BE
:10072000D00104305002031C962B972B992BDC2B05
:10073000DC2B223084009030FF000A168A11002042
:100740000A128A11BC000A168A1100200A128A11A4
:10075000BD000A168A1100200A128A11BE000A166C
:100760008A1100200A128A11BF005008C00002300E
:100770000310C00DFF3E031DB82B0310400D013EBA
:10078000C62B0310BF0CBE0CBD0CBC0CFF3E031DE2
:10079000C12B3C08C1005008433E8400410883132C
:1007A00080000130BC003C08D00704305002031C1C
:1007B000DA2BDB2B992BDC2B43080638BC003C08DA
:1007C000C3004330BC003C08B6000430BD003D0807
:1007D000B70024300A128A157C240A128A11831267
:1007E00003134308F939BC003C08C3004330BC0084
:1007F0003C08B6000430BD003D08B70024300A12A2
:100800008A157C240A128A11823083120313BD00D8
:10081000DD30BC00BC0B0A2CBD0B0A2C0F2C0030A9
:100820000A128A11CB270A128A11831203130711A5
:100830000800003083160317B5000030B400003004
:10084000B3000030B200831603131008CF392038EC
:1008500090008316031708100713871383160313DA
:10086000081083120313081083160313071383164B
:10087000031707110811871288108316031309152F
:10088000831603170915831603130711081187111F
:100890008712071688148312031307118316031394
:1008A00089108316031789108316031309158316FD
:1008B0000317091583160313091483160317091068
:1008C00083160313091483160317091483160313DD
:1008D00088118312031388118B170B1783160313C8
:1008E0000C14831203138F018E0110083F398038D6
:1008F000900030309004831603138F178312031374
:100900001015901510140A128A15C4230A128A11A0
:100910000A128A11E9200A128A110A128A15712311
:100920000A128A1100300A128A1557240A128A11F3
:10093000630063006300073083160313C800480890
:1009400083120313B300B4010A128A157D250A121B
:100950008A11073083160313C80048088312031353
:10096000B300B4010A128A157D250A128A11831672
:100970000313C900CA010230FF000310C90DCA0DDC
:10098000FF0BBD2C49080C3E83160317B0008316DD
:1009900003134A080318013EFE3E83160317B100F5
:1009A000BB3083120313C1009030C20083160317BB
:1009B000310883120313C401C407831603173008D8
:1009C00083120313C301C30783160317310883126D
:1009D0000313C601C60783160317300883120313D7
:1009E000C501C5070A128A11CC250A128A110530E1
:1009F00083160313C800480883120313B300B4011D
:100A0000B40A0A128A157D250A128A118316031365
:100A1000C900CA01490883160317B00083160313DF
:100A20004A0883160317B100D23083120313C100A2
:100A30009030C20083160317310883120313C401D8
:100A4000C40783160317300883120313C301C307B7
:100A50000A128A11CC250A128A1119308312031343
:100A6000C1009130C2000A128A11CC250A128A11E3
:100A70000A128A1109210A128A1163003F2D0130DE
:100A80000A128A1557240A128A1100308316031796
:100A9000B5000030B4000030B3000030B2003508BB
:100AA000803AFF000030803A7F02031D612D003044
:100AB0003402031D612D00303302031D612D01300E
:100AC0003202031C642D652D672DA02DA02D320848
:100AD000C03E84008313000883160313C8008316E6
:100AE00003173208903E84008316031348088317C7
:100AF0008000013083160317B2070030031801305D
:100B0000B307003003180130B40700300318013078
:100B1000B5073508803AFF000030803A7F02031D98
:100B20009B2D00303402031D9B2D00303302031D2A
:100B30009B2D01303202031C9E2D9F2D672DA02D71
:100B4000C03083160313C800480883120313D30070
:100B5000D401D40AB0300A128A1115200A128A115F
:100B6000013083160313C8004808C007831203131B
:100B7000071100300A128A1557240A128A118312AB
:100B8000031310108F018E011014630063003F2DBA
:100B90003F2D0A128A111228433083120313C70013
:100BA0004708CB005E2F5208253A0319D82DD92DBE
:100BB000E02D52080A128A158D230A128A115E2F1F
:100BC000CD01EF2D7B2F132E132ECD17132E520890
:100BD0000A128A158D230A128A115E2F132E831290
:100BE00003134208C8004108C7000130C1070318B9
:100BF000C20A4808FF00470884000A168A1100202C
:100C00000A128A11D200003A03197B2F583A0319AD
:100C1000E52D3C3A0319132E0D3A0319132E113A00
:100C20000319E52DE72D83120313CD1B182E192E62
:100C3000342E4B08840083130008CE00840A000879
:100C4000CF000230C7004708CB07CF1F282E292E20
:100C5000B12E0330C7004708CD04CE09CF09CE0A14
:100C60000319CF0AB12EB12E4B088400831300085C
:100C7000CE00840A0008CF000230C7004708CB0727
:100C8000B12EB12ED201D20A5208053A031D492EC7
:100C90004A2E4C2EBA2EBA2E5208C7004707833E62
:100CA000840090300318013EFF000A168A110020CC
:100CB0000A128A11C8000A168A1100200A128A1123
:100CC000C90049084F02031D672E48084E02031849
:100CD0006A2E6B2E6D2EBA2EBA2E0130C700470831
:100CE000D2075208053A031D762E772E4C2EBA2EC7
:100CF000BA2ED201D20A5208043A031D802E812E48
:100D0000832EBA2EBA2E5208C70047078D3E8400A4
:100D100090300318013EFF000A168A1100200A12C3
:100D20008A11C8000A168A1100200A128A11C90005
:100D300049084F02031D9E2E48084E020318A12E9B
:100D4000A22EA42EBA2EBA2E0130C7004708D20711
:100D50005208043A031DAD2EAE2E832EBA2EBA2EA3
:100D6000BA2E4D088039003A0319422E803A0319F1
:100D7000792EBA2E4D0803390319BF2EC02EC72E67
:100D80002D300A128A158D230A128A11C72E83125A
:100D900003135208C7004708CC00502F402F0A30D9
:100DA000BB000030BC004C08C7004707833E8400EE
:100DB00090300318013EFF000A168A1100200A1223
:100DC0008A11B3000A168A1100200A128A11B4008F
:100DD0004F08B601B6074E08B501B5070A128A11C9
:100DE0007C270A128A11831203133408BE01BE073E
:100DF0003308BD01BD070A128A15C0250A128A11DF
:100E0000831203133B08303EC8004808D200492F24
:100E10004C08C70047078D3E840090300318013E00
:100E2000FF000A168A1100200A128A11B3000A165E
:100E30008A1100200A128A11B4004F08B601B607C1
:100E40004E08B501B5070A128A117C270A128A11C9
:100E50008312031333080F39C8004808CA004A0830
:100E6000FA3E840090300318013EFF000A168A11F2
:100E700000200A128A11C7004708D200492F492FC3
:100E80004D088039003A0319CF2E803A0319082FF4
:100E9000492F52080A128A158D230A128A11502FDF
:100EA000FF3083120313C7004708CC074C08FF3AF2
:100EB000031D5B2F5C2F402F5E2F5E2F83120313C9
:100EC0004208C8004108C7000130C1070318C20A20
:100ED0004808FF00470884000A168A1100200A12F9
:100EE0008A11C9004908D200D208031D782F792F32
:100EF000D32D7B2F7B2F080083120313B901BA0176
:100F0000340833040319852F862FC32FB801B80A7C
:100F1000952F01300310B30DB40DFF3E031D8A2F32
:100F20000130B7003708B807952FB41F982F992FB5
:100F3000892F9B2F9B2F01300310B90DBA0DFF3E57
:100F4000031D9C2F34083602031DA82F33083502D9
:100F5000031CAB2FAC2FB42F3308B5023408031C8D
:100F6000B603B6023914B42F01300310B40CB30C1D
:100F7000FF3E031DB52F0130B802031DC02FC12F46
:100F80009B2FC32FC32F3A08B401B4073908B3010C
:100F9000B307CA2F080083120313BA0007300A12DE
:100FA0008A15DC230A128A1183120313B900390847
:100FB000BB003B088039B9003908BB003B08031D62
:100FC000E22FE72F3A08031DE62FF12FE72FBB088A
:100FD000031DEB2FEC2FFC2F3A08031DF02FFC2FE5
:100FE000F12F5330B9003908B60050300A128A1573
:0C0FF000AE230A128A11FC2F0800013405
:1016E2008F30831603139F0503309F041D170800D4
:1016F20064008001840A04060319003404067A2B6C
:10170200F000832B831203130C1E882B892B832B4F
:101712008A2B70089900080083120313B300912BDF
:101722000C1E942B952B912B962B330899000800B5
:10173200D801D9018313A0308400C1300A128A155E
:1017420079230A128A150A128A11FD270A128A15AA
:10175200DA0083010A128A11192C83120313B700CB
:10176200081137080A128A1533240A128A158312BD
:10177200031336080A128A1533240A128A158312B1
:101782000313081508008312031394161412140885
:10179200F03902389400831603139413141782301D
:1017A20083120313B400DD30B300B30BD62BB40B9A
:1017B200D62BDB2B080083120313B700081137085E
:1017C2000A128A1533240A128A1500300A128A155F
:1017D20033240A128A1583120313B6003608B8009E
:1017E20008153808F42B080007300A128A15DC2382
:1017F2000A128A1583120313B900B91E012C022C96
:10180200102C1030B9003908B60027300A128A1598
:10181200AE230A128A150130132C132C132C00301C
:10182200132C132C080007300A128A15DC230A1223
:101832008A1583120313B900B91E202C212C2F2CD8
:101842002030B9003908B60027300A128A15AE23B3
:101852000A128A150130322C322C322C0030322CF2
:10186200322C080083120313B500350893000B30A5
:10187200B4006230B300B30B3C2CB40B3C2C000020
:10188200422C831203138C1D472C482C422C492CCA
:101892000B30B4006230B300B30B4D2CB40B4D2CA3
:1018A2000000831203131308562C0800831203133B
:1018B200BA0000300A128A15DC230A128A15831232
:1018C2000313B9003908BB00BA08031D692C6A2C3E
:1018D2006F2C0230B9003908BB06712CBB14712C75
:1018E2003B08B9003908B60020300A128A15AE2327
:1018F2000A128A15080083120313B9000811390865
:101902000A128A1533240A128A1583120313BA01A2
:101912009E2C36088400831300080A128A15332489
:101922000A128A15013083120313B8003808B60769
:101932000130B8003808BA079E2C37083A02031C57
:10194200A32CA42C8A2C0815080083120313B601B9
:10195200E1300A128A15AE230A128A158312031382
:10196200071100300A128A15DC230A128A15831223
:101972000313B9003908BA003A08FE39B900390828
:10198200BA003A08B9003908B60020300A128A159E
:10199200AE230A128A1583120313071508000C1CC2
:1019A200D32CD42CF02C0130AE002E08D9078F0195
:1019B2008E0159085A06031DDF2CE02CEE2CE7306D
:1019C200A0009030A1000A128A1552260A128A1526
:1019D20083120313D9015814EE2C0C10F02C320888
:1019E200FF0031088A00300884002F0E8300FE0EAB
:1019F2007E0E090083120313B601E2300A128A1521
:101A0200AE230A128A1507300A128A15DC230A123B
:101A12008A1583120313B9003908BA003A08B900CB
:101A22003908B60027300A128A15AE230A128A151F
:101A320083120313071100300A128A15DC230A12DB
:101A42008A1583120313B9003908BA003A0801381B
:101A5200B9003908BA003A08B9003908B60020308E
:101A62000A128A15AE230A128A1583120313071566
:101A720008007908780403193F2D402D752DFD01CA
:101A8200FD0A4F2D01300310F80DF90DFF3E031D25
:101A9200442D0130FC007C08FD074F2DF91F522D0B
:101AA200532D432D552D552D79087B02031D5B2D9A
:101AB20078087A02031C5E2D5F2D662D7808FA02E3
:101AC2007908031CFB03FB02662D01300310F90C9D
:101AD200F80CFF3E031D672D0130FD02031D722D20
:101AE200732D552D752D752D7B08F901F9077A088F
:101AF200F801F8077C2D0800831203133308B500A0
:101B0200B50DB50D1F083506C33935069F001F14E4
:101B1200B408031D8D2D8E2DA12D831603131D08D0
:101B2200FC3901389D008312031389140330B60077
:101B32009730B500B50B9B2DB60B9B2DA02DA92D73
:101B4200831603131D08FC3902389D00A92DA92D07
:101B5200831603139D1FAE2DAF2DA92D83120313E0
:101B62009F14B32D9F18B62DB72DB32DB82D1E0877
:101B7200B5003508B70089103708BF2D0800831259
:101B820003133C083B040319C72DC82DFD2DC001CA
:101B9200C00AD72D01300310BB0DBC0DFF3E031D43
:101BA200CC2D0130BF003F08C007D72DBC1FDA2D56
:101BB200DB2DCB2DDD2DDD2D3C083E02031DE32D5B
:101BC2003B083D02031CE62DE72DEE2D3B08BD022E
:101BD2003C08031CBE03BE02EE2D01300310BC0CF8
:101BE200BB0CFF3E031DEF2D0130C002031DFA2D79
:101BF200FB2DDD2DFD2DFD2D3E08BC01BC073D0852
:101C0200BB01BB07042E0800F601F701710870043E
:101C120003190C2E0D2E4A2EF501F50A1C2E013049
:101C22000310F00DF10DFF3E031D112E0130F400E3
:101C32007408F5071C2EF11F1F2E202E102E222EA7
:101C4200222E01300310F60DF70DFF3E031D232E49
:101C520071087302031D2F2E70087202031C322EAC
:101C6200332E3B2E7008F2027108031CF303F302B9
:101C720076143B2E01300310F10CF00CFF3E031DD5
:101C82003C2E0130F502031D472E482E222E4A2EED
:101C92004A2E7708F101F1077608F001F007512E7C
:101CA2000800223083120313A2002208A600E22FAA
:101CB2002D08253A03195E2E5F2E662E2D080A1274
:101CC2008A1581230A128A15E22FA801752EFF2F89
:101CD200992E992EA817992E2D080A128A1581235A
:101CE2000A128A15E22F992E831203132108A300E8
:101CF2002008A2000130A0070318A10A2308FF0050
:101D0200220884000A168A1100200A128A15AD00E0
:101D1200003A0319FF2F583A03196B2E3C3A031964
:101D2200992E0D3A0319992E113A03196B2E6D2E25
:101D320083120313A81B9E2E9F2EBA2E2608840000
:101D420083130008A900840A0008AA000230A20036
:101D52002208A607AA1FAE2EAF2E372F0330A200ED
:101D62002208A804A909AA09A90A0319AA0A372F4D
:101D7200372F2608840083130008A900840A00086C
:101D8200AA000230A2002208A607372F372FAD0182
:101D9200AD0A2D08053A031DCF2ED02ED22E402F8C
:101DA200402F2D08A2002207833E840090300318A2
:101DB200013EFF000A168A1100200A128A15A300AA
:101DC2000A168A1100200A128A15A40024082A027F
:101DD200031DED2E230829020318F02EF12EF32EF7
:101DE200402F402F0130A2002208AD072D08053AEE
:101DF200031DFC2EFD2ED22E402F402FAD01AD0A29
:101E02002D08043A031D062F072F092F402F402FBC
:101E12002D08A20022078D3E840090300318013E57
:101E2200FF000A168A1100200A128A15A3000A1658
:101E32008A1100200A128A15A40024082A02031D0E
:101E4200242F230829020318272F282F2A2F402F57
:101E5200402F0130A2002208AD072D08043A031DCD
:101E6200332F342F092F402F402F402F280880393D
:101E7200003A0319C82E803A0319FF2E402F280872
:101E820003390319452F462F4D2F2D300A128A157B
:101E920081230A128A154D2F831203132D08A200E3
:101EA2002208A700D42FC42F0A30F8000030F9000E
:101EB2002708A2002207833E840090300318013EC7
:101EC200FF000A168A1100200A128A15F0000A166B
:101ED2008A1100200A128A15F1002A08F301F30779
:101EE2002908F201F2070A128A1505260A128A1532
:101EF2007108FB01FB077008FA01FA070A128A153A
:101F02003A250A128A157808303E83120313A30079
:101F12002308AD00CD2F2708A20022078D3E8400A2
:101F220090300318013EFF000A168A1100200A129F
:101F32008A15F0000A168A1100200A128A15F10089
:101F42002A08F301F3072908F201F2070A128A1597
:101F520005260A128A1570080F3983120313A3008B
:101F62002308A5002508FA3E840090300318013E9C
:101F7200FF000A168A1100200A128A15A2002208FE
:101F8200AD00CD2FCD2F28088039003A0319552FE7
:101F9200803A03198C2FCD2F2D080A128A1581231E
:101FA2000A128A15D42FFF3083120313A2002208CB
:101FB200A7072708FF3A031DDF2FE02FC42FE22FC8
:101FC200E22F831203132108A3002008A20001308C
:101FD200A0070318A10A2308FF00220884000A169A
:101FE2008A1100200A128A15A4002408AD00AD0847
:101FF200031DFC2FFD2F592EFF2FFF2F0800FF1B63
:102002000A2883137F1883170008840A0319FF0A1A
:1020120008007F087F398A000408840A0319FF0A2E
:10202200820040344B340134E234C0344B34003447
:102032000034D034FC348C340234993400343934D2
:102042004134F9349E3486340B34243406347F34DC
:10205200A634003400340034003400340034003438
:1020620000340034003400340034003400340034CE
:1020720000340034003400340034003400340034BE
:102082000034003473341234003400348034B434F5
:10209200363400340F3401343F3402343F340334D5
:1020A20003340434FF34053417340634013407345E
:1020B200073408340034093400340C34C3340D348A
:1020C200C4340E34C5340F34C634113420341234BF
:1020D200203413342034143420341534203416348C
:1020E2002034173400341C343F341D340734413457
:1020F20020340834043481342034CF34F734FE34AD
:10210200FF34FF34013400340A34003464340034C0
:10211200E8340334103427340134003410340034EA
:102122000034013400341034343443341034103465
:1021320001343934383437343634C2341C343F3401
:102142001D3407344E346F342034643461347434B3
:1021520061342034733465346E3474343A34203448
:102162004534523452344F34523420340D340A340C
:1021720020340034543445344D34503420347634D1
:1021820061346C34753465343A342034253458342F
:1021920020343D343E342034253464340D340A3442
:1021A20000345634733474346F34723461346734A7
:1021B20065342034763461346C34753465343A34A1
:1021C2002034253464340D340A3400344534633405
:1021D20063346F346D34693420346E3465346C3456
:1021E2006C34273449345334523421340D340A3494
:1021F20000343034313432343334343435343634D8
:102202003734383439344134423443344434453435
:1022120046340034443461347434613420347334C9
:1022220065346E3474343A3420344F344B342034B1
:102232000D340A34003452346534633465346934FD
:10224200763469346E3467343A342034003453348B
:1022520065346E34643469346E3467343A3420340D
:1022620000340A340D340A340D3400342534583421
:02227200003436
:04400E00F5FCCFFFEF
:00000001FF
