:060000000A128A11122809
:10000800FE00030E83120313B1000408B2000A08AD
:10001800B3007F08B4000A168A11EA2E0A128A1160
:10002800D12F033083120313C0000830BF0078308B
:10003800BE00BE0B1D28BF0B1D28C00B1D2800309D
:100048000A168A1155250A128A1183160313D30139
:1000580014305302031C3128322834286C286C28A9
:100068000314530D4A3E840090300318013E831256
:100078000313FF000A168A1100200A128A11BE0013
:100088003E08B80083160313530883120313BF00F6
:100098003F074A3E840090300318013EFF000A16CD
:1000A8008A1100200A128A1120380A168A115A2346
:1000B8000A128A11013083120313BE003E08831608
:1000C8000313D30714305302031C6B286C283428FD
:1000D800D40105305402031C7228732875289B2804
:1000E8009B285408953E840090300318013E8312E3
:1000F8000313FF000A168A1100200A128A11BE0093
:10010800831603135408C73E8400831203133E0862
:10011800831380000130BE003E0883160313D40702
:1001280005305402031C99289A2875289B28C73043
:1001380083120313BE003E08B8000530BF003F0815
:10014800B9002A300A168A117E240A128A118316E7
:100158000313D40105305402031CB328B428B6286D
:10016800DC28DC2854089A3E840090300318013EAD
:1001780083120313FF000A168A1100200A128A113B
:10018800BE00831603135408C73E8400831203136A
:100198003E08831380000130BE003E088316031317
:1001A800D40705305402031CDA28DB28B628DC28DB
:1001B800C73083120313BE003E08B8000530BF00E5
:1001C8003F08B9002B300A168A117E240A128A11B8
:1001D80083160313D40105305402031CF428F528B0
:1001E800F7281D291D295408953E840090300318CE
:1001F800013E83120313FF000A168A1100200A1217
:100208008A11BE00831603135408C73E8400831264
:1002180003133E08831380000130BE003E08831696
:100228000313D40705305402031C1B291C29F72883
:100238001D29C73083120313BE003E08B8000530DD
:10024800BF003F08B90030300A168A117E240A120E
:100258008A111D300A168A11B7230A128A118312CD
:100268000313BE003E0883160313D300D308031DEF
:100278003E293F294C29733083120313BE003E08E0
:10028800B80050300A168A115A230A128A114C29CA
:10029800163083120313BE003E0883160313D300DF
:1002A80015305302031859295A295C299129912993
:1002B8000314530D4A3E840090300318013E831204
:1002C8000313FF000A168A1100200A128A11BE00C1
:1002D8003E08B80083160313530883120313BF00A4
:1002E8003F074A3E840090300318013EFF000A167B
:1002F8008A1100200A128A1120380A168A115A23F4
:100308000A128A11013083160313D30215305302DF
:1003180003188F2990295C29912901300A168A111E
:1003280055250A128A1183160313D3010930530283
:10033800031C9F29A029A229282A282AD40104308D
:100348005402031CA829A929AB29062A062A5308FE
:1003580083120313BE0001300310BE0DFF3E031DC0
:10036800B02903103E0D123E840090300318013E60
:10037800FF000A168A1100200A128A11BF000A1605
:100388008A1100200A128A11C0000A168A11002058
:100398000A128A11C1000A168A1100200A128A114B
:1003A800C20083160313540883120313C3000230D8
:1003B8000310C30DFF3E031DDC290310430D013E4E
:1003C800EA290310C20CC10CC00CBF0CFF3E031D70
:1003D800E5293F08C400831603135408C73E840068
:1003E800831203134408831380000130BE003E08C3
:1003F80083160313D40704305402031C042A052A65
:10040800AB29062AC73083120313BE003E08B80082
:100418000430BF003F08B90083160313530820387F
:100428000A168A117E240A128A11013083120313D4
:10043800BE003E0883160313D30709305302031C7A
:10044800262A272AA229282A093083120313BE0044
:100458003E0883160313D3000E305302031C352ABB
:10046800362A382ABF2ABF2AD40104305402031C72
:100478003E2A3F2A412A9E2A9E2A530883120313A2
:10048800BE0001300310BE0DFF3E031D462A0310B7
:100498003E0D123E840090300318013EFF000A16FC
:1004A8008A1100200A128A11BF000A168A11002038
:1004B8000A128A11C0000A168A1100200A128A112B
:1004C800C1000A168A1100200A128A11C200831676
:1004D80003135403FF3A83120313C30002300310BB
:1004E800C30DFF3E031D732A0310430D183E013E42
:1004F800822A0310C20CC10CC00CBF0CFF3E031DA6
:100508007D2A3F08C400831603135408C73E84009D
:10051800831203134408831380000130BE003E0891
:1005280083160313D40704305402031C9C2A9D2A03
:10053800412A9E2AC73083120313BE003E08B80022
:100548000430BF003F08B90083160313530820384E
:100558000A168A117E240A128A11013083120313A3
:10056800BE003E0883160313D3070E305302031C44
:10057800BE2ABF2A382AD4010B305402031CC52ACC
:10058800C62AC82AEE2AEE2A5408783E84009030FB
:100598000318013E83120313FF000A168A11002074
:1005A8000A128A11BE00831603135408C73E84003A
:1005B800831203133E08831380000130BE003E08F7
:1005C80083160313D4070B305402031CEC2AED2ABC
:1005D800C82AEE2AC73083120313BE003E08B800AB
:1005E8000B30BF003F08B9002E300A168A117E244E
:1005F8000A128A1183160313D40104305402031C0F
:10060800062B072B092B582B582B223084009030AF
:1006180083120313FF000A168A1100200A128A1196
:10062800BE000A168A1100200A128A11BF000A1693
:100638008A1100200A128A11C0000A168A110020A5
:100648000A128A11C1008316031354088312031374
:10065800C20002300310C20DFF3E031D2E2B0310F3
:10066800420D013E3C2B0310C10CC00CBF0CBE0C4C
:10067800FF3E031D372B3E08C3008316031354089F
:10068800C73E84008312031343088313800001309C
:10069800BE003E0883160313D40704305402031C1B
:1006A800562B572B092B582B470806388312031350
:1006B800BE003E0883160313C700C7308312031316
:1006C800BE003E08B8000430BF003F08B90024301F
:1006D8000A168A117E240A128A1183160313470800
:1006E800F93983120313BE003E0883160313C700AB
:1006F800C73083120313BE003E08B8000430BF00A1
:100708003F08B90024300A168A117E240A128A1179
:10071800823083120313BF00DD30BE00BE0B922B64
:10072800BF0B922B972B00300A168A1155250A12F7
:100738008A11831203130711080000308316031768
:100748009300003092000030910000309000950135
:100758009601831603131008CF39203890008316AA
:100768000317071387138316031307138316031737
:1007780007110811871288108316031309158316A9
:100788000317091583160313081283160317081293
:100798008312031308128316031305118316031714
:1007A8000511831203130515831603130711081186
:1007B8008711871207168814831203130711081567
:1007C800871187128316031308108316031708105E
:1007D80083160313091583160317091583160313C4
:1007E80009148316031709108312031308108316BC
:1007F80003130914831603170914831603138811A6
:10080800831203138811831603138816831603179C
:1008180088128316031308178817831603170813FB
:1008280088138B170B17831603130C1410308312BD
:1008380003138F008E0110083F3980389000303044
:100848009004831603138F17831203131015901542
:1008580010148316031305108510851105128512CF
:1008680005138513831603170510851085110512C6
:10087800851205138513831203130510851085113E
:1008880005128512051385138316031306108610A7
:100898000611861106128612831603170610861093
:1008A800061186110612861283120313061086108B
:1008B80006118611061686128316031389148316E9
:1008C800031789148312031389100A168A118623C1
:1008D8000A128A110A168A1170230A128A110A1634
:1008E8008A1118230A128A1100300A168A112F2435
:1008F8000A128A1183120313080883160313DA00F5
:1009080006300310DA0CFF3E031D852C5A08033904
:10091800DB005B0883120313D5002630C300913037
:10092800C400550883160313DA00DB015A08831242
:100938000313C500831603135B0883120313C60051
:100948000A128A1500260A128A116300C62C63004F
:10095800FA3083120313C3009030C40083160313C4
:10096800430883120313C601C607831603134208FC
:1009780083120313C501C5070A128A1500260A1235
:100988008A11C62C0A168A11A8240A128A118316FB
:100998000313DA0058305A020318D32CD42CFD2C38
:1009A80083120313881AD92CDA2CFD2C0A168A1103
:1009B800FE240A128A110A168A110E240A128A11B2
:1009C800831203133D08C5003E08C6003F08C70050
:1009D8000030C8000030C9000030CA000A168A1169
:1009E80062270A128A11031CFA2CFB2CAB2CFD2C53
:1009F800FD2CA33083120313C3009030C400831668
:100A08000313430883120313C601C607831603138F
:100A1800420883120313C501C5070A128A15002666
:100A28000A128A110A128A1115200A128A11003034
:100A38000A168A112F240A128A11630083160313D7
:100A4800C001C101272D01300A168A112F240A126C
:100A58008A110A168A11A8240A128A118316031306
:100A6800DA005A08E2004008DA005A08E3004108B0
:100A7800DA005A08E4008312031354088316031398
:100A8800DA005A08E5004508DA00DB01DA09DB0973
:100A9800DA0A0319DB0A44085A0783120313B5005C
:100AA800831603135B0803185B0A83120313B6004B
:100AB800831603134408450783120313B700B801CC
:100AC800B80D0A168A1129250A128A1183120313EE
:100AD80035088316031795070318960A831203131C
:100AE8003608831603179607150883160313DA00CA
:100AF8005A08E60083160317160883160313DA004C
:100B08005A08E7000A168A11FE240A128A11831667
:100B18000313DA005A08E8005E0883120313B500CD
:100B2800831603135F0883120313B6008316031397
:100B3800600883120313B7000A128A1585200A1267
:100B48008A1183120313350883160313DA005A082F
:100B5800E9005E0883120313B500831603135F08C8
:100B680083120313B600831603136008831203135A
:100B7800B7000A128A1585200A128A1183120313F4
:100B8800360883160313DA005A08EA00593062025D
:100B98000318CF2DD02DD72D83120313881ED52DE2
:100BA800D62DFD2DD72D0A168A11D3240A128A11A3
:100BB80083160313DA005A08E100E130DA005A0814
:100BC80083120313CC000A3083160313DB005B087F
:100BD80083120313CD00B0300A128A15F3210A12CA
:100BE8008A11831603179501960183120313D417EC
:100BF8006B2E0030C5000030C6000030C7008316D9
:100C0800031368080A168A110E240A128A1183121D
:100C180003133D08C8003E08C9003F08CA000A1669
:100C28008A1162270A128A1103181B2E1C2E4F2EB6
:100C38008312031305110A168A11D3240A128A1182
:100C480083160313DA005A08E100E130DA005A0883
:100C580083120313CC000A3083160313DB005B08EE
:100C680083120313CD00B0300A128A15F3210A1239
:100C78008A11831203130515003083160313DE004F
:100C88002030DF004130E0007F30DA005A0883125C
:100C98000313D4056B2EC83083120313C30090309E
:100CA800C400831603136208DA00DB015A088312B2
:100CB8000313C500831603135B0883120313C600CE
:100CC8000A128A1500260A128A116B2E6B2E8312BD
:100CD8000313071100300A168A112F240A128A11E9
:100CE80083120313101010308F008E01101411306E
:100CF800C3009130C400550883160313DA00DB01E2
:100D08005A0883120313C500831603135B08831262
:100D18000313C6000A128A1500260A128A118316BE
:100D280003179401C82E4D3083120313C30091306A
:100D3800C40083160317140883160313DA00DB01B3
:100D48005A0883120313C500831603135B08831222
:100D58000313C600831603134608DC00DD015C0894
:100D680083120313C700831603135D08831203134A
:100D7800C8000A128A1500260A128A110A128A1550
:100D8800D7220A128A11C82E013083160317940736
:100D9800FF30140783160313DA0046085A02031CAF
:100DA800D62ED72E972ED82E0130C0070318C10A89
:100DB8000030C107272D272D0A128A111228831205
:100DC80003133D08C3003E08C4003F08C5000310D4
:100DD800440D450DC6004608C700C708031DF52E7B
:100DE800F62EFE2E0030BD000030BE000030BF00E1
:100DF800D02FD02F4008C3004108C4004208C500C6
:100E08000310440D450DC6004608CC00CC08031D50
:100E18000E2F0F2F172F0030BD000030BE000030FE
:100E2800BF00D02FD02F4C087B3EC3004308C70714
:100E38003D08C3003E08C4003F08C5001030031039
:100E4800C50CC40CC30CFF3E031D232F4308C6006A
:100E58004608CC004008C3004108C4004208C50049
:100E680010300310C50CC40CC30CFF3E031D352FF6
:100E78004308C6004608CC068030C3004308CC05AA
:100E8800BE17C117FF30C005FF30C1050030C205CD
:100E98000030C8000030C9000030CA000730C30065
:100EA8004308CB00572F3D1C5A2F5B2F6C2F40084F
:100EB800C807410803110318410A0319642FC90719
:100EC800420803110318420A03196B2FCA076C2F33
:100ED80001300310BF0CBE0CBD0CFF3E031D6D2F6F
:100EE80001300310C00DC10DC20DFF3E031D752F4B
:100EF8000130CB02031D812F822F572F832F0930FA
:100F0800C3004308CB00882F3D1C8B2F8C2F9D2FAF
:100F18004008C807410803110318410A0319952F0F
:100F2800C907420803110318420A03199C2FCA076C
:100F38009D2F01300310BF0CBE0CBD0CFF3E031DDE
:100F48009E2F01300310CA0CC90CC80CFF3E031DAC
:100F5800A62F0130CB02031DB22FB32F882FB42F39
:100F68004808B5004908B6004A08B7004708C30052
:100F78004308B8004C08C4004408B9000A128A158E
:100F880008200A128A11831203133508BD00360897
:100F9800BE003708BF00D02F0800DA01D001D10108
:100FA800D201D301D401D501D6018313A030840026
:100FB800C7300A128A1500200A128A11EB30FD0088
:100FC8001330FE003A30FF00DE3084000A168A1122
:100FD8004B230A128A115A30FD001330FE001530D7
:100FE800FF00573084000A168A114B230A128A110F
:100FF80083010A128A11A12B64008001840A040665
:101008000319003404060128831203133808031D4A
:101018000E281628370836043504031D1428152809
:101028002C2816280030B5000030B6000030B70074
:10103800842884282C280130BA003A08B8070130DF
:101048000310B70CB60CB50CFF3E031D24282C2842
:10105800FE303705031D312832281F284A284A2820
:101068000130BA003A08B8070130B5070030031854
:101078000130B607003003180130B70701300310FC
:10108800B70CB60CB50CFF3E031D4328FF303705DF
:10109800031D4F28502834285D285D280130B802E8
:1010A80001300310B50DB60DB70DFF3E031D5528D1
:1010B8005D28B61F602861285228381864286528DA
:1010C8006B28FF30B5057F30B605FF30B705031034
:1010D800B80C3808BA00BB01BC0110300310BA0DB7
:1010E800BB0DBC0DFF3E031D72283A08B5043B0832
:1010F800B6043C08B7043908031D83288428B717A9
:101108000800831203133508B9003608BA003708F7
:10111800BB0003103A0D3B0DBC003C08C200C208DE
:10112800031D97289828A2280030B8000030B7007F
:101138000030B6000030B5002A292A293508B90040
:101148003608BA003708BB0017300310BB0CBA0CBE
:10115800B90CFF3E031DA9283908BC003C08BD0096
:10116800B617FF30B505FF30B6050030B7053508AE
:10117800BE003608BF003708C000C1018E30C20269
:10118800C21FC728C828ED284208803A8F3E031896
:10119800CE28CF28DA280030B8000030B700003059
:1011A800B6000030B5002A292A29DA2801300310B0
:1011B800C10CC00CBF0CBE0CFF3E031DDB28013068
:1011C800B9003908C207031DEA28EB28DA281129D3
:1011D800112918304202031CF228F3280A2900308A
:1011E800B8000030B7000030B6000030B5002A293A
:1011F8002A290A290130B9000310BE0DBF0DC00D00
:10120800C10DB90B00290130C2020A29C208031D09
:101218000E290F29FE28112911293D08031D15291A
:101228002129BE09BF09C009C109BE0A0319BF0A9D
:101238000319C00A0319C10A21294108B800400846
:10124800B7003F08B6003E08B5002A2908008312F7
:1012580003134008C3004108C4004208C500031036
:10126800440D450DC6004608CB00CB08031D3D299B
:101278003E2946290030BD000030BE000030BF00C6
:10128800F229F2293D08C3003E08C4003F08C50002
:101298000310440D450DC6004608CC00CC08031DBC
:1012A800562957295F290030BD000030BE000030A4
:1012B800BF00F229F2290030C8000030C900003010
:1012C800CA0089304C07C3004308CB024008C3005A
:1012D8004108C4004208C50010300310C50CC40CF6
:1012E800C30CFF3E031D71294308C6004608CC0005
:1012F8003D08C3003E08C4003F08C5001030031075
:10130800C50CC40CC30CFF3E031D83294308C6004B
:101318004608CC068030C3004308CC05C117FF300F
:10132800C005FF30C1050030C205BE17FF30BD053E
:10133800FF30BE050030BF051830C3004308C700A2
:10134800A52901300310C80DC90DCA0DFF3E031DA4
:10135800A6293F084202031DB7293E084102031D82
:10136800B7293D084002031CBA29BB29C7293D08F3
:10137800C0023E08031C3E0FC1023F08031C3F0A7F
:10138800C2024814C72901300310C00DC10DC20D97
:10139800FF3E031DC8290130C702031DD429D529E2
:1013A800A529D6294808B5004908B6004A08B70053
:1013B8004B08C3004308B8004C08C4004408B900EF
:1013C8000A128A1508200A128A158312031335088F
:1013D800BD003608BE003708BF00F2290800831692
:1013E8000313D3000A168A1154240A128A151730D7
:1013F8000A168A11B7230A128A1583160313D00016
:101408005008D400D41A092A0A2AD62A8D30831201
:101418000313C3009130C4000A128A1500260A1269
:101428008A1583160313D501442A9C3083120313AB
:10143800C3009130C40083160313550883120313A5
:101448004C0783160313D000500884008313000848
:10145800D100D201510883120313C5008316031368
:10146800520883120313C6000A128A1500260A12AC
:101478008A15013083160313D0005008D507442A73
:10148800831203134D08831603135502031C4D2AB8
:101498004E2A192A4F2A993083120313C300913018
:1014A800C4000A128A1500260A128A158312031329
:1014B80007114C0883160313D00050088312031336
:1014C800B8004D0883160313D10051088312031383
:1014D800B9008316031353080A168A117E240A12C8
:1014E8008A15831203130715063083160313D000D9
:1014F800D00B7C2A000083120313071103308316D4
:101508000313D1009730D000D00B882AD10B882A3A
:101518008D2AC52A0A168A11D0230A128A15003A7A
:101528000319972A982AA92A703083120313C30033
:101538009130C4000A128A1500260A128A150A1662
:101548008A1187250A128A15A92A0A168A11EF23F1
:101558000A128A15003A0319B22AB32AC52AE230B8
:1015680083120313C3009030C4000A128A150026A0
:101578000A128A150A168A1187250A128A15C52A97
:10158800C52A83120313881CCA2ACB2A8E2ACC2A7E
:101598009730C3009130C4000A128A1500260A1237
:1015A8008A15D62A08000A168A11A8240A128A154A
:1015B80083120313CD00CE014D0883160313C20016
:1015C800831203134E0883160313C3005E088312A5
:1015D8000313B500831603135F0883120313B600C1
:1015E80083160313600883120313B7000A128A15BF
:1015F80085200A128A15831203133608D101D107F0
:101608003508D001D00700308316031343027A301F
:1016180003194202031C112B122B452C83120313AE
:10162800510850040319192B1A2B452C881A1D2B05
:101638001E2B452C831203179401A03093008312AC
:10164800031310105108CE005008CD000230FF00DF
:101658000310CD0DCE0DFF0B2C2BCD09CE09CD0AD5
:101668000319CE0A4D08D2004E08D30053088F0044
:1016780052088E001014630083120317930183121B
:10168800031305150A168A11A8240A128A1583124B
:101698000313CD004D08CF005209CD005309CE00E9
:1016A800CD0A0319CE0A4D08003ED2004E08031891
:1016B800013E103ED300101053088F0052088E00D0
:1016C80010146300831203134F08CD00CE014E0897
:1016D800831603134302031D772B831203134D084C
:1016E80083160313420203187A2B7B2B812B4208A3
:1016F80083120313CD004D08CF008316031342084D
:1017080083120313CD004D0883160313C4008312FC
:1017180003134F08CD004D0883160313C500593035
:10172800831203134F02031C9A2B9B2BEF2B831658
:1017380003135E0883120313C500831603135F089F
:1017480083120313C600831603136008831203135E
:10175800C7004030C8001C30C9004630CA000A160D
:101768008A1162270A128A150318BB2BBC2B512C2D
:10177800663083120313BD008630BE003F30BF00C1
:10178800831603135E0883120313C0008316031322
:101798005F0883120313C1008316031360088312C2
:1017A8000313C2000A128A11E3260A128A15831249
:1017B80003133D0883160313DE00831203133E0848
:1017C80083160313DF00831203133F0883160313E2
:1017D800E000512C512C00308312C5000030C600A7
:1017E8000030C700831603135E0883120313C80072
:1017F800831603135F0883120313C90083160313A8
:10180800600883120313CA000A168A1162270A1293
:101818008A150318102C112C512C663083120313CF
:10182800BD008630BE003F30BF00831603135E083C
:1018380083120313C000831603135F088312031374
:10184800C10083160313600883120313C2000A122F
:101858008A152B210A128A15831203133D08831651
:101868000313DE00831203133E0883160313DF00FD
:10187800831203133F0883160313E000512C512CE5
:10188800512C8312101010308F008E011014630039
:1018980083160313C401C501512C0800223083129A
:1018A8000313A2002208A600E22D2D08253A0319E9
:1018B8005E2C5F2C662C2D080A168A1122230A1228
:1018C8008A15E22DA801752CFF2D992C992CA817A3
:1018D800992C2D080A168A1122230A128A15E22D3C
:1018E800992C831203132108A3002008A2000130B9
:1018F800A0070318A10A2308FF00220884000A167B
:101908008A1100200A128A15AD00003A0319FF2D2A
:10191800583A03196B2C3C3A0319992C0D3A0319C0
:10192800992C113A03196B2C6D2C83120313A81BE5
:101938009E2C9F2CBA2C2608840083130008A9002B
:10194800840A0008AA000230A2002208A607AA1FDB
:10195800AE2CAF2C372D0330A2002208A804A90909
:10196800AA09A90A0319AA0A372D372D26088400BF
:1019780083130008A900840A0008AA000230A20004
:101988002208A607372D372DAD01AD0A2D08053AD7
:10199800031DCF2CD02CD22C402D402D2D08A20079
:1019A8002207833E840090300318013EFF000A1688
:1019B8008A1100200A128A15A3000A168A1100202B
:1019C8000A128A15A40024082A02031DED2C2308F4
:1019D80029020318F02CF12CF32C402D402D013056
:1019E800A2002208AD072D08053A031DFC2CFD2C8A
:1019F800D22C402D402DAD01AD0A2D08043A031D0F
:101A0800062D072D092D402D402D2D08A200220757
:101A18008D3E840090300318013EFF000A168A119B
:101A280000200A128A15A3000A168A1100200A1239
:101A38008A15A40024082A02031D242D230829023C
:101A48000318272D282D2A2D402D402D0130A200C6
:101A58002208AD072D08043A031D332D342D092D16
:101A6800402D402D402D28088039003A0319C82CF4
:101A7800803A0319FF2C402D280803390319452DF6
:101A8800462D4D2D2D300A168A1122230A128A1549
:101A98004D2D831203132D08A2002208A700D42D70
:101AA800C42D0A30F8000030F9002708A2002207E8
:101AB800833E840090300318013EFF000A168A1105
:101AC80000200A128A15F0000A168A1100200A124C
:101AD8008A15F1002A08F301F3072908F201F20731
:101AE8000A168A114E260A128A157108FB01FB078D
:101AF8007008FA01FA070A168A11C6250A128A1509
:101B08007808303E83120313A3002308AD00CD2DBF
:101B18002708A20022078D3E840090300318013E5A
:101B2800FF000A168A1100200A128A15F0000A1608
:101B38008A1100200A128A15F1002A08F301F30716
:101B48002908F201F2070A168A114E260A128A1586
:101B580070080F3983120313A3002308A500250872
:101B68005F3E840091300318013EFF000A168A1177
:101B780000200A128A15A2002208AD00CD2DCD2D15
:101B880028088039003A0319552D803A03198C2DFD
:101B9800CD2D2D080A168A1122230A128A15D42D52
:101BA800FF3083120313A2002208A7072708FF3A71
:101BB800031DDF2DE02DC42DE22DE22D831203132A
:101BC8002108A3002008A2000130A0070318A10AD9
:101BD8002308FF00220884000A168A1100200A122E
:101BE8008A15A4002408AD00AD08031DFC2DFD2DA9
:101BF800592CFF2DFF2D0800453083120313C9000F
:101C0800490883160313C800E02F4F08253A031923
:101C18000E2E0F2E162E4F080A168A112E230A1280
:101C28008A15E02FCA01252EFF2F4B2E4B2ECA17DF
:101C38004B2E4F080A168A112E230A128A15E02FF6
:101C48004B2E831203134408CA004308C90001300D
:101C5800C3070318C40A4A08FF00490884000A1683
:101C68008A1100200A128A1583160313CF00003A3E
:101C78000319FF2F583A03191B2E3C3A03194B2E10
:101C88000D3A03194B2E113A03191B2E1D2E8316DC
:101C98000313CA1B502E512E742E48088400831338
:101CA8000008CB00840A0008CC000230831203131A
:101CB800C900490883160313C807CC1F642E652E74
:101CC8000D2F033083120313C90049088316031329
:101CD800CA04CB09CC09CB0A0319CC0A0D2F0D2F46
:101CE8004808840083130008CB00840A0008CC004D
:101CF800023083120313C900490883160313C80767
:101D08000D2F0D2FCF01CF0A4F08053A031D8D2E39
:101D18008E2E902E162F162F4F0883120313C900EC
:101D28004907833E840090300318013EFF000A16DD
:101D38008A1100200A128A15CA000A168A11002080
:101D48000A128A15CB004B08831603134C02031D95
:101D5800B32E831203134A08831603134B02031886
:101D6800B62EB72EB92E162F162F01308312031355
:101D7800C900490883160313CF074F08053A031D06
:101D8800C62EC72E902E162F162FCF01CF0A4F081A
:101D9800043A031DD02ED12ED32E162F162F4F08FE
:101DA80083120313C90049078D3E8400903003183D
:101DB800013EFF000A168A1100200A128A15CA007D
:101DC8000A168A1100200A128A15CB004B088316BE
:101DD80003134C02031DF62E831203134A088316BD
:101DE80003134B020318F92EFA2EFC2E162F162F6A
:101DF800013083120313C900490883160313CF0760
:101E08004F08043A031D092F0A2FD32E162F162F19
:101E1800162F4A088039003A0319862E803A03198A
:101E2800C92E162F4A08033903191B2F1C2F232FDD
:101E38002D300A168A112E230A128A15232F83168B
:101E480003134F0883120313C900490883160313A9
:101E5800C900D02FC02F0A3083120313BD000030F1
:101E6800BE0083160313490883120313C9004907E8
:101E7800833E840090300318013EFF000A168A1141
:101E880000200A128A15B5000A168A1100200A12C3
:101E98008A15B600831603134C0883120313B8017E
:101EA800B807831603134B0883120313B701B70748
:101EB8000A168A119B260A128A15831203133608FA
:101EC800C001C0073508BF01BF070A168A110926D5
:101ED8000A128A15831203133D08303ECA004A08C5
:101EE80083160313CF00C92F490883120313C900AF
:101EF80049078D3E840090300318013EFF000A1602
:101F08008A1100200A128A15B5000A168A110020C3
:101F18000A128A15B600831603134C08831203139A
:101F2800B801B807831603134B0883120313B701CC
:101F3800B7070A168A119B260A128A1583120313F9
:101F480035080F39CA004A0883160313C700470823
:101F58005F3E840091300318013E83120313FF0093
:101F68000A168A1100200A128A15C9004908831620
:101F78000313CF00C92FC92F4A088039003A031923
:101F88002F2F803A0319782FC92F4F080A168A1164
:101F98002E230A128A15D02FFF3083120313C9008B
:101FA800490883160313C9074908FF3A031DDD2FA3
:101FB800DE2FC02FE02FE02F831203134408CA003E
:101FC8004308C9000130C3070318C40A4A08FF00C0
:101FD800490884000A168A1100200A128A15CB00C3
:101FE8004B0883160313CF00CF08031DFC2FFD2FCA
:101FF800092EFF2FFF2F0800FF1B0A2883137F18C5
:1020080083170008840A0319FF0A08007F087F392C
:102018008A000408840A0319FF0A820040344B34FA
:102028000134E234C0344B3400340034D034FC344E
:102038008C3402349934003439344134F9349E34C0
:1020480086340B34243406347F34A6340034003408
:1020580000340034003400340034003400340034D8
:1020680000340034003400340034003400340034C8
:102078000034003400340034003400340034733445
:102088001234003400348034B434363400340F341D
:1020980001343F3402343F34033403340434FF340E
:1020A800053417340634013407340734083400344F
:1020B800093400340C34C3340D34C4340E34C534FC
:1020C8000F34C634113420341234203413342034FD
:1020D80014342034153420341634203417340034A2
:1020E8001C343F341D34073441342034083404345C
:1020F80081342034CF34F734FE34FF34FF340134D4
:1021080000340A34003464340034E83403341034BE
:1021180027340134003410340034003401340034DE
:1021280010343434433410341034013439343834EE
:1021380037343634C2341C343F341D3407345634F3
:10214800733474346F3472346134673465342034D2
:102158004F344B3420346F34723420346D3465344A
:1021680061347334753472346534203473346B34A9
:10217800693470347034653464343A342034253426
:1021880064340D340A3400345634533474346F34A0
:1021980072346134673465343A3420342534643415
:1021A800203420343D343E3420346E346F3474345B
:1021B80020344F344B340D340A3400344E346F34E9
:1021C80020346434613474346134203473346534B5
:1021D8006E3474343A3420344534523452344F34E3
:1021E800523420340D340A342034003456347334D5
:1021F80074346F3472346134673465342034743421
:102208006F346F3420346C346F3477343A3420347C
:10221800253464340D340A34003453346C34653452
:1022280065347034203463346F3475346E347434E8
:102238006534723420343D342034253464340D340C
:102248000A34003453346C346534653470342034C3
:1022580063346F3475346E347434653472343A349C
:102268002034253458340D340A340034453463346A
:1022780063346F346D34693420346E3465346C34AF
:102288006C34273449345334523421340D340A34ED
:10229800003453346C346534653470343A34203443
:1022A8002534643420346F346E3420342534643457
:1022B8000D340A3400343034313432343334343465
:1022C800353436343734383439344134423443348D
:1022D800443445344634003444346134743461340D
:1022E8002034733465346E3474343A3420344F34C3
:1022F8004B3420340D340A3400345234653463349A
:1023080065346934763469346E3467343A34203449
:102318000034533465346E34643469346E3467344D
:102328003A34203400340A340D340A340D3400347D
:0623380025345834003486
:10262A001A3400340134831603131F088F39103803
:10263A009F0003309F041D170800F000242B83120B
:10264A0003130C1E292B2A2B242B2B2B70089900E1
:10265A00080083120313B500322B0C1E352B362BC0
:10266A00322B372B350899000800003420344134C6
:10267A0000340034003400340034AA34AA34AA34B2
:10268A00AA3400347E088A007F0882000A168A115A
:10269A0047230A168A118000840A04087D06031952
:1026AA000034FF0A0319FE0A4B2B83120313B900E5
:1026BA00081139080A168A119E230A168A118312EA
:1026CA00031338080A168A119E230A168A118312DE
:1026DA00031308150800831603138717071302301C
:1026EA009800831203139801831603131811181202
:1026FA000C30990083120313981783160313981644
:10270A00080083120313941614121408F0390238BD
:10271A00940083160313941314178230831203133D
:10272A00B600DD30B500B50B982BB60B982B9D2B58
:10273A00080083120313B700370893000330B6006A
:10274A009730B500B50BA72BB60BA72BAC2BAD2B2F
:10275A00831203138C1DB22BB32BAD2BB42B13088E
:10276A00B62B080083120313B900081139080A1698
:10277A008A119E230A168A1100300A168A119E238C
:10278A000A168A1183120313B8003808BA0008150A
:10279A003A08CF2B080007300A168A11B7230A16FF
:1027AA008A1183120313BB00BB1EDC2BDD2BEB2B20
:1027BA002030BB003B08B80027300A168A115A237A
:1027CA000A168A110130EE2BEE2BEE2B0030EE2B7F
:1027DA00EE2B080007300A168A11B7230A168A1147
:1027EA0083120313BB00BB1EFB2BFC2B0A2C1030DD
:1027FA00BB003B08B80027300A168A115A230A166A
:10280A008A1101300D2C0D2C0D2C00300D2C0D2CA5
:10281A00080083120313C4004408C000C101C201A6
:10282A004008B5004108B6004208B7008E30C30020
:10283A004308B800B9010A128A1508200A168A1133
:10284A00831203133508BD003608BE003708BF00DF
:10285A002E2C080083120313BC0000300A168A11BA
:10286A00B7230A168A1183120313BB003B08BD0063
:10287A00BC08031D412C422C472CFD30BB003B08F1
:10288A00BD05492CBD14492C3D08BB003B08B800C6
:10289A0020300A168A115A230A168A11080083124E
:1028AA000313B801E1300A168A115A230A168A114B
:1028BA0083120313071100300A168A11B7230A1666
:1028CA008A1183120313BB003B08BC003C08FE3983
:1028DA00BB003B08BC003C08BB003B08B8002030EA
:1028EA000A168A115A230A168A1183120313071524
:1028FA00080083120313BB0008113B080A168A1149
:10290A009E230A168A1183120313BC01A02C3808CD
:10291A008400831300080A168A119E230A168A1154
:10292A00013083120313BA003A08B8070130BA001B
:10293A003A08BC07A02C39083C02031CA52CA62C7B
:10294A008C2C08150800831203131F08C339143886
:10295A009F00831603131D08FC3902389D00831259
:10296A0003131F1488150330B6009730B500B50B52
:10297A00BC2CB60BBC2CC12C831203139F14C52C80
:10298A009F18C82CC92CC52CCA2C1E08B50035089E
:10299A00B7001F1088113708D22C080083120313BE
:1029AA001F08C3391C389F00831603131D08FC39FE
:1029BA0001389D00831203131F1408140D30B6004A
:1029CA00FB30B500B50BE72CB60BE72CEC2C8312C9
:1029DA0003139F14F02C9F18F32CF42CF02CF52CD5
:1029EA001E08B5003508B7001F1008103708FD2C5F
:1029FA000800831203131F08C33918389F0083166F
:102A0A0003131D08FC3901389D00831203131F1498
:102A1A0008160330B6009730B500B50B122DB60B69
:102A2A00122D172D831203139F141B2D9F181E2D71
:102A3A001F2D1B2D202D1E08B5003508B7001F10AD
:102A4A0008123708282D080083120313B901BA01A6
:102A5A002E2D351C312D322D382D3708B907031884
:102A6A00BA0A3808BA0701300310B70DB80DFF3E8D
:102A7A00031D392D01300310B60CB50CFF3E031DA2
:102A8A00402D36083504031D4B2D4C2D2E2D4D2D72
:102A9A003A08B601B6073908B501B507542D08003A
:102AAA0083120313BC0007300A168A11B7230A16C9
:102ABA008A1183120313BB003B08BD003D0880390D
:102ACA00BB003B08BD003D08031D6C2D712D3C0861
:102ADA00031D702D7B2D712DBD08031D752D762DBF
:102AEA00862D3C08031D7A2D862D7B2D5330BB0085
:102AFA003B08B80050300A168A115A230A168A115E
:102B0A00862D080083120313B801E2300A168A11CF
:102B1A005A230A168A1107300A168A11B7230A1687
:102B2A008A1183120313BB003B08BC003C08BB009C
:102B3A003B08B80027300A168A115A230A168A1146
:102B4A0083120313071100300A168A11B7230A16D3
:102B5A008A1183120313BB003B08BC003C080138EE
:102B6A00BB003B08BC003C08BB003B08B800203057
:102B7A000A168A115A230A168A1183120313071591
:102B8A000800790878040319CB2DCC2D012EFD01FC
:102B9A00FD0ADB2D01300310F80DF90DFF3E031D70
:102BAA00D02D0130FC007C08FD07DB2DF91FDE2D3E
:102BBA00DF2DCF2DE12DE12D79087B02031DE72DB5
:102BCA0078087A02031CEA2DEB2DF22D7808FA0216
:102BDA007908031CFB03FB02F22D01300310F90CE8
:102BEA00F80CFF3E031DF32D0130FD02031DFE2DDF
:102BFA00FF2DE12D012E012E7B08F901F9077A0834
:102C0A00F801F807082E0800831203133E083D0452
:102C1A000319102E112E462EC201C20A202E01308F
:102C2A000310BD0DBE0DFF3E031D152E0130C10060
:102C3A004108C207202EBE1F232E242E142E262E14
:102C4A00262E3E084002031D2C2E3D083F02031C7F
:102C5A002F2E302E372E3D08BF023E08031CC0031C
:102C6A00C002372E01300310BE0CBD0CFF3E031DFF
:102C7A00382E0130C202031D432E442E262E462E24
:102C8A00462E4008BE01BE073F08BD01BD074D2EB6
:102C9A000800F601F701710870040319552E562E23
:102CAA00932EF501F50A652E01300310F00DF10D92
:102CBA00FF3E031D5A2E0130F4007408F507652EF5
:102CCA00F11F682E692E592E6B2E6B2E01300310C0
:102CDA00F60DF70DFF3E031D6C2E71087302031DDE
:102CEA00782E70087202031C7B2E7C2E842E7008AC
:102CFA00F2027108031CF303F3027614842E0130E6
:102D0A000310F10CF00CFF3E031D852E0130F50275
:102D1A00031D902E912E6B2E932E932E7708F10180
:102D2A00F1077608F001F0079A2E080083120313C0
:102D3A00BB01BC01360835040319A42EA52EE22EC8
:102D4A00BA01BA0AB42E01300310B50DB60DFF3E12
:102D5A00031DA92E0130B9003908BA07B42EB61FCF
:102D6A00B72EB82EA82EBA2EBA2E01300310BB0DDC
:102D7A00BC0DFF3E031DBB2E36083802031DC72EAD
:102D8A0035083702031CCA2ECB2ED32E3508B702BC
:102D9A003608031CB803B8023B14D32E01300310C3
:102DAA00B60CB50CFF3E031DD42E0130BA02031D2A
:102DBA00DF2EE02EBA2EE22EE22E3C08B601B6072E
:102DCA003B08B501B507E92E08000C1CED2EEE2EC6
:102DDA00572F0130AE002E08D60710308F008E0113
:102DEA0056085906031DFA2EFB2E552F3A30A0001D
:102DFA009130A1000A128A1552240A168A118312E6
:102E0A0003130808AE0005300310AE0CFF3E031D85
:102E1A00092F07302E05AF00540880392F04B0005F
:102E2A003008D4000808AE0006300310AE0CFF3E8E
:102E3A00031D1A2F2E080339AF002F08D500432F80
:102E4A0083160313C601C60A522F14308312AE002A
:102E5A002E0883160313C600522F28308312AE00A1
:102E6A002E0883160313C600522F78308312AE0041
:102E7A002E0883160313C600522F522F83125508A9
:102E8A00003A0319252F013A03192A2F033A031985
:102E9A00322F013A03193A2F522F8312D6015A14AC
:102EAA000C10572F3408FF0033088A0032088400B8
:102EBA00310E8300FE0E7E0E090083120313C71F14
:102ECA00672F682FA62F003083160313C700003020
:102EDA00C8008030C90083120313450983160313FF
:102EEA00CA0083120313460983160313CB00831205
:102EFA000313470983160313CC00CA0A0319CB0A22
:102F0A000319CC0A4A08C7074B0803184B0F8E2F20
:102F1A008F2FC8074C0803184C0F942F952FC907F9
:102F2A00470883120313C500831603134808831244
:102F3A000313C60083160313490883120313C70039
:102F4A00A62FCA1FA92FAA2FE82F00308316031312
:102F5A00C7000030C8008030C90083120313480933
:102F6A0083160313CA008312031349098316031332
:102F7A00CB00831203134A0983160313CC00CA0A2F
:102F8A000319CB0A0319CC0A4A08C7074B080318C6
:102F9A004B0FD02FD12FC8074C0803184C0FD62F30
:102FAA00D72FC907470883120313C80083160313D0
:102FBA00480883120313C9008316031349088312AE
:102FCA000313CA00E82F8030C7068030CA064A08B1
:102FDA004702031DF62F49084602031DF62F48082B
:102FEA0045020318F92FFA2FFC2F0310FF2F0314A1
:062FFA00FF2FFF2F08006D
:02400E00F5FCBF
:00000001FF
