:060000000A128A11122809
:10000800FE00030E83120313AF000408B0000A08B1
:10001800B1007F08B2000A128A15C32C0A128A1589
:10002800772B033083120313BE000830BD007830ED
:10003800BC00BC0B1D28BD0B1D28BE0B1D280030A5
:100048000A128A11C9270A128A1183120313CF01CF
:1000580014304F02031C31283228342864286428BD
:1000680003144F0D4A3E840090300318013EFF00F0
:100078000A168A1100200A128A11BC003C08B60030
:100088004F08BD003D074A3E840090300318013EEA
:10009800FF000A168A1100200A128A1120380A1253
:1000A8008A151A230A128A11013083120313BC001D
:1000B8003C08CF0714304F02031C632864283428F7
:1000C800D00105305002031C6A286B286D288B2844
:1000D8008B285008953E840090300318013EFF009D
:1000E8000A168A1100200A128A11BC005008433EE1
:1000F80084003C08831380000130BC003C08D00712
:1001080005305002031C89288A286D288B28433023
:10011800BC003C08B6000530BD003D08B7002A30D9
:100128000A128A1519240A128A1183120313D0019C
:1001380005305002031CA128A228A428C228C228DE
:1001480050089A3E840090300318013EFF000A16BA
:100158008A1100200A128A11BC005008433E84000C
:100168003C08831380000130BC003C08D0070530F0
:100178005002031CC028C128A428C2284330BC0050
:100188003C08B6000530BD003D08B7002B300A1208
:100198008A1519240A128A1183120313D001053013
:1001A8005002031CD828D928DB28F928F928500838
:1001B800953E840090300318013EFF000A168A110C
:1001C80000200A128A11BC005008433E84003C08F3
:1001D800831380000130BC003C08D0070530500272
:1001E800031CF728F828DB28F9284330BC003C0812
:1001F800B6000530BD003D08B70030300A128A1538
:1002080019240A128A111D300A128A155E230A124D
:100218008A1183120313BC003C08CF00CF08031DCA
:100228001629172922297330BC003C08B600503023
:100238000A128A151A230A128A11222916308312E1
:100248000313BC003C08CF0015304F0203182D29BA
:100258002E2930295F295F2903144F0D4A3E840057
:1002680090300318013EFF000A168A1100200A1276
:100278008A11BC003C08B6004F08BD003D074A3E45
:10028800840090300318013EFF000A168A110020EE
:100298000A128A1120380A128A151A230A128A1198
:1002A800013083120313CF0215304F0203185D2962
:1002B8005E2930295F2901300A128A11C9270A12DA
:1002C8008A1183120313CF0109304F02031C6D29D1
:1002D8006E297029E429E429D00104305002031C56
:1002E800762977297929C829C8294F08BC000130FF
:1002F8000310BC0DFF3E031D7C2903103C0D123E6C
:10030800840090300318013EFF000A168A1100206D
:100318000A128A11BD000A168A1100200A128A11CF
:10032800BE000A168A1100200A128A11BF000A1696
:100338008A1100200A128A11C0005008C100023038
:100348000310C10DFF3E031DA4290310410D013EFA
:10035800B2290310C00CBF0CBE0CBD0CFF3E031D20
:10036800AD293D08C2005008433E8400420883136B
:1003780080000130BC003C08D00704305002031C48
:10038800C629C7297929C8294330BC003C08B600CA
:100398000430BD003D08B7004F0820380A128A15FE
:1003A80019240A128A11013083120313BC003C0875
:1003B800CF0709304F02031CE229E3297029E429F9
:1003C8000930BC003C08CF000E304F02031CED2959
:1003D800EE29F029652A652AD00104305002031C51
:1003E800F629F729F9294A2A4A2A4F08BC00013078
:1003F8000310BC0DFF3E031DFC2903103C0D123EEB
:10040800840090300318013EFF000A168A1100206C
:100418000A128A11BD000A168A1100200A128A11CE
:10042800BE000A168A1100200A128A11BF000A1695
:100438008A1100200A128A11C0005003FF3AC10035
:1004480002300310C10DFF3E031D252A0310410D84
:10045800183E013E342A0310C00CBF0CBE0CBD0C64
:10046800FF3E031D2F2A3D08C2005008433E84006A
:100478004208831380000130BC003C08D0070430D8
:100488005002031C482A492AF9294A2A4330BC0049
:100498003C08B6000430BD003D08B7004F082038BE
:1004A8000A128A1519240A128A11013083120313B9
:1004B800BC003C08CF070E304F02031C642A652A93
:1004C800F029D0010B305002031C6B2A6C2A6E2ACB
:1004D8008C2A8C2A5008783E840090300318013EFC
:1004E800FF000A168A1100200A128A11BC0050085F
:1004F800433E84003C08831380000130BC003C0864
:10050800D0070B305002031C8A2A8B2A6E2A8C2AA9
:100518004330BC003C08B6000B30BD003D08B700B6
:100528002E300A128A1519240A128A11831203130B
:10053800D00104305002031CA22AA32AA52AE82AC3
:10054800E82A223084009030FF000A168A11002021
:100558000A128A11BC000A168A1100200A128A118E
:10056800BD000A168A1100200A128A11BE000A1656
:100578008A1100200A128A11BF005008C0000230F8
:100588000310C00DFF3E031DC42A0310400D013E99
:10059800D22A0310BF0CBE0CBD0CBC0CFF3E031DC1
:1005A800CD2A3C08C1005008433E8400410883130B
:1005B80080000130BC003C08D00704305002031C06
:1005C800E62AE72AA52AE82A43080638BC003C0898
:1005D800C3004330BC003C08B6000430BD003D08F1
:1005E800B70024300A128A1519240A128A118312B4
:1005F80003134308F939BC003C08C3004330BC006E
:100608003C08B6000430BD003D08B70024300A128B
:100618008A1519240A128A11823083120313BD0025
:10062800DD30BC00BC0B162BBD0B162B1B2B003072
:100638000A128A11C9270A128A1183120313071191
:100648000800003083160317B6000030B5000030EC
:10065800B4000030B300831603131008CF392038D4
:1006680090008316031708100713871383160313C4
:100678000810831203130810831603130713831635
:100688000317071108118712881083160313091519
:100698008316031709158316031307110811871109
:1006A8008712071688148312031307110815871178
:1006B800871283160313891083160317891083166C
:1006C8000313091583160317091583160313091451
:1006D80083160317091083160313091483160317C7
:1006E80009148316031388118312031388118B17B7
:1006F8000B17831603130C141030831203138F0087
:100708008E0110083F3980389000303090048316ED
:1007180003138F17831203131015901510140A1260
:100728008A1546230A128A110A128A1530230A12D8
:100738008A110A128A15F8220A128A1100300A123E
:100748008A15F4230A128A11630063000A128A15B3
:1007580098240A128A1183160313CA00CB014A0887
:1007680083160317B100831603134B088316031768
:10077800B200EC2B63000A128A1598240A128A1117
:1007880083160313CA00CB014A0883160317B10066
:10079800831603134B0883160317B200D530831250
:1007A8000313C1009030C200831603173208831266
:1007B8000313C401C40783160317310883120313F4
:1007C800C301C3070A128A1135250A128A11EC2BB4
:1007D800831603173208803AFF0080307F02031D1A
:1007E800F72B78303102031CFA2BFB2BBE2BFC2B8A
:1007F800FF3083120313C1009030C2008316031721
:10080800320883120313C401C4078316031731087F
:1008180083120313C301C3070A128A1135250A126A
:100828008A110A128A1115200A128A1100300A1236
:100838008A15F4230A128A11630083120313D30161
:10084800D401262C01300A128A15F4230A128A11BF
:10085800003083160317B6000030B5000030B4002E
:100868000030B3003608803AFF000030803A7F023B
:10087800031D482C00303502031D482C003034027B
:10088800031D482C02303302031C4B2C4C2C4E2CDD
:10089800872C872C3308563E840083130008831660
:1008A8000313CA00831603173308903E8400831687
:1008B80003134A0883178000013083160317B30710
:1008C800003003180130B407003003180130B507B1
:1008D800003003180130B6073608803AFF000030B0
:1008E800803A7F02031D822C00303502031D822CC2
:1008F80000303402031D822C02303302031C852C85
:10090800862C4E2C872C0A128A156D240A128A11FD
:1009180083160313CA004A0883120313D6000A1267
:100928008A1598240A128A1183160313CA004A08E2
:1009380083120313D700530883160313CA004A0807
:1009480083120313D800540883160313CA004A08F5
:1009580083120313D90079305702031CB42CB52C29
:10096800CC2C563083160313CA004A08831203138B
:10097800D100043083160313CB004B0883120313F2
:10098800D200B0300A128A11E5260A128A11E72C21
:10099800A33083120313C1009030C2005708831696
:1009A8000313CA00CB014A0883120313C30083163A
:1009B80003134B0883120313C4000A128A11352546
:1009C8000A128A11E72C83120313071100300A1246
:1009D8008A15F4230A128A11831203131010103097
:1009E8008F008E01101483160317B001192D6300B0
:1009F800333083120313C1009130C20083160317EA
:100A0800300883160313CA00CB014A088312031364
:100A1800C300831603134B0883120313C4000A127E
:100A28008A1135250A128A11192D013083160313EC
:100A3800CA004A0883160317B00703303002031CA4
:100A4800262D272DFB2C282D013083120313D307C5
:100A58000318D40A0030D407262C262C0A128A112F
:100A68001228433083120313C5004508C900C72E56
:100A78005008253A0319412D422D492D50080A12D4
:100A88008A150E230A128A11C72ECB01582DE42E7F
:100A98007C2D7C2DCB177C2D50080A128A150E232D
:100AA8000A128A11C72E7C2D831203134208C6002E
:100AB8004108C5000130C1070318C20A4608FF00F3
:100AC800450884000A168A1100200A128A11D000EB
:100AD800003A0319E42E583A03194E2D3C3A0319EB
:100AE8007C2D0D3A03197C2D113A03194E2D502DEA
:100AF80083120313CB1B812D822D9D2D4908840061
:100B080083130008CC00840A0008CD000230C50019
:100B18004508C907CD1F912D922D1A2E0330C50007
:100B28004508CB04CC09CD09CC0A0319CD0A1A2EE5
:100B38001A2E4908840083130008CC00840A000890
:100B4800CD000230C5004508C9071A2E1A2ED0015B
:100B5800D00A5008053A031DB22DB32DB52D232E0A
:100B6800232E5008C5004507833E840090300318A3
:100B7800013EFF000A168A1100200A128A11C600D7
:100B88000A168A1100200A128A11C70047084D0266
:100B9800031DD02D46084C020318D32DD42DD62D75
:100BA800232E232E0130C5004508D0075008053AEA
:100BB800031DDF2DE02DB52D232E232ED001D00AC5
:100BC8005008043A031DE92DEA2DEC2D232E232E7F
:100BD8005008C50045078D3E840090300318013E3B
:100BE800FF000A168A1100200A128A11C6000A1686
:100BF8008A1100200A128A11C70047084D02031DF6
:100C0800072E46084C0203180A2E0B2E0D2E232EF3
:100C1800232E0130C5004508D0075008043A031DAB
:100C2800162E172EEC2D232E232E232E4B0880391B
:100C3800003A0319AB2D803A0319E22D232E4B08F5
:100C480003390319282E292E302E2D300A128A1521
:100C58000E230A128A11302E831203135008C5007E
:100C68004508CA00B92EA92E0A30BB000030BC00C6
:100C78004A08C5004507833E840090300318013EAA
:100C8800FF000A168A1100200A128A11B3000A16F8
:100C98008A1100200A128A11B4004D08B601B6075D
:100CA8004C08B501B5070A128A1503260A128A11DB
:100CB800831203133408BE01BE073308BD01BD0704
:100CC8000A128A1571250A128A11831203133B0826
:100CD800303EC6004608D000B22E4A08C500450777
:100CE8008D3E840090300318013EFF000A168A11D9
:100CF80000200A128A11B3000A168A1100200A126B
:100D08008A11B4004D08B601B6074C08B501B507FD
:100D18000A128A1503260A128A118312031333084A
:100D28000F39C6004608C8004808113E84009130B3
:100D38000318013EFF000A168A1100200A128A11C0
:100D4800C5004508D000B22EB22E4B088039003AB3
:100D58000319382E803A0319712EB22E50080A1240
:100D68008A150E230A128A11B92EFF308312031333
:100D7800C5004508CA074A08FF3A031DC42EC52EF8
:100D8800A92EC72EC72E831203134208C600410896
:100D9800C5000130C1070318C20A4608FF0045080C
:100DA80084000A168A1100200A128A11C70047080F
:100DB800D000D008031DE12EE22E3C2DE42EE42EB7
:100DC800080083160313C3000A128A1543240A1263
:100DD8008A1117300A128A155E230A128A1183169D
:100DE8000313C0004008C400C41AFB2EFC2EC82FF1
:100DF8004B3083120313C1009130C2000A128A11CA
:100E080035250A128A1183160313C501362F5A3065
:100E180083120313C1009130C200831603134508DF
:100E280083120313510783160313C000400884007C
:100E380083130008C100C201410883120313C300D1
:100E480083160313420883120313C4000A128A117B
:100E580035250A128A11013083160313C000400891
:100E6800C507362F8312031352088316031345024E
:100E7800031C3F2F402F0B2F412F57308312031392
:100E8800C1009130C2000A128A1135250A128A114E
:100E9800831203130711510883160313C000400877
:100EA80083120313B600520883160313C1004108C6
:100EB80083120313B7008316031343080A128A1513
:100EC80019240A128A118312031307150630831690
:100ED8000313C000C00B6E2F000083120313071109
:100EE800033083160313C1009730C000C00B7A2F5C
:100EF800C10B7A2F7F2FB72F0A128A15B1230A1236
:100F08008A11003A0319892F8A2F9B2F22308312C6
:100F18000313C1009130C2000A128A1135250A1242
:100F28008A110A128A15EF240A128A119B2F0A12B3
:100F38008A1592230A128A11003A0319A42FA52FA1
:100F4800B72FBD3083120313C1009030C2000A12BC
:100F58008A1135250A128A110A128A15EF240A12F3
:100F68008A11B72FB72F83120313881CBC2FBD2FEC
:100F7800802FBE2F5530C1009130C2000A128A114D
:100F880035250A128A11C82F080083120313BA00E4
:100F980007300A128A155E230A128A118312031374
:100FA800B9003908BB003B088039B9003908BB00D3
:100FB8003B08031DE02FE52F3A08031DE42FEF2F10
:100FC800E52FBB08031DE92FEA2FFA2F3A08031D66
:100FD800EE2FFA2FEF2F5330B9003908B6005030F2
:100FE8000A128A151A230A128A11FA2F08000134E4
:1015E00064008001840A0406031900340406F12A09
:1015F000831603131F088F3910389F0003309F0490
:101600001D170800F000042B831203130C1E092B76
:101610000A2B042B0B2B700899000800831203136C
:10162000B300122B0C1E152B162B122B172B330865
:101630009900080083120313B700081137080A1233
:101640008A15D0230A128A158312031336080A1248
:101650008A15D0230A128A1583120313081508006D
:10166000831603138717071302309800831203139E
:10167000980183160313181118120C309900831265
:101680000313981783160313981608008312031385
:10169000941614121408F0390238940083160313B8
:1016A00094131417823083120313B400DD30B30097
:1016B000B30B582BB40B582B5D2B0800831203136C
:1016C000B700081137080A128A15D0230A128A15A2
:1016D00000300A128A15D0230A128A1583120313C6
:1016E000B6003608B80008153808762B0800DA016D
:1016F000D301D401D501D601D701D801D901831373
:10170000A0308400C0300A128A15F0220A128A150D
:101710000A128A11FB270A128A15DB0083010A12BA
:101720008A11252B07300A128A155E230A128A15A0
:1017300083120313B900B91E9E2B9F2BAD2B1030C3
:10174000B9003908B60027300A128A151A230A127E
:101750008A150130B02BB02BB02B0030B02BB02B42
:10176000080007300A128A155E230A128A158312AE
:101770000313B900B91EBD2BBE2BCC2B2030B900F2
:101780003908B60027300A128A151A230A128A1558
:101790000130CF2BCF2BCF2B0030CF2BCF2B0800FE
:1017A00083120313B500350893000B30B400623088
:1017B000B300B30BD92BB40BD92B0000DF2B831252
:1017C00003138C1DE42BE52BDF2BE62B0B30B40031
:1017D0006230B300B30BEA2BB40BEA2B0000831288
:1017E00003131308F32B080083120313BA0000300D
:1017F0000A128A155E230A128A1583120313B9008E
:101800003908BB00BA08031D062C072C0C2CFD3030
:10181000B9003908BB050E2CBB140E2C3B08B900CF
:101820003908B60020300A128A151A230A128A15BE
:10183000080083120313B900081139080A128A1527
:10184000D0230A128A1583120313BA013B2C3608DF
:101850008400831300080A128A15D0230A128A15FD
:10186000013083120313B8003808B6070130B800FE
:101870003808BA073B2C37083A02031C402C412C8D
:10188000272C0815080083120313B601E1300A1251
:101890008A151A230A128A158312031307110030BE
:1018A0000A128A155E230A128A1583120313B900DD
:1018B0003908BA003A08FE39B9003908BA003A08BE
:1018C000B9003908B60020300A128A151A230A1204
:1018D0008A158312031307150800831203131F08C8
:1018E000C3391C389F00831603131D08FC390138C7
:1018F0009D00831203131F1489140D30B400FB30B4
:10190000B300B30B812CB40B812C862C83120313F0
:101910009F148A2C9F188D2C8E2C8A2C8F2C1E089D
:10192000B3003308B5001F1089103508972C080044
:10193000831203131F08C33914389F00831603133F
:101940001D08FC3902389D00831203131F148815EB
:101950000330B4009730B300B30BAC2CB40BAC2CF9
:10196000B12C831203139F14B52C9F18B82CB92CDB
:10197000B52CBA2C1E08B3003308B5001F1088110F
:101980003508C22C08000C1CC62CC72CE42C0130D6
:10199000AE002E08D50710308F008E0155085B066B
:1019A000031DD32CD42CE22CEC30A0009030A100ED
:1019B0000A128A1552260A128A1583120313D501B8
:1019C0005A14E22C0C10E42C3208FF0031088A0073
:1019D000300884002F0E8300FE0E7E0E0900831255
:1019E0000313B601E2300A128A151A230A128A1565
:1019F00007300A128A155E230A128A15831203130E
:101A0000B9003908BA003A08B9003908B6002730D9
:101A10000A128A151A230A128A1583120313071150
:101A200000300A128A155E230A128A1583120313E4
:101A3000B9003908BA003A080138B9003908BA00C3
:101A40003A08B9003908B60020300A128A151A235C
:101A50000A128A15831203130715080079087804FF
:101A60000319332D342D692DFD01FD0A432D01305D
:101A70000310F80DF90DFF3E031D382D0130FC0059
:101A80007C08FD07432DF91F462D472D372D492D85
:101A9000492D79087B02031D4F2D78087A02031C1B
:101AA000522D532D5A2D7808FA027908031CFB0396
:101AB000FB025A2D01300310F90CF80CFF3E031DF8
:101AC0005B2D0130FD02031D662D672D492D692D0B
:101AD000692D7B08F901F9077A08F801F807702DDC
:101AE0000800831203133C083B040319782D792D59
:101AF000AE2DC001C00A882D01300310BB0DBC0DF6
:101B0000FF3E031D7D2D0130BF003F08C007882D1B
:101B1000BC1F8B2D8C2D7C2D8E2D8E2D3C083E02D6
:101B2000031D942D3B083D02031C972D982D9F2DDE
:101B30003B08BD023C08031CBE03BE029F2D0130C2
:101B40000310BC0CBB0CFF3E031DA02D0130C002D6
:101B5000031DAB2DAC2D8E2DAE2DAE2D3E08BC0140
:101B6000BC073D08BB01BB07B52D0800F601F70116
:101B7000710870040319BD2DBE2DFB2DF501F50A6A
:101B8000CD2D01300310F00DF10DFF3E031DC22DD0
:101B90000130F4007408F507CD2DF11FD02DD12DA3
:101BA000C12DD32DD32D01300310F60DF70DFF3EBF
:101BB000031DD42D71087302031DE02D70087202FD
:101BC000031CE32DE42DEC2D7008F2027108031CB8
:101BD000F303F3027614EC2D01300310F10CF00C3A
:101BE000FF3E031DED2D0130F502031DF82DF92DEB
:101BF000D32DFB2DFB2D7708F101F1077608F001BD
:101C0000F007022E080083120313B901BA01340849
:101C1000330403190C2E0D2E4A2EB801B80A1C2EBF
:101C200001300310B30DB40DFF3E031D112E013022
:101C3000B7003708B8071C2EB41F1F2E202E102EF9
:101C4000222E222E01300310B90DBA0DFF3E031DC6
:101C5000232E34083602031D2F2E33083502031CB1
:101C6000322E332E3B2E3308B5023408031CB60344
:101C7000B60239143B2E01300310B40CB30CFF3EF6
:101C8000031D3C2E0130B802031D472E482E222E84
:101C90004A2E4A2E3A08B401B4073908B301B307F3
:101CA000512E0800223083120313A2002208A6003E
:101CB000E22F2D08253A03195E2E5F2E662E2D0881
:101CC0000A128A1502230A128A15E22FA801752E1C
:101CD000FF2F992E992EA817992E2D080A128A15D2
:101CE00002230A128A15E22F992E83120313210868
:101CF000A3002008A2000130A0070318A10A2308AE
:101D0000FF00220884000A168A1100200A128A1590
:101D1000AD00003A0319FF2F583A03196B2E3C3AD5
:101D20000319992E0D3A0319992E113A03196B2EA6
:101D30006D2E83120313A81B9E2E9F2EBA2E2608EB
:101D4000840083130008A900840A0008AA00023056
:101D5000A2002208A607AA1FAE2EAF2E372F0330EF
:101D6000A2002208A804A909AA09A90A0319AA0A13
:101D7000372F372F2608840083130008A900840A10
:101D80000008AA000230A2002208A607372F372F2A
:101D9000AD01AD0A2D08053A031DCF2ED02ED22E4F
:101DA000402F402F2D08A2002207833E8400903050
:101DB0000318013EFF000A168A1100200A128A1534
:101DC000A3000A168A1100200A128A15A40024080A
:101DD0002A02031DED2E230829020318F02EF12EEE
:101DE000F32E402F402F0130A2002208AD072D080E
:101DF000053A031DFC2EFD2ED22E402F402FAD01A3
:101E0000AD0A2D08043A031D062F072F092F402F76
:101E1000402F2D08A20022078D3E84009030031829
:101E2000013EFF000A168A1100200A128A15A3003B
:101E30000A168A1100200A128A15A40024082A0210
:101E4000031D242F230829020318272F282F2A2FA8
:101E5000402F402F0130A2002208AD072D08043A80
:101E6000031D332F342F092F402F402F402F2808D8
:101E70008039003A0319C82E803A0319FF2E402FEB
:101E8000280803390319452F462F4D2F2D300A12EC
:101E90008A1502230A128A154D2F831203132D0867
:101EA000A2002208A700D42FC42F0A30F800003067
:101EB000F9002708A2002207833E8400903003180F
:101EC000013EFF000A168A1100200A128A15F0004E
:101ED0000A168A1100200A128A15F1002A08F30155
:101EE000F3072908F201F2070A128A15B6250A1229
:101EF0008A157108FB01FB077008FA01FA070A123C
:101F00008A152E250A128A157808303E831203138B
:101F1000A3002308AD00CD2F2708A20022078D3E85
:101F2000840090300318013EFF000A168A11002039
:101F30000A128A15F0000A168A1100200A128A1560
:101F4000F1002A08F301F3072908F201F2070A1247
:101F50008A15B6250A128A1570080F3983120313E1
:101F6000A3002308A5002508113E84009130031822
:101F7000013EFF000A168A1100200A128A15A200EB
:101F80002208AD00CD2FCD2F28088039003A031943
:101F9000552F803A03198C2FCD2F2D080A128A1540
:101FA00002230A128A15D42FFF3083120313A200D2
:101FB0002208A7072708FF3A031DDF2FE02FC42FB1
:101FC000E22FE22F831203132108A3002008A200AE
:101FD0000130A0070318A10A2308FF00220884008B
:101FE0000A168A1100200A128A15A4002408AD00DE
:101FF000AD08031DFC2FFD2F592EFF2FFF2F0800CA
:10200000FF1B0A2883137F1883170008840A03190B
:10201000FF0A08007F087F398A000408840A031930
:10202000FF0A820040344B340134E234C0344B3474
:1020300000340034D034FC348C340234993400340D
:1020400039344134F9349E3486340B342434063424
:102050007F34A634003400340034003400340034BB
:1020600000340034003400340034003400340034D0
:1020700000340034003400340034003400340034C0
:1020800000340034003473341234003400348034AB
:10209000B434363400340F3401343F3402343F3426
:1020A000033403340434FF34053417340634013464
:1020B0000734073408340034093400340C34C33492
:1020C0000D34C4340E34C5340F34C63411342034C6
:1020D0001234203413342034143420341534203492
:1020E00016342034173400341C343F341D34073484
:1020F000413420340834043481342034CF34F7346C
:10210000FE34FF34FF34013400340A3400346434C4
:102110000034E834033410342734013400341034EC
:102120000034003401340034103434344334103477
:10213000103401343934383437343634C2341C3432
:102140003F341D3407345634533474346F3472348E
:102150006134673465343A342034253464342034AF
:1021600020343D343E3420346E346F3474342034A3
:102170004F344B340D340A3400344E346F34203431
:1021800064346134743461342034733465346E34AF
:1021900074343A3420344534523452344F34523447
:1021A00020340D340A3420340034563473347434FB
:1021B0006F347234613467346534203474346F346E
:1021C0006F3420346C346F3477343A34203425340F
:1021D00064340D340A3400344534633463346F346A
:1021E0006D34693420346E3465346C346C34273487
:1021F00049345334523421340D340A3400345634C3
:10220000733474346F347234613467346534203419
:102210004F344B343A342034253464340D340A348A
:1022200000343034313432343334343435343634A9
:102230003734383439344134423443344434453407
:10224000463400344434613474346134203473349B
:1022500065346E3474343A3420344F344B34203483
:102260000D340A34003453346C34653465347034BE
:102270003A342034253464340D340A340034523472
:102280006534633465346934763469346E34673464
:102290003A3420340034533465346E346434693451
:1022A0006E3467343A34203400340A340D340A343E
:0A22B0000D34003425345834003496
:04400E00F5FFCFFFEC
:00000001FF
