:060000000A128A11122809
:10000800FE00030E83120313B0000408B1000A08AF
:10001800B2007F08B3000A128A153D2C0A128A1111
:10002800C72F033083120313BF000830BE00783097
:10003800BD00BD0B1D28BE0B1D28BF0B1D280030A1
:100048000A128A15A8220A128A1183120313D001F0
:1000580014305002031C31283228342864286428BC
:100068000314500D4A3E840090300318013EFF00EF
:100078000A168A1100200A128A11BD003D08B7002D
:100088005008BE003E074A3E840090300318013EE7
:10009800FF000A168A1100200A128A1120380A1253
:1000A8008A15F9200A128A11013083120313BD0040
:1000B8003D08D00714305002031C632864283428F4
:1000C800D10105305102031C6A286B286D288B2842
:1000D8008B285108953E840090300318013EFF009C
:1000E8000A168A1100200A128A11BD005108443EDE
:1000F80084003D08831380000130BD003D08D1070E
:1001080005305102031C89288A286D288B28443021
:10011800BD003D08B7000530BE003E08B8002A30D3
:100128000A128A15FC210A128A1183120313D101BB
:1001380005305102031CA128A228A428C228C228DD
:1001480051089A3E840090300318013EFF000A16B9
:100158008A1100200A128A11BD005108443E840009
:100168003D08831380000130BD003D08D1070530EC
:100178005102031CC028C128A428C2284430BD004D
:100188003D08B7000530BE003E08B8002B300A1203
:100198008A15FC210A128A1183120313D101053032
:1001A8005102031CD828D928DB28F928F928510836
:1001B800953E840090300318013EFF000A168A110C
:1001C80000200A128A11BD005108443E84003D08EF
:1001D800831380000130BD003D08D107053051026E
:1001E800031CF728F828DB28F9284430BD003D080F
:1001F800B7000530BE003E08B80030300A128A1534
:10020800FC210A128A111D300A128A1556210A1277
:100218008A1183120313BD003D08D000D008031DC6
:100228001629172922297330BD003D08B700503020
:100238000A128A15F9200A128A1122291630831205
:100248000313BD003D08D0001530500203182D29B6
:100258002E2930295F295F290314500D4A3E840056
:1002680090300318013EFF000A168A1100200A1276
:100278008A11BD003D08B7005008BE003E074A3E3F
:10028800840090300318013EFF000A168A110020EE
:100298000A128A1120380A128A15F9200A128A11BC
:1002A800013083120313D0021530500203185D2960
:1002B8005E2930295F2901300A128A15A8220A12FC
:1002C8008A1183120313D00109305002031C6D29CF
:1002D8006E297029E429E429D10104305102031C54
:1002E800762977297929C829C8295008BD000130FD
:1002F8000310BD0DFF3E031D7C2903103D0D123E6A
:10030800840090300318013EFF000A168A1100206D
:100318000A128A11BE000A168A1100200A128A11CE
:10032800BF000A168A1100200A128A11C0000A1694
:100338008A1100200A128A11C1005108C200023035
:100348000310C20DFF3E031DA4290310420D013EF8
:10035800B2290310C10CC00CBF0CBE0CFF3E031D1C
:10036800AD293E08C3005108443E84004308831366
:1003780080000130BD003D08D10704305102031C44
:10038800C629C7297929C8294430BD003D08B700C6
:100398000430BE003E08B800500820380A128A15FA
:1003A800FC210A128A11013083120313BD003D0893
:1003B800D00709305002031CE229E3297029E429F7
:1003C8000930BD003D08D0000E305002031CED2955
:1003D800EE29F029652A652AD10104305102031C4F
:1003E800F629F729F9294A2A4A2A5008BD00013076
:1003F8000310BD0DFF3E031DFC2903103D0D123EE9
:10040800840090300318013EFF000A168A1100206C
:100418000A128A11BE000A168A1100200A128A11CD
:10042800BF000A168A1100200A128A11C0000A1693
:100438008A1100200A128A11C1005103FF3AC20032
:1004480002300310C20DFF3E031D252A0310420D82
:10045800183E013E342A0310C10CC00CBF0CBE0C60
:10046800FF3E031D2F2A3E08C3005108443E840066
:100478004308831380000130BD003D08D1070430D4
:100488005102031C482A492AF9294A2A4430BD0046
:100498003D08B7000430BE003E08B80050082038B8
:1004A8000A128A15FC210A128A11013083120313D9
:1004B800BD003D08D0070E305002031C642A652A8F
:1004C800F029D1010B305102031C6B2A6C2A6E2AC9
:1004D8008C2A8C2A5108783E840090300318013EFB
:1004E800FF000A168A1100200A128A11BD0051085D
:1004F800443E84003D08831380000130BD003D0860
:10050800D1070B305102031C8A2A8B2A6E2A8C2AA7
:100518004430BD003D08B7000B30BE003E08B800AF
:100528002E300A128A15FC210A128A11831203132B
:10053800D10104305102031CA22AA32AA52AE82AC1
:10054800E82A223084009030FF000A168A11002021
:100558000A128A11BD000A168A1100200A128A118D
:10056800BE000A168A1100200A128A11BF000A1654
:100578008A1100200A128A11C0005108C1000230F5
:100588000310C10DFF3E031DC42A0310410D013E97
:10059800D22A0310C00CBF0CBE0CBD0CFF3E031DBD
:1005A800CD2A3D08C2005108443E84004208831306
:1005B80080000130BD003D08D10704305102031C02
:1005C800E62AE72AA52AE82A44080638BD003D0895
:1005D800C4004430BD003D08B7000430BE003E08EA
:1005E800B80024300A128A15FC210A128A118312D3
:1005F80003134408F939BD003D08C4004430BD0068
:100608003D08B7000430BE003E08B80024300A1286
:100618008A15FC210A128A11823083120313BE0044
:10062800DD30BD00BD0B162BBE0B162B1B2B00306F
:100638000A128A15A8220A128A11831203130711B3
:100648000800003083160313D6000030D5000030B0
:10065800D4000030D300D101D2011008CF3920389E
:1006680090008316031707138713831603130713C2
:1006780083160317071108118712881083160313AE
:100688000915831603170915831603130511831615
:100698000317051183120313051583160313071196
:1006A800081187118712071688148312031307117C
:1006B800081587118712831603130810831603176A
:1006C80008108316031309158316031709158316D3
:1006D8000313091483160317091083120313081050
:1006E80083160313091483160317091483160313B7
:1006F800881183120313881183160313881683162F
:10070800031788128316031308178817831603170D
:10071800081388138B170B17831603130C14103048
:10072800831203138F008E0110083F398038900020
:1007380030309004831603138F1783120313101598
:1007480090151014831603130510851085110512D2
:100758008512051385138316031705108510851157
:1007680005128512051385138312031305108510CE
:1007780085110512851205138513831603130610B8
:1007880086100611861106128612831603170610A4
:10079800861006118611061286128312031306109C
:1007A8008610061186110616861283160313081280
:1007B80083160317081283120313081283160313F0
:1007C80089148316031789148312031389100A12D4
:1007D8008A1525210A128A110A128A150F210A126E
:1007E8008A110A128A15BA200A128A1100300A12CE
:1007F8008A15AD210A128A11831203130808831679
:100808000313AC0006300310AC0CFF3E031D072C8D
:100818002C080339AD002D0883120313D6002630A7
:10082800C2009130C300560883160313AC00AD0113
:100838002C0883120313C400831603132D08831294
:100848000313C5000A128A1117260A128A116300B7
:100858000A128A1526220A128A1183160313AC007B
:10086800AD012C08E3002D08E400622C63000A1295
:100878008A1526220A128A1183160313AC00AD01C9
:100888002C08E3002D08E400FA3083120313C20099
:100898009030C30083160313640883120313C50141
:1008A800C50783160313630883120313C401C4071F
:1008B8000A128A1117260A128A11622C003083162E
:1008C8000313640258300319630203186C2C6D2C4F
:1008D800752C83120313881E722C732C3A2C752CDA
:1008E800752CA3308312C2009030C3008316031303
:1008F800640883120313C501C5078316031363082D
:1009080083120313C401C4070A128A1117260A1294
:100918008A110A128A1115200A128A1100300A1245
:100928008A15AD210A128A11630083160313E101A7
:10093800E2019E2C01300A128A15AD210A128A1191
:10094800003083160313D6000030D5000030D400E1
:100958000030D3005608803AFF000030803A7F020A
:10096800031DC02C00305502031DC02C003054025A
:10097800031DC02C02305302031CC32CC42CC62CEC
:10098800F62CF62C5308D93E840083130008AC00DB
:100998005308B03E84002C0880000130D307003093
:1009A80003180130D407003003180130D507003090
:1009B80003180130D6075608803AFF000030803A05
:1009C8007F02031DF12C00305502031DF12C00306D
:1009D8005402031DF12C02305302031CF42CF52C95
:1009E800C62CF62C0A128A1551220A128A1183166D
:1009F8000313AC002C08D9000A128A1526220A1201
:100A08008A1183160313AC002C08DA006108AC00C5
:100A18002C08DB006208AC002C08DC006708AC007E
:100A28002C08DD006608AC00AD01AC09AD09AC0AC4
:100A38000319AD0A65082C0783120313B400831643
:100A480003132D0803182D0A83120313B500831608
:100A580003136508660783120313B600B701B70DC1
:100A68000A128A157C220A128A1183120313340887
:100A780083160313D1070318D20A83120313350808
:100A880083160313D2075108AC002C08DE00520865
:100A9800AC002C08DF005708AC002C08E0005930E7
:100AA8005A020318582D592D602D83120313881EDE
:100AB8005E2D5F2D752D602DD93083160313AC0084
:100AC8002C08A0000830AD002D08A100B0300A1293
:100AD8008A1576250A128A1183160313D101D201C9
:100AE8008F2DC8308312C2009030C30083160313C1
:100AF8005A08AC00AD012C0883120313C4008316F6
:100B080003132D0883120313C5000A128A1117262E
:100B18000A128A118F2D83120313071100300A124B
:100B28008A15AD210A128A1183120313101010308E
:100B38008F008E0110141130C2009130C300560886
:100B480083160313AC00AD012C0883120313C400F1
:100B5800831603132D0883120313C5000A128A1182
:100B680017260A128A1183160313D001FE2D4D3061
:100B780083120313C2009130C30083160313500875
:100B8800AC00AD012C0883120313C40083160313B1
:100B98002D0883120313C500831603136808AE00DB
:100BA800AF012E0883120313C600831603132F0800
:100BB80083120313C7000A128A1117260A128A1110
:100BC8003A30831603135802983003195702031C4E
:100BD800EE2DEF2DF72D83120317930183120313C4
:100BE80005116300FE2D0A128A15B5240A128A110E
:100BF800FE2DFE2D013083160313D007FF3050075A
:100C0800AC0068082C02031C0A2E0B2EBB2D0C2EE0
:100C18000130E1070318E20A0030E2079E2C9E2CFF
:100C28000A128A111228443083120313C800480894
:100C3800CC00A92F5308253A0319232E242E2B2E36
:100C480053080A128A15DA200A128A11A92FCE012E
:100C58003A2EC62F5E2E5E2ECE175E2E53080A122F
:100C68008A15DA200A128A11A92F5E2E831203131D
:100C78004308C9004208C8000130C2070318C30A64
:100C88004908FF00480884000A168A1100200A1241
:100C98008A11D300003A0319C62F583A0319302E87
:100CA8003C3A03195E2E0D3A03195E2E113A0319C8
:100CB800302E322E83120313CE1B632E642E7F2E0A
:100CC8004C08840083130008CF00840A0008D00071
:100CD8000230C8004808CC07D01F732E742EFC2E93
:100CE8000330C8004808CE04CF09D009CF0A031939
:100CF800D00AFC2EFC2E4C08840083130008CF0079
:100D0800840A0008D0000230C8004808CC07FC2E2E
:100D1800FC2ED301D30A5308053A031D942E952EB1
:100D2800972E052F052F5308C8004807833E8400D7
:100D380090300318013EFF000A168A1100200A129B
:100D48008A11C9000A168A1100200A128A11CA00DB
:100D58004A085002031DB22E49084F020318B52E47
:100D6800B62EB82E052F052F0130C8004808D30726
:100D78005308053A031DC12EC22E972E052F052FA5
:100D8800D301D30A5308043A031DCB2ECC2ECE2E02
:100D9800052F052F5308C80048078D3E8400903062
:100DA8000318013EFF000A168A1100200A128A1150
:100DB800C9000A168A1100200A128A11CA004A08B4
:100DC8005002031DE92E49084F020318EC2EED2EA0
:100DD800EF2E052F052F0130C8004808D307530808
:100DE800043A031DF82EF92ECE2E052F052F052FB8
:100DF8004E088039003A03198D2E803A0319C42E03
:100E0800052F4E08033903190A2F0B2F122F2D30E7
:100E18000A128A15DA200A128A11122F8312031372
:100E28005308C8004808CD009B2F8B2F0A30BC0000
:100E38000030BD004D08C8004807833E840090304C
:100E48000318013EFF000A168A1100200A128A11AF
:100E5800B4000A168A1100200A128A11B500500837
:100E6800B701B7074F08B601B6070A128A15EE236D
:100E78000A128A11831203133508BF01BF07340809
:100E8800BE01BE070A128A155C230A128A11831250
:100E980003133C08303EC9004908D300942F4D087D
:100EA800C80048078D3E840090300318013EFF00BB
:100EB8000A168A1100200A128A11B4000A168A1129
:100EC80000200A128A11B5005008B701B7074F0869
:100ED800B601B6070A128A15EE230A128A1183127E
:100EE800031334080F39C9004908CB004B085F3E8B
:100EF800840091300318013EFF000A168A11002071
:100F08000A128A11C8004808D300942F942F4E085B
:100F18008039003A03191A2F803A0319532F942F56
:100F280053080A128A15DA200A128A119B2FFF30F9
:100F380083120313C8004808CD074D08FF3A031D64
:100F4800A62FA72F8B2FA92FA92F8312031343088E
:100F5800C9004208C8000130C2070318C30A49087B
:100F6800FF00480884000A168A1100200A128A1114
:100F7800CA004A08D300D308031DC32FC42F1E2E4E
:100F8800C62FC62F0800DB01D401D501D601D70131
:100F98008313E1308400E9300A128A15B2200A125C
:100FA8008A11831790308400B0300A128A15B22053
:100FB8000A128A118313E130FD000830FE00C430A4
:100FC800FF00D73084000A128A15EA200A128A1113
:100FD8005B30FD000730FE00FD30FF005830840014
:100FE8000A128A15EA200A128A1183010A128A1142
:080FF800252B1A3400340134EA
:1011640064008001840A0406031900340406B328C9
:10117400831603131F088F3910389F0003309F0410
:101184001D170800323400340034003400340034B5
:101194000034AA34AA34AA34F000D02883120313EA
:1011A4000C1ED528D628D028D72870089900080006
:1011B40083120313B400DE280C1EE128E228DE2883
:1011C400E3283408990008007E088A007F0882001A
:1011D4000A128A15E6200A128A158000840A040875
:1011E4007D0603190034FF0A0319FE0AEA28831254
:1011F4000313B800081138080A128A153D210A128F
:101204008A158312031337080A128A153D210A121C
:101214008A1583120313081508008316031387170E
:1012240007130230980083120313980183160313E3
:10123400181118120C30990083120313981783168F
:101244000313981608008312031394161412140837
:10125400F039023894008316031394131417823060
:1012640083120313B500DD30B400B40B3729B50B7A
:1012740037293C29080083120313B600360893006B
:101284000330B5009730B400B40B4629B50B46299A
:101294004B294C29831203138C1D512952294C29A3
:1012A400532913085529080083120313B8000811A1
:1012B40038080A128A153D210A128A1500300A12CA
:1012C4008A153D210A128A1583120313B7003708C1
:1012D400B900081539086E29080007300A128A1562
:1012E40056210A128A1583120313BA00BA1E7B29E7
:1012F4007C298A292030BA003A08B70027300A121C
:101304008A15F9200A128A1501308D298D298D2913
:1013140000308D298D29080007300A128A155621BC
:101324000A128A1583120313BA00BA1E9A299B293A
:10133400A9291030BA003A08B70027300A128A15D2
:10134400F9200A128A150130AC29AC29AC290030E5
:10135400AC29AC29080083120313BB0000300A1225
:101364008A1556210A128A1583120313BA003A0801
:10137400BC00BB08031DBF29C029C529FD30BA0024
:101384003A08BC05C729BC14C7293C08BA003A0866
:10139400B70020300A128A15F9200A128A150800AB
:1013A40083120313B701E1300A128A15F9200A12D5
:1013B4008A1583120313071100300A128A15562165
:1013C4000A128A1583120313BA003A08BB003B08B9
:1013D400FE39BA003A08BB003B08BA003A08B70025
:1013E40020300A128A15F9200A128A15831203136F
:1013F4000715080083120313BA0008113A080A12E9
:101404008A153D210A128A1583120313BB011E2A71
:1014140037088400831300080A128A153D210A1232
:101424008A15013083120313B9003908B707013054
:10143400B9003908BB071E2A38083B02031C232ABB
:10144400242A0A2A08150800831203131F08C33923
:1014540014389F00831603131D08FC3902389D00BD
:10146400831203131F1488150330B5009730B4009A
:10147400B40B3A2AB50B3A2A3F2A831203139F145A
:10148400432A9F18462A472A432A482A1E08B4009A
:101494003408B6001F1088113608502A0800831239
:1014A40003131F08C3391C389F00831603131D0838
:1014B400FC3901389D00831203131F1408140D30E6
:1014C400B500FB30B400B40B652AB50B652A6A2A53
:1014D400831203139F146E2A9F18712A722A6E2A8C
:1014E400732A1E08B4003408B6001F10081036080A
:1014F4007B2A080083120313B801B901812A341C22
:10150400842A852A8B2A3608B8070318B90A3708AB
:10151400B90701300310B60DB70DFF3E031D8C2A29
:1015240001300310B50CB40CFF3E031D932A35089B
:101534003404031D9E2A9F2A812AA02A3908B50152
:10154400B5073808B401B407A72A080083120313A7
:10155400BB0007300A128A1556210A128A15831213
:101564000313BA003A08BC003C088039BA003A08B0
:10157400BC003C08031DBF2AC42A3B08031DC32A20
:10158400CE2AC42ABC08031DC82AC92AD92A3B0862
:10159400031DCD2AD92ACE2A5330BA003A08B700FF
:1015A40050300A128A15F9200A128A15D92A08001D
:1015B40083120313B701E2300A128A15F9200A12C2
:1015C4008A1507300A128A1556210A128A158312BF
:1015D4000313BA003A08BB003B08BA003A08B70044
:1015E40027300A128A15F9200A128A158312031366
:1015F400071100300A128A1556210A128A1583121D
:101604000313BA003A08BB003B080138BA003A0891
:10161400BB003B08BA003A08B70020300A128A150A
:10162400F9200A128A158312031307150800790892
:10163400780403191E2B1F2B542BFD01FD0A2E2B9E
:1016440001300310F80DF90DFF3E031D232B01306B
:10165400FC007C08FD072E2BF91F312B322B222B8B
:10166400342B342B79087B02031D3A2B78087A0239
:10167400031C3D2B3E2B452B7808FA027908031CEA
:10168400FB03FB02452B01300310F90CF80CFF3E61
:10169400031D462B0130FD02031D512B522B342B0D
:1016A400542B542B7B08F901F9077A08F801F80741
:1016B4005B2B0800831203133D083C040319632BBE
:1016C400642B992BC101C10A732B01300310BC0D8B
:1016D400BD0DFF3E031D682B0130C0004008C1074B
:1016E400732BBD1F762B772B672B792B792B3D081A
:1016F4003F02031D7F2B3C083E02031C822B832BDD
:101704008A2B3C08BE023D08031CBF03BF028A2B80
:1017140001300310BD0CBC0CFF3E031D8B2B0130AC
:10172400C102031D962B972B792B992B992B3F08DC
:10173400BD01BD073E08BC01BC07A02B0800F60193
:10174400F701710870040319A82BA92BE62BF501E6
:10175400F50AB82B01300310F00DF10DFF3E031D07
:10176400AD2B0130F4007408F507B82BF11FBB2B27
:10177400BC2BAC2BBE2BBE2B01300310F60DF70D8A
:10178400FF3E031DBF2B71087302031DCB2B700892
:101794007202031CCE2BCF2BD72B7008F2027108D8
:1017A400031CF303F3027614D72B01300310F10C5E
:1017B400F00CFF3E031DD82B0130F502031DE32B73
:1017C400E42BBE2BE62BE62B7708F101F107760814
:1017D400F001F007ED2B080083120313BA01BB01DB
:1017E400350834040319F72BF82B352CB901B90A41
:1017F400072C01300310B40DB50DFF3E031DFC2B67
:101804000130B8003808B907072CB51F0A2C0B2C77
:10181400FB2B0D2C0D2C01300310BA0DBB0DFF3E1C
:10182400031D0E2C35083702031D1A2C340836020A
:10183400031C1D2C1E2C262C3408B6023508031C50
:10184400B703B7023A14262C01300310B50CB40CBC
:10185400FF3E031D272C0130B902031D322C332C0B
:101864000D2C352C352C3B08B501B5073A08B401CD
:10187400B4073C2C08000C1C402C412CAA2C013031
:10188400AE002E08D70710308F008E0157085A0675
:10189400031D4D2C4E2CA82C3A30A0009130A100F1
:1018A4000A128A1552260A128A158312031308088B
:1018B400AE0005300310AE0CFF3E031D5C2C2E0859
:1018C4000739AF002F0883160313E70083120313AD
:1018D4000808AE0006300310AE0CFF3E031D6D2C4D
:1018E4002E080339AF002F08D600962C8316031355
:1018F400E801E80AA52C14308312AE002E088316E2
:101904000313E800A52C28308312AE002E0883169A
:101914000313E800A52C78308312AE002E0883163A
:101924000313E800A52CA52C83125608003A0319CA
:10193400782C013A03197D2C033A0319852C013ABA
:1019440003198D2CA52C8312D7015B140C10AA2C1F
:101954003308FF0032088A0031088400300E830007
:10196400FE0E7E0E09000A128A1526220A128A1514
:1019740083120313B700B801370883160313E30077
:1019840083120313380883160313E400003064023F
:101994007A3003196302031CD02CD12C692D58080A
:1019A40057040319D62CD72C692D83120313881AD4
:1019B400DC2CDD2C692D831203179401A0309300D5
:1019C400831203131010831603135808831203138E
:1019D400B80083160313570883120313B7000230A9
:1019E400FF000310B70DB80DFF0BF32CB709B809AE
:1019F400B70A0319B80A3708D4003808D5005508BF
:101A04008F0054088E00101463008312031793018F
:101A14008312031305150A128A1526220A128A153F
:101A240083120313B7003708B9005409B7005509E6
:101A3400B800B70A0319B80A3708003ED4003808BA
:101A44000318013E103ED500101055088F005408AD
:101A54008E001014630083160313630883120313A8
:101A6400B700370883160313E500831203133908FC
:101A7400B700370883160313E600593083120313A3
:101A84003902031C462D472D752D3A308316031356
:101A940058029830031957020318512D522D592D0D
:101AA4000130D7070318D80A0030D807752D580815
:101AB400570403195E2D5F2D752D0130D7020030B8
:101AC400031CD803D802752D752D752D752D831221
:101AD400101010308F008E0110146300831603134E
:101AE400E501E601752D080083160313A5000A120B
:101AF4008A15D2210A128A1517300A128A1556211C
:101B04000A128A1583160313A2002208A600A61A35
:101B14008C2D8D2D512E8D3083120313C2009130E4
:101B2400C3000A128A1117260A128A158316031390
:101B3400A701C32D9C3083120313C2009130C3004C
:101B44008316031327082007A200220884008313A6
:101B54000008A300A401230883120313C4008316FE
:101B64000313240883120313C5000A128A111726CB
:101B74000A128A15013083160313A2002208A7074C
:101B8400C32D21082702031CC82DC92D9C2DCA2D45
:101B9400993083120313C2009130C3000A128A11D0
:101BA40017260A128A1583120313071183160313C7
:101BB4002008A200220883120313B700831603131C
:101BC4002108A300230883120313B8008316031308
:101BD40025080A128A15FC210A128A158312031396
:101BE4000715063083160313A200A20BF72D00007D
:101BF400831203130711033083160313A3009730D2
:101C0400A200A20B032EA30B032E082E402E0A12B1
:101C14008A156F210A128A15003A0319122E132EFF
:101C2400242E703083120313C2009130C3000A12B1
:101C34008A1117260A128A150A128A15DA220A123A
:101C44008A15242E0A128A158E210A128A15003A40
:101C540003192D2E2E2E402EE23083120313C200C0
:101C64009030C3000A128A1117260A128A150A1222
:101C74008A15DA220A128A15402E402E8312031383
:101C8400881C452E462E092E472E9730C2009130CF
:101C9400C3000A128A1117260A128A15512E080047
:101CA400223083120313A2002208A600E22F2D087B
:101CB400253A03195E2E5F2E662E2D080A128A1508
:101CC400CE200A128A15E22FA801752EFF2F992E15
:101CD400992EA817992E2D080A128A15CE200A12B9
:101CE4008A15E22F992E831203132108A3002008DA
:101CF400A2000130A0070318A10A2308FF0022084C
:101D040084000A168A1100200A128A15AD00003ACE
:101D14000319FF2F583A03196B2E3C3A0319992ED5
:101D24000D3A0319992E113A03196B2E6D2E831255
:101D34000313A81B9E2E9F2EBA2E260884008313FD
:101D44000008A900840A0008AA000230A2002208A0
:101D5400A607AA1FAE2EAF2E372F0330A2002208EB
:101D6400A804A909AA09A90A0319AA0A372F372F0F
:101D74002608840083130008A900840A0008AA0026
:101D84000230A2002208A607372F372FAD01AD0A73
:101D94002D08053A031DCF2ED02ED22E402F402FD2
:101DA4002D08A2002207833E840090300318013ED0
:101DB400FF000A168A1100200A128A15A3000A16C7
:101DC4008A1100200A128A15A40024082A02031D7D
:101DD400ED2E230829020318F02EF12EF32E402FA6
:101DE400402F0130A2002208AD072D08053A031D3B
:101DF400FC2EFD2ED22E402F402FAD01AD0A2D0812
:101E0400043A031D062F072F092F402F402F2D08BA
:101E1400A20022078D3E840090300318013EFF008B
:101E24000A168A1100200A128A15A3000A168A11BA
:101E340000200A128A15A40024082A02031D242F54
:101E4400230829020318272F282F2A2F402F402F39
:101E54000130A2002208AD072D08043A031D332FD8
:101E6400342F092F402F402F402F28088039003A63
:101E74000319C82E803A0319FF2E402F280803396E
:101E84000319452F462F4D2F2D300A128A15CE20C7
:101E94000A128A154D2F831203132D08A20022085B
:101EA400A700D42FC42F0A30F8000030F900270807
:101EB400A2002207833E840090300318013EFF00F5
:101EC4000A168A1100200A128A15F0000A168A11CD
:101ED40000200A128A15F1002A08F301F3072908E1
:101EE400F201F2070A128A15A1230A128A1571084F
:101EF400FB01FB077008FA01FA070A128A15192375
:101F04000A128A157808303E83120313A3002308AB
:101F1400AD00CD2F2708A20022078D3E840090300B
:101F24000318013EFF000A168A1100200A128A15BE
:101F3400F0000A168A1100200A128A15F1002A08F4
:101F4400F301F3072908F201F2070A128A15A12303
:101F54000A128A1570080F3983120313A300230889
:101F6400A50025085F3E840091300318013EFF0060
:101F74000A168A1100200A128A15A2002208AD004E
:101F8400CD2FCD2F28088039003A0319552F803AD8
:101F940003198C2FCD2F2D080A128A15CE200A1270
:101FA4008A15D42FFF3083120313A2002208A70737
:101FB4002708FF3A031DDF2FE02FC42FE22FE22F63
:101FC400831203132108A3002008A2000130A007F4
:101FD4000318A10A2308FF00220884000A168A11A4
:101FE40000200A128A15A4002408AD00AD08031DC0
:101FF400FC2FFD2F592EFF2FFF2F0800FF1B0A284F
:1020040083137F1883170008840A0319FF0A080042
:102014007F087F398A000408840A0319FF0A8200B2
:1020240040344B340134E234C0344B340034003493
:10203400D034FC348C34023499340034393441348F
:10204400F9349E3486340B34243406347F34A63475
:1020540000340034003400340034003400340034DC
:1020640000340034003400340034003400340034CC
:1020740000340034003400340034003400340034BC
:10208400003473341234003400348034B4343634BD
:1020940000340F3401343F3402343F340334033406
:1020A4000434FF3405341734063401340734073458
:1020B40008340034093400340C34C3340D34C434CB
:1020C4000E34C5340F34C634113420341234203461
:1020D400133420341434203415342034163420348A
:1020E400173400341C343F341D3407344134203455
:1020F4000834043481342034CF34F734FE34FF34CC
:10210400FF34013400340A34003464340034E834D5
:1021140003341034273401340034103400340034D0
:102124000134003410343434433410341034013462
:102134003934383437343634C2341C343F341D34E3
:1021440007345634733474346F34723461346734FE
:10215400653420344F344B3420346F34723420349B
:102164006D346534613473347534723465342034B9
:1021740073346B34693470347034653464343A3491
:102184002034253464340D340A3400345634533442
:1021940074346F3472346134673465343A342034BF
:1021A40025346434203420343D343E3420346E34B9
:1021B4006F34743420344F344B340D340A340034C7
:1021C4004E346F34203464346134743461342034D4
:1021D400733465346E3474343A34203445345234B0
:1021E40052344F34523420340D340A342034003401
:1021F4005634733474346F347234613467346534F0
:10220400203474346F346F3420346C346F34773446
:102214003A342034253464340D340A3400345334CD
:102224006C34653465347034203463346F347534FD
:102234006E3474346534723420343D34203425349F
:1022440064340D340A34003453346C3465346534E6
:102254007034203463346F3475346E3474346534BC
:1022640072343A342034253458340D340A3400346A
:102274004534633463346F346D34693420346E34DC
:1022840065346C346C342734493453345234213437
:102294000D340A34003453346C346534653470348A
:1022A4003A3420342534643420346F346E3420348A
:1022B400253464340D340A34003430343134323447
:1022C40033343434353436343734383439344134AF
:1022D4004234433444344534463400344434613461
:1022E400743461342034733465346E3474343A3461
:1022F40020344F344B3420340D340A3400345234F7
:102304006534633465346934763469346E346734DF
:102314003A3420340034533465346E3464346934CC
:102324006E3467343A34203400340A340D340A34B9
:0A2334000D34003425345834003411
:02400E00F5FFBC
:00000001FF
