:060000000A128A11122809
:10000800FE00030EF4000408F5000A08F600831247
:1000180003137F08F7000A128A15D32C0A128A11D3
:10002800C92F033083120313AB000830AA007830BD
:10003800A900A90B1D28AA0B1D28AB0B1D280030F1
:100048000A128A155B230A128A1183120313BC0150
:1000580014303C02031C3128322834285C285C28E0
:1000680003143C0D393E84000A128A1500200A1236
:100078008A11A9002908A3003C08AA002A07393ECA
:1000880084000A128A1500200A128A1120380A12DE
:100098008A15E1210A128A11013083120313A9007B
:1000A8002908BC0714303C02031C5B285C28342850
:1000B800BD0105303D02031C6228632865287F289E
:1000C8007F283D08723E84000A128A1500200A1211
:1000D8008A11A9003D08303E840029088313800056
:1000E8000130A9002908BD0705303D02031C7D2801
:1000F8007E2865287F283030A9002908A30005300C
:10010800AA002A08A4002A300A128A1505230A120E
:100118008A1183120313BD0105303D02031C952883
:1001280096289828B228B2283D08773E84000A12FB
:100138008A1500200A128A11A9003D08303E840061
:100148002908831380000130A9002908BD0705305C
:100158003D02031CB028B1289828B2283030A900E5
:100168002908A3000530AA002A08A4002B300A1287
:100178008A1505230A128A1183120313BD0105305B
:100188003D02031CC828C928CB28E528E5283D08D6
:10019800723E84000A128A1500200A128A11A900E8
:1001A8003D08303E84002908831380000130A900EF
:1001B8002908BD0705303D02031CE328E428CB28A5
:1001C800E5283030A9002908A3000530AA002A082C
:1001D800A40030300A128A1505230A128A111D302C
:1001E8000A128A153E220A128A1183120313A900E1
:1001F8002908BC00BC08031D022903290E297330F5
:10020800A9002908A30050300A128A15E1210A1210
:100218008A110E29163083120313A9002908BC007D
:1002280015303C02031819291A291C294329432986
:1002380003143C0D393E84000A128A1500200A1264
:100248008A11A9002908A3003C08AA002A07393EF8
:1002580084000A128A1500200A128A1120380A120C
:100268008A15E1210A128A11013083120313BC0294
:1002780015303C020318412942291C294329013021
:100288000A128A155B230A128A1183120313BC010E
:1002980009303C02031C512952295429C429C42974
:1002A800BD0104303D02031C5A295B295D29A82998
:1002B800A8293C08A90001300310A90DFF3E031D21
:1002C80060290310290D013E84000A128A150020B6
:1002D8000A128A11AA000A128A1500200A128A1123
:1002E800AB000A128A1500200A128A11AC000A1201
:1002F8008A1500200A128A11AD003D08AE000230AE
:100308000310AE0DFF3E031D842903102E0D013E80
:1003180092290310AD0CAC0CAB0CAA0CFF3E031DCC
:100328008D292A08AF003D08303E84002F0883132A
:1003380080000130A9002908BD0704303D02031CD4
:10034800A629A7295D29A8293030A9002908A300D2
:100358000430AA002A08A4003C0820380A128A158A
:1003680005230A128A11013083120313A9002908F0
:10037800BC0709303C02031CC229C3295429C429DB
:100388000930A9002908BC000E303C02031CCD2905
:10039800CE29D029412A412ABD0104303D02031C3F
:1003A800D629D729D929262A262A3C08A900013086
:1003B8000310A90DFF3E031DDC290310290D013E82
:1003C80084000A128A1500200A128A11AA000A1249
:1003D8008A1500200A128A11AB000A128A15002019
:1003E8000A128A11AC000A128A1500200A128A1110
:1003F800AD003D03FF3AAE0002300310AE0DFF3EE4
:10040800031D012A03102E0D183E013E102A031069
:10041800AD0CAC0CAB0CAA0CFF3E031D0B2A2A0832
:10042800AF003D08303E84002F0883138000013060
:10043800A9002908BD0704303D02031C242A252AE7
:10044800D929262A3030A9002908A3000430AA0097
:100458002A08A4003C0820380A128A1505230A1223
:100468008A11013083120313A9002908BC070E3032
:100478003C02031C402A412AD029BD010B303D0211
:10048800031C472A482A4A2A642A642A3D08673EE8
:1004980084000A128A1500200A128A11A9003D0850
:1004A800303E84002908831380000130A900290800
:1004B800BD070B303D02031C622A632A4A2A642ABC
:1004C8003030A9002908A3000B30AA002A08A4008C
:1004D8002E300A128A1505230A128A118312031371
:1004E800BD0104303D02031C7A2A7B2A7D2ABE2ADC
:1004F800BE2A113084000A128A1500200A128A11B5
:10050800A9000A128A1500200A128A11AA000A12E2
:100518008A1500200A128A11AB000A128A150020D7
:100528000A128A11AC003D08AD0002300310AD0D6F
:10053800FF3E031D9A2A03102D0D013EA82A031021
:10054800AC0CAB0CAA0CA90CFF3E031DA32A29086E
:10055800AE003D08303E84002E0883138000013031
:10056800A9002908BD0704303D02031CBC2ABD2A86
:100578007D2ABE2A30080638A9002908B000303084
:10058800A9002908A3000430AA002A08A4002430DE
:100598000A128A1505230A128A11831203133008D6
:1005A800F939A9002908B0003030A9002908A300AA
:1005B8000430AA002A08A40024300A128A15052348
:1005C8000A128A11823083120313AA00DD30A900AF
:1005D800A90BEC2AAA0BEC2AF12A00300A128A1578
:1005E8005B230A128A1183120313071108000030D3
:1005F80083120313CA000030C9000030C80000305D
:10060800C7000A128A1542270A128A110A128A1585
:100618000D220A128A110A128A15F7210A128A1162
:100628000A128A15B8210A128A1100300A128A158C
:10063800B6220A128A11831203130808C30006306F
:100648000310C30CFF3E031D242B43080339C400C9
:100658004408D8006300322B6300322B0A128A1533
:100668008D230A128A1183120313C30058304302E0
:1006780003183F2B402B672B881A432B442B672BDF
:100688000A128A15F8230A128A110A128A15952263
:100698000A128A11831203132808B0002908B1002E
:1006A8002A08B2000030B3000030B4000030B500B2
:1006B8000A128A153D250A128A11031C642B652B20
:1006C800302B672B672B0A128A1115200A128A1100
:1006D80000300A128A15B6220A128A1163008312A0
:1006E8000313D201D301782B01300A128A15B622DE
:1006F8000A128A110A128A158D230A128A11831284
:100708000313C3004308DE005208C3004308DF0098
:100718005308C3004308E0005608C3004308E1003B
:100728005008C3004308E2005108C3004308E3002F
:100738000A128A15F8230A128A1183120313C300B6
:100748004308E4005A08A0005B08A1005C08A20066
:100758000A128A159C260A128A118312031320088A
:10076800C3004308E5005A08A0005B08A1005C0824
:10077800A2000A128A159C260A128A1183120313F0
:100788002108C3004308E60059305E020318CD2B48
:10079800CE2BD32B881ED12BD22BF52BD32B0A1281
:1007A8008A15C0230A128A1183120313C30043084F
:1007B800DD00D6175608C3004308E1005D30C300CA
:1007C8004308A8000A30C4004408A900B0300A123F
:1007D8008A156F240A128A1183120313D001D101DA
:1007E800A32C0030B0000030B1000030B200640823
:1007F8000A128A1595220A128A11831203132808ED
:10080800B3002908B4002A08B5000A128A153D2544
:100818000A128A110318112C122C552C8312031357
:100828005E085902031C192C1A2C552C06181D2C6D
:100838001E2C552C05110A128A15C0230A128A117A
:1008480083120313C3004308DD000A128A15F82334
:100858000A128A1183120313C3004308E4007F308D
:10086800C3004308D6055608C3004308E1005D30BD
:10087800C3004308A8000A30C4004408A900B030E7
:100888000A128A156F240A128A1183120313051596
:100898000030DA002030DB004130DC00D001D1012B
:1008A800A32C003083120313B0000030B1000030D5
:1008B800B20064080A128A1595220A128A11831254
:1008C80003132808B3002908B4002A08B5000A123F
:1008D8008A153D250A128A110318732C742CA32C2F
:1008E800831203135E085902031C7B2C7C2CA32C57
:1008F800061C7F2C802CA32C7F30C3004308D60510
:100908005608C3004308E1005D30C3004308A8004F
:100918000A30C4004408A900B0300A128A156F24AE
:100928000A128A11003083120313DA002030DB0028
:100938004130DC00D001D101A32CA32CA32C8312BD
:100948000313071100300A128A15B6220A128A11F7
:1009580083120313101010308F008E0110140A1226
:100968008A158D230A128A1183120313C3004308C0
:10097800D900CB01FC2C0A128A1113250A128A11FC
:10098800831203135708C300C4014308A600440890
:10099800A7005508C500C601C509C609C50A031937
:1009A800C60A54084507A00046080318460AA100CD
:1009B80054085507A200A301A30D0A128A152F2374
:1009C8000A128A11831203132108A901A907200812
:1009D800A801A8070A128A15AB250A128A118312E0
:1009E80003132608D0070318D10A2708D107FC2CBF
:1009F8000130CB07FF304B07C30057084302031CE5
:100A0800062D072DBF2C082D0130D2070318D30A55
:100A18000030D307782B782B0A128A1112280A1271
:100A28008A158D230A128A1183120313BC003C080D
:100A3800D9005A08A0005B08A1005C08A2000A12AD
:100A48008A159C260A128A11831203132108CD01E4
:100A5800CD072008CC01CC077A305902031C352D6C
:100A6800362D072E4D084C0403193B2D3C2D072E1F
:100A7800881A3F2D402D072E831203179401A030AA
:100A880093008312031310104D08BD004C08BC00DE
:100A98000230FF000310BC0DBD0DFF0B4E2DBC092D
:100AA800BD09BC0A0319BD0A3C08CE003D08CF00A9
:100AB8004F088F004E088E0010146300831203172E
:100AC80093018312031305150A128A158D230A123E
:100AD8008A1183120313BC003C08BE004E09BC00F7
:100AE8004F09BD00BC0A0319BD0A3C08003ECE00F0
:100AF8003D080318013E603ECF0010104F088F00DC
:100B08004E088E0010146300831203133E08590226
:100B180003188F2D902D942D5908BC003C08BE0059
:100B28005908BC003C08D4003E08BC003C08D5006D
:100B380059303E02031CA12DA22DD42D5A08B00015
:100B48005B08B1005C08B2004030B3001C30B40050
:100B58004630B5000A128A153D250A128A11031873
:100B6800B62DB72D122E663083120313A8008630D7
:100B7800A9003F30AA005A08AB005B08AC005C082B
:100B8800AD000A128A1113260A128A11831203135E
:100B98002808DA002908DB002A08DC00122E122EA9
:100BA8000030B0000030B1000030B2005A08B30085
:100BB8005B08B4005C08B5000A128A153D250A12C4
:100BC8008A110318E82DE92D122E663083120313BB
:100BD800A8008630A9003F30AA005A08AB005B087D
:100BE800AC005C08AD000A128A1101270A128A11AA
:100BF800831203132808DA002908DB002A08DC001E
:100C0800122E122E122E101060308F008E0110142A
:100C1800630083120313D401D501122E0800831236
:100C280003132808AE002908AF002A08B0000310F3
:100C38002F0D300DB1003108B200B208031D252E6A
:100C4800262E2E2E0030A8000030A9000030AA0061
:100C5800002F002F2B08AE002C08AF002D08B00085
:100C680003102F0D300DB1003108B700B708031D70
:100C78003E2E3F2E472E0030A8000030A90000303D
:100C8800AA00002F002F37087B3EAE002E08B207BF
:100C98002808AE002908AF002A08B0001030031059
:100CA800B00CAF0CAE0CFF3E031D532E2E08B10046
:100CB8003108B7002B08AE002C08AF002D08B00093
:100CC80010300310B00CAF0CAE0CFF3E031D652EA8
:100CD8002E08B1003108B7068030AE002E08B705DF
:100CE800A917AC17FF30AB05FF30AC050030AD05D8
:100CF8000030B3000030B4000030B5000730AE005B
:100D08002E08B600872E281C8A2E8B2E9C2E2B0888
:100D1800B3072C08031103182C0A0319942EB407DF
:100D28002D08031103182D0A03199B2EB5079C2EB5
:100D380001300310AA0CA90CA80CFF3E031D9D2E20
:100D480001300310AB0DAC0DAD0DFF3E031DA52EFC
:100D58000130B602031DB12EB22E872EB32E0930F4
:100D6800AE002E08B600B82E281CBB2EBC2ECD2EE9
:100D78002B08B3072C08031103182C0A0319C52ED6
:100D8800B4072D08031103182D0A0319CC2EB50733
:100D9800CD2E01300310AA0CA90CA80CFF3E031D90
:100DA800CE2E01300310B50CB40CB30CFF3E031D5E
:100DB800D62E0130B602031DE22EE32EB82EE42E05
:100DC8003308A0003408A1003508A2003208AE009C
:100DD8002E08A3003708AF002F08A4000A128A15AE
:100DE8001F260A128A11831203132008A80021085B
:100DF800A9002208AA00002F0800831203132B0859
:100E0800AE002C08AF002D08B00003102F0D300DD8
:100E1800B1003108B600B608031D132F142F1C2F7C
:100E28000030A8000030A9000030AA00C82FC82F41
:100E38002808AE002908AF002A08B00003102F0DBB
:100E4800300DB1003108B700B708031D2C2F2D2F26
:100E5800352F0030A8000030A9000030AA00C82FA4
:100E6800C82F0030B3000030B4000030B50089301E
:100E78003707AE002E08B6022B08AE002C08AF00CC
:100E88002D08B00010300310B00CAF0CAE0CFF3EB4
:100E9800031D472F2E08B1003108B7002808AE00FF
:100EA8002908AF002A08B00010300310B00CAF0CAE
:100EB800AE0CFF3E031D592F2E08B1003108B706AE
:100EC8008030AE002E08B705AC17FF30AB05FF30F9
:100ED800AC050030AD05A917FF30A805FF30A905FE
:100EE8000030AA051830AE002E08B2007B2F013062
:100EF8000310B30DB40DB50DFF3E031D7C2F2A085A
:100F08002D02031D8D2F29082C02031D8D2F280863
:100F18002B02031C902F912F9D2F2808AB02290824
:100F2800031C290FAC022A08031C2A0AAD02331439
:100F38009D2F01300310AB0DAC0DAD0DFF3E031D11
:100F48009E2F0130B202031DAA2FAB2F7B2FAC2F8F
:100F58003308A0003408A1003508A2003608AE0006
:100F68002E08A3003708AF002F08A4000A128A151C
:100F78001F260A128A11831203132008A8002108C9
:100F8800A9002208AA00C82F0800FB01FC0183134E
:100F98004C3084005A300A128A15B0210A128A117C
:100FA800A0308400C0300A128A15B0210A128A11B2
:100FB8006730FD000930FE00C130FF005A30840060
:100FC8000A128A15D2210A128A110A128A15AD212B
:100FD8000A128A11F8000A128A15AE210A128A1119
:100FE800F9000A128A15AF210A128A11FA00830140
:060FF8000A128A11FB2A17
:1010000008308A000408840A8207003440344B34D4
:101010000134E234C0344B3400340034D034FC3476
:101020008C3402349934003439344134F9349E34E8
:1010300086340B34243406347F34A6340034003430
:101040000034003400340034003400340034003400
:1010500000340034003400340034003400340034F0
:10106000003400340034003400340034003473346D
:101070001234003400348034B434363400340F3445
:1010800001343F3402343F34033403340434FF3436
:101090000534173406340134073407340834003477
:1010A000093400340C34C3340D34C4340E34C53424
:1010B0000F34C63411342034123420341334203425
:1010C00014342034153420341634203417340034CA
:1010D0001C343F341D340734413420340834043484
:1010E00081342034CF34F734FE34FF34FF343434C9
:1010F000433410341034013439343834373436340E
:0A110000C2341C343F341D340734A0
:10135A001A340034013464008001840A0406031933
:10136A0000340406B129831603131F088F39103875
:10137A009F0003309F0408000034203441340034B5
:10138A000034003400340034AA34AA34AA34AA340B
:10139A0000347E088A007F0882000A128A15CE214C
:1013AA000A128A158000840A04087D06031900348B
:1013BA00FF0A0319FE0AD22983120313A400081193
:1013CA0024080A128A1525220A128A15831203137F
:1013DA0023080A128A1525220A128A158312031370
:1013EA00081508008316031387170713023098009D
:1013FA0083120313980183160313181118120C3061
:10140A00990083120313981783160313981608007A
:10141A0083120313941614121408F0390238940034
:10142A008316031394131417823083120313A10033
:10143A00DD30A000A00B1F2AA10B1F2A242A0800B6
:10144A0083120313A200220893000330A1009730ED
:10145A00A000A00B2E2AA10B2E2A332A342A83128B
:10146A0003138C1D392A3A2A342A3B2A13083D2AA7
:10147A00080083120313A400081124080A128A150B
:10148A0025220A128A1500300A128A1525220A1202
:10149A008A1583120313A3002308A500081525083B
:1014AA00562A080007300A128A153E220A128A159D
:1014BA0083120313A600A61E632A642A722A203006
:1014CA00A6002608A30027300A128A15E1210A126B
:1014DA008A150130752A752A752A0030752A752AE7
:1014EA00080007300A128A153E220A128A15831248
:1014FA000313A600A61E822A832A912A1030A60068
:10150A002608A30027300A128A15E1210A128A1531
:10151A000130942A942A942A0030942A942A0800A2
:10152A0083120313AF002F08AB00AC01AD012B08E7
:10153A00A0002C08A1002D08A2008E30AE002E08B3
:10154A00A300A4010A128A151F260A128A158312F9
:10155A0003132008A8002108A9002208AA00B52A16
:10156A00080083120313A70000300A128A153E22CC
:10157A000A128A1583120313A6002608A800A708D0
:10158A00031DC82AC92ACE2AFD30A6002608A805A6
:10159A00D02AA814D02A2808A6002608A30020309A
:1015AA000A128A15E1210A128A1508008312031306
:1015BA00A301E1300A128A15E1210A128A1583125F
:1015CA000313071100300A128A153E220A128A15DD
:1015DA0083120313A6002608A7002708FE39A600CF
:1015EA002608A7002708A6002608A30020300A120A
:1015FA008A15E1210A128A158312031307150800B6
:10160A0083120313A600081126080A128A15252236
:10161A000A128A1583120313A701272B23088400B1
:10162A00831300080A128A1525220A128A15013024
:10163A0083120313A5002508A3070130A500250876
:10164A00A707272B24082702031C2C2B2D2B132B2F
:10165A000815080083120313A401A501342B201CCA
:10166A00372B382B3E2B2208A4070318A50A230878
:10167A00A50701300310A20DA30DFF3E031D3F2B4A
:10168A0001300310A10CA00CFF3E031D462B2108BC
:10169A002004031D512B522B342B532B2508A10157
:1016AA00A1072408A001A0075A2B080083120313DC
:1016BA00A70007300A128A153E220A128A158312D7
:1016CA000313A6002608A80028088039A6002608C1
:1016DA00A8002808031D722B772B2708031D762BD9
:1016EA00812B772BA808031D7B2B7C2B8C2B27089F
:1016FA00031D802B8C2B812B5330A6002608A300B8
:10170A0050300A128A15E1210A128A158C2B080018
:10171A00831603131D17831203131F08C3391438C2
:10172A009F00831603131D08FC3902389D0083129B
:10173A0003131F1488150330A1009730A000A00BD3
:10174A00A42BA10BA42BA92B831203139F14AD2B3B
:10175A009F18B02BB12BAD2BB22B1E08A00020086E
:10176A00A2001F108811831603131D13831203137B
:10177A002208BF2B0800831603131D1783120313B5
:10178A001F08C3391C389F00831603131D08FC3930
:10179A0001389D00D02B9D1FD32BD42BD02B831225
:1017AA0003131F1408140330A1009730A000A00BE4
:1017BA00DC2BA10BDC2BE12B831203139F14E52BEB
:1017CA009F18E82BE92BE52BEA2B1E08A00020081E
:1017DA00A2001F100810831603131D13831203138C
:1017EA002208F72B0800831603131D17831203130D
:1017FA001F08C33918389F00831603131D08FC39C4
:10180A0001389D00082C9D1F0B2C0C2C082C8312D0
:10181A0003131F1408160330A1009730A000A00B71
:10182A00142CA10B142C192C831203139F141D2C96
:10183A009F18202C212C1D2C222C1E08A0002008C9
:10184A00A2001F100812831603131D138312031319
:10185A0022082F2C080083120313A301E2300A1274
:10186A008A15E1210A128A1507300A128A153E22C0
:10187A000A128A1583120313A6002608A70027084E
:10188A00A6002608A30027300A128A15E1210A12A7
:10189A008A1583120313071100300A128A153E2291
:1018AA000A128A1583120313A6002608A70027081E
:1018BA000138A6002608A7002708A6002608A300C4
:1018CA0020300A128A15E1210A128A15831203139B
:1018DA000715080083120313AC000A128A15DB22CB
:1018EA000A128A1517300A128A153E220A128A1516
:1018FA0083120313AA002A08AD00AD1A852C862C80
:10190A00D22C07112808AA002A08A3002908AB002C
:10191A002B08A4002C080A128A1505230A128A1514
:10192A008312031307150630AA00AA0B9A2C00008B
:10193A008312031307110330AB009730AA00AA0BD6
:10194A00A42CAB0BA42CA92CCA2C0A128A15572238
:10195A000A128A15003A0319B32CB42CB92C0A12AC
:10196A008A1530240A128A150A128A1576220A1250
:10197A008A15003A0319C22CC32CCA2C0A128A15DA
:10198A0030240A128A15CA2CCA2C83120313881C03
:10199A00CF2CD02CAA2CD22CD22C08000C1CD62C42
:1019AA00D72C322D0130F0007008FC0760308F0010
:1019BA008E017C087A06031DE32CE42C302D0608E0
:1019CA000139F00006300310F00DFF3E031DE82C2C
:1019DA000808F10005300310F10CFF3E031DF02C3E
:1019EA0007307105F2005608803972047004F3005A
:1019FA007308D6000808F00006300310F00CFF3E0A
:101A0A00031D022D70080339F1007108D800202D3A
:101A1A00D701D70A2E2D1430F0007008D7002E2DCA
:101A2A002830F0007008D7002E2D7830F0007008AA
:101A3A00D7002E2D2E2D5808003A03190D2D013AE4
:101A4A000319102D033A0319152D013A03191A2DFA
:101A5A002E2DFC017B140C10322D7708FF0076081E
:101A6A008A0075088400740E8300FE0E7E0E09003B
:101A7A0083120313B21F422D432D692D0030B60085
:101A8A000030B7008030B8003009B9003109BA0017
:101A9A003209BB00B90A0319BA0A0319BB0A390881
:101AAA00B6073A0803183A0F5B2D5C2DB7073B08B7
:101ABA0003183B0F612D622DB8073608B0003708AE
:101ACA00B1003808B200692DB51F6C2D6D2D932D0C
:101ADA000030B6000030B7008030B8003309B900D2
:101AEA003409BA003509BB00B90A0319BA0A03193D
:101AFA00BB0A3908B6073A0803183A0F852D862D0E
:101B0A00B7073B0803183B0F8B2D8C2DB8073608F7
:101B1A00B3003708B4003808B500932D8030B206F8
:101B2A008030B50635083202031DA12D3408310272
:101B3A00031DA12D330830020318A42DA52DA72DAE
:101B4A000310AA2D0314AA2DAA2D08008312031329
:101B5A00AC01A71FB12DB22DBA2DA609A709A60A55
:101B6A000319A70AAC01AC0ABA2DA91FBD2DBE2DB7
:101B7A00C82DA809A909A80A0319A90A0130AA00A7
:101B8A002A08AC06C82DAD01AE01270826040319A0
:101B9A00CF2DD02D0D2EAB01AB0ADF2D0130031056
:101BAA00A60DA70DFF3E031DD42D0130AA002A0859
:101BBA00AB07DF2DA71FE22DE32DD32DE52DE52D54
:101BCA0001300310AD0DAE0DFF3E031DE62D2708B3
:101BDA002902031DF22D26082802031CF52DF62DD5
:101BEA00FE2D2608A8022708031CA903A9022D1402
:101BFA00FE2D01300310A70CA60CFF3E031DFF2D7E
:101C0A000130AB02031D0A2E0B2EE52D0D2E0D2ED3
:101C1A002C08031D112E172EAD09AE09AD0A0319A2
:101C2A00AE0A172E2E08A701A7072D08A601A60798
:101C3A001E2E0800831203132308031D252E2D2EA2
:101C4A00220821042004031D2B2E2C2E432E2D2E78
:101C5A000030A0000030A1000030A2009B2E9B2E75
:101C6A00432E0130A5002508A30701300310A20C5A
:101C7A00A10CA00CFF3E031D3B2E432EFE30220575
:101C8A00031D482E492E362E612E612E0130A500E5
:101C9A002508A3070130A007003003180130A10767
:101CAA00003003180130A20701300310A20CA10C66
:101CBA00A00CFF3E031D5A2EFF302205031D662E7F
:101CCA00672E4B2E742E742E0130A302013003109E
:101CDA00A00DA10DA20DFF3E031D6C2E742EA11F97
:101CEA00772E782E692E23187B2E7C2E822EFF309B
:101CFA00A0057F30A105FF30A2050310A30C23081D
:101D0A00A500A601A70110300310A50DA60DA70D69
:101D1A00FF3E031D892E2508A0042608A1042708D2
:101D2A00A2042408031D9A2E9B2EA21708008312D0
:101D3A0003132008A4002108A5002208A600031006
:101D4A00250D260DA7002708AD00AD08031DAE2EF0
:101D5A00AF2EB92E0030A3000030A2000030A1003F
:101D6A000030A000412F412F2008A4002108A5001F
:101D7A002208A60017300310A60CA50CA40CFF3EDF
:101D8A00031DC02E2408A7002708A800A117FF30AA
:101D9A00A005FF30A1050030A2052008A9002108EE
:101DAA00AA002208AB00AC018E30AD02AD1FDE2EB8
:101DBA00DF2E042F2D08803A8F3E0318E52EE62EDB
:101DCA00F12E0030A3000030A2000030A100003044
:101DDA00A000412F412FF12E01300310AC0CAB0CA7
:101DEA00AA0CA90CFF3E031DF22E0130A400240800
:101DFA00AD07031D012F022FF12E282F282F18308F
:101E0A002D02031C092F0A2F212F0030A3000030B6
:101E1A00A2000030A1000030A000412F412F212F45
:101E2A000130A4000310A90DAA0DAB0DAC0DA40B33
:101E3A00172F0130AD02212FAD08031D252F262FA4
:101E4A00152F282F282F2808031D2C2F382FA909D2
:101E5A00AA09AB09AC09A90A0319AA0A0319AB0A08
:101E6A000319AC0A382F2C08A3002B08A2002A0851
:101E7A00A1002908A000412F0800831603131008A7
:101E8A00CF39203890008316031707138713831658
:101E9A00031307130915831603170915831603136A
:101EAA0008128316031708128312031308128316E3
:101EBA00031305118316031705118312031305155E
:101ECA008316031707110811871288108316031344
:101EDA000711081187118712071688148312031332
:101EEA000711081587118712831603130810831622
:101EFA000317081083160313091583160317091508
:101F0A008316031309148316031709108312031384
:101F1A00081083160313091483160317091483166A
:101F2A000313881183120313881183160313881667
:101F3A008316031788128316031308178817831644
:101F4A000317081388138B170B17831603130C1424
:101F5A001030831203138F008E0110083F39803826
:101F6A00900030309004831603138F1783120313E3
:101F7A0010159015101483160313061483160317ED
:101F8A000610831603138914831603178914831200
:101F9A000313891083160313051085108511051282
:101FAA0085120513851383160317051085108511ED
:101FBA000512851205138513831203130510851064
:101FCA0085110512851205138513831603138610CE
:101FDA000611861106128612831603178610061139
:101FEA0086110612861283120313861006118611B1
:061FFA0006168612080025
:02400E00F5FCBF
:00000001FF
