:060000000A128A11122809
:10000800FE00030E83120313B0000408B1000A08AF
:10001800B2007F08B3000A128A156E2C0A128A15DC
:10002800142B033083120313BF000830BE0078304E
:10003800BD00BD0B1D28BE0B1D28BF0B1D280030A1
:100048000A128A15E2220A128A1183120313D001B6
:1000580014305002031C31283228342864286428BC
:100068000314500D4A3E840090300318013EFF00EF
:100078000A168A1100200A128A11BD003D08B7002D
:100088005008BE003E074A3E840090300318013EE7
:10009800FF000A168A1100200A128A1120380A1253
:1000A8008A150A210A128A11013083120313BD002E
:1000B8003D08D00714305002031C632864283428F4
:1000C800D10105305102031C6A286B286D288B2842
:1000D8008B285108953E840090300318013EFF009C
:1000E8000A168A1100200A128A11BD005108443EDE
:1000F80084003D08831380000130BD003D08D1070E
:1001080005305102031C89288A286D288B28443021
:10011800BD003D08B7000530BE003E08B8002A30D3
:100128000A128A1536220A128A1183120313D10180
:1001380005305102031CA128A228A428C228C228DD
:1001480051089A3E840090300318013EFF000A16B9
:100158008A1100200A128A11BD005108443E840009
:100168003D08831380000130BD003D08D1070530EC
:100178005102031CC028C128A428C2284430BD004D
:100188003D08B7000530BE003E08B8002B300A1203
:100198008A1536220A128A1183120313D1010530F7
:1001A8005102031CD828D928DB28F928F928510836
:1001B800953E840090300318013EFF000A168A110C
:1001C80000200A128A11BD005108443E84003D08EF
:1001D800831380000130BD003D08D107053051026E
:1001E800031CF728F828DB28F9284430BD003D080F
:1001F800B7000530BE003E08B80030300A128A1534
:1002080036220A128A111D300A128A1567210A122B
:100218008A1183120313BD003D08D000D008031DC6
:100228001629172922297330BD003D08B700503020
:100238000A128A150A210A128A11222916308312F3
:100248000313BD003D08D0001530500203182D29B6
:100258002E2930295F295F290314500D4A3E840056
:1002680090300318013EFF000A168A1100200A1276
:100278008A11BD003D08B7005008BE003E074A3E3F
:10028800840090300318013EFF000A168A110020EE
:100298000A128A1120380A128A150A210A128A11AA
:1002A800013083120313D0021530500203185D2960
:1002B8005E2930295F2901300A128A15E2220A12C2
:1002C8008A1183120313D00109305002031C6D29CF
:1002D8006E297029E429E429D10104305102031C54
:1002E800762977297929C829C8295008BD000130FD
:1002F8000310BD0DFF3E031D7C2903103D0D123E6A
:10030800840090300318013EFF000A168A1100206D
:100318000A128A11BE000A168A1100200A128A11CE
:10032800BF000A168A1100200A128A11C0000A1694
:100338008A1100200A128A11C1005108C200023035
:100348000310C20DFF3E031DA4290310420D013EF8
:10035800B2290310C10CC00CBF0CBE0CFF3E031D1C
:10036800AD293E08C3005108443E84004308831366
:1003780080000130BD003D08D10704305102031C44
:10038800C629C7297929C8294430BD003D08B700C6
:100398000430BE003E08B800500820380A128A15FA
:1003A80036220A128A11013083120313BD003D0858
:1003B800D00709305002031CE229E3297029E429F7
:1003C8000930BD003D08D0000E305002031CED2955
:1003D800EE29F029652A652AD10104305102031C4F
:1003E800F629F729F9294A2A4A2A5008BD00013076
:1003F8000310BD0DFF3E031DFC2903103D0D123EE9
:10040800840090300318013EFF000A168A1100206C
:100418000A128A11BE000A168A1100200A128A11CD
:10042800BF000A168A1100200A128A11C0000A1693
:100438008A1100200A128A11C1005103FF3AC20032
:1004480002300310C20DFF3E031D252A0310420D82
:10045800183E013E342A0310C10CC00CBF0CBE0C60
:10046800FF3E031D2F2A3E08C3005108443E840066
:100478004308831380000130BD003D08D1070430D4
:100488005102031C482A492AF9294A2A4430BD0046
:100498003D08B7000430BE003E08B80050082038B8
:1004A8000A128A1536220A128A110130831203139E
:1004B800BD003D08D0070E305002031C642A652A8F
:1004C800F029D1010B305102031C6B2A6C2A6E2AC9
:1004D8008C2A8C2A5108783E840090300318013EFB
:1004E800FF000A168A1100200A128A11BD0051085D
:1004F800443E84003D08831380000130BD003D0860
:10050800D1070B305102031C8A2A8B2A6E2A8C2AA7
:100518004430BD003D08B7000B30BE003E08B800AF
:100528002E300A128A1536220A128A1183120313F0
:10053800D10104305102031CA22AA32AA52AE82AC1
:10054800E82A223084009030FF000A168A11002021
:100558000A128A11BD000A168A1100200A128A118D
:10056800BE000A168A1100200A128A11BF000A1654
:100578008A1100200A128A11C0005108C1000230F5
:100588000310C10DFF3E031DC42A0310410D013E97
:10059800D22A0310C00CBF0CBE0CBD0CFF3E031DBD
:1005A800CD2A3D08C2005108443E84004208831306
:1005B80080000130BD003D08D10704305102031C02
:1005C800E62AE72AA52AE82A44080638BD003D0895
:1005D800C4004430BD003D08B7000430BE003E08EA
:1005E800B80024300A128A1536220A128A11831298
:1005F80003134408F939BD003D08C4004430BD0068
:100608003D08B7000430BE003E08B80024300A1286
:100618008A1536220A128A11823083120313BE0009
:10062800DD30BD00BD0B162BBE0B162B1B2B00306F
:100638000A128A15E2220A128A1183120313071179
:100648000800003083160313D6000030D5000030B0
:10065800D4000030D3001008CF392038900083161A
:100668000317071387138316031307138316031738
:1006780007110811871288108316031309158316AA
:1006880003170915831603130511A03083120317E6
:1006980093000F3094008316031307110811871174
:1006A8008712071688148312031307110815871178
:1006B800871283160313081083160317081083166E
:1006C8000313091583160317091583160313091451
:1006D80083160317091083120313081083160313D4
:1006E8000914831603170914831603138811831238
:1006F80003138811831603138816831603178812A9
:10070800831603130817881783160317081388130B
:100718008B170B17831603130C1410308312031353
:100728008F008E0110083F398038900030309004D7
:10073800831603138F1783120313101590151014C3
:100748008316031385108511051285120513851369
:100758008316031785108511051285120513851355
:10076800831203138510851105128512051385134D
:1007780083160313061086100611861106128612B8
:1007880083160317061086100611861106128612A4
:100798008312031306108610061186110616861298
:1007A8008316031308128316031708128312031300
:1007B80008128316031389148316031789148312E6
:1007C80003138910080883160313AC0004300310C0
:1007D800AC0CFF3E031DEB2B2C08AD002D08E600EA
:1007E8000A128A1536210A128A110A128A1520213C
:1007F8000A128A110A128A15D5200A128A110030A3
:100808000A128A15BE210A128A11831203130808D4
:1008180083160313AC0006300310AC0CFF3E031D17
:10082800102C2C080339AD002D0883120313D600B1
:100838002630C2009130C300560883160313AC005B
:10084800AD012C0883120313C400831603132D086B
:1008580083120313C5000A128A1110260A128A117C
:10086800630063000A128A1560220A128A1183162D
:100878000313AC00AD012C08E1002D08E2006C2C3C
:1008880063000A128A1560220A128A11831603135A
:10089800AC00AD012C08E1002D08E200FA3083120B
:1008A8000313C2009030C300831603136208831237
:1008B8000313C501C50783160313610883120313C5
:1008C800C401C4070A128A1110260A128A116C2C54
:1008D80000308316031362026E3003196102031895
:1008E800762C772C7F2C83120313881E7C2C7D2C6E
:1008F800442C7F2C7F2CA3308312C2009030C3007D
:1009080083160313620883120313C501C5078316F0
:100918000313610883120313C401C4070A128A115E
:1009280010260A128A110A128A1115200A128A112F
:1009380000300A128A15BE210A128A116300831632
:100948000313DF01E001A82C01300A128A15BE2129
:100958000A128A11003083160313D6000030D5001E
:100968000030D4000030D3005608803AFF00003031
:10097800803A7F02031DCA2C00305502031DCA2C81
:1009880000305402031DCA2C02305302031CCD2C24
:10099800CE2CD02C002D002D5308D73E8400831375
:1009A8000008AC005308B03E84002C0880000130D9
:1009B800D307003003180130D40700300318013082
:1009C800D507003003180130D6075608803AFF00D3
:1009D8000030803A7F02031DFB2C00305502031DB6
:1009E800FB2C00305402031DFB2C02305302031C65
:1009F800FE2CFF2CD02C002D0A128A158B220A12ED
:100A08008A1183160313AC002C08D7000A128A1522
:100A180060220A128A1183160313AC002C08D8002E
:100A28005F08AC002C08D9006008AC002C08DA007C
:100A38006608AC002C08DB006408AC00AD01AC090A
:100A4800AD09AC0A0319AD0A63082C078312031316
:100A5800B400831603132D0803182D0A83120313F9
:100A6800B500831603136308640783120313B600E3
:100A7800B701B70D0A128A15B6220A128A11831213
:100A88000313350883160313D101D1078312031307
:100A9800340883160313D001D0075008AC002C0883
:100AA800DC005108AC002C08DD000A128A15E3218D
:100AB8000A128A1183160313AC002C08DE006F306B
:100AC80058020318682D692D702D83120313881E90
:100AD8006E2D6F2D812D702DD73083160313AC002A
:100AE8002C08A0000830AD002D08A100B0300A1273
:100AF8008A1576250A128A119C2DC8308312031391
:100B0800C2009030C300831603135808AC00AD012F
:100B18002C0883120313C400831603132D088312B1
:100B28000313C5000A128A1110260A128A119C2D75
:100B380083120313071100300A128A15BE210A1204
:100B48008A1183120313101010308F008E011014B5
:100B58001130C2009130C300560883160313AC004D
:100B6800AD012C0883120313C400831603132D0848
:100B780083120313C5000A128A1110260A128A1159
:100B880083160313D201F72D4D3083120313C200CD
:100B98009130C300831603135208AC00AD012C0832
:100BA80083120313C400831603132D08831203133F
:100BB800C500831603136508AE00AF012E08831223
:100BC8000313C600831603132F0883120313C700E9
:100BD8000A128A1110260A128A110A128A15E524A5
:100BE8000A128A11F72D013083160313D207FF303A
:100BF8005207AC0065082C02031C032E042EC82DD6
:100C0800052E0130DF070318E00A0030E007A82CA2
:100C1800A82C0A128A111228443083120313C80020
:100C28004808CC00A22F5308253A03191C2E1D2E64
:100C3800242E53080A128A15EB200A128A11A22FB1
:100C4800CE01332EBF2F572E572ECE17572E5308AF
:100C58000A128A15EB200A128A11A22F572E831224
:100C680003134308C9004208C8000130C20703182B
:100C7800C30A4908FF00480884000A168A110020A0
:100C88000A128A11D300003A0319BF2F583A0319E0
:100C9800292E3C3A0319572E0D3A0319572E113AAB
:100CA8000319292E2B2E83120313CE1B5C2E5D2EC7
:100CB800782E4C08840083130008CF00840A0008AB
:100CC800D0000230C8004808CC07D01F6C2E6D2E0B
:100CD800F52E0330C8004808CE04CF09D009CF0A42
:100CE8000319D00AF52EF52E4C088400831300084A
:100CF800CF00840A0008D0000230C8004808CC079A
:100D0800F52EF52ED301D30A5308053A031D8D2E6F
:100D18008E2E902EFE2EFE2E5308C8004807833EC6
:100D2800840090300318013EFF000A168A11002043
:100D38000A128A11C9000A168A1100200A128A1199
:100D4800CA004A085002031DAB2E49084F02031877
:100D5800AE2EAF2EB12EFE2EFE2E0130C800480852
:100D6800D3075308053A031DBA2EBB2E902EFE2E2C
:100D7800FE2ED301D30A5308043A031DC42EC52EF0
:100D8800C72EFE2EFE2E5308C80048078D3E84004D
:100D980090300318013EFF000A168A1100200A123B
:100DA8008A11C9000A168A1100200A128A11CA007B
:100DB8004A085002031DE22E49084F020318E52E87
:100DC800E62EE82EFE2EFE2E0130C8004808D30776
:100DD8005308043A031DF12EF22EC72EFE2EFE2EC6
:100DE800FE2E4E088039003A0319862E803A0319E0
:100DF800BD2EFE2E4E0803390319032F042F0B2F87
:100E08002D300A128A15EB200A128A110B2F831231
:100E180003135308C8004808CD00942F842F0A30C4
:100E2800BC000030BD004D08C8004807833E840060
:100E380090300318013EFF000A168A1100200A129A
:100E48008A11B4000A168A1100200A128A11B50004
:100E58005008B701B7074F08B601B6070A128A1536
:100E68001F240A128A11831203133508BF01BF0712
:100E78003408BE01BE070A128A158D230A128A1188
:100E8800831203133C08303EC9004908D3008D2F54
:100E98004D08C80048078D3E840090300318013E75
:100EA800FF000A168A1100200A128A11B4000A16D5
:100EB8008A1100200A128A11B5005008B701B70735
:100EC8004F08B601B6070A128A151F240A128A119A
:100ED8008312031334080F39C9004908CB004B08A3
:100EE8005F3E840091300318013EFF000A168A1104
:100EF80000200A128A11C8004808D3008D2F8D2FB0
:100F08004E088039003A0319132F803A03194C2FE1
:100F18008D2F53080A128A15EB200A128A11942F72
:100F2800FF3083120313C8004808CD074D08FF3A65
:100F3800031D9F2FA02F842FA22FA22F83120313EC
:100F48004308C9004208C8000130C2070318C30A91
:100F58004908FF00480884000A168A1100200A126E
:100F68008A11CA004A08D300D308031DBC2FBD2F1D
:100F7800172EBF2FBF2F080083120313B701E230CB
:100F88000A128A150A210A128A1107300A128A15CA
:100F980067210A128A1183120313BA003A08BB00A8
:100FA8003B08BA003A08B70027300A128A150A2106
:100FB8000A128A1183120313071100300A128A15C4
:100FC80067210A128A1183120313BA003A08BB0078
:100FD8003B080138BA003A08BB003B08BA003A0897
:100FE800B70020300A128A150A210A128A118312C0
:060FF800031307150800B9
:1011840032340034013464008001840A04060319F3
:1011940000340406C628003400340034003400341B
:1011A400AA34AA34AA34831603131F088F391038BB
:1011B4009F0003309F041D170800F000E1288312EC
:1011C40003130C1EE628E728E128E8287008990094
:1011D400080083120313B400EF280C1EF228F3282E
:1011E400EF28F4283408990008007E088A007F0854
:1011F40082000A128A15F7200A128A158000840ACE
:1012040004087D0603190034FF0A0319FE0AFB28AB
:1012140083120313B800081138080A128A154E21E4
:101224000A128A158312031337080A128A154E21EB
:101234000A128A1583120313081508008316031370
:10124400871707130230980083120313980183163B
:101254000313181118120C309900831203139817F2
:10126400831603139816080083120313941614129A
:101274001408F039023894008316031394131417D6
:10128400823083120313B500DD30B400B40B482957
:10129400B50B48294D29080083120313B6003608FC
:1012A40093000330B5009730B400B40B5729B50B45
:1012B40057295C295D29831203138C1D6229632934
:1012C4005D29642913086629080083120313B800F2
:1012D400081138080A128A154E210A128A1500309C
:1012E4000A128A154E210A128A1583120313B700B3
:1012F4003708B900081539087F29080007300A1291
:101304008A1567210A128A1583120313BA00BA1EBA
:101314008C298D299B292030BA003A08B700273040
:101324000A128A150A210A128A1501309E299E2959
:101334009E2900309E299E29080007300A128A152A
:1013440067210A128A1583120313BA00BA1EAB2945
:10135400AC29BA291030BA003A08B70027300A126B
:101364008A150A210A128A150130BD29BD29BD2911
:101374000030BD29BD29080083120313BB000030CF
:101384000A128A1567210A128A1583120313BA00F6
:101394003A08BC00BB08031DD029D129D629FD3049
:1013A400BA003A08BC05D829BC14D8293C08BA00AC
:1013B4003A08B70020300A128A150A210A128A153F
:1013C4000800831203131F08C33918389F008316BB
:1013D40003131D08FC3902389D00831203131F14E4
:1013E4000330B5009730B400B40BF629B50BF629D9
:1013F400FB29831203139F14FF299F18022A032A2F
:10140400FF29042A1E08B4003408B6001F10360849
:101414000B2A080083120313B701E1300A128A155C
:101424000A210A128A1583120313071100300A12C3
:101434008A1567210A128A1583120313BA003A081F
:10144400BB003B08FE39BA003A08BB003B08BA00AF
:101454003A08B70020300A128A150A210A128A159E
:10146400831203130715080083120313BA0008112B
:101474003A080A128A154E210A128A158312031396
:10148400BB01582A37088400831300080A128A15FE
:101494004E210A128A15013083120313B900390848
:1014A400B7070130B9003908BB07582A38083B028E
:1014B400031C5D2A5E2A442A0815080083120313BC
:1014C4001F08C33914389F00831603131D08FC3901
:1014D40002389D00831203131F1488150330B500CE
:1014E4009730B400B40B742AB50B742A792A83128A
:1014F40003139F147D2A9F18802A812A7D2A822A19
:101504001E08B4003408B6001F10881136088A2A51
:101514000800831203131F08C3391C389F00831665
:1015240003131D08FC3901389D00831203131F1493
:1015340008140D30B500FB30B400B40B9F2AB50B72
:101544009F2AA42A831203139F14A82A9F18AB2A44
:10155400AC2AA82AAD2A1E08B4003408B6001F100D
:1015640008103608B52A080083120313B801B9011C
:10157400BB2A341CBE2ABF2AC52A3608B80703185A
:10158400B90A3708B90701300310B60DB70DFF3E8D
:10159400031DC62A01300310B50CB40CFF3E031D15
:1015A400CD2A35083404031DD82AD92ABB2ADA2ABD
:1015B4003908B501B5073808B401B407E12A0800B1
:1015C40083120313BB0007300A128A1567210A121B
:1015D4008A1583120313BA003A08BC003C08803908
:1015E400BA003A08BC003C08031DF92AFE2A3B084D
:1015F400031DFD2A082BFE2ABC08031D022B032B06
:10160400132B3B08031D072B132B082B5330BA0055
:101614003A08B70050300A128A150A210A128A15AC
:10162400132B0800DB01D401D501D601D7018316A1
:101634000313DF01E001E101E201E301E401E5015B
:10164400831790308400B0300A128A15C5200A121C
:101654008A158313DF30FD000830FE00CD30FF0013
:10166400D73084000A128A15FB200A128A155B30CF
:10167400FD000830FE00C230FF00583084000A121A
:101684008A15FB200A128A1583010A128A11252B56
:101694007908780403194F2B502B852BFD01FD0A83
:1016A4005F2B01300310F80DF90DFF3E031D542B81
:1016B4000130FC007C08FD075F2BF91F622B632BB4
:1016C400532B652B652B79087B02031D6B2B780844
:1016D4007A02031C6E2B6F2B762B7808FA0279089A
:1016E400031CFB03FB02762B01300310F90CF80CEE
:1016F400FF3E031D772B0130FD02031D822B832B3C
:10170400652B852B852B7B08F901F9077A08F801ED
:10171400F8078C2B0800831203133D083C040319BB
:10172400942B952BCA2BC101C10AA42B01300310A1
:10173400BC0DBD0DFF3E031D992B0130C0004008B8
:10174400C107A42BBD1FA72BA82B982BAA2BAA2B10
:101754003D083F02031DB02B3C083E02031CB32B83
:10176400B42BBB2B3C08BE023D08031CBF03BF02C5
:10177400BB2B01300310BD0CBC0CFF3E031DBC2B66
:101784000130C102031DC72BC82BAA2BCA2BCA2B9D
:101794003F08BD01BD073E08BC01BC07D12B0800B2
:1017A400F601F701710870040319D92BDA2B172CF1
:1017B400F501F50AE92B01300310F00DF10DFF3EA0
:1017C400031DDE2B0130F4007408F507E92BF11F2B
:1017D400EC2BED2BDD2BEF2BEF2B01300310F60D53
:1017E400F70DFF3E031DF02B71087302031DFC2B44
:1017F40070087202031CFF2B002C082C7008F202E4
:101804007108031CF303F3027614082C013003104F
:10181400F10CF00CFF3E031D092C0130F502031DF1
:10182400142C152CEF2B172C172C7708F101F1072A
:101834007608F001F0071E2C080083120313BA0186
:10184400BB01350834040319282C292C662CB90152
:10185400B90A382C01300310B40DB50DFF3E031D39
:101864002D2C0130B8003808B907382CB51F3B2C93
:101874003C2C2C2C3E2C3E2C01300310BA0DBB0DFD
:10188400FF3E031D3F2C35083702031D4B2C340843
:101894003602031C4E2C4F2C572C3408B602350844
:1018A400031CB703B7023A14572C01300310B50CCC
:1018B400B40CFF3E031D582C0130B902031D632CE8
:1018C400642C3E2C662C662C3B08B501B5073A08FF
:1018D400B401B4076D2C08000C1C712C722CDA2C8A
:1018E4000130AE002E08D70710308F008E01570844
:1018F4005A06031D7E2C7F2CD82C3A30A000913040
:10190400A1000A128A1552260A128A158312031399
:101914000808AE0004300310AE0CFF3E031D8D2CEE
:101924002E08AF002F0883160313E6008312031357
:101934000808AE0006300310AE0CFF3E031D9D2CBC
:101944002E080339AF002F08D600C62C83160313C4
:10195400E501E50AD52C14308312AE002E08831657
:101964000313E500D52C28308312AE002E0883160D
:101974000313E500D52C78308312AE002E088316AD
:101984000313E500D52CD52C83125608003A03190D
:10199400A82C013A0319AD2C033A0319B52C013ACA
:1019A4000319BD2CD52C8312D7015B140C10DA2C2F
:1019B4003308FF0032088A0031088400300E8300A7
:1019C400FE0E7E0E09000A128A1560220A128A157A
:1019D40083120313B700B801370883160313E10019
:1019E40083120313380883160313E20000306202E3
:1019F4007A3003196102031C002D012D5D2D831221
:101A04000313590858040319082D092D5D2D881A4C
:101A14000C2D0D2D5D2D061210105908B800580814
:101A2400B7000230FF000310B70DB80DFF0B152DE2
:101A3400B709B809B70A0319B80A3708D40038082F
:101A4400D50055088F0054088E00101463000A1244
:101A54008A1560220A128A1583120313B700370805
:101A6400B90006165409B7005509B800B70A031996
:101A7400B80A3708003ED40038080318013E103E67
:101A8400D500101055088F0054088E001014630000
:101A940083160313610883120313B70037088316F0
:101AA4000313E300831203133908B70037088316BE
:101AB4000313E400752D8312101010308F008E0173
:101AC40010146300FF3083120313B7003708831622
:101AD4000313E300FF3083120313B70037088316A0
:101AE4000313E400752D080083160313A5000A12DE
:101AF4008A150C220A128A1517300A128A156721D0
:101B04000A128A1583160313A2002208A600A61A35
:101B14008C2D8D2D512E8D3083120313C2009130E4
:101B2400C3000A128A1110260A128A158316031397
:101B3400A701C32D9C3083120313C2009130C3004C
:101B44008316031327082007A200220884008313A6
:101B54000008A300A401230883120313C4008316FE
:101B64000313240883120313C5000A128A111026D2
:101B74000A128A15013083160313A2002208A7074C
:101B8400C32D21082702031CC82DC92D9C2DCA2D45
:101B9400993083120313C2009130C3000A128A11D0
:101BA40010260A128A1583120313071183160313CE
:101BB4002008A200220883120313B700831603131C
:101BC4002108A300230883120313B8008316031308
:101BD40025080A128A1536220A128A15831203135B
:101BE4000715063083160313A200A20BF72D00007D
:101BF400831203130711033083160313A3009730D2
:101C0400A200A20B032EA30B032E082E402E0A12B1
:101C14008A1580210A128A15003A0319122E132EEE
:101C2400242E703083120313C2009130C3000A12B1
:101C34008A1110260A128A150A128A11C0270A125A
:101C44008A15242E0A128A159F210A128A15003A2F
:101C540003192D2E2E2E402EE23083120313C200C0
:101C64009030C3000A128A1110260A128A150A1229
:101C74008A11C0270A128A15402E402E831203139C
:101C8400881C452E462E092E472E9730C2009130CF
:101C9400C3000A128A1110260A128A15512E08004E
:101CA400223083120313A2002208A600E22F2D087B
:101CB400253A03195E2E5F2E662E2D080A128A1508
:101CC400DF200A128A15E22FA801752EFF2F992E04
:101CD400992EA817992E2D080A128A15DF200A12A8
:101CE4008A15E22F992E831203132108A3002008DA
:101CF400A2000130A0070318A10A2308FF0022084C
:101D040084000A168A1100200A128A15AD00003ACE
:101D14000319FF2F583A03196B2E3C3A0319992ED5
:101D24000D3A0319992E113A03196B2E6D2E831255
:101D34000313A81B9E2E9F2EBA2E260884008313FD
:101D44000008A900840A0008AA000230A2002208A0
:101D5400A607AA1FAE2EAF2E372F0330A2002208EB
:101D6400A804A909AA09A90A0319AA0A372F372F0F
:101D74002608840083130008A900840A0008AA0026
:101D84000230A2002208A607372F372FAD01AD0A73
:101D94002D08053A031DCF2ED02ED22E402F402FD2
:101DA4002D08A2002207833E840090300318013ED0
:101DB400FF000A168A1100200A128A15A3000A16C7
:101DC4008A1100200A128A15A40024082A02031D7D
:101DD400ED2E230829020318F02EF12EF32E402FA6
:101DE400402F0130A2002208AD072D08053A031D3B
:101DF400FC2EFD2ED22E402F402FAD01AD0A2D0812
:101E0400043A031D062F072F092F402F402F2D08BA
:101E1400A20022078D3E840090300318013EFF008B
:101E24000A168A1100200A128A15A3000A168A11BA
:101E340000200A128A15A40024082A02031D242F54
:101E4400230829020318272F282F2A2F402F402F39
:101E54000130A2002208AD072D08043A031D332FD8
:101E6400342F092F402F402F402F28088039003A63
:101E74000319C82E803A0319FF2E402F280803396E
:101E84000319452F462F4D2F2D300A128A15DF20B6
:101E94000A128A154D2F831203132D08A20022085B
:101EA400A700D42FC42F0A30F8000030F900270807
:101EB400A2002207833E840090300318013EFF00F5
:101EC4000A168A1100200A128A15F0000A168A11CD
:101ED40000200A128A15F1002A08F301F3072908E1
:101EE400F201F2070A128A15D2230A128A1571081E
:101EF400FB01FB077008FA01FA070A128A154A2344
:101F04000A128A157808303E83120313A3002308AB
:101F1400AD00CD2F2708A20022078D3E840090300B
:101F24000318013EFF000A168A1100200A128A15BE
:101F3400F0000A168A1100200A128A15F1002A08F4
:101F4400F301F3072908F201F2070A128A15D223D2
:101F54000A128A1570080F3983120313A300230889
:101F6400A50025085F3E840091300318013EFF0060
:101F74000A168A1100200A128A15A2002208AD004E
:101F8400CD2FCD2F28088039003A0319552F803AD8
:101F940003198C2FCD2F2D080A128A15DF200A125F
:101FA4008A15D42FFF3083120313A2002208A70737
:101FB4002708FF3A031DDF2FE02FC42FE22FE22F63
:101FC400831203132108A3002008A2000130A007F4
:101FD4000318A10A2308FF00220884000A168A11A4
:101FE40000200A128A15A4002408AD00AD08031DC0
:101FF400FC2FFD2F592EFF2FFF2F0800FF1B0A284F
:1020040083137F1883170008840A0319FF0A080042
:102014007F087F398A000408840A0319FF0A8200B2
:1020240040344B340134E234C0344B340034003493
:10203400D034FC348C34023499340034393441348F
:10204400F9349E3486340B34243406347F34A63475
:1020540000340034003400340034003400340034DC
:1020640000340034003400340034003400340034CC
:1020740000340034003400340034003400340034BC
:10208400003473341234003400348034B4343634BD
:1020940000340F3401343F3402343F340334033406
:1020A4000434FF3405341734063401340734073458
:1020B40008340034093400340C34C3340D34C434CB
:1020C4000E34C5340F34C634113420341234203461
:1020D400133420341434203415342034163420348A
:1020E400173400341C343F341D3407344134203455
:1020F4000834043481342034CF34F734FE34FF34CC
:10210400FF34013400340A34003464340034E834D5
:1021140003341034273401340034103400340034D0
:102124000134003410343434433410341034013462
:102134003934383437343634C2341C343F341D34E3
:1021440007345634733474346F34723461346734FE
:10215400653420344F344B3420346F34723420349B
:102164006D346534613473347534723465342034B9
:1021740073346B34693470347034653464343A3491
:102184002034253464340D340A3400345634533442
:1021940074346F3472346134673465343A342034BF
:1021A40025346434203420343D343E3420346E34B9
:1021B4006F34743420344F344B340D340A340034C7
:1021C4004E346F34203464346134743461342034D4
:1021D400733465346E3474343A34203445345234B0
:1021E40052344F34523420340D340A342034003401
:1021F4005634733474346F347234613467346534F0
:10220400203474346F346F3420346C346F34773446
:102214003A342034253464340D340A3400345334CD
:102224006C34653465347034203463346F347534FD
:102234006E3474346534723420343D34203425349F
:1022440064340D340A34003453346C3465346534E6
:102254007034203463346F3475346E3474346534BC
:1022640072343A342034253458340D340A3400346A
:102274004534633463346F346D34693420346E34DC
:1022840065346C346C342734493453345234213437
:102294000D340A34003453346C346534653470348A
:1022A4003A3420342534643420346F346E3420348A
:1022B400253464340D340A34003430343134323447
:1022C40033343434353436343734383439344134AF
:1022D4004234433444344534463400344434613461
:1022E400743461342034733465346E3474343A3461
:1022F40020344F344B3420340D340A3400345234F7
:102304006534633465346934763469346E346734DF
:102314003A3420340034533465346E3464346934CC
:102324006E3467343A34203400340A340D340A34B9
:0A2334000D34003425345834003411
:04400E00F5FFCFFFEC
:00000001FF
