:060000000A128A11122809
:10000800FE00030E83120313B0000408B1000A08AF
:10001800B2007F08B3000A128A15242C0A128A1526
:10002800CE2A033083120313BF000830BE00783095
:10003800BD00BD0B1D28BE0B1D28BF0B1D280030A1
:100048000A128A159C220A128A1183120313D001FC
:1000580014305002031C31283228342864286428BC
:100068000314500D4A3E840090300318013EFF00EF
:100078000A168A1100200A128A11BD003D08B7002D
:100088005008BE003E074A3E840090300318013EE7
:10009800FF000A168A1100200A128A1120380A1253
:1000A8008A15C4200A128A11013083120313BD0075
:1000B8003D08D00714305002031C632864283428F4
:1000C800D10105305102031C6A286B286D288B2842
:1000D8008B285108953E840090300318013EFF009C
:1000E8000A168A1100200A128A11BD005108443EDE
:1000F80084003D08831380000130BD003D08D1070E
:1001080005305102031C89288A286D288B28443021
:10011800BD003D08B7000530BE003E08B8002A30D3
:100128000A128A15F0210A128A1183120313D101C7
:1001380005305102031CA128A228A428C228C228DD
:1001480051089A3E840090300318013EFF000A16B9
:100158008A1100200A128A11BD005108443E840009
:100168003D08831380000130BD003D08D1070530EC
:100178005102031CC028C128A428C2284430BD004D
:100188003D08B7000530BE003E08B8002B300A1203
:100198008A15F0210A128A1183120313D10105303E
:1001A8005102031CD828D928DB28F928F928510836
:1001B800953E840090300318013EFF000A168A110C
:1001C80000200A128A11BD005108443E84003D08EF
:1001D800831380000130BD003D08D107053051026E
:1001E800031CF728F828DB28F9284430BD003D080F
:1001F800B7000530BE003E08B80030300A128A1534
:10020800F0210A128A111D300A128A1521210A12B8
:100218008A1183120313BD003D08D000D008031DC6
:100228001629172922297330BD003D08B700503020
:100238000A128A15C4200A128A112229163083123A
:100248000313BD003D08D0001530500203182D29B6
:100258002E2930295F295F290314500D4A3E840056
:1002680090300318013EFF000A168A1100200A1276
:100278008A11BD003D08B7005008BE003E074A3E3F
:10028800840090300318013EFF000A168A110020EE
:100298000A128A1120380A128A15C4200A128A11F1
:1002A800013083120313D0021530500203185D2960
:1002B8005E2930295F2901300A128A159C220A1208
:1002C8008A1183120313D00109305002031C6D29CF
:1002D8006E297029E429E429D10104305102031C54
:1002E800762977297929C829C8295008BD000130FD
:1002F8000310BD0DFF3E031D7C2903103D0D123E6A
:10030800840090300318013EFF000A168A1100206D
:100318000A128A11BE000A168A1100200A128A11CE
:10032800BF000A168A1100200A128A11C0000A1694
:100338008A1100200A128A11C1005108C200023035
:100348000310C20DFF3E031DA4290310420D013EF8
:10035800B2290310C10CC00CBF0CBE0CFF3E031D1C
:10036800AD293E08C3005108443E84004308831366
:1003780080000130BD003D08D10704305102031C44
:10038800C629C7297929C8294430BD003D08B700C6
:100398000430BE003E08B800500820380A128A15FA
:1003A800F0210A128A11013083120313BD003D089F
:1003B800D00709305002031CE229E3297029E429F7
:1003C8000930BD003D08D0000E305002031CED2955
:1003D800EE29F029652A652AD10104305102031C4F
:1003E800F629F729F9294A2A4A2A5008BD00013076
:1003F8000310BD0DFF3E031DFC2903103D0D123EE9
:10040800840090300318013EFF000A168A1100206C
:100418000A128A11BE000A168A1100200A128A11CD
:10042800BF000A168A1100200A128A11C0000A1693
:100438008A1100200A128A11C1005103FF3AC20032
:1004480002300310C20DFF3E031D252A0310420D82
:10045800183E013E342A0310C10CC00CBF0CBE0C60
:10046800FF3E031D2F2A3E08C3005108443E840066
:100478004308831380000130BD003D08D1070430D4
:100488005102031C482A492AF9294A2A4430BD0046
:100498003D08B7000430BE003E08B80050082038B8
:1004A8000A128A15F0210A128A11013083120313E5
:1004B800BD003D08D0070E305002031C642A652A8F
:1004C800F029D1010B305102031C6B2A6C2A6E2AC9
:1004D8008C2A8C2A5108783E840090300318013EFB
:1004E800FF000A168A1100200A128A11BD0051085D
:1004F800443E84003D08831380000130BD003D0860
:10050800D1070B305102031C8A2A8B2A6E2A8C2AA7
:100518004430BD003D08B7000B30BE003E08B800AF
:100528002E300A128A15F0210A128A118312031337
:10053800D10104305102031CA22AA32AA52AE82AC1
:10054800E82A223084009030FF000A168A11002021
:100558000A128A11BD000A168A1100200A128A118D
:10056800BE000A168A1100200A128A11BF000A1654
:100578008A1100200A128A11C0005108C1000230F5
:100588000310C10DFF3E031DC42A0310410D013E97
:10059800D22A0310C00CBF0CBE0CBD0CFF3E031DBD
:1005A800CD2A3D08C2005108443E84004208831306
:1005B80080000130BD003D08D10704305102031C02
:1005C800E62AE72AA52AE82A44080638BD003D0895
:1005D800C4004430BD003D08B7000430BE003E08EA
:1005E800B80024300A128A15F0210A128A118312DF
:1005F80003134408F939BD003D08C4004430BD0068
:100608003D08B7000430BE003E08B80024300A1286
:100618008A15F0210A128A11823083120313BE0050
:10062800DD30BD00BD0B162BBE0B162B1B2B00306F
:100638000A128A159C220A128A11831203130711BF
:100648000800003083160313DA000030D9000030A8
:10065800D8000030D700D501D6011008CF3920388E
:1006680090008316031707138713831603130713C2
:1006780083160317071108118712881083160313AE
:100688000915831603170915831603130511831615
:100698000317051183120313051583160313071196
:1006A800081187118712071688148312031307117C
:1006B800081587118712831603130810831603176A
:1006C80008108316031309158316031709158316D3
:1006D8000313091483160317091083120313081050
:1006E80083160313091483160317091483160313B7
:1006F800881183120313881183160313881683162F
:10070800031788128316031308178817831603170D
:10071800081388138B170B17831603130C14103048
:10072800831203138F008E0110083F398038900020
:1007380030309004831603138F1783120313101598
:1007480090151014831603130510851085110512D2
:100758008512051385138316031705108510851157
:1007680005128512051385138312031305108510CE
:1007780085110512851205138513831603130610B8
:1007880086100611861106128612831603170610A4
:10079800861006118611061286128312031306109C
:1007A8008610061186110616861283160313081280
:1007B80083160317081283120313081283160313F0
:1007C80089148316031789148312031389100A12D4
:1007D8008A15F0200A128A110A128A15DA200A12DA
:1007E8008A110A128A158F200A128A1100300A12F9
:1007F8008A1578210A128A118312031308088316AE
:100808000313B00006300310B00CFF3E031D072C85
:1008180030080339B100310883120313D900263098
:10082800C2009130C300590883160313B000B10108
:10083800300883120313C40083160313310883128C
:100848000313C5000A128A1500260A128A116300CA
:100858000A128A151A220A128A1183160313B00083
:10086800B1013008DD003108DE00622C63000A1295
:100878008A151A220A128A1183160313B000B101CD
:100888003008DD003108DE00FA3083120313C2009D
:100898009030C300831603135E0883120313C50147
:1008A800C507831603135D0883120313C401C40725
:1008B8000A128A1500260A128A11622C0030831641
:1008C80003135E026E3003195D0203186C2C6D2C45
:1008D800752C83120313881E722C732C3A2C752CDA
:1008E800752CA3308312C2009030C3008316031303
:1008F8005E0883120313C501C507831603135D0839
:1009080083120313C401C4070A128A1500260A12A7
:100918008A110A128A1115200A128A1100300A1245
:100928008A1578210A128A11630083160313DB01E2
:10093800DC019E2C01300A128A1578210A128A11CC
:10094800003083160313DA000030D9000030D800D5
:100958000030D7005A08803AFF000030803A7F0202
:10096800031DC02C00305902031DC02C0030580252
:10097800031DC02C02305702031CC32CC42CC62CE8
:10098800F62CF62C5708E33E840083130008B000C9
:100998005708B43E8400300880000130D707003083
:1009A80003180130D807003003180130D907003088
:1009B80003180130DA075A08803AFF000030803AFD
:1009C8007F02031DF12C00305902031DF12C003069
:1009D8005802031DF12C02305702031CF42CF52C8D
:1009E800C62CF62C0A128A1545220A128A11831679
:1009F8000313B0003008E3000A128A151A220A12FB
:100A08008A1183160313B0003008E4005B08B000B5
:100A18003008E5005C08B0003008E6006108B00066
:100A28003008E7006008B000B101B009B109B00AA8
:100A38000319B10A5F08300783120313B400831641
:100A4800031331080318310A83120313B500831600
:100A580003135F08600783120313B600B701B70DCD
:100A68000A128A1570220A128A1183120313340893
:100A780083160313D5070318D60A83120313350800
:100A880083160313D6075508B0003008E800560847
:100A9800B0003008E9000A128A159D210A128A114D
:100AA80083160313B0003008EA006F30640203189D
:100AB8005E2D5F2D662D83120313881E642D652D10
:100AC800812D662DE33083160313B000300883129E
:100AD8000313CB00083083160313B10031088312C7
:100AE8000313CC00B0300A128A152C250A128A1179
:100AF80083160313D501D6019B2DC8308312C2007B
:100B08009030C300831603136408B000B1013008A5
:100B180083120313C40083160313310883120313CB
:100B2800C5000A128A1500260A128A119B2D831203
:100B38000313071100300A128A1578210A128A1144
:100B480083120313101010308F008E01101411300F
:100B5800C2009130C300590883160313B000B101D5
:100B6800300883120313C400831603133108831259
:100B78000313C5000A128A1500260A128A11831661
:100B88000313D401F62D4D3083120313C2009130A4
:100B9800C300831603135408B000B1013008831250
:100BA8000313C40083160313310883120313C5000B
:100BB800831603136208B200B301320883120313C9
:100BC800C60083160313330883120313C7000A12DF
:100BD8008A1500260A128A110A128A159C240A12FA
:100BE8008A11F62D013083160313D407FF305407FA
:100BF800B00062083002031C022E032EC72D042EFB
:100C08000130DB070318DC0A0030DC079E2C9E2C21
:100C18000A128A111228223083120313A200220812
:100C2800A6009F2F2D08253A03191B2E1C2E232EB4
:100C38002D080A128A1599200A128A119F2FA801D5
:100C4800322EBC2F562E562EA817562E2D080A12B5
:100C58008A1599200A128A119F2F562E8312031380
:100C68002108A3002008A2000130A0070318A10A48
:100C78002308FF00220884000A168A1100200A129D
:100C88008A11AD00003A0319BC2F583A0319282ECF
:100C98003C3A0319562E0D3A0319562E113A0319E8
:100CA800282E2A2E83120313A81B5B2E5C2E772E68
:100CB8002608840083130008A900840A0008AA00F3
:100CC8000230A2002208A607AA1F6B2E6C2EF42E53
:100CD8000330A2002208A804A909AA09A90A03192D
:100CE800AA0AF42EF42E2608840083130008A9000B
:100CF800840A0008AA000230A2002208A607F42EDF
:100D0800F42EAD01AD0A2D08053A031D8C2E8D2E4B
:100D18008F2EFD2EFD2E2D08A2002207833E840073
:100D280090300318013EFF000A168A1100200A12AB
:100D38008A11A3000A168A1100200A128A11A40037
:100D480024082A02031DAA2E230829020318AD2EFF
:100D5800AE2EB02EFD2EFD2E0130A2002208AD07CA
:100D68002D08053A031DB92EBA2E8F2EFD2EFD2E05
:100D7800AD01AD0A2D08043A031DC32EC42EC62E9C
:100D8800FD2EFD2E2D08A20022078D3E84009030F6
:100D98000318013EFF000A168A1100200A128A1160
:100DA800A3000A168A1100200A128A11A400240836
:100DB8002A02031DE12E230829020318E42EE52E3A
:100DC800E72EFD2EFD2E0130A2002208AD072D08CA
:100DD800043A031DF02EF12EC62EFD2EFD2EFD2EFB
:100DE80028088039003A0319852E803A0319BC2E49
:100DF800FD2E280803390319022F032F0A2F2D303F
:100E08000A128A1599200A128A110A2F83120313CB
:100E18002D08A2002208A700912F812F0A30F80080
:100E28000030F9002708A2002207833E8400903092
:100E38000318013EFF000A168A1100200A128A11BF
:100E4800F0000A168A1100200A128A11F1002A08F5
:100E5800F301F3072908F201F2070A128A15882319
:100E68000A128A117108FB01FB077008FA01FA07D8
:100E78000A128A11BD270A128A117808303E831295
:100E88000313A3002308AD008A2F2708A200220716
:100E98008D3E840090300318013EFF000A168A1127
:100EA80000200A128A11F0000A168A1100200A127C
:100EB8008A11F1002A08F301F3072908F201F20761
:100EC8000A128A1588230A128A1170080F398312A8
:100ED8000313A3002308A50025085F3E8400913072
:100EE8000318013EFF000A168A1100200A128A110F
:100EF800A2002208AD008A2F8A2F28088039003ADC
:100F08000319122F803A0319492F8A2F2D080A1224
:100F18008A1599200A128A11912FFF308312031320
:100F2800A2002208A7072708FF3A031D9C2F9D2F20
:100F3800812F9F2F9F2F831203132108A3002008BE
:100F4800A2000130A0070318A10A2308FF00220805
:100F580084000A168A1100200A128A11A4002408A3
:100F6800AD00AD08031DB92FBA2F162EBC2FBC2F0C
:100F78000800790878040319C22FC32FF82FFD0140
:100F8800FD0AD22F01300310F80DF90DFF3E031DA5
:100F9800C72F0130FC007C08FD07D22FF91FD52F81
:100FA800D62FC62FD82FD82F79087B02031DDE2F06
:100FB80078087A02031CE12FE22FE92F7808FA0259
:100FC8007908031CFB03FB02E92F01300310F90C1D
:100FD800F80CFF3E031DEA2F0130FD02031DF52F1B
:100FE800F62FD82FF82FF82F7B08F901F9077A0880
:080FF800F801F807FF2F0800C3
:1010F400643400341A340034013464008001840AF6
:101104000406031900340406802800340034003433
:1011140000340034AA34AA34AA34831603131F08F3
:101124008F3910389F0003309F041D170800F0000A
:101134009B28831203130C1EA028A1289B28A228F5
:1011440070089900080083120313B400A9280C1E28
:10115400AC28AD28A928AE283408990008007E08D8
:101164008A007F0882000A128A15B1200A128A15A1
:101174008000840A04087D0603190034FF0A031959
:10118400FE0AB52883120313B800081138080A129E
:101194008A1508210A128A158312031337080A12C2
:1011A4008A1508210A128A158312031308150800E8
:1011B400831603138717071302309800831203134F
:1011C400980183160313181118120C309900831216
:1011D4000313981783160313981608008312031336
:1011E400941614121408F039023894008316031369
:1011F40094131417823083120313B500DD30B40046
:10120400B40B0229B50B0229072908008312031322
:10121400B600360893000330B5009730B400B40B21
:101224001129B50B112916291729831203138C1DB3
:101234001C291D2917291E29130820290800831297
:101244000313B800081138080A128A1508210A1273
:101254008A1500300A128A1508210A128A15831287
:101264000313B7003708B9000815390839290800ED
:1012740007300A128A1521210A128A1583120313D0
:10128400BA00BA1E4629472955292030BA003A081F
:10129400B70027300A128A15C4200A128A150130B1
:1012A4005829582958290030582958290800073046
:1012B4000A128A1521210A128A1583120313BA000D
:1012C400BA1E6529662974291030BA003A08B70095
:1012D40027300A128A15C4200A128A150130772988
:1012E4007729772900307729772908008312031397
:1012F400BB0000300A128A1521210A128A158312B2
:101304000313BA003A08BC00BB08031D8A298B29C1
:101314009029FD30BA003A08BC059229BC149229E0
:101324003C08BA003A08B70020300A128A15C420D3
:101334000A128A150800831203131F08C3391838C8
:101344009F00831603131D08FC3902389D00831285
:1013540003131F140330B5009730B400B40BB02945
:10136400B50BB029B529831203139F14B9299F180B
:10137400BC29BD29B929BE291E08B4003408B60009
:101384001F103608C529080083120313B701E13082
:101394000A128A15C4200A128A158312031307112C
:1013A40000300A128A1521210A128A1583120313A6
:1013B400BA003A08BB003B08FE39BA003A08BB0041
:1013C4003B08BA003A08B70020300A128A15C42034
:1013D4000A128A15831203130715080083120313D4
:1013E400BA0008113A080A128A1508210A128A1545
:1013F40083120313BB01122A3708840083130008E5
:101404000A128A1508210A128A150130831203135D
:10141400B9003908B7070130B9003908BB07122AE7
:1014240038083B02031C172A182AFE29081508004D
:10143400831203131F08C33914389F008316031340
:101444001D08FC3902389D00831203131F148815EC
:101454000330B5009730B400B40B2E2AB50B2E2AF6
:10146400332A831203139F14372A9F183A2A3B2ADC
:10147400372A3C2A1E08B4003408B6001F1088110D
:101484003608442A0800831203131F08C3391C3882
:101494009F00831603131D08FC3901389D00831235
:1014A40003131F1408140D30B500FB30B400B40B43
:1014B400592AB50B592A5E2A831203139F14622AF0
:1014C4009F18652A662A622A672A1E08B40034080F
:1014D400B6001F10081036086F2A08008312031381
:1014E400B801B901752A341C782A792A7F2A36086A
:1014F400B8070318B90A3708B90701300310B60D45
:10150400B70DFF3E031D802A01300310B50CB40C47
:10151400FF3E031D872A35083404031D922A932AAB
:10152400752A942A3908B501B5073808B401B407F7
:101534009B2A080083120313BB0007300A128A1582
:1015440021210A128A1583120313BA003A08BC0037
:101554003C088039BA003A08BC003C08031DB32A91
:10156400B82A3B08031DB72AC22AB82ABC08031D9F
:10157400BC2ABD2ACD2A3B08031DC12ACD2AC22A72
:101584005330BA003A08B70050300A128A15C42002
:101594000A128A15CD2A0800DB01D701D801D90126
:1015A400DA018313DB308400E3300A128A157F20CA
:1015B4000A128A15831790308400B0300A128A15F3
:1015C4007F200A128A158313EB30FD000830FE00D9
:1015D4008730FF00E33084000A128A15B5200A120E
:1015E4008A155730FD000830FE007A30FF00523073
:1015F40084000A128A15B5200A128A1583010A1278
:101604008A11252B83120313B701E2300A128A15BB
:10161400C4200A128A1507300A128A1521210A12D7
:101624008A1583120313BA003A08BB003B08BA00B8
:101634003A08B70027300A128A15C4200A128A15FC
:1016440083120313071100300A128A1521210A128A
:101654008A1583120313BA003A08BB003B08013809
:10166400BA003A08BB003B08BA003A08B700203079
:101674000A128A15C4200A128A1583120313071545
:101684000800831203133D083C0403194A2B4B2B17
:10169400802BC101C10A5A2B01300310BC0DBD0DB2
:1016A400FF3E031D4F2B0130C0004008C1075A2BD9
:1016B400BD1F5D2B5E2B4E2B602B602B3D083F0224
:1016C400031D662B3C083E02031C692B6A2B712BFD
:1016D4003C08BE023D08031CBF03BF02712B01304E
:1016E4000310BD0CBC0CFF3E031D722B0130C10264
:1016F400031D7D2B7E2B602B802B802B3F08BD018F
:10170400BD073E08BC01BC07872B0800F601F701A2
:101714007108700403198F2B902BCD2BF501F50A5A
:101724009F2B01300310F00DF10DFF3E031D942B90
:101734000130F4007408F5079F2BF11FA22BA32B93
:10174400932BA52BA52B01300310F60DF70DFF3EAF
:10175400031DA62B71087302031DB22B70087202BD
:10176400031CB52BB62BBE2B7008F2027108031CA8
:10177400F303F3027614BE2B01300310F10CF00CCA
:10178400FF3E031DBF2B0130F502031DCA2BCB2BDB
:10179400A52BCD2BCD2B7708F101F1077608F001AD
:1017A400F007D42B080083120313BA01BB013508D8
:1017B40034040319DE2BDF2B1C2CB901B90AEE2BE0
:1017C40001300310B40DB50DFF3E031DE32B0130B2
:1017D400B8003808B907EE2BB51FF12BF22BE22B1A
:1017E400F42BF42B01300310BA0DBB0DFF3E031D87
:1017F400F52B35083702031D012C34083602031C6F
:10180400042C052C0D2C3408B6023508031CB70330
:10181400B7023A140D2C01300310B50CB40CFF3E82
:10182400031D0E2C0130B902031D192C1A2CF42BA4
:101834001C2C1C2C3B08B501B5073A08B401B407AD
:10184400232C08000C1C272C282C912C0130AE00D2
:101854002E08DA0710308F008E015A085606031D31
:10186400342C352C8F2C3A30A0009130A1000A1270
:101874008A110F260A128A15831203130808AE0070
:1018840005300310AE0CFF3E031D432C2E08073910
:10189400AF002F0883160313E10083120313080813
:1018A400AE0006300310AE0CFF3E031D542C2E0870
:1018B4000339AF002F08D9007D2C83160313E201EE
:1018C400E20A8C2C14308312AE002E088316031304
:1018D400E2008C2C28308312AE002E0883160313EA
:1018E400E2008C2C78308312AE002E08831603138A
:1018F400E2008C2C8C2C83125908003A03195F2CBB
:10190400013A0319642C033A03196C2C013A0319A4
:10191400742C8C2C8312DA015B140C10912C330878
:10192400FF0032088A0031088400300E8300FE0E66
:101934007E0E09000A128A151A220A128A158312C7
:101944000313B700B801370883160313DD008312AD
:101954000313380883160313DE0000305E027A3066
:1019640003195D02031CB72CB82C1F2D831203131B
:10197400530852040319BF2CC02C1F2D881AC32CE2
:10198400C42C1F2D831203179401A03093008312DB
:10199400031310105308B8005208B7000230FF00B8
:1019A4000310B70DB80DFF0BD22CB709B809B70A4D
:1019B4000319B80A3708D7003808D80058088F0028
:1019C40057088E00101463008312031793018312C7
:1019D400031305150A128A151A220A128A1583128C
:1019E4000313B7003708B9005709B7005809B800FE
:1019F400B70A0319B80A3708003ED7003808031895
:101A0400013E103ED800101058088F0057088E0071
:101A140010146300831603135D0883120313B700C5
:101A2400370883160313DF00831203133908B70042
:101A3400370883160313E0002B2D83121010103087
:101A44008F008E011014630083160313DF01E0017D
:101A54002B2D080083160313A9000A128A15C62128
:101A64000A128A1517300A128A1521210A128A15B8
:101A740083120313CD004D0883160313AA00AA1A78
:101A8400442D452DFF2D8D3083120313C200913058
:101A9400C3000A128A1500260A128A158316031334
:101AA400AB01792D9C3083120313C2009130C30023
:101AB400831603132B08831203134B07CD004D0821
:101AC400840083130008CE00CF014E08C4004F08E1
:101AD400C5000A128A1500260A128A1501308312DB
:101AE4000313CD004D0883160313AB07792D83121E
:101AF40003134C08831603132B02031C822D832D1E
:101B0400542D842D993083120313C2009130C300E5
:101B14000A128A1500260A128A1583120313071162
:101B24004B08CD004D08B7004C08CE004E08B80055
:101B34008316031329080A128A15F0210A128A153A
:101B44008312031307150630CD00CD0BA72D00001B
:101B54008312031307110330CE009730CD00CD0B51
:101B6400B12DCE0BB12DB62DEE2D0A128A153A21C8
:101B74000A128A15003A0319C02DC12DD22D7030D6
:101B840083120313C2009130C3000A128A1500267F
:101B94000A128A150A128A1504230A128A15D22DEA
:101BA4000A128A1559210A128A15003A0319DB2DE3
:101BB400DC2DEE2DE23083120313C2009030C300FB
:101BC4000A128A1500260A128A150A128A15042393
:101BD4000A128A15EE2DEE2D83120313881CF32DA1
:101BE400F42DB72DF52D9730C2009130C3000A12A1
:101BF4008A1500260A128A15FF2D08004430831224
:101C04000313C800480883160313A100E02F280813
:101C1400253A03190E2E0F2E162E28080A128A159D
:101C2400A5200A128A15E02FA301252EFF2F4B2E83
:101C34004B2EA3174B2E28080A128A15A5200A1228
:101C44008A15E02F4B2E831203134308C900420860
:101C5400C8000130C2070318C30A4908FF00480836
:101C640084000A168A1100200A128A1583160313A7
:101C7400A800003A0319FF2F583A03191B2E3C3AC7
:101C840003194B2E0D3A03194B2E113A03191B2E2F
:101C94001D2E83160313A31B502E512E742E2108C0
:101CA400840083130008A400840A0008A5000230FD
:101CB40083120313C800480883160313A107A51F42
:101CC400642E652E0D2F033083120313C8004808B9
:101CD40083160313A304A409A509A40A0319A50AD6
:101CE4000D2F0D2F2108840083130008A400840AFB
:101CF4000008A500023083120313C80048088316A5
:101D04000313A1070D2F0D2FA801A80A2808053ACF
:101D1400031D8D2E8E2E902E162F162F280883121B
:101D24000313C8004807833E840090300318013E23
:101D3400FF000A168A1100200A128A15C9000A1621
:101D44008A1100200A128A15CA004A08831603134E
:101D54002502031DB32E83120313490883160313AC
:101D640024020318B62EB72EB92E162F162F0130C3
:101D740083120313C800480883160313A80728080E
:101D8400053A031DC62EC72E902E162F162FA80116
:101D9400A80A2808043A031DD02ED12ED32E162FBC
:101DA400162F280883120313C80048078D3E8400A9
:101DB40090300318013EFF000A168A1100200A120F
:101DC4008A15C9000A168A1100200A128A15CA0047
:101DD4004A08831603132502031DF62E83120313E8
:101DE40049088316031324020318F92EFA2EFC2E35
:101DF400162F162F013083120313C80048088316C8
:101E04000313A8072808043A031D092F0A2FD32E09
:101E1400162F162F162F23088039003A0319862E01
:101E2400803A0319C92E162F2308033903191B2FCF
:101E34001C2F232F2D300A128A15A5200A128A1569
:101E4400232F83160313280883120313C80048089A
:101E540083160313A200D02FC02F0A30831203135A
:101E6400BC000030BD008316031322088312031341
:101E7400C8004807833E840090300318013EFF00E9
:101E84000A168A1100200A128A15B4000A168A1149
:101E940000200A128A15B50083160313250883123D
:101EA4000313B701B707831603132408831203131C
:101EB400B601B6070A128A15D5230A128A158312A7
:101EC40003133508BF01BF073408BE01BE070A1259
:101ED4008A1543230A128A15831203133C08303EE1
:101EE400C900490883160313A800C92F22088312C6
:101EF4000313C80048078D3E840090300318013E48
:101F0400FF000A168A1100200A128A15B4000A1664
:101F14008A1100200A128A15B500831603132508B6
:101F240083120313B701B70783160313240883121C
:101F34000313B601B6070A128A15D5230A128A15A5
:101F44008312031334080F39C90049088316031395
:101F5400A00020085F3E840091300318013E8312E4
:101F64000313FF000A168A1100200A128A15C800FA
:101F7400480883160313A800C92FC92F23088039E2
:101F8400003A03192F2F803A0319782FC92F2808F4
:101F94000A128A15A5200A128A15D02FFF3083123F
:101FA4000313C800480883160313A2072208FF3A44
:101FB400031DDD2FDE2FC02FE02FE02F831203132C
:101FC4004308C9004208C8000130C2070318C30A05
:101FD4004908FF00480884000A168A1100200A12E2
:101FE4008A15CA004A0883160313A800A808031D0B
:101FF400FC2FFD2F092EFF2FFF2F0800FF1B0A289F
:1020040083137F1883170008840A0319FF0A080042
:102014007F087F398A000408840A0319FF0A8200B2
:1020240040344B340134E234C0344B340034003493
:10203400D034FC348C34023499340034393441348F
:10204400F9349E3486340B34243406347F34A63475
:1020540000340034003400340034003400340034DC
:1020640000340034003400340034003400340034CC
:1020740000340034003400340034003400340034BC
:10208400003473341234003400348034B4343634BD
:1020940000340F3401343F3402343F340334033406
:1020A4000434FF3405341734063401340734073458
:1020B40008340034093400340C34C3340D34C434CB
:1020C4000E34C5340F34C634113420341234203461
:1020D400133420341434203415342034163420348A
:1020E400173400341C343F341D3407344134203455
:1020F4000834043481342034CF34F734FE34FF34CC
:10210400FF34013400340A34003464340034E834D5
:1021140003341034273401340034103400340034D0
:102124000134003410343434433410341034013462
:102134003934383437343634C2341C343F341D34E3
:1021440007345634733474346F34723461346734FE
:10215400653420344F344B3420346F34723420349B
:102164006D346534613473347534723465342034B9
:1021740073346B34693470347034653464343A3491
:102184002034253464340D340A3400345634533442
:1021940074346F3472346134673465343A342034BF
:1021A40025346434203420343D343E3420346E34B9
:1021B4006F34743420344F344B340D340A340034C7
:1021C4004E346F34203464346134743461342034D4
:1021D400733465346E3474343A34203445345234B0
:1021E40052344F34523420340D340A342034003401
:1021F4005634733474346F347234613467346534F0
:10220400203474346F346F3420346C346F34773446
:102214003A342034253464340D340A3400345334CD
:102224006C34653465347034203463346F347534FD
:102234006E3474346534723420343D34203425349F
:1022440064340D340A34003453346C3465346534E6
:102254007034203463346F3475346E3474346534BC
:1022640072343A342034253458340D340A3400346A
:102274004534633463346F346D34693420346E34DC
:1022840065346C346C342734493453345234213437
:102294000D340A34003453346C346534653470348A
:1022A4003A3420342534643420346F346E3420348A
:1022B400253464340D340A34003430343134323447
:1022C40033343434353436343734383439344134AF
:1022D4004234433444344534463400344434613461
:1022E400743461342034733465346E3474343A3461
:1022F40020344F344B3420340D340A3400345234F7
:102304006534633465346934763469346E346734DF
:102314003A3420340034533465346E3464346934CC
:102324006E3467343A34203400340A340D340A34B9
:0A2334000D34003425345834003411
:02400E00F5FFBC
:00000001FF
