:060000000A128A11122809
:10000800FE00030EF4000408F5000A08F600831247
:1000180003137F08F7000A128A150B2C0A128A1597
:10002800C22A033083120313AB000830AA007830C9
:10003800A900A90B1D28AA0B1D28AB0B1D280030F1
:100048000A128A155D220A128A1183120313BC014F
:1000580014303C02031C3128322834285C285C28E0
:1000680003143C0D393E84000A128A116E270A12C5
:100078008A11A9002908A3003C08AA002A07393ECA
:1000880084000A128A116E270A128A1120380A126D
:100098008A15E3200A128A11013083120313A9007A
:1000A8002908BC0714303C02031C5B285C28342850
:1000B800BD0105303D02031C6228632865287F289E
:1000C8007F283D08723E84000A128A116E270A12A0
:1000D8008A11A9003D08303E840029088313800056
:1000E8000130A9002908BD0705303D02031C7D2801
:1000F8007E2865287F283030A9002908A30005300C
:10010800AA002A08A4002A300A128A15DD210A1238
:100118008A1183120313BD0105303D02031C952883
:1001280096289828B228B2283D08773E84000A12FB
:100138008A116E270A128A11A9003D08303E8400F0
:100148002908831380000130A9002908BD0705305C
:100158003D02031CB028B1289828B2283030A900E5
:100168002908A3000530AA002A08A4002B300A1287
:100178008A15DD210A128A1183120313BD01053085
:100188003D02031CC828C928CB28E528E5283D08D6
:10019800723E84000A128A116E270A128A11A90077
:1001A8003D08303E84002908831380000130A900EF
:1001B8002908BD0705303D02031CE328E428CB28A5
:1001C800E5283030A9002908A3000530AA002A082C
:1001D800A40030300A128A15DD210A128A111D3056
:1001E8000A128A1540210A128A1183120313A900E0
:1001F8002908BC00BC08031D022903290E297330F5
:10020800A9002908A30050300A128A15E3200A120F
:100218008A110E29163083120313A9002908BC007D
:1002280015303C02031819291A291C294329432986
:1002380003143C0D393E84000A128A116E270A12F3
:100248008A11A9002908A3003C08AA002A07393EF8
:1002580084000A128A116E270A128A1120380A129B
:100268008A15E3200A128A11013083120313BC0293
:1002780015303C020318412942291C294329013021
:100288000A128A155D220A128A1183120313BC010D
:1002980009303C02031C512952295429C429C42974
:1002A800BD0104303D02031C5A295B295D29A82998
:1002B800A8293C08A90001300310A90DFF3E031D21
:1002C80060290310290D013E84000A128A116E2745
:1002D8000A128A11AA000A128A116E270A128A11B2
:1002E800AB000A128A116E270A128A11AC000A1290
:1002F8008A116E270A128A11AD003D08AE0002303D
:100308000310AE0DFF3E031D842903102E0D013E80
:1003180092290310AD0CAC0CAB0CAA0CFF3E031DCC
:100328008D292A08AF003D08303E84002F0883132A
:1003380080000130A9002908BD0704303D02031CD4
:10034800A629A7295D29A8293030A9002908A300D2
:100358000430AA002A08A4003C0820380A128A158A
:10036800DD210A128A11013083120313A90029081A
:10037800BC0709303C02031CC229C3295429C429DB
:100388000930A9002908BC000E303C02031CCD2905
:10039800CE29D029412A412ABD0104303D02031C3F
:1003A800D629D729D929262A262A3C08A900013086
:1003B8000310A90DFF3E031DDC290310290D013E82
:1003C80084000A128A116E270A128A11AA000A12D8
:1003D8008A116E270A128A11AB000A128A116E2737
:1003E8000A128A11AC000A128A116E270A128A119F
:1003F800AD003D03FF3AAE0002300310AE0DFF3EE4
:10040800031D012A03102E0D183E013E102A031069
:10041800AD0CAC0CAB0CAA0CFF3E031D0B2A2A0832
:10042800AF003D08303E84002F0883138000013060
:10043800A9002908BD0704303D02031C242A252AE7
:10044800D929262A3030A9002908A3000430AA0097
:100458002A08A4003C0820380A128A15DD210A124D
:100468008A11013083120313A9002908BC070E3032
:100478003C02031C402A412AD029BD010B303D0211
:10048800031C472A482A4A2A642A642A3D08673EE8
:1004980084000A128A116E270A128A11A9003D08DF
:1004A800303E84002908831380000130A900290800
:1004B800BD070B303D02031C622A632A4A2A642ABC
:1004C8003030A9002908A3000B30AA002A08A4008C
:1004D8002E300A128A15DD210A128A11831203139B
:1004E800BD0104303D02031C7A2A7B2A7D2ABE2ADC
:1004F800BE2A113084000A128A116E270A128A1144
:10050800A9000A128A116E270A128A11AA000A1271
:100518008A116E270A128A11AB000A128A116E27F5
:100528000A128A11AC003D08AD0002300310AD0D6F
:10053800FF3E031D9A2A03102D0D013EA82A031021
:10054800AC0CAB0CAA0CA90CFF3E031DA32A29086E
:10055800AE003D08303E84002E0883138000013031
:10056800A9002908BD0704303D02031CBC2ABD2A86
:100578007D2ABE2A30080638A9002908B000303084
:10058800A9002908A3000430AA002A08A4002430DE
:100598000A128A15DD210A128A1183120313300800
:1005A800F939A9002908B0003030A9002908A300AA
:1005B8000430AA002A08A40024300A128A15DD2172
:1005C8000A128A11823083120313AA00DD30A900AF
:1005D800A90BEC2AAA0BEC2AF12A00300A128A1578
:1005E8005D220A128A1183120313071108000030D2
:1005F80083120313CA000030C9000030C80000305D
:10060800C7000A128A157A260A128A110A128A154E
:100618000F210A128A110A128A15F9200A128A1160
:100628000A128A15C7200A128A1100300A128A157E
:10063800B8210A128A11831203130808C30006306E
:100648000310C30CFF3E031D242B43080339C400C9
:100658004408D8006300322B6300322B0A128A1533
:100668008F220A128A1183120313C30058304302DF
:1006780003183F2B402B672B881A432B442B672BDF
:100688000A128A1530230A128A110A128A1597212A
:100698000A128A11831203132808B0002908B1002E
:1006A8002A08B2000030B3000030B4000030B500B2
:1006B8000A128A1575240A128A11031C642B652BE9
:1006C800302B672B672B0A128A1115200A128A1100
:1006D80000300A128A15B8210A128A11630083129F
:1006E8000313D201D3010A128A158F220A128A1122
:1006F80083120313C3004308D900822B01300A1266
:100708008A15B8210A128A110A128A158F220A122A
:100718008A1183120313C3004308DE005208C30082
:100728004308DF005308C3004308E0005608C3002D
:100738004308E1005008C3004308E2005108C30021
:100748004308E3000A128A1530230A128A11831219
:100758000313C3004308E4005A08A0005B08A10083
:100768005C08A2000A128A15D4250A128A1183127B
:1007780003132008C3004308E5005A08A0005B08DB
:10078800A1005C08A2000A128A15D4250A128A114F
:10079800831203132108C3004308E60059305E02A0
:1007A8000318D72BD82BDD2B881EDB2BDC2BFF2B3C
:1007B800DD2B0A128A15F8220A128A1183120313F2
:1007C800C3004308DD00D6175608C3004308E100FC
:1007D8005D30C3004308A8000A30C4004408A900DB
:1007E800B0300A128A15A7230A128A11831203133A
:1007F800D001D101102D0030B0000030B100003020
:10080800B20064080A128A1597210A128A11831203
:1008180003132808B3002908B4002A08B5000A12EF
:100828008A1575240A128A1103181B2C1C2C5F2C9C
:10083800831203135E085902031C232C242C5F2CFB
:100848000618272C282C5F2C05110A128A15F82265
:100858000A128A1183120313C3004308DD000A1227
:100868008A1530230A128A1183120313C30043081E
:10087800E4007F30C3004308D6055608C300430888
:10088800E1005D30C3004308A8000A30C4004408F2
:10089800A900B0300A128A15A7230A128A118312F6
:1008A800031305150030DA002030DB004130DC008E
:1008B800D001D101102D003083120313B000003095
:1008C800B1000030B20064080A128A1597210A1292
:1008D8008A11831203132808B3002908B4002A08D0
:1008E800B5000A128A1575240A128A1103187D2C7C
:1008F8007E2CAB2C831203135E085902031C852C33
:10090800862CAB2C061C892C8A2CAB2C7F30C30080
:100918004308D6055608C3004308E1005D30C3000C
:100928004308A8000A30C4004408A900B0300A12DD
:100938008A15A7230A128A11003083120313DA00DA
:100948002030DB004130DC00D001D101102D003017
:1009580083120313B0000030B1000030B200640805
:100968000A128A1597210A128A118312031328087A
:10097800B3002908B4002A08B5000A128A1575249C
:100988000A128A110318C92CCA2C102D83120313BA
:100998005E0859020318D12CD22C102D0618D52C1C
:1009A800D62C102D05110A128A15F8220A128A115E
:1009B80083120313C3004308DD000A128A1530238B
:1009C8000A128A1183120313C3004308E4007F301C
:1009D800C3004308D6055608C3004308E1005D304C
:1009E800C3004308A8000A30C4004408A900B03076
:1009F8000A128A15A7230A128A11831203130515EE
:100A08000030DA002030DB004130DC00D001D101B9
:100A1800102D102D102D102D8312031307110030E7
:100A28000A128A15B8210A128A11831203131010A8
:100A380010308F008E0110140A128A158F220A12A4
:100A48008A1183120313C3004308D900CB01692D0F
:100A58000A128A1180250A128A1183120313570871
:100A6800C300C4014308A6004408A7005508C500F0
:100A7800C601C509C609C50A0319C60A54084507A7
:100A8800A00046080318460AA10054085507A2000A
:100A9800A301A30D0A128A1531220A128A118312A0
:100AA80003132108A901A9072008A801A8070A1209
:100AB8008A15E3240A128A11831203132608D00721
:100AC8000318D10A2708D107692D0130CB07FF3059
:100AD8004B07C30057084302031C732D742D2C2D9C
:100AE800752D0130D2070318D30A0030D307822BA3
:100AF800822B0A128A1112280A128A158F220A12C8
:100B08008A1183120313BC003C08D9005A08A000BC
:100B18005B08A1005C08A2000A128A15D4250A12F3
:100B28008A11831203132108CD01CD072008CC01B7
:100B3800CC077A305902031CA22DA32D742E4D0820
:100B48004C040319A82DA92D742E881AAC2DAD2D8F
:100B5800742E831203179401A03093008312031399
:100B680010104D08BD004C08BC000230FF000310F7
:100B7800BC0DBD0DFF0BBB2DBC09BD09BC0A03197B
:100B8800BD0A3C08CE003D08CF004F088F004E0834
:100B98008E0010146300831203179301831203134A
:100BA80005150A128A158F220A128A118312031355
:100BB800BC003C08BE004E09BC004F09BD00BC0A81
:100BC8000319BD0A3C08003ECE003D080318013E4B
:100BD800603ECF0010104F088F004E088E00101492
:100BE8006300831203133E0859020318FC2DFD2DE0
:100BF800012E5908BC003C08BE005908BC003C083E
:100C0800D4003E08BC003C08D50059303E02031C05
:100C18000E2E0F2E412E5A08B0005B08B1005C085A
:100C2800B2004030B3001C30B4004630B5000A12A0
:100C38008A1575240A128A110318232E242E7F2E52
:100C4800663083120313A8008630A9003F30AA003B
:100C58005A08AB005B08AC005C08AD000A128A11A8
:100C680080260A128A11831203132808DA00290839
:100C7800DB002A08DC007F2E7F2E0030B000003019
:100C8800B1000030B2005A08B3005B08B4005C0839
:100C9800B5000A128A1575240A128A110318552EEE
:100CA800562E7F2E663083120313A8008630A900C3
:100CB8003F30AA005A08AB005B08AC005C08AD00E6
:100CC8000A128A1538270A128A1183120313280870
:100CD800DA002908DB002A08DC007F2E7F2E7F2E11
:100CE800101010308F008E0110146300831203134C
:100CF800D401D5017F2E0800831203132808AE0003
:100D08002908AF002A08B00003102F0D300DB100DC
:100D18003108B200B208031D922E932E9B2E00308C
:100D2800A8000030A9000030AA006D2F6D2F2B08F5
:100D3800AE002C08AF002D08B00003102F0D300DA9
:100D4800B1003108B700B708031DAB2EAC2EB42E86
:100D58000030A8000030A9000030AA006D2F6D2FC8
:100D680037087B3EAE002E08B2072808AE002908D7
:100D7800AF002A08B00010300310B00CAF0CAE0C56
:100D8800FF3E031DC02E2E08B1003108B7002B0806
:100D9800AE002C08AF002D08B00010300310B00CC6
:100DA800AF0CAE0CFF3E031DD22E2E08B100310849
:100DB800B7068030AE002E08B705A917AC17FF306C
:100DC800AB05FF30AC050030AD050030B300003096
:100DD800B4000030B5000730AE002E08B600F42E7F
:100DE800281CF72EF82E092F2B08B3072C080311FF
:100DF80003182C0A0319012FB4072D08031103182F
:100E08002D0A0319082FB507092F01300310AA0C62
:100E1800A90CA80CFF3E031D0A2F01300310AB0DCF
:100E2800AC0DAD0DFF3E031D122F0130B602031DA0
:100E38001E2F1F2FF42E202F0930AE002E08B600CB
:100E4800252F281C282F292F3A2F2B08B3072C08C9
:100E5800031103182C0A0319322FB4072D080311A4
:100E680003182D0A0319392FB5073A2F013003103B
:100E7800AA0CA90CA80CFF3E031D3B2F0130031040
:100E8800B50CB40CB30CFF3E031D432F0130B60262
:100E9800031D4F2F502F252F512F3308A000340842
:100EA800A1003508A2003208AE002E08A3003708BA
:100EB800AF002F08A4000A128A1557250A128A11B2
:100EC800831203132008A8002108A9002208AA00F9
:100ED8006D2F080007308A000408840A820700344E
:100EE80040344B340134E234C0344B3400340034E1
:100EF800D034FC348C3402349934003439344134DD
:100F0800F9349E3486340B34243406347F34A634C2
:100F18000034003400340034003400340034003429
:100F28000034003400340034003400340034003419
:100F38000034003400340034003400340034003409
:100F4800003473341234003400348034B43436340A
:100F580000340F3401343F3402343F340334033453
:100F68000434FF34053417340634013407340734A5
:100F780008340034093400340C34C3340D34C43418
:100F88000E34C5340F34C6341134203412342034AE
:100F980013342034143420341534203416342034D7
:100FA800173400341C343F341D34073441342034A2
:100FB8000834043481342034CF34F734FE34FF3419
:100FC800FF34343443341034103401343934383471
:100FD80037343634C2341C343F341D3407340034BB
:100FE8002034413400340034003400340034AA344E
:080FF800AA34AA34AA34003423
:101178001A340034013464008001840A0406031917
:1011880000340406C028831603131F088F3910384B
:101198009F0003309F0408007E088A007F088200B1
:1011A8000A128A15D0200A128A158000840A0408B7
:1011B8007D0603190034FF0A0319FE0AD428831296
:1011C8000313A400081124080A128A1527210A12F9
:1011D8008A158312031323080A128A1527210A1273
:1011E8008A1583120313081508008316031387173B
:1011F8000713023098008312031398018316031310
:10120800181118120C3099008312031398178316BB
:101218000313981608008312031394161412140863
:10122800F03902389400831603139413141782308C
:1012380083120313A100DD30A000A00B2129A10B0C
:1012480021292629080083120313A20022089300EB
:101258000330A1009730A000A00B3029A10B302942
:1012680035293629831203138C1D3B293C2936293D
:101278003D2913083F29080083120313A40008110D
:1012880024080A128A1527210A128A1500300A1220
:101298008A1527210A128A1583120313A30023082B
:1012A800A500081525085829080007300A128A15CC
:1012B80040210A128A1583120313A600A61E652967
:1012C800662974291030A6002608A30027300A12C0
:1012D8008A15E3200A128A15013077297729772998
:1012E800003077297729080007300A128A1540212B
:1012F8000A128A1583120313A600A61E84298529BB
:1013080093292030A6002608A30027300A128A1540
:10131800E3200A128A150130962996299629003069
:1013280096299629080083120313AF002F08AB00F3
:10133800AC01AD012B08A0002C08A1002D08A200CB
:101348008E30AE002E08A300A4010A128A15572574
:101358000A128A15831203132008A8002108A9007D
:101368002208AA00B729080083120313A700003037
:101378000A128A1540210A128A1583120313A6003D
:101388002608A800A708031DCA29CB29D029FD30A3
:10139800A6002608A805D229A814D2292808A6003C
:1013A8002608A30020300A128A15E3200A128A159B
:1013B800080083120313A600081126080A128A15CA
:1013C80027210A128A1583120313A701FF2923086C
:1013D8008400831300080A128A1527210A128A1525
:1013E800013083120313A5002508A3070130A500C7
:1013F8002508A707FF2924082702031C042A052A11
:10140800EB290815080083120313A301E1300A121F
:101418008A15E3200A128A15831203130711003074
:101428000A128A1540210A128A1583120313A6008C
:101438002608A7002708FE39A6002608A7002708BF
:10144800A6002608A30020300A128A15E3200A12F3
:101458008A15831203130715080083120313A401C6
:10146800A501362A201C392A3A2A402A2208A4072C
:101478000318A50A2308A50701300310A20DA30D20
:10148800FF3E031D412A01300310A10CA00CFF3EB2
:10149800031D482A21082004031D532A542A362AEA
:1014A800552A2508A101A1072408A001A0075C2A44
:1014B800080083120313A70007300A128A15402177
:1014C8000A128A1583120313A6002608A800280802
:1014D8008039A6002608A8002808031D742A792A3E
:1014E8002708031D782A832A792AA808031D7D2A3C
:1014F8007E2A8E2A2708031D822A8E2A832A5330A1
:10150800A6002608A30050300A128A15E3200A1202
:101518008A158E2A0800831603131D1783120313D6
:101528001F08C33914389F00831603131D08FC399C
:1015380002389D00831203131F1488150330A1007D
:101548009730A000A00BA62AA10BA62AAB2A8312CB
:1015580003139F14AF2A9F18B22AB32AAF2AB42ABA
:101568001E08A0002008A2001F108811831603136C
:101578001D13831203132208C12A0800FB01FC0172
:1015880083134C3084005A300A128A15BF200A127D
:101598008A15A0308400C0300A128A15BF200A12AA
:1015A8008A156730FD000730FE00F330FF005A301F
:1015B80084000A128A15D4200A128A150A128A157A
:1015C800BC200A128A15F8000A128A15BD200A12D0
:1015D8008A15F9000A128A15BE200A128A15FA001D
:1015E80083010A128A11FB2A831603131D1783121B
:1015F80003131F08C3391C389F00831603131D08E3
:10160800FC3901389D00082B9D1F0B2B0C2B082B38
:10161800831203131F1408140330A1009730A0008D
:10162800A00B142BA10B142B192B831203139F143B
:101638001D2B9F18202B212B1D2B222B1E08A000B1
:101648002008A2001F100810831603131D1383120D
:10165800031322082F2B0800831603131D17831268
:1016680003131F08C33918389F00831603131D0876
:10167800FC3901389D00402B9D1F432B442B402BE8
:10168800831203131F1408160330A1009730A0001B
:10169800A00B4C2BA10B4C2B512B831203139F1423
:1016A800552B9F18582B592B552B5A2B1E08A00029
:1016B8002008A2001F100812831603131D1383129B
:1016C80003132208672B080083120313A301E230D7
:1016D8000A128A15E3200A128A1507300A128A1597
:1016E80040210A128A1583120313A6002608A700B0
:1016F8002708A6002608A30027300A128A15E32027
:101708000A128A1583120313071100300A128A1568
:1017180040210A128A1583120313A6002608A7007F
:1017280027080138A6002608A7002708A6002608CB
:10173800A30020300A128A15E3200A128A158312A0
:1017480003130715080083120313AC000A128A1545
:1017580007220A128A1517300A128A1540210A121E
:101768008A1583120313AA002A08AD00AD1ABD2BEF
:10177800BE2B0A2C07112808AA002A08A30029084A
:10178800AB002B08A4002C080A128A15DD210A12C6
:101798008A158312031307150630AA00AA0BD22B49
:1017A80000008312031307110330AB009730AA001F
:1017B800AA0BDC2BAB0BDC2BE12B022C0A128A15B3
:1017C80078210A128A15003A0319EB2BEC2BF12B1E
:1017D8000A128A1568230A128A150A128A155921CB
:1017E8000A128A15003A0319FA2BFB2B022C0A124B
:1017F8008A1568230A128A15022C022C83120313F5
:10180800881C072C082CE22B0A2C0A2C08000C1C1C
:101818000E2C0F2C6A2C0130F0007008FC071030D9
:101828008F008E017C087A06031D1B2C1C2C682C4B
:1018380006080139F00006300310F00DFF3E031DC5
:10184800202C0808F10005300310F10CFF3E031DA1
:10185800282C07307105F20056088039720470048C
:10186800F3007308D6000808F00006300310F00CE7
:10187800FF3E031D3A2C70080339F1007108D800A7
:10188800582CD701D70A662C1430F0007008D700FE
:10189800662C2830F0007008D700662C7830F000ED
:1018A8007008D700662C662C5808003A0319452C96
:1018B800013A0319482C033A03194D2C013A03192C
:1018C800522C662CFC017B140C106A2C7708FF0044
:1018D80076088A0075088400740E8300FE0E7E0E5A
:1018E800090083120313B21F7A2C7B2CA12C003021
:1018F800B6000030B7008030B8003009B9003109AF
:10190800BA003209BB00B90A0319BA0A0319BB0A9B
:101918003908B6073A0803183A0F932C942CB707DE
:101928003B0803183B0F992C9A2CB8073608B000CF
:101938003708B1003808B200A12CB51FA42CA52C7B
:10194800CB2C0030B6000030B7008030B800330927
:10195800B9003409BA003509BB00B90A0319BA0A33
:101968000319BB0A3908B6073A0803183A0FBD2C01
:10197800BE2CB7073B0803183B0FC32CC42CB80771
:101988003608B3003708B4003808B500CB2C8030CF
:10199800B2068030B50635083202031DD92C34084A
:1019A8003102031DD92C330830020318DC2CDD2C3E
:1019B800DF2C0310E22C0314E22CE22C0800831223
:1019C8000313AC01A71FE92CEA2CF22CA609A709DE
:1019D800A60A0319A70AAC01AC0AF22CA91FF52C18
:1019E800F62C002DA809A909A80A0319A90A01308B
:1019F800AA002A08AC06002DAD01AE01270826046E
:101A08000319072D082D452DAB01AB0A172D013001
:101A18000310A60DA70DFF3E031D0C2D0130AA00D3
:101A28002A08AB07172DA71F1A2D1B2D0B2D1D2DAF
:101A38001D2D01300310AD0DAE0DFF3E031D1E2DF3
:101A480027082902031D2A2D26082802031C2D2DEC
:101A58002E2D362D2608A8022708031CA903A90243
:101A68002D14362D01300310A70CA60CFF3E031DC4
:101A7800372D0130AB02031D422D432D1D2D452D61
:101A8800452D2C08031D492D4F2DAD09AE09AD0A72
:101A98000319AE0A4F2D2E08A701A7072D08A60186
:101AA800A607562D0800831203132308031D5D2D76
:101AB800652D220821042004031D632D642D7B2D30
:101AC800652D0030A0000030A1000030A200D32D09
:101AD800D32D7B2D0130A5002508A3070130031065
:101AE800A20CA10CA00CFF3E031D732D7B2DFE3014
:101AF8002205031D802D812D6E2D992D992D0130E4
:101B0800A5002508A3070130A007003003180130FD
:101B1800A107003003180130A20701300310A20CFE
:101B2800A10CA00CFF3E031D922DFF302205031DC2
:101B38009E2D9F2D832DAC2DAC2D0130A30201309D
:101B48000310A00DA10DA20DFF3E031DA42DAC2D69
:101B5800A11FAF2DB02DA12D2318B32DB42DBA2D53
:101B6800FF30A0057F30A105FF30A2050310A30CAC
:101B78002308A500A601A70110300310A50DA60D86
:101B8800A70DFF3E031DC12D2508A0042608A104AA
:101B98002708A2042408031DD22DD32DA21708005C
:101BA800831203132008A4002108A5002208A60018
:101BB8000310250D260DA7002708AD00AD08031D4D
:101BC800E62DE72DF12D0030A3000030A2000030F3
:101BD800A1000030A000792E792E2008A400210849
:101BE800A5002208A60017300310A60CA50CA40C0B
:101BF800FF3E031DF82D2408A7002708A800A117F9
:101C0800FF30A005FF30A1050030A2052008A9007B
:101C18002108AA002208AB00AC018E30AD02AD1F2E
:101C2800162E172E3C2E2D08803A8F3E03181D2E97
:101C38001E2E292E0030A3000030A2000030A10083
:101C48000030A000792E792E292E01300310AC0C1B
:101C5800AB0CAA0CA90CFF3E031D2A2E0130A400D0
:101C68002408AD07031D392E3A2E292E602E602E2A
:101C780018302D02031C412E422E592E0030A3008D
:101C88000030A2000030A1000030A000792E792E8B
:101C9800592E0130A4000310A90DAA0DAB0DAC0DEF
:101CA800A40B4F2E0130AD02592EAD08031D5D2E39
:101CB8005E2E4D2E602E602E2808031D642E702E79
:101CC800A909AA09AB09AC09A90A0319AA0A03199F
:101CD800AB0A0319AC0A702E2C08A3002B08A2002B
:101CE8002A08A1002908A000792E080083160313EA
:101CF8001008CF392038900083160317071387136D
:101D0800831603130713091583160317091583167A
:101D180003130812831603170812831203130812F9
:101D28008316031305118316031705118312031372
:101D380005158316031707110811871288108316D3
:101D480003130711081187118712071688148312C5
:101D58000313071108158711871283160313081038
:101D68008316031708108316031309158316031720
:101D78000915831603130914831603170910831210
:101D88000313081083160313091483160317091481
:101D98008316031388118312031388118316031300
:101DA80088168316031788128316031308178817D3
:101DB80083160317081388138B170B17831603133F
:101DC8000C141030831203138F008E0110083F3952
:101DD8008038900030309004831603138F178312D5
:101DE8000313101590151014831603130614831685
:101DF800031706108316031389148316031789140F
:101E08008312031389108316031305108510851197
:101E180005128512051385138316031705108510FF
:101E280085110512851205138513831203130510F6
:101E38008510851105128512051385138316031362
:101E4800861006118611061286128316031786104D
:101E580006118611061286128312031386100611C4
:101E68008611061686120800831203132B08AE008B
:101E78002C08AF002D08B00003102F0D300DB10055
:101E88003108B600B608031D4A2F4B2F532F0030D8
:101E9800A8000030A9000030AA00FF2FFF2F280853
:101EA800AE002908AF002A08B00003102F0D300D2E
:101EB800B1003108B700B708031D632F642F6C2FDA
:101EC8000030A8000030A9000030AA00FF2FFF2F23
:101ED8000030B3000030B4000030B5008930370757
:101EE800AE002E08B6022B08AE002C08AF002D0855
:101EF800B00010300310B00CAF0CAE0CFF3E031D49
:101F08007E2F2E08B1003108B7002808AE00290836
:101F1800AF002A08B00010300310B00CAF0CAE0CA4
:101F2800FF3E031D902F2E08B1003108B706803000
:101F3800AE002E08B705AC17FF30AB05FF30AC0577
:101F48000030AD05A917FF30A805FF30A9050030FE
:101F5800AA051830AE002E08B200B22F01300310C7
:101F6800B30DB40DB50DFF3E031DB32F2A082D0286
:101F7800031DC42F29082C02031DC42F28082B0277
:101F8800031CC72FC82FD42F2808AB022908031C0D
:101F9800290FAC022A08031C2A0AAD023314D42FD5
:101FA80001300310AB0DAC0DAD0DFF3E031DD52F59
:101FB8000130B202031DE12FE22FB22FE32F3308C5
:101FC800A0003408A1003508A2003608AE002E088B
:101FD800A3003708AF002F08A4000A128A15572556
:101FE8000A128A15831203132008A8002108A900E1
:081FF8002208AA00FF2F0800D7
:04400E00F5FCCFFFEF
:00000001FF
