:060000000A128A11122809
:10000800FE00030E83120313AF000408B0000A08B1
:10001800B1007F08B2000A128A15ED2C0A128A155F
:10002800CA2B033083120313BE000830BD0078309A
:10003800BC00BC0B1D28BD0B1D28BE0B1D280030A5
:100048000A128A156E250A128A1183120313CF0128
:1000580014304F02031C31283228342864286428BD
:1000680003144F0D4A3E840090300318013EFF00F0
:100078000A168A1100200A128A11BC003C08B60030
:100088004F08BD003D074A3E840090300318013EEA
:10009800FF000A168A1100200A128A1120380A1253
:1000A8008A159E230A128A11013083120313BC0099
:1000B8003C08CF0714304F02031C632864283428F7
:1000C800D00105305002031C6A286B286D288B2844
:1000D8008B285008953E840090300318013EFF009D
:1000E8000A168A1100200A128A11BC005008433EE1
:1000F80084003C08831380000130BC003C08D00712
:1001080005305002031C89288A286D288B28433023
:10011800BC003C08B6000530BD003D08B7002A30D9
:100128000A128A1599240A128A1183120313D0011C
:1001380005305002031CA128A228A428C228C228DE
:1001480050089A3E840090300318013EFF000A16BA
:100158008A1100200A128A11BC005008433E84000C
:100168003C08831380000130BC003C08D0070530F0
:100178005002031CC028C128A428C2284330BC0050
:100188003C08B6000530BD003D08B7002B300A1208
:100198008A1599240A128A1183120313D001053093
:1001A8005002031CD828D928DB28F928F928500838
:1001B800953E840090300318013EFF000A168A110C
:1001C80000200A128A11BC005008433E84003C08F3
:1001D800831380000130BC003C08D0070530500272
:1001E800031CF728F828DB28F9284330BC003C0812
:1001F800B6000530BD003D08B70030300A128A1538
:1002080099240A128A111D300A128A15F9230A1232
:100218008A1183120313BC003C08CF00CF08031DCA
:100228001629172922297330BC003C08B600503023
:100238000A128A159E230A128A112229163083125D
:100248000313BC003C08CF0015304F0203182D29BA
:100258002E2930295F295F2903144F0D4A3E840057
:1002680090300318013EFF000A168A1100200A1276
:100278008A11BC003C08B6004F08BD003D074A3E45
:10028800840090300318013EFF000A168A110020EE
:100298000A128A1120380A128A159E230A128A1114
:1002A800013083120313CF0215304F0203185D2962
:1002B8005E2930295F2901300A128A156E250A1233
:1002C8008A1183120313CF0109304F02031C6D29D1
:1002D8006E297029E429E429D00104305002031C56
:1002E800762977297929C829C8294F08BC000130FF
:1002F8000310BC0DFF3E031D7C2903103C0D123E6C
:10030800840090300318013EFF000A168A1100206D
:100318000A128A11BD000A168A1100200A128A11CF
:10032800BE000A168A1100200A128A11BF000A1696
:100338008A1100200A128A11C0005008C100023038
:100348000310C10DFF3E031DA4290310410D013EFA
:10035800B2290310C00CBF0CBE0CBD0CFF3E031D20
:10036800AD293D08C2005008433E8400420883136B
:1003780080000130BC003C08D00704305002031C48
:10038800C629C7297929C8294330BC003C08B600CA
:100398000430BD003D08B7004F0820380A128A15FE
:1003A80099240A128A11013083120313BC003C08F5
:1003B800CF0709304F02031CE229E3297029E429F9
:1003C8000930BC003C08CF000E304F02031CED2959
:1003D800EE29F029652A652AD00104305002031C51
:1003E800F629F729F9294A2A4A2A4F08BC00013078
:1003F8000310BC0DFF3E031DFC2903103C0D123EEB
:10040800840090300318013EFF000A168A1100206C
:100418000A128A11BD000A168A1100200A128A11CE
:10042800BE000A168A1100200A128A11BF000A1695
:100438008A1100200A128A11C0005003FF3AC10035
:1004480002300310C10DFF3E031D252A0310410D84
:10045800183E013E342A0310C00CBF0CBE0CBD0C64
:10046800FF3E031D2F2A3D08C2005008433E84006A
:100478004208831380000130BC003C08D0070430D8
:100488005002031C482A492AF9294A2A4330BC0049
:100498003C08B6000430BD003D08B7004F082038BE
:1004A8000A128A1599240A128A1101308312031339
:1004B800BC003C08CF070E304F02031C642A652A93
:1004C800F029D0010B305002031C6B2A6C2A6E2ACB
:1004D8008C2A8C2A5008783E840090300318013EFC
:1004E800FF000A168A1100200A128A11BC0050085F
:1004F800433E84003C08831380000130BC003C0864
:10050800D0070B305002031C8A2A8B2A6E2A8C2AA9
:100518004330BC003C08B6000B30BD003D08B700B6
:100528002E300A128A1599240A128A11831203138B
:10053800D00104305002031CA22AA32AA52AE82AC3
:10054800E82A223084009030FF000A168A11002021
:100558000A128A11BC000A168A1100200A128A118E
:10056800BD000A168A1100200A128A11BE000A1656
:100578008A1100200A128A11BF005008C0000230F8
:100588000310C00DFF3E031DC42A0310400D013E99
:10059800D22A0310BF0CBE0CBD0CBC0CFF3E031DC1
:1005A800CD2A3C08C1005008433E8400410883130B
:1005B80080000130BC003C08D00704305002031C06
:1005C800E62AE72AA52AE82A43080638BC003C0898
:1005D800C3004330BC003C08B6000430BD003D08F1
:1005E800B70024300A128A1599240A128A11831234
:1005F80003134308F939BC003C08C3004330BC006E
:100608003C08B6000430BD003D08B70024300A128B
:100618008A1599240A128A11823083120313BD00A5
:10062800DD30BC00BC0B162BBD0B162B1B2B003072
:100638000A128A156E250A128A11831203130711EA
:100648000800433083120313C5004508C900B72CBE
:100658005008253A0319312B322B392B50080A122E
:100668008A11F3270A128A11B72CCB01482BD42CF4
:100678006C2B6C2BCB176C2B50080A128A11F327A2
:100688000A128A11B72C6C2B831203134208C60076
:100698004108C5000130C1070318C20A4608FF0017
:1006A800450884000A168A1100200A128A11D0000F
:1006B800003A0319D42C583A03193E2B3C3A031933
:1006C8006C2B0D3A03196C2B113A03193E2B402B56
:1006D80083120313CB1B712B722B8D2B49088400BB
:1006E80083130008CC00840A0008CD000230C5003E
:1006F8004508C907CD1F812B822B0A2C0330C50062
:100708004508CB04CC09CD09CC0A0319CD0A0A2C1B
:100718000A2C4908840083130008CC00840A0008C6
:10072800CD000230C5004508C9070A2C0A2CD001A3
:10073800D00A5008053A031DA22BA32BA52B132C76
:10074800132C5008C5004507833E840090300318D9
:10075800013EFF000A168A1100200A128A11C600FB
:100768000A168A1100200A128A11C70047084D028A
:10077800031DC02B46084C020318C32BC42BC62BE1
:10078800132C132C0130C5004508D0075008053A32
:10079800031DCF2BD02BA52B132C132CD001D00A43
:1007A8005008043A031DD92BDA2BDC2B132C132CFD
:1007B8005008C50045078D3E840090300318013E5F
:1007C800FF000A168A1100200A128A11C6000A16AA
:1007D8008A1100200A128A11C70047084D02031D1A
:1007E800F72B46084C020318FA2BFB2BFD2B132C76
:1007F800132C0130C5004508D0075008043A031DE2
:10080800062C072CDC2B132C132C132C4B088039AB
:10081800003A03199B2B803A0319D22B132C4B084F
:1008280003390319182C192C202C2D300A128A117F
:10083800F3270A128A11202C831203135008C500CB
:100848004508CA00A92C992C0A30BB000030BC000E
:100858004A08C5004507833E840090300318013ECE
:10086800FF000A168A1100200A128A11B3000A161C
:100878008A1100200A128A11B4004D08B601B60781
:100888004C08B501B5070A128A1157270A128A11AE
:10089800831203133408BE01BE073308BD01BD0728
:1008A8000A128A1522260A128A11831203133B0898
:1008B800303EC6004608D000A22C4A08C5004507AD
:1008C8008D3E840090300318013EFF000A168A11FD
:1008D80000200A128A11B3000A168A1100200A128F
:1008E8008A11B4004D08B601B6074C08B501B50722
:1008F8000A128A1157270A128A118312031333081E
:100908000F39C6004608C8004808F73E84009030F2
:100918000318013EFF000A168A1100200A128A11E4
:10092800C5004508D000A22CA22C4B088039003AFB
:100938000319282C803A0319612CA22C50080A129A
:100948008A11F3270A128A11A92CFF308312031384
:10095800C5004508CA074A08FF3A031DB42CB52C40
:10096800992CB72CB72C831203134208C6004108F0
:10097800C5000130C1070318C20A4608FF00450830
:1009880084000A168A1100200A128A11C700470833
:10099800D000D008031DD12CD22C2C2BD42CD42C35
:1009A8000800223083120313A2002208A600652E35
:1009B8002D08253A0319E12CE22CE92C2D080A12FE
:1009C8008A1592230A128A11652EA801F82C822E04
:1009D8001C2D1C2DA8171C2D2D080A128A159223D0
:1009E8000A128A11652E1C2D831203132108A300F5
:1009F8002008A2000130A0070318A10A2308FF005D
:100A0800220884000A168A1100200A128A11AD00F1
:100A1800003A0319822E583A0319EE2C3C3A03196E
:100A28001C2D0D3A03191C2D113A0319EE2CF02C2C
:100A380083120313A81B212D222D3D2D2608840087
:100A480083130008A900840A0008AA000230A20043
:100A58002208A607AA1F312D322DBA2D0330A20075
:100A68002208A804A909AA09A90A0319AA0ABA2DD9
:100A7800BA2D2608840083130008A900840A0008F8
:100A8800AA000230A2002208A607BA2DBA2DAD018D
:100A9800AD0A2D08053A031D522D532D552DC32D92
:100AA800C32D2D08A2002207833E8400903003182E
:100AB800013EFF000A168A1100200A128A11A300BB
:100AC8000A168A1100200A128A11A40024082A0290
:100AD800031D702D230829020318732D742D762DFC
:100AE800C32DC32D0130A2002208AD072D08053AF9
:100AF800031D7F2D802D552DC32DC32DAD01AD0AAE
:100B08002D08043A031D892D8A2D8C2DC32DC32D44
:100B18002D08A20022078D3E840090300318013E64
:100B2800FF000A168A1100200A128A11A3000A1669
:100B38008A1100200A128A11A40024082A02031D1F
:100B4800A72D230829020318AA2DAB2DAD2DC32DDF
:100B5800C32D0130A2002208AD072D08043A031D59
:100B6800B62DB72D8C2DC32DC32DC32D2808803944
:100B7800003A03194B2D803A0319822DC32D2808FA
:100B880003390319C82DC92DD02D2D300A128A1505
:100B980092230A128A11D02D831203132D08A20062
:100BA8002208A700572E472E0A30F8000030F90017
:100BB8002708A2002207833E840090300318013ED4
:100BC800FF000A168A1100200A128A11F0000A167C
:100BD8008A1100200A128A11F1002A08F301F3078A
:100BE8002908F201F2070A128A11A6270A128A11A5
:100BF8007108FB01FB077008FA01FA070A128A1547
:100C0800DF250A128A117808303E83120313A300E5
:100C18002308AD00502E2708A20022078D3E84002D
:100C280090300318013EFF000A168A1100200A12AC
:100C38008A11F0000A168A1100200A128A11F1009E
:100C48002A08F301F3072908F201F2070A128A11A8
:100C5800A6270A128A1170080F3983120313A300FA
:100C68002308A5002508F73E840090300318013EAC
:100C7800FF000A168A1100200A128A11A20022080F
:100C8800AD00502E502E28088039003A0319D82D6F
:100C9800803A03190F2E502E2D080A128A15922316
:100CA8000A128A11572EFF3083120313A20022085A
:100CB800A7072708FF3A031D622E632E472E652ECD
:100CC800652E831203132108A3002008A200013017
:100CD800A0070318A10A2308FF00220884000A16A7
:100CE8008A1100200A128A11A4002408AD00AD0858
:100CF800031D7F2E802EDC2C822E822E0800831668
:100D08000313A0000A128A15C3240A128A11173085
:100D18000A128A15F9230A128A1183120313D300BF
:100D2800530883160313A100A11A9B2E9C2E562F3D
:100D3800253083120313C1009130C2000A128A11B0
:100D480025230A128A1183160313A201D02E3430E8
:100D580083120313C1009130C200831603132208C3
:100D6800831203135107D300530884008313000828
:100D7800D400D5015408C3005508C4000A128A11CA
:100D880025230A128A11013083120313D300530852
:100D980083160313A207D02E831203135208831657
:100DA80003132202031CD92EDA2EAB2EDB2E313090
:100DB80083120313C1009130C2000A128A1125233D
:100DC8000A128A118312031307115108D30053081A
:100DD800B6005208D4005408B7008316031320083D
:100DE8000A128A1599240A128A1183120313071505
:100DF8000630D300D30BFE2E000083120313071115
:100E08000330D4009730D300D30B082FD40B082F0E
:100E18000D2F452F0A128A1531240A128A11003A19
:100E28000319172F182F292F083083120313C10015
:100E38009130C2000A128A1125230A128A110A1255
:100E48008A15A0250A128A11292F0A128A15122436
:100E58000A128A11003A0319322F332F452FA33073
:100E680083120313C1009030C2000A128A1125238D
:100E78000A128A110A128A15A0250A128A11452F08
:100E8800452F83120313881C4A2F4B2F0E2F4C2FEC
:100E98002F30C1009130C2000A128A1125230A128C
:100EA8008A11562F080083120313B901BA013408B6
:100EB80033040319602F612F9E2FB801B80A702FD1
:100EC80001300310B30DB40DFF3E031D652F013033
:100ED800B7003708B807702FB41F732F742F642F0B
:100EE800762F762F01300310B90DBA0DFF3E031D82
:100EF800772F34083602031D832F33083502031C6D
:100F0800862F872F8F2F3308B5023408031CB603AA
:100F1800B60239148F2F01300310B40CB30CFF3E06
:100F2800031D902F0130B802031D9B2F9C2F762F95
:100F38009E2F9E2F3A08B401B4073908B301B307AE
:100F4800A52F0800F601F701710870040319AD2FE9
:100F5800AE2FEB2FF501F50ABD2F01300310F00D70
:100F6800F10DFF3E031DB22F0130F4007408F507A0
:100F7800BD2FF11FC02FC12FB12FC32FC32F013099
:100F88000310F60DF70DFF3E031DC42F7108730201
:100F9800031DD02F70087202031CD32FD42FDC2F0F
:100FA8007008F2027108031CF303F3027614DC2FB5
:100FB80001300310F10CF00CFF3E031DDD2F013052
:100FC800F502031DE82FE92FC32FEB2FEB2F77082E
:100FD800F101F1077608F001F007F22F08008312FB
:100FE8000313B300F72F0C1EFA2FFB2FF72FFC2F3C
:080FF8003308990008000134E0
:1017000064008001840A0406031900340406812B56
:10171000831603131F088F3910389F0003309F046E
:101720001D170800F000942B831203130C1E992B35
:101730009A2B942B9B2B700899000800831203139B
:10174000B700081137080A128A1550240A128A15A0
:101750008312031336080A128A1550240A128A15B6
:101760008312031308150800831603138717071342
:101770000230980083120313980183160313181183
:1017800018120C3099008312031398178316031351
:1017900098160800DB01D801D901DA018313CD3096
:1017A0008400ED300A128A1580230A128A150A1263
:1017B0008A11FF270A128A15DC0083010A128A1592
:1017C000672E83120313941614121408F03902388A
:1017D0009400831603139413141782308312031397
:1017E000B400DD30B300B30BF32BB40BF32BF82BA9
:1017F000080083120313B700081137080A128A156C
:1018000050240A128A1500300A128A1550240A122E
:101810008A1583120313B6003608B8000815380875
:10182000112C080007300A128A15F9230A128A15AA
:1018300083120313B900B91E1E2C1F2C2D2C10303F
:10184000B9003908B60027300A128A159E230A12F9
:101850008A150130302C302C302C0030302C302CBC
:10186000080007300A128A15F9230A128A15831212
:101870000313B900B91E3D2C3E2C4C2C2030B9006E
:101880003908B60027300A128A159E230A128A15D3
:1018900001304F2C4F2C4F2C00304F2C4F2C080078
:1018A00083120313B500350893000B30B400623087
:1018B000B300B30B592CB40B592C00005F2C8312CE
:1018C00003138C1D642C652C5F2C662C0B30B4002C
:1018D0006230B300B30B6A2CB40B6A2C0000831285
:1018E00003131308732C080083120313BA0000308B
:1018F0000A128A15F9230A128A1583120313B900F2
:101900003908BB00BA08031D862C872C8C2CFD30AF
:10191000B9003908BB058E2CBB148E2C3B08B900CE
:101920003908B60020300A128A159E230A128A1539
:10193000080083120313B900081139080A128A1526
:1019400050240A128A1583120313BA01BB2C3608DD
:101950008400831300080A128A1550240A128A157B
:10196000013083120313B8003808B6070130B800FD
:101970003808BA07BB2C37083A02031CC02CC12C0C
:10198000A72C0815080083120313B601E1300A12D0
:101990008A159E230A128A15831203130711003039
:1019A0000A128A15F9230A128A1583120313B90041
:1019B0003908BA003A08FE39B9003908BA003A08BD
:1019C000B9003908B60020300A128A159E230A127F
:1019D0008A1583120313071508000C1CF02CF12C38
:1019E0000D2D0130AE002E08D8078F018E0158084A
:1019F0005C06031DFC2CFD2C0B2DD230A00090307A
:101A0000A1000A128A11D5240A128A15831203131F
:101A1000D8015B140B2D0C100D2D3208FF0031087E
:101A20008A00300884002F0E8300FE0E7E0E09000F
:101A3000831203131F08C33914389F00831603133E
:101A40001D08FC3902389D00831203131F148815EA
:101A50000330B4009730B300B30B2C2DB40B2C2DF6
:101A6000312D831203139F14352D9F18382D392DD6
:101A7000352D3A2D1E08B3003308B5001F1088110C
:101A80003508422D0800831203131F08C3391C3880
:101A90009F00831603131D08FC3901389D00831233
:101AA00003131F1489140D30B400FB30B300B30BC3
:101AB000572DB40B572D5C2D831203139F14602DEB
:101AC0009F18632D642D602D652D1E08B30033080B
:101AD000B5001F10891035086D2D080083120313FF
:101AE000BA0007300A128A15F9230A128A158312DE
:101AF0000313B9003908BB003B088039B900390825
:101B0000BB003B08031D852D8A2D3A08031D892D36
:101B1000942D8A2DBB08031D8E2D8F2D9F2D3A08E5
:101B2000031D932D9F2D942D5330B9003908B60015
:101B300050300A128A159E230A128A159F2D08001A
:101B400083120313B601E2300A128A159E230A1289
:101B50008A1507300A128A15F9230A128A15831288
:101B60000313B9003908BA003A08B9003908B600B9
:101B700027300A128A159E230A128A15831203132C
:101B8000071100300A128A15F9230A128A158312E6
:101B90000313B9003908BA003A080138B900390806
:101BA000BA003A08B9003908B60020300A128A157E
:101BB0009E230A128A158312031307150800790859
:101BC00078040319E42DE52D1A2EFD01FD0AF42DEC
:101BD00001300310F80DF90DFF3E031DE92D013012
:101BE000FC007C08FD07F42DF91FF72DF82DE82DDA
:101BF000FA2DFA2D79087B02031D002E78087A024F
:101C0000031C032E042E0B2E7808FA027908031CFD
:101C1000FB03FB020B2E01300310F90CF80CFF3E06
:101C2000031D0C2E0130FD02031D172E182EFA2D58
:101C30001A2E1A2E7B08F901F9077A08F801F8071D
:101C4000212E0800831203133C083B040319292E9C
:101C50002A2E5F2EC001C00A392E01300310BB0DA1
:101C6000BC0DFF3E031D2E2E0130BF003F08C007F4
:101C7000392EBC1F3C2E3D2E2D2E3F2E3F2E3C08D4
:101C80003E02031D452E3B083D02031C482E492EF3
:101C9000502E3B08BD023C08031CBE03BE02502E62
:101CA00001300310BC0CBB0CFF3E031D512E013054
:101CB000C002031D5C2E5D2E3F2E5F2E5F2E3E0860
:101CC000BC01BC073D08BB01BB07662E0800003005
:101CD00083160313CC000030CB000030CA00003064
:101CE000C9001008CF392038900083160317081058
:101CF00007138713831603130810831203130810A6
:101D0000831603130713831603170711081187128D
:101D100088108316031309158316031709158316F4
:101D200003130711081187118712071688148312ED
:101D300003130711081587118712831603138910DF
:101D400083160317891083160313091583160317C7
:101D50000915831603130914831603170910831634
:101D60000313091483160317091483160313881128
:101D70008312031388118B170B17831603130C148C
:101D8000831203138F018E0110083F3980389000B1
:101D900030309004831603138F178312031310152A
:101DA000901510140A128A15E1230A128A150A12D4
:101DB0008A15B4230A128A150A128A1588230A1270
:101DC0008A1500300A128A1574240A128A156300D3
:101DD00063000A128A1518250A128A158312031342
:101DE000D600D701560883160313C70083120313C6
:101DF000570883160313C8002B2F63000A128A1595
:101E000018250A128A1583120313D600D701560823
:101E100083160313C7008312031357088316031393
:101E2000C800BB3083120313C1009030C200831678
:101E30000313480883120313C401C4078316031352
:101E4000470883120313C301C3070A128A1125230B
:101E50000A128A152B2F831603134808803AFF00B5
:101E600080307F02031D362F78304702031C392F44
:101E70003A2FFD2E3B2FE53083120313C100903023
:101E8000C20083160313480883120313C401C40756
:101E900083160313470883120313C301C3070A12EF
:101EA0008A1125230A128A150A128A1115200A128C
:101EB0008A1500300A128A1574240A128A156300E2
:101EC000612F01300A128A1574240A128A15003013
:101ED00083160313CC000030CB000030CA00003062
:101EE000C9004C08803AFF000030803A7F02031D91
:101EF000832F00304B02031D832F00304A02031D45
:101F0000832F02304902031C862F872F892FC12F70
:101F1000C12F4908593E840083130008831203131C
:101F2000D600831603134908A73E840083120313C7
:101F300056088000013083160313C90700300318C8
:101F40000130CA07003003180130CB0700300318F6
:101F50000130CC074C08803AFF000030803A7F0205
:101F6000031DBC2F00304B02031DBC2F00304A0262
:101F7000031DBC2F02304902031CBF2FC02F892F25
:101F8000C12F0A128A1543250A128A1583120313D8
:101F9000D6005608D9000A128A1518250A128A1581
:101FA00083120313D6005608DA0079305A02031C54
:101FB000DA2FDB2FEA2F5930D6005608D100023035
:101FC000D7005708D200B0300A128A1183260A12AD
:101FD0008A15EA2F83120313071100300A128A159B
:101FE00074240A128A158312031310108F018E01B4
:101FF000101463006300612F612F0A128A111228E6
:10200000FF1B0A2883137F1883170008840A03190B
:10201000FF0A08007F087F398A000408840A031930
:10202000FF0A820040344B340134E234C0344B3474
:1020300000340034D034FC348C340234993400340D
:1020400039344134F9349E3486340B342434063424
:102050007F34A634003400340034003400340034BB
:1020600000340034003400340034003400340034D0
:1020700000340034003400340034003400340034C0
:1020800000340034003473341234003400348034AB
:10209000B434363400340F3401343F3402343F3426
:1020A000033403340434FF34053417340634013464
:1020B0000734073408340034093400340C34C33492
:1020C0000D34C4340E34C5340F34C63411342034C6
:1020D0001234203413342034143420341534203492
:1020E00016342034173400341C343F341D34073484
:1020F000413420340834043481342034CF34F7346C
:10210000FE34FF34FF34013400340A3400346434C4
:102110000034E834033410342734013400341034EC
:102120000034003401340034103434344334103477
:10213000103401343934383437343634C2341C3432
:102140003F341D3407344E346F34203464346134EA
:10215000743461342034733465346E3474343A34F6
:1021600020344534523452344F34523420340D34F8
:102170000A34203400345634733474346F34723477
:10218000613467346534203474346F346F342034F0
:102190006C346F3477343A342034253464340D345D
:1021A0000A3400344534633463346F346D34693435
:1021B00020346E3465346C346C34273449345334F1
:1021C000523421340D340A340034563473347434A8
:1021D0006F34723461346734653420344F344B3497
:1021E0003A342034253464340D340A340034303425
:1021F000313432343334343435343634373438349B
:102200003934413442344334443445344634003460
:1022100044346134743461342034733465346E343E
:1022200074343A3420344F344B3420340D340A346F
:102230000034523465346334653469347634693437
:102240006E3467343A3420340034533465346E3499
:10225000643469346E3467343A34203400340A34D8
:0E2260000D340A340D34003425345834003463
:04400E00F5FFCFFFEC
:00000001FF
