:060000000A128A11122809
:10000800FE00030E83120313B0000408B1000A08AF
:10001800B2007F08B3000A128A156E2C0A128A15DC
:10002800242B033083120313BF000830BE0078303E
:10003800BD00BD0B1D28BE0B1D28BF0B1D280030A1
:100048000A128A15F2220A128A1183120313D001A6
:1000580014305002031C31283228342864286428BC
:100068000314500D4A3E840090300318013EFF00EF
:100078000A168A1100200A128A11BD003D08B7002D
:100088005008BE003E074A3E840090300318013EE7
:10009800FF000A168A1100200A128A1120380A1253
:1000A8008A1543210A128A11013083120313BD00F5
:1000B8003D08D00714305002031C632864283428F4
:1000C800D10105305102031C6A286B286D288B2842
:1000D8008B285108953E840090300318013EFF009C
:1000E8000A168A1100200A128A11BD005108443EDE
:1000F80084003D08831380000130BD003D08D1070E
:1001080005305102031C89288A286D288B28443021
:10011800BD003D08B7000530BE003E08B8002A30D3
:100128000A128A151C220A128A1183120313D1019A
:1001380005305102031CA128A228A428C228C228DD
:1001480051089A3E840090300318013EFF000A16B9
:100158008A1100200A128A11BD005108443E840009
:100168003D08831380000130BD003D08D1070530EC
:100178005102031CC028C128A428C2284430BD004D
:100188003D08B7000530BE003E08B8002B300A1203
:100198008A151C220A128A1183120313D101053011
:1001A8005102031CD828D928DB28F928F928510836
:1001B800953E840090300318013EFF000A168A110C
:1001C80000200A128A11BD005108443E84003D08EF
:1001D800831380000130BD003D08D107053051026E
:1001E800031CF728F828DB28F9284430BD003D080F
:1001F800B7000530BE003E08B80030300A128A1534
:100208001C220A128A111D300A128A15A0210A120C
:100218008A1183120313BD003D08D000D008031DC6
:100228001629172922297330BD003D08B700503020
:100238000A128A1543210A128A11222916308312BA
:100248000313BD003D08D0001530500203182D29B6
:100258002E2930295F295F290314500D4A3E840056
:1002680090300318013EFF000A168A1100200A1276
:100278008A11BD003D08B7005008BE003E074A3E3F
:10028800840090300318013EFF000A168A110020EE
:100298000A128A1120380A128A1543210A128A1171
:1002A800013083120313D0021530500203185D2960
:1002B8005E2930295F2901300A128A15F2220A12B2
:1002C8008A1183120313D00109305002031C6D29CF
:1002D8006E297029E429E429D10104305102031C54
:1002E800762977297929C829C8295008BD000130FD
:1002F8000310BD0DFF3E031D7C2903103D0D123E6A
:10030800840090300318013EFF000A168A1100206D
:100318000A128A11BE000A168A1100200A128A11CE
:10032800BF000A168A1100200A128A11C0000A1694
:100338008A1100200A128A11C1005108C200023035
:100348000310C20DFF3E031DA4290310420D013EF8
:10035800B2290310C10CC00CBF0CBE0CFF3E031D1C
:10036800AD293E08C3005108443E84004308831366
:1003780080000130BD003D08D10704305102031C44
:10038800C629C7297929C8294430BD003D08B700C6
:100398000430BE003E08B800500820380A128A15FA
:1003A8001C220A128A11013083120313BD003D0872
:1003B800D00709305002031CE229E3297029E429F7
:1003C8000930BD003D08D0000E305002031CED2955
:1003D800EE29F029652A652AD10104305102031C4F
:1003E800F629F729F9294A2A4A2A5008BD00013076
:1003F8000310BD0DFF3E031DFC2903103D0D123EE9
:10040800840090300318013EFF000A168A1100206C
:100418000A128A11BE000A168A1100200A128A11CD
:10042800BF000A168A1100200A128A11C0000A1693
:100438008A1100200A128A11C1005103FF3AC20032
:1004480002300310C20DFF3E031D252A0310420D82
:10045800183E013E342A0310C10CC00CBF0CBE0C60
:10046800FF3E031D2F2A3E08C3005108443E840066
:100478004308831380000130BD003D08D1070430D4
:100488005102031C482A492AF9294A2A4430BD0046
:100498003D08B7000430BE003E08B80050082038B8
:1004A8000A128A151C220A128A11013083120313B8
:1004B800BD003D08D0070E305002031C642A652A8F
:1004C800F029D1010B305102031C6B2A6C2A6E2AC9
:1004D8008C2A8C2A5108783E840090300318013EFB
:1004E800FF000A168A1100200A128A11BD0051085D
:1004F800443E84003D08831380000130BD003D0860
:10050800D1070B305102031C8A2A8B2A6E2A8C2AA7
:100518004430BD003D08B7000B30BE003E08B800AF
:100528002E300A128A151C220A128A11831203130A
:10053800D10104305102031CA22AA32AA52AE82AC1
:10054800E82A223084009030FF000A168A11002021
:100558000A128A11BD000A168A1100200A128A118D
:10056800BE000A168A1100200A128A11BF000A1654
:100578008A1100200A128A11C0005108C1000230F5
:100588000310C10DFF3E031DC42A0310410D013E97
:10059800D22A0310C00CBF0CBE0CBD0CFF3E031DBD
:1005A800CD2A3D08C2005108443E84004208831306
:1005B80080000130BD003D08D10704305102031C02
:1005C800E62AE72AA52AE82A44080638BD003D0895
:1005D800C4004430BD003D08B7000430BE003E08EA
:1005E800B80024300A128A151C220A128A118312B2
:1005F80003134408F939BD003D08C4004430BD0068
:100608003D08B7000430BE003E08B80024300A1286
:100618008A151C220A128A11823083120313BE0023
:10062800DD30BD00BD0B162BBE0B162B1B2B00306F
:100638000A128A15F2220A128A1183120313071169
:100648000800003083160313D6000030D5000030B0
:10065800D4000030D3001008CF392038900083161A
:100668000317071387138316031307138316031738
:1006780007110811871288108316031309158316AA
:100688000317091583160313071108118711871219
:100698000716881483120313071108158711871288
:1006A8008316031308108316031708108316031301
:1006B80009158316031709158316031309148316DE
:1006C8000317091083120313081083160313091460
:1006D800831603170914831603138811831203134F
:1006E8008811831603138816831603178812831636
:1006F80003130817881783160317081388138B1713
:100708000B17831603130C141030831203138F0076
:100718008E0110083F3980389000303090048316DD
:1007280003138F17831203131015901510148316D3
:1007380003138510051185110512851205138513FC
:1007480083160317851005118511051285120513E7
:10075800851383120313851005118511051285125F
:1007680005138513831603130610861006118611C8
:1007780006128612831603170610861006118611B4
:1007880006128612831203130610861006118611AC
:100798000616861283160313081283160317081207
:1007A8008312031308128316031389108316031781
:1007B8008910831203138910080883160313AC00E9
:1007C80004300310AC0CFF3E031DE52B2C08AD00D4
:1007D8002D08E5000A128A156F210A128A110A12D9
:1007E8008A1559210A128A110A128A150E210A122B
:1007F8008A1100300A128A15F7210A128A11831207
:100808000313080883160313AC0006300310AC0C5E
:10081800FF3E031D0A2C2C080339AD002D08831256
:100828000313D6002630C2009130C3005608831641
:100838000313AC00AD012C0883120313C400831604
:1008480003132D0883120313C5000A128A11002608
:100858000A128A11630063000A128A1570220A12AA
:100868008A1183160313AC00AD012C08D9002D089A
:10087800DA00662C63000A128A1570220A128A119D
:1008880083160313AC00AD012C08D9002D08DA003B
:10089800FA3083120313C2009030C3008316031387
:1008A8005A0883120313C501C50783160313590891
:1008B80083120313C401C4070A128A1100260A12FC
:1008C8008A11662C0030831603135A026E300319FE
:1008D80059020318702C712C792C83120313881E6B
:1008E800762C772C3E2C792C792CA3308312C200DD
:1008F8009030C300831603135A0883120313C501EB
:10090800C50783160313590883120313C401C407C8
:100918000A128A1100260A128A110A128A1115204F
:100928000A128A1100300A128A15F7210A128A114E
:10093800630083160313D701D801A22C01300A12D1
:100948008A15F7210A128A11003083160313D6007C
:100958000030D5000030D4000030D3005608803A6B
:10096800FF000030803A7F02031DC42C003055027E
:10097800031DC42C00305402031DC42C0230530242
:10098800031CC72CC82CCA2CFA2CFA2C5308DE3EA0
:10099800840083130008AC005308B03E84002C0880
:1009A80080000130D307003003180130D40700302D
:1009B80003180130D507003003180130D607560850
:1009C800803AFF000030803A7F02031DF52C00308A
:1009D8005502031DF52C00305402031DF52C02307E
:1009E8005302031CF82CF92CCA2CFA2C0A128A156B
:1009F8009B220A128A1183160313AC002C08DE000E
:100A08000A128A1570220A128A1183160313AC007F
:100A18002C08DF005708AC002C08E0005808AC0090
:100A28002C08E1006508AC002C08E2005C08AC006A
:100A3800AD01AC09AD09AC0A0319AD0A5B082C0776
:100A480083120313B400831603132D0803182D0A09
:100A580083120313B500831603135B085C07831224
:100A68000313B600B701B70D0A128A15C6220A1277
:100A78008A1183120313350883160313D101D10792
:100A880083120313340883160313D001D0075008C8
:100A9800AC002C08E3005108AC002C08E4006F30CF
:100AA8005F020318582D592D602D83120313881ED9
:100AB8005E2D5F2D712D602DDE3083160313AC0083
:100AC8002C08A0000730AD002D08A100B0300A1294
:100AD8008A1576250A128A118C2DC83083120313C1
:100AE800C2009030C300831603135F08AC00AD0149
:100AF8002C0883120313C400831603132D088312D2
:100B08000313C5000A128A1100260A128A118C2DB5
:100B180083120313071100300A128A15F7210A12EB
:100B28008A1183120313101010308F008E011014D5
:100B38001130C2009130C300560883160313AC006D
:100B4800AD012C0883120313C400831603132D0868
:100B580083120313C5000A128A1100260A128A1189
:100B680083160313D201E72D4D3083120313C200FD
:100B78009130C300831603135208AC00AD012C0852
:100B880083120313C400831603132D08831203135F
:100B9800C500831603135D08AE00AF012E0883124B
:100BA8000313C600831603132F0883120313C70009
:100BB8000A128A1100260A128A110A128A15E524D5
:100BC8000A128A11E72D013083160313D207FF306A
:100BD8005207AC005D082C02031CF32DF42DB82D30
:100BE800F52D0130D7070318D80A0030D807A22CF2
:100BF800A22C0A128A111228443083120313C80047
:100C08004808CC00922F5308253A03190C2E0D2EB4
:100C1800142E53080A128A1524210A128A11922FB7
:100C2800CE01232EAF2F472E472ECE17472E53081F
:100C38000A128A1524210A128A11922F472E83122A
:100C480003134308C9004208C8000130C20703184B
:100C5800C30A4908FF00480884000A168A110020C0
:100C68000A128A11D300003A0319AF2F583A031910
:100C7800192E3C3A0319472E0D3A0319472E113AFB
:100C88000319192E1B2E83120313CE1B4C2E4D2E27
:100C9800682E4C08840083130008CF00840A0008DB
:100CA800D0000230C8004808CC07D01F5C2E5D2E4B
:100CB800E52E0330C8004808CE04CF09D009CF0A72
:100CC8000319D00AE52EE52E4C088400831300088A
:100CD800CF00840A0008D0000230C8004808CC07BA
:100CE800E52EE52ED301D30A5308053A031D7D2EC0
:100CF8007E2E802EEE2EEE2E5308C8004807833E27
:100D0800840090300318013EFF000A168A11002063
:100D18000A128A11C9000A168A1100200A128A11B9
:100D2800CA004A085002031D9B2E49084F020318A7
:100D38009E2E9F2EA12EEE2EEE2E0130C8004808C2
:100D4800D3075308053A031DAA2EAB2E802EEE2E8C
:100D5800EE2ED301D30A5308043A031DB42EB52E40
:100D6800B72EEE2EEE2E5308C80048078D3E84009D
:100D780090300318013EFF000A168A1100200A125B
:100D88008A11C9000A168A1100200A128A11CA009B
:100D98004A085002031DD22E49084F020318D52EC7
:100DA800D62ED82EEE2EEE2E0130C8004808D307D6
:100DB8005308043A031DE12EE22EB72EEE2EEE2E36
:100DC800EE2E4E088039003A0319762E803A031920
:100DD800AD2EEE2E4E0803390319F32EF42EFB2EFA
:100DE8002D300A128A1524210A128A11FB2E831229
:100DF80003135308C8004808CD00842F742F0A3005
:100E0800BC000030BD004D08C8004807833E840080
:100E180090300318013EFF000A168A1100200A12BA
:100E28008A11B4000A168A1100200A128A11B50024
:100E38005008B701B7074F08B601B6070A128A115A
:100E4800B0270A128A11831203133508BF01BF079E
:100E58003408BE01BE070A128A15DC230A128A1159
:100E6800831203133C08303EC9004908D3007D2F84
:100E78004D08C80048078D3E840090300318013E95
:100E8800FF000A168A1100200A128A11B4000A16F5
:100E98008A1100200A128A11B5005008B701B70755
:100EA8004F08B601B6070A128A11B0270A128A112A
:100EB8008312031334080F39C9004908CB004B08C3
:100EC8005F3E840091300318013EFF000A168A1124
:100ED80000200A128A11C8004808D3007D2F7D2FF0
:100EE8004E088039003A0319032F803A03193C2F22
:100EF8007D2F53080A128A1524210A128A11842F79
:100F0800FF3083120313C8004808CD074D08FF3A85
:100F1800031D8F2F902F742F922F922F831203135C
:100F28004308C9004208C8000130C2070318C30AB1
:100F38004908FF00480884000A168A1100200A128E
:100F48008A11CA004A08D300D308031DAC2FAD2F5D
:100F5800072EAF2FAF2F080083120313BA01BB016E
:100F6800350834040319B92FBA2FF72FB901B90A74
:100F7800C92F01300310B40DB50DFF3E031DBE2F60
:100F88000130B8003808B907C92FB51FCC2FCD2FAD
:100F9800BD2FCF2FCF2F01300310BA0DBB0DFF3E51
:100FA800031DD02F35083702031DDC2F3408360205
:100FB800031CDF2FE02FE82F3408B6023508031C86
:100FC800B703B7023A14E82F01300310B50CB40C7C
:100FD800FF3E031DE92F0130B902031DF42FF52F41
:100FE800CF2FF72FF72F3B08B501B5073A08B40103
:060FF800B407FE2F080003
:1011F80064340034013400340034003400340034E2
:10120800AA34AA3464008001840A0406031900344D
:1012180004060729831603131F088F3910389F0007
:1012280003309F041D170800F0001A2983120313C6
:101238000C1E1F2920291A29212970089900080045
:1012480083120313B40028290C1E2B292C292829C2
:101258002D293408990008007E088A007F0882003A
:101268000A128A1530210A128A158000840A040895
:101278007D0603190034FF0A0319FE0A3429831274
:101288000313B800081138080A128A1587210A12B0
:101298008A158312031337080A128A1587210A123E
:1012A8008A1583120313081508008316031387177A
:1012B800071302309800831203139801831603134F
:1012C800181118120C3099008312031398178316FB
:1012D80003139816080083120313941614121408A3
:1012E800F0390238940083160313941314178230CC
:1012F80083120313B500DD30B400B40B8129B50B9C
:1013080081298629080083120313B6003608930042
:101318000330B5009730B400B40B9029B50B902971
:1013280095299629831203138C1D9B299C2996299C
:101338009D2913089F29080083120313B800081178
:1013480038080A128A1587210A128A1500300A12EB
:101358008A1587210A128A1583120313B7003708E2
:10136800B90008153908B829080007300A128A1583
:10137800A0210A128A1583120313BA00BA1EC529BE
:10138800C629D4291030BA003A08B70027300A1203
:101398008A1543210A128A150130D729D729D72956
:1013A8000030D729D729080007300A128A15A0214A
:1013B8000A128A1583120313BA00BA1EE429E52912
:1013C800F3292030BA003A08B70027300A128A15E4
:1013D80043210A128A150130F629F629F629003028
:1013E800F629F629080083120313BB0000300A12FD
:1013F8008A15A0210A128A1583120313BA003A0823
:10140800BC00BB08031D092A0A2A0F2AFD30BA00AE
:101418003A08BC05112ABC14112A3C08BA003A083B
:10142800B70020300A128A1543210A128A150800CB
:1014380083120313BA0008113A080A128A15872181
:101448000A128A1583120313BB013E2A3708840047
:10145800831300080A128A1587210A128A15013097
:1014680083120313B9003908B7070130B9003908E6
:10147800BB073E2A38083B02031C432A442A2A2A6F
:101488000815080083120313B701E1300A128A1500
:1014980043210A128A1583120313071100300A1216
:1014A8008A15A0210A128A1583120313BA003A0872
:1014B800BB003B08FE39BA003A08BB003B08BA003B
:1014C8003A08B70020300A128A1543210A128A15F1
:1014D8008312031307150800831203131F08C33967
:1014E80014389F00831603131D08FC3902389D0029
:1014F800831203131F1488150330B5009730B40006
:10150800B40B842AB50B842A892A831203139F14E7
:101518008D2A9F18902A912A8D2A922A1E08B40093
:101528003408B6001F10881136089A2A080083125A
:1015380003131F08C3391C389F00831603131D08A3
:10154800FC3901389D00831203131F1408140D3051
:10155800B500FB30B400B40BAF2AB50BAF2AB42AE0
:10156800831203139F14B82A9F18BB2ABC2AB82ACF
:10157800BD2A1E08B4003408B6001F10081036082B
:10158800C52A080083120313B801B901CB2A341CF9
:10159800CE2ACF2AD52A3608B8070318B90A370839
:1015A800B90701300310B60DB70DFF3E031DD62A4B
:1015B80001300310B50CB40CFF3E031DDD2A3508BD
:1015C8003404031DE82AE92ACB2AEA2A3908B50196
:1015D800B5073808B401B407F12A080083120313C9
:1015E800BB0007300A128A15A0210A128A15831235
:1015F8000313BA003A08BC003C088039BA003A081C
:10160800BC003C08031D092B0E2B3B08031D0D2BAA
:10161800182B0E2BBC08031D122B132B232B3B0856
:10162800031D172B232B182B5330BA003A08B70089
:1016380050300A128A1543210A128A15232B0800F2
:10164800DB01D401D501D601D70183160313D701D5
:10165800D801D901DA01DB01DC01DD018317903003
:101668008400B0300A128A1506210A128A158313DB
:10167800E530FD000830FE00FF30FF00DE3084005A
:101688000A128A1534210A128A155B30FD000830C7
:10169800FE00FC30FF00583084000A128A153421FD
:1016A8000A128A1583010A128A11252B8312031341
:1016B800B701E2300A128A1543210A128A15073047
:1016C8000A128A15A0210A128A1583120313BA0076
:1016D8003A08BB003B08BA003A08B70027300A129C
:1016E8008A1543210A128A15831203130711003041
:1016F8000A128A15A0210A128A1583120313BA0046
:101708003A08BB003B080138BA003A08BB003B085E
:10171800BA003A08B70020300A128A1543210A1283
:101728008A1583120313071508007908780403192A
:101738009E2B9F2BD42BFD01FD0AAE2B01300310ED
:10174800F80DF90DFF3E031DA32B0130FC007C08AA
:10175800FD07AE2BF91FB12BB22BA22BB42BB42B48
:1017680079087B02031DBA2B78087A02031CBD2B6B
:10177800BE2BC52B7808FA027908031CFB03FB0271
:10178800C52B01300310F90CF80CFF3E031DC62BC6
:101798000130FD02031DD12BD22BB42BD42BD42B1B
:1017A8007B08F901F9077A08F801F807DB2B08002C
:1017B800831203133D083C040319E32BE42B192C73
:1017C800C101C10AF32B01300310BC0DBD0DFF3E52
:1017D800031DE82B0130C0004008C107F32BBD1FD3
:1017E800F62BF72BE72BF92BF92B3D083F02031DAE
:1017F800FF2B3C083E02031C022C032C0A2C3C083D
:10180800BE023D08031CBF03BF020A2C01300310AF
:10181800BD0CBC0CFF3E031D0B2C0130C102031D87
:10182800162C172CF92B192C192C3F08BD01BD07B4
:101838003E08BC01BC07202C0800F601F70171081E
:1018480070040319282C292C662CF501F50A382C6C
:1018580001300310F00DF10DFF3E031D2D2C01305A
:10186800F4007408F507382CF11F3B2C3C2C2C2C69
:101878003E2C3E2C01300310F60DF70DFF3E031DE4
:101888003F2C71087302031D4B2C70087202031C55
:101898004E2C4F2C572C7008F2027108031CF303CE
:1018A800F3027614572C01300310F10CF00CFF3EB4
:1018B800031D582C0130F502031D632C642C3E2CAB
:1018C800662C662C7708F101F1077608F001F0071D
:1018D8006D2C08000C1C712C722CDA2C0130AE0017
:1018E8002E08D70710308F008E0157085A06031D9F
:1018F8007E2C7F2CD82C3A30A0009130A1000A12FF
:101908008A1552260A128A15831203130808AE0094
:1019180004300310AE0CFF3E031D8D2C2E08AF00C3
:101928002F0883160313E500831203130808AE007B
:1019380006300310AE0CFF3E031D9D2C2E08033904
:10194800AF002F08D600C62C83160313DD01DD0A6D
:10195800D52C14308312AE002E0883160313DD0035
:10196800D52C28308312AE002E0883160313DD0011
:10197800D52C78308312AE002E0883160313DD00B1
:10198800D52CD52C83125608003A0319A82C013AF5
:101998000319AD2C033A0319B52C013A0319BD2CD0
:1019A800D52C8312D7015B140C10DA2C3308FF00F6
:1019B80032088A0031088400300E8300FE0E7E0E45
:1019C80009000A128A1570220A128A158312031353
:1019D800B700B801370883160313D900831203131D
:1019E800380883160313DA0000305A027A300319D4
:1019F8005902031C002D012D5D2D83120313590874
:101A080058040319082D092D5D2D881A0C2D0D2D4C
:101A18005D2D061210105908B8005808B70002309A
:101A2800FF000310B70DB80DFF0B152DB709B80946
:101A3800B70A0319B80A3708D4003808D50055087A
:101A48008F0054088E00101463000A128A15702241
:101A58000A128A1583120313B7003708B90006164D
:101A68005409B7005509B800B70A0319B80A370866
:101A7800003ED40038080318013E103ED50010106F
:101A880055088F0054088E00101463008316031342
:101A9800590883120313B700370883160313DB00B2
:101AA800831203133908B700370883160313DC00C1
:101AB800752D8312101010308F008E0110146300E2
:101AC800FF3083120313B700370883160313DB00B4
:101AD800FF3083120313B700370883160313DC00A3
:101AE800752D080083160313A5000A128A154622CD
:101AF8000A128A1517300A128A15A0210A128A15A5
:101B080083160313A2002208A600A61A8C2D8D2D79
:101B1800512E8D3083120313C2009130C3000A1274
:101B28008A1100260A128A1583160313A701C32DEA
:101B38009C3083120313C2009130C3008316031331
:101B480027082007A2002208840083130008A300A6
:101B5800A401230883120313C40083160313240863
:101B680083120313C5000A128A1100260A128A1565
:101B7800013083160313A2002208A707C32D2108EA
:101B88002702031CC82DC92D9C2DCA2D99308312FC
:101B98000313C2009130C3000A128A1100260A12E8
:101BA8008A15831203130711831603132008A20052
:101BB800220883120313B700831603132108A30016
:101BC800230883120313B8008316031325080A1287
:101BD8008A151C220A128A15831203130715063068
:101BE80083160313A200A20BF72D00008312031320
:101BF8000711033083160313A3009730A200A20B2A
:101C0800032EA30B032E082E402E0A128A15D82164
:101C18000A128A15003A0319122E132E242E703038
:101C280083120313C2009130C3000A128A110026DE
:101C38000A128A150A128A155A230A128A15242E9C
:101C48000A128A15B9210A128A15003A03192D2E8B
:101C58002E2E402EE23083120313C2009030C300B0
:101C68000A128A1100260A128A150A128A155A239C
:101C78000A128A15402E402E83120313881C452E03
:101C8800462E092E472E9730C2009130C3000A1203
:101C98008A1100260A128A15512E08002230831252
:101CA8000313A2002208A600E22F2D08253A0319E3
:101CB8005E2E5F2E662E2D080A128A1518210A122A
:101CC8008A15E22FA801752EFF2F992E992EA81795
:101CD800992E2D080A128A1518210A128A15E22F40
:101CE800992E831203132108A3002008A2000130B3
:101CF800A0070318A10A2308FF00220884000A1677
:101D08008A1100200A128A15AD00003A0319FF2F24
:101D1800583A03196B2E3C3A0319992E0D3A0319B8
:101D2800992E113A03196B2E6D2E83120313A81BDB
:101D38009E2E9F2EBA2E2608840083130008A90021
:101D4800840A0008AA000230A2002208A607AA1FD7
:101D5800AE2EAF2E372F0330A2002208A804A909FF
:101D6800AA09A90A0319AA0A372F372F26088400B7
:101D780083130008A900840A0008AA000230A20000
:101D88002208A607372F372FAD01AD0A2D08053ACF
:101D9800031DCF2ED02ED22E402F402F2D08A2006B
:101DA8002207833E840090300318013EFF000A1684
:101DB8008A1100200A128A15A3000A168A11002027
:101DC8000A128A15A40024082A02031DED2E2308EE
:101DD80029020318F02EF12EF32E402F402F013048
:101DE800A2002208AD072D08053A031DFC2EFD2E82
:101DF800D22E402F402FAD01AD0A2D08043A031D05
:101E0800062F072F092F402F402F2D08A200220749
:101E18008D3E840090300318013EFF000A168A1197
:101E280000200A128A15A3000A168A1100200A1235
:101E38008A15A40024082A02031D242F2308290236
:101E48000318272F282F2A2F402F402F0130A200B8
:101E58002208AD072D08043A031D332F342F092F0C
:101E6800402F402F402F28088039003A0319C82EE8
:101E7800803A0319FF2E402F280803390319452FEC
:101E8800462F4D2F2D300A128A1518210A128A154D
:101E98004D2F831203132D08A2002208A700D42F68
:101EA800C42F0A30F8000030F9002708A2002207E2
:101EB800833E840090300318013EFF000A168A1101
:101EC80000200A128A15F0000A168A1100200A1248
:101ED8008A15F1002A08F301F3072908F201F2072D
:101EE8000A128A1521240A128A157108FB01FB07B8
:101EF8007008FA01FA070A128A1599230A128A1534
:101F08007808303E83120313A3002308AD00CD2FB9
:101F18002708A20022078D3E840090300318013E56
:101F2800FF000A168A1100200A128A15F0000A1604
:101F38008A1100200A128A15F1002A08F301F30712
:101F48002908F201F2070A128A1521240A128A15B1
:101F580070080F3983120313A3002308A50025086E
:101F68005F3E840091300318013EFF000A168A1173
:101F780000200A128A15A2002208AD00CD2FCD2F0D
:101F880028088039003A0319552F803A03198C2FF5
:101F9800CD2F2D080A128A1518210A128A15D42F56
:101FA800FF3083120313A2002208A7072708FF3A6D
:101FB800031DDF2FE02FC42FE22FE22F831203131C
:101FC8002108A3002008A2000130A0070318A10AD5
:101FD8002308FF00220884000A168A1100200A122A
:101FE8008A15A4002408AD00AD08031DFC2FFD2FA1
:101FF800592EFF2FFF2F0800FF1B0A2883137F1875
:1020080083170008840A0319FF0A08007F087F392C
:102018008A000408840A0319FF0A820040344B34FA
:102028000134E234C0344B3400340034D034FC344E
:102038008C3402349934003439344134F9349E34C0
:1020480086340B34243406347F34A6340034003408
:1020580000340034003400340034003400340034D8
:1020680000340034003400340034003400340034C8
:102078000034003400340034003400340034733445
:102088001234003400348034B434363400340F341D
:1020980001343F3402343F34033403340434FF340E
:1020A800053417340634013407340734083400344F
:1020B800093400340C34C3340D34C4340E34C534FC
:1020C8000F34C634113420341234203413342034FD
:1020D80014342034153420341634203417340034A2
:1020E8001C343F341D34073441342034083404345C
:1020F80081342034CF34F734FE34FF34FF340134D4
:1021080000340A34003464340034E83403341034BE
:1021180027340134003410340034003401340034DE
:1021280010343434433410341034013439343834EE
:1021380037343634C2341C343F341D3407345634F3
:10214800733474346F3472346134673465342034D2
:102158004F344B3420346F34723420346D3465344A
:1021680061347334753472346534203473346B34A9
:10217800693470347034653464343A342034253426
:1021880064340D340A3400345634533474346F34A0
:1021980072346134673465343A3420342534643415
:1021A800203420343D343E3420346E346F3474345B
:1021B80020344F344B340D340A3400344E346F34E9
:1021C80020346434613474346134203473346534B5
:1021D8006E3474343A3420344534523452344F34E3
:1021E800523420340D340A342034003456347334D5
:1021F80074346F3472346134673465342034743421
:102208006F346F3420346C346F3477343A3420347C
:10221800253464340D340A34003453346C34653452
:1022280065347034203463346F3475346E347434E8
:102238006534723420343D342034253464340D340C
:102248000A34003453346C346534653470342034C3
:1022580063346F3475346E347434653472343A349C
:102268002034253458340D340A340034453463346A
:1022780063346F346D34693420346E3465346C34AF
:102288006C34273449345334523421340D340A34ED
:10229800003453346C346534653470343A34203443
:1022A8002534643420346F346E3420342534643457
:1022B8000D340A3400343034313432343334343465
:1022C800353436343734383439344134423443348D
:1022D800443445344634003444346134743461340D
:1022E8002034733465346E3474343A3420344F34C3
:1022F8004B3420340D340A3400345234653463349A
:1023080065346934763469346E3467343A34203449
:102318000034533465346E34643469346E3467344D
:102328003A34203400340A340D340A340D3400347D
:0623380025345834003486
:04400E00F5FFCFFFEC
:00000001FF
