:060000000A128A11122809
:10000800FE00030E83120313AF000408B0000A08B1
:10001800B1007F08B2000A128A15BD2D0A128A158E
:100028009B2C033083120313BE000830BD007830C8
:10003800BC00BC0B1D28BD0B1D28BE0B1D280030A5
:100048000A128A15E9250A128A1183120313CF01AD
:1000580014304F02031C31283228342864286428BD
:1000680003144F0D4A3E840088300318013EFF00F8
:100078000A128A1500200A128A11BC003C08B60030
:100088004F08BD003D074A3E840088300318013EF2
:10009800FF000A128A1500200A128A1120380A1253
:1000A8008A156F240A128A11013083120313BC00C7
:1000B8003C08CF0714304F02031C632864283428F7
:1000C800D00105305002031C6A286B286D288B2844
:1000D8008B285008953E840088300318013EFF00A5
:1000E8000A128A1500200A128A11BC005008433EE1
:1000F80084003C08831380000130BC003C08D00712
:1001080005305002031C89288A286D288B28433023
:10011800BC003C08B6000530BD003D08B7002A30D9
:100128000A128A1569250A128A1183120313D0014B
:1001380005305002031CA128A228A428C228C228DE
:1001480050089A3E840088300318013EFF000A12C6
:100158008A1500200A128A11BC005008433E840008
:100168003C08831380000130BC003C08D0070530F0
:100178005002031CC028C128A428C2284330BC0050
:100188003C08B6000530BD003D08B7002B300A1208
:100198008A1569250A128A1183120313D0010530C2
:1001A8005002031CD828D928DB28F928F928500838
:1001B800953E840088300318013EFF000A128A1514
:1001C80000200A128A11BC005008433E84003C08F3
:1001D800831380000130BC003C08D0070530500272
:1001E800031CF728F828DB28F9284330BC003C0812
:1001F800B6000530BD003D08B70030300A128A1538
:1002080069250A128A111D300A128A15C9240A1290
:100218008A1183120313BC003C08CF00CF08031DCA
:100228001629172922297330BC003C08B600503023
:100238000A128A156F240A128A112229163083128B
:100248000313BC003C08CF0015304F0203182D29BA
:100258002E2930295F295F2903144F0D4A3E840057
:1002680088300318013EFF000A128A1500200A127E
:100278008A11BC003C08B6004F08BD003D074A3E45
:10028800840088300318013EFF000A128A150020F6
:100298000A128A1120380A128A156F240A128A1142
:1002A800013083120313CF0215304F0203185D2962
:1002B8005E2930295F2901300A128A15E9250A12B8
:1002C8008A1183120313CF0109304F02031C6D29D1
:1002D8006E297029E429E429D00104305002031C56
:1002E800762977297929C829C8294F08BC000130FF
:1002F8000310BC0DFF3E031D7C2903103C0D123E6C
:10030800840088300318013EFF000A128A15002075
:100318000A128A11BD000A128A1500200A128A11CF
:10032800BE000A128A1500200A128A11BF000A129A
:100338008A1500200A128A11C0005008C100023034
:100348000310C10DFF3E031DA4290310410D013EFA
:10035800B2290310C00CBF0CBE0CBD0CFF3E031D20
:10036800AD293D08C2005008433E8400420883136B
:1003780080000130BC003C08D00704305002031C48
:10038800C629C7297929C8294330BC003C08B600CA
:100398000430BD003D08B7004F0820380A128A15FE
:1003A80069250A128A11013083120313BC003C0824
:1003B800CF0709304F02031CE229E3297029E429F9
:1003C8000930BC003C08CF000E304F02031CED2959
:1003D800EE29F029652A652AD00104305002031C51
:1003E800F629F729F9294A2A4A2A4F08BC00013078
:1003F8000310BC0DFF3E031DFC2903103C0D123EEB
:10040800840088300318013EFF000A128A15002074
:100418000A128A11BD000A128A1500200A128A11CE
:10042800BE000A128A1500200A128A11BF000A1299
:100438008A1500200A128A11C0005003FF3AC10031
:1004480002300310C10DFF3E031D252A0310410D84
:10045800183E013E342A0310C00CBF0CBE0CBD0C64
:10046800FF3E031D2F2A3D08C2005008433E84006A
:100478004208831380000130BC003C08D0070430D8
:100488005002031C482A492AF9294A2A4330BC0049
:100498003C08B6000430BD003D08B7004F082038BE
:1004A8000A128A1569250A128A1101308312031368
:1004B800BC003C08CF070E304F02031C642A652A93
:1004C800F029D0010B305002031C6B2A6C2A6E2ACB
:1004D8008C2A8C2A5008783E840088300318013E04
:1004E800FF000A128A1500200A128A11BC0050085F
:1004F800433E84003C08831380000130BC003C0864
:10050800D0070B305002031C8A2A8B2A6E2A8C2AA9
:100518004330BC003C08B6000B30BD003D08B700B6
:100528002E300A128A1569250A128A1183120313BA
:10053800D00104305002031CA22AA32AA52AE82AC3
:10054800E82A223084008830FF000A128A15002029
:100558000A128A11BC000A128A1500200A128A118E
:10056800BD000A128A1500200A128A11BE000A125A
:100578008A1500200A128A11BF005008C0000230F4
:100588000310C00DFF3E031DC42A0310400D013E99
:10059800D22A0310BF0CBE0CBD0CBC0CFF3E031DC1
:1005A800CD2A3C08C1005008433E8400410883130B
:1005B80080000130BC003C08D00704305002031C06
:1005C800E62AE72AA52AE82A43080638BC003C0898
:1005D800C3004330BC003C08B6000430BD003D08F1
:1005E800B70024300A128A1569250A128A11831263
:1005F80003134308F939BC003C08C3004330BC006E
:100608003C08B6000430BD003D08B70024300A128B
:100618008A1569250A128A11823083120313BD00D4
:10062800DD30BC00BC0B162BBD0B162B1B2B003072
:100638000A128A15E9250A128A118312031307116F
:100648000800433083120313C5004508C900B72CBE
:100658005008253A0319312B322B392B50080A122E
:100668008A1545240A128A11B72CCB01482BD42CA1
:100678006C2B6C2BCB176C2B50080A128A1545244F
:100688000A128A11B72C6C2B831203134208C60076
:100698004108C5000130C1070318C20A4608FF0017
:1006A800450884000A128A1500200A128A11D0000F
:1006B800003A0319D42C583A03193E2B3C3A031933
:1006C8006C2B0D3A03196C2B113A03193E2B402B56
:1006D80083120313CB1B712B722B8D2B49088400BB
:1006E80083130008CC00840A0008CD000230C5003E
:1006F8004508C907CD1F812B822B0A2C0330C50062
:100708004508CB04CC09CD09CC0A0319CD0A0A2C1B
:100718000A2C4908840083130008CC00840A0008C6
:10072800CD000230C5004508C9070A2C0A2CD001A3
:10073800D00A5008053A031DA22BA32BA52B132C76
:10074800132C5008C5004507833E840088300318E1
:10075800013EFF000A128A1500200A128A11C600FB
:100768000A128A1500200A128A11C70047084D028A
:10077800031DC02B46084C020318C32BC42BC62BE1
:10078800132C132C0130C5004508D0075008053A32
:10079800031DCF2BD02BA52B132C132CD001D00A43
:1007A8005008043A031DD92BDA2BDC2B132C132CFD
:1007B8005008C50045078D3E840088300318013E67
:1007C800FF000A128A1500200A128A11C6000A12AE
:1007D8008A1500200A128A11C70047084D02031D16
:1007E800F72B46084C020318FA2BFB2BFD2B132C76
:1007F800132C0130C5004508D0075008043A031DE2
:10080800062C072CDC2B132C132C132C4B088039AB
:10081800003A03199B2B803A0319D22B132C4B084F
:1008280003390319182C192C202C2D300A128A157B
:1008380045240A128A11202C831203135008C5007C
:100848004508CA00A92C992C0A30BB000030BC000E
:100858004A08C5004507833E840088300318013ED6
:10086800FF000A128A1500200A128A11B3000A1220
:100878008A1500200A128A11B4004D08B601B6077D
:100888004C08B501B5070A128A15E2260A128A1120
:10089800831203133408BE01BE073308BD01BD0728
:1008A8000A128A159D260A128A11831203133B081D
:1008B800303EC6004608D000A22C4A08C5004507AD
:1008C8008D3E840088300318013EFF000A128A1505
:1008D80000200A128A11B3000A128A1500200A128F
:1008E8008A11B4004D08B601B6074C08B501B50722
:1008F8000A128A15E2260A128A1183120313330890
:100908000F39C6004608C8004808CE3E8400883023
:100918000318013EFF000A128A1500200A128A11E4
:10092800C5004508D000A22CA22C4B088039003AFB
:100938000319282C803A0319612CA22C50080A129A
:100948008A1545240A128A11A92CFF308312031331
:10095800C5004508CA074A08FF3A031DB42CB52C40
:10096800992CB72CB72C831203134208C6004108F0
:10097800C5000130C1070318C20A4608FF00450830
:1009880084000A128A1500200A128A11C700470833
:10099800D000D008031DD12CD22C2C2BD42CD42C35
:1009A8000800223083120313A2002208A600652E35
:1009B8002D08253A0319E12CE22CE92C2D080A12FE
:1009C8008A1539240A128A11652EA801F82C822E5C
:1009D8001C2D1C2DA8171C2D2D080A128A15392428
:1009E8000A128A11652E1C2D831203132108A300F5
:1009F8002008A2000130A0070318A10A2308FF005D
:100A0800220884000A128A1500200A128A11AD00F1
:100A1800003A0319822E583A0319EE2C3C3A03196E
:100A28001C2D0D3A03191C2D113A0319EE2CF02C2C
:100A380083120313A81B212D222D3D2D2608840087
:100A480083130008A900840A0008AA000230A20043
:100A58002208A607AA1F312D322DBA2D0330A20075
:100A68002208A804A909AA09A90A0319AA0ABA2DD9
:100A7800BA2D2608840083130008A900840A0008F8
:100A8800AA000230A2002208A607BA2DBA2DAD018D
:100A9800AD0A2D08053A031D522D532D552DC32D92
:100AA800C32D2D08A2002207833E84008830031836
:100AB800013EFF000A128A1500200A128A11A300BB
:100AC8000A128A1500200A128A11A40024082A0290
:100AD800031D702D230829020318732D742D762DFC
:100AE800C32DC32D0130A2002208AD072D08053AF9
:100AF800031D7F2D802D552DC32DC32DAD01AD0AAE
:100B08002D08043A031D892D8A2D8C2DC32DC32D44
:100B18002D08A20022078D3E840088300318013E6C
:100B2800FF000A128A1500200A128A11A3000A126D
:100B38008A1500200A128A11A40024082A02031D1B
:100B4800A72D230829020318AA2DAB2DAD2DC32DDF
:100B5800C32D0130A2002208AD072D08043A031D59
:100B6800B62DB72D8C2DC32DC32DC32D2808803944
:100B7800003A03194B2D803A0319822DC32D2808FA
:100B880003390319C82DC92DD02D2D300A128A1505
:100B980039240A128A11D02D831203132D08A200BA
:100BA8002208A700572E472E0A30F8000030F90017
:100BB8002708A2002207833E840088300318013EDC
:100BC800FF000A128A1500200A128A11F0000A1280
:100BD8008A1500200A128A11F1002A08F301F30786
:100BE8002908F201F2070A128A11B2270A128A1199
:100BF8007108FB01FB077008FA01FA070A128A1547
:100C08005A260A128A117808303E83120313A30069
:100C18002308AD00502E2708A20022078D3E84002D
:100C280088300318013EFF000A128A1500200A12B4
:100C38008A11F0000A128A1500200A128A11F1009E
:100C48002A08F301F3072908F201F2070A128A11A8
:100C5800B2270A128A1170080F3983120313A300EE
:100C68002308A5002508CE3E840088300318013EDD
:100C7800FF000A128A1500200A128A11A20022080F
:100C8800AD00502E502E28088039003A0319D82D6F
:100C9800803A03190F2E502E2D080A128A1539246E
:100CA8000A128A11572EFF3083120313A20022085A
:100CB800A7072708FF3A031D622E632E472E652ECD
:100CC800652E831203132108A3002008A200013017
:100CD800A0070318A10A2308FF00220884000A12AB
:100CE8008A1500200A128A11A4002408AD00AD0854
:100CF800031D7F2E802EDC2C822E822E08000030D1
:100D080083160313CA000030C9000030C800003041
:100D1800C7001008CF392038900083160317081031
:100D2800071387138316031308108312031308107D
:100D38008316031307138316031707110811871265
:100D480088108316031309158316031709158316CC
:100D580003130711081187118712071688148312C5
:100D6800031307118B170B17831603130C14831225
:100D780003130814023083160313A6000430A500D9
:100D8800BA30A400A40BC62EA50BC62EA60BC62EE1
:100D98000000831203130810023083160313A60001
:100DA8000430A500BA30A400A40BD82EA50BD82E69
:100DB800A60BD82E0000831203138F018E01100892
:100DC8003F398038900030309004831603138F1712
:100DD800831203131015901510140A128A15B124E2
:100DE8000A128A110A128A1585240A128A110A120D
:100DF8008A1551240A128A1100300A128A154425CC
:100E08000A128A110A128A155E240A128A11F0300F
:100E180083120313C1008830C2000A128A155E24A7
:100E28000A128A1183160313A400A5012408831249
:100E38000313C30083160313250883120313C40086
:100E48000A128A1125230A128A110A128A111520F8
:100E58000A128A112F2F023083160313A6000430BA
:100E6800A500BA30A400A40B372FA50B372FA60B6B
:100E7800372F0000003083160313CA000030C90062
:100E88000030C8000030C7004A08803AFF00003030
:100E9800803A7F02031D5A2F00304902031D5A2F42
:100EA80000304802031D5A2F01304702031C5D2FF2
:100EB8005E2F602F902F902F47085A3E840083138F
:100EC8000008A4004708A73E8400240880000130D9
:100ED800C707003003180130C80700300318013075
:100EE800C907003003180130CA074A08803AFF00D2
:100EF8000030803A7F02031D8B2F00304902031D0A
:100F08008B2F00304802031D8B2F01304702031C32
:100F18008E2F8F2F602F902F5A30A4002408831211
:100F28000313D100D201D20AB0300A128A15312730
:100F38000A128A11013083160313A40024088312AD
:100F48000313DA0707111010F0308F008E01101408
:100F580063002F2F2F2F0A128A111228F601F7018A
:100F6800710870040319B92FBA2FF72FF501F50A84
:100F7800C92F01300310F00DF10DFF3E031DBE2FE8
:100F88000130F4007408F507C92FF11FCC2FCD2FBD
:100F9800BD2FCF2FCF2F01300310F60DF70DFF3ED9
:100FA800031DD02F71087302031DDC2F7008720215
:100FB800031CDF2FE02FE82F7008F2027108031CD2
:100FC800F303F3027614E82F01300310F10CF00C50
:100FD800FF3E031DE92F0130F502031DF42FF52F05
:100FE800CF2FF72FF72F7708F101F1077608F001D7
:100FF800F007FE2F08000134FF1B0A2883137F180F
:1010080083170008840A0319FF0A08007F087F393C
:101018008A000408840A0319FF0A820040344B340A
:101028000134E234C0344B3400340034D034FC345E
:101038008C3402349934003439344134F9349E34D0
:1010480086340B34243406347F34A6340034003418
:1010580000340034003400340034003400340034E8
:1010680000340034003400340034003400340034D8
:101078000034003400340034003400340034733455
:101088001234003400348034B434363400340F342D
:1010980001343F3402343F34033403340434FF341E
:1010A800053417340634013407340734083400345F
:1010B800093400340C34C3340D34C4340E34C5340C
:1010C8000F34C6341134203412342034133420340D
:1010D80014342034153420341634203417340034B2
:1010E8001C343F341D34073441342034083404346C
:1010F80081342034CF34F734FE34FF34FF340134E4
:1011080000340A34003464340034E83403341034CE
:1011180027340134003410340034003401340034EE
:1011280010343434433410341034013439343834FE
:1011380037343634C2341C343F341D3407344E340B
:101148006F3420346434613474346134203473343B
:1011580065346E3474343A3420344534523452345D
:101168004F34523420340D340A342034003445349A
:10117800633463346F346D34693420346E346534C9
:101188006C346C34273449345334523421340D349C
:101198000A3400343034313432343334343435346E
:1011A80036343734383439344134423443344434AF
:1011B8004534463400344434613474346134203462
:1011C800733465346E3474343A3420344F344B34C9
:1011D80020340D340A340034413444344334203448
:1011E800763461346C34753465343A3420342534BB
:1011F80064340D340A34003452346534633465344D
:101208006934763469346E3467343A3420340034BF
:10121800533465346E34643469346E3467343A3424
:10122800203400340A340D340A340D3400342534A3
:0412380058340034F2
:1018620064008001840A0406031900340406322C41
:10187200F0003B2C831203130C1E402C412C3B2CFA
:10188200422C70089900080083120313B300492CFC
:101892000C1E4C2C4D2C492C4E2C33089900080060
:1018A200831203131F08C3391C389F008F3083161D
:1018B20003139F05FC309F050800831203131F14B6
:1018C2009F14632C9F18662C672C632C682C1E08AF
:1018D200B3003308B40034086E2C080083120313DB
:1018E200B700081137080A128A1520250A128A152C
:1018F2008312031336080A128A1520250A128A1542
:10190200831203130815080083160313871707139E
:1019120002309800831203139801831603131811DF
:1019220018120C30990083120313981783160313AD
:1019320098160800DB01D901DA018313CB30840049
:10194200EB300A128A1531240A128A150A128A11F8
:10195200FF270A128A15DC0083010A128A11832EDC
:1019620083120313941614121408F03902389400E7
:101972008316031394131417823083120313B400D3
:10198200DD30B300B30BC32CB40BC32CC82C08003E
:1019920083120313B700081137080A128A1520258B
:1019A2000A128A1500300A128A1520250A128A158F
:1019B20083120313B6003608B80008153808E12C64
:1019C200080007300A128A15C9240A128A158312DE
:1019D2000313B900B91EEE2CEF2CFD2C1030B90008
:1019E2003908B60027300A128A156F240A128A159E
:1019F2000130002D002D002D0030002D002D08009B
:101A020007300A128A15C9240A128A15831203138F
:101A1200B900B91E0D2D0E2D1C2D2030B90039082C
:101A2200B60027300A128A156F240A128A1501306D
:101A32001F2D1F2D1F2D00301F2D1F2D080083125B
:101A42000313B500350893000B30B4006230B300C5
:101A5200B30B292DB40B292D00002F2D8312031354
:101A62008C1D342D352D2F2D362D0B30B4006230C8
:101A7200B300B30B3A2DB40B3A2D000083120313BB
:101A82001308432D080083120313BA0000300A1210
:101A92008A15C9240A128A1583120313B900390858
:101AA200BB00BA08031D562D572D5C2D0230B9001C
:101AB2003908BB065E2DBB145E2D3B08B900390800
:101AC200B60020300A128A156F240A128A150800FD
:101AD20083120313B900081139080A128A15202546
:101AE2000A128A1583120313BA018B2D3608840059
:101AF200831300080A128A1520250A128A1501305A
:101B020083120313B8003808B6070130B80038084A
:101B1200BA078B2D37083A02031C902D912D772D91
:101B22000815080083120313B601E1300A128A1560
:101B32006F240A128A1583120313071100300A1246
:101B42008A15C9240A128A1583120313B9003908A7
:101B5200BA003A08FE39B9003908BA003A08B900A1
:101B62003908B60020300A128A156F240A128A1523
:101B720083120313071508000C1CC02DC12DDE2D86
:101B82000130AE002E08D907F0308F008E015908BF
:101B92005C06031DCD2DCE2DDC2DBB30A000883080
:101BA200A1000A128A11D5240A128A15831203137C
:101BB200D9015B14DC2D0C10DE2D3208FF00310838
:101BC2008A00300884002F0E8300FE0E7E0E09006C
:101BD20083120313BA0007300A128A15C9240A12A3
:101BE2008A1583120313B9003908BB003B088039F8
:101BF200B9003908BB003B08031D002E052E3A0828
:101C0200031D042E0F2E052EBB08031D092E0A2EBE
:101C12001A2E3A08031D0E2E1A2E0F2E5330B9001B
:101C22003908B60050300A128A156F240A128A1532
:101C32001A2E080083120313B601E2300A128A1523
:101C42006F240A128A1507300A128A15C9240A1249
:101C52008A1583120313B9003908BA003A08B90089
:101C62003908B60027300A128A156F240A128A151B
:101C720083120313071100300A128A15C9240A12AB
:101C82008A1583120313B9003908BA003A080138D9
:101C9200B9003908BA003A08B9003908B60020304C
:101CA2000A128A156F240A128A1583120313071562
:101CB20008007908780403195F2E602E952EFD0125
:101CC200FD0A6F2E01300310F80DF90DFF3E031DC2
:101CD200642E0130FC007C08FD076F2EF91F722E66
:101CE200732E632E752E752E79087B02031D7B2EB3
:101CF20078087A02031C7E2E7F2E862E7808FA023E
:101D02007908031CFB03FB02862E01300310F90C39
:101D1200F80CFF3E031D872E0130FD02031D922E9B
:101D2200932E752E952E952E7B08F901F9077A08C8
:101D3200F801F8079C2E0800831203133C083B04A9
:101D42000319A42EA52EDA2EC001C00AB42E01302A
:101D52000310BB0DBC0DFF3E031DA92E0130BF00B9
:101D62003F08C007B42EBC1FB72EB82EA82EBA2E1D
:101D7200BA2E3C083E02031DC02E3B083D02031C46
:101D8200C32EC42ECB2E3B08BD023C08031CBE034F
:101D9200BE02CB2E01300310BC0CBB0CFF3E031D58
:101DA200CC2E0130C002031DD72ED82EBA2EDA2E29
:101DB200DA2E3E08BC01BC073D08BB01BB07E12E81
:101DC200080083120313B801B9013408330403195C
:101DD200EB2EEC2E292FBA01BA0AFB2E013003108A
:101DE200B30DB40DFF3E031DF02E0130B7003708CE
:101DF200BA07FB2EB41FFE2EFF2EEF2E012F012F4E
:101E020001300310B80DB90DFF3E031D022F340837
:101E12003602031D0E2F33083502031C112F122F19
:101E22001A2F3308B5023408031CB603B60238145D
:101E32001A2F01300310B40CB30CFF3E031D1B2FED
:101E42000130BA02031D262F272F012F292F292FF8
:101E52003908B401B4073808B301B307302F0800BA
:101E620083120313D6000A128A1593250A128A15C1
:101E720017300A128A15C9240A128A15831203130B
:101E8200D3005308D700D71A472F482FFF2F0C3003
:101E9200C1008930C2000A128A1125230A128A154A
:101EA20083120313D801722F1B30C1008930C20084
:101EB20058085107D3005308840083130008D40044
:101EC200D5015408C3005508C4000A128A112523FB
:101ED2000A128A15013083120313D3005308D8075C
:101EE200722F52085802031C772F782F552F792F03
:101EF2001830C1008930C2000A128A1125230A1241
:101F02008A158312031307115108D3005308B60030
:101F12005208D4005408B70056080A128A156925D7
:101F22000A128A158312031307150630D300D30B46
:101F3200982F00008312031307110330D400973047
:101F4200D300D30BA22FD40BA22FA72FDF2F0A125D
:101F52008A1501250A128A15003A0319B12FB22FE8
:101F6200C32FDF3083120313C1008830C2000A126C
:101F72008A1125230A128A150A128A151B260A12A9
:101F82008A15C32F0A128A15E2240A128A15003A08
:101F92000319CC2FCD2FDF2FA33083120313C100DF
:101FA2008830C2000A128A1125230A128A150A12DF
:101FB2008A151B260A128A15DF2FDF2F83120313BD
:101FC200881CE42FE52FA82FE62F1630C100893098
:101FD200C2000A128A1125230A128A1502308312BC
:101FE2000313D5000430D400BA30D300D30BF72F3B
:0E1FF200D40BF72FD50BF72F0000FF2F0800A0
:04400E00F5FCCFFFEF
:00000001FF
