:060000000A128A11122809
:10000800FE00030E83120313B2000408B3000A08AB
:10001800B4007F08B5000A168A113A2E0A168A110A
:10002800CB2B00308316031793000030920000306A
:10003800910000309000831603131008CF39203840
:1000480090008316031707138713831603130713E8
:1000580083160317071108118712881083160313D4
:100068000915831603170915831603130812831637
:1000780003170812831203130812831603130511BA
:10008800831603170511831203130515831603132B
:100098000711081187118712071688148312031392
:1000A8000711081587118712831603130810831682
:1000B8000317081083160313091583160317091568
:1000C80083160313091483160317091083120313E5
:1000D80008108316031309148316031709148316CB
:1000E80003138811831203138811831603138816C8
:1000F80083160317881283160313081788178316A5
:100108000317081388138B170B17831603130C1484
:100118001030831203138F008E0110083F39803886
:10012800900030309004831603138F178312031343
:10013800101590151014831603130614831603174D
:1001480006108316031305108510851105128512F4
:1001580005138513831603170510851085110512DD
:100168008512051385138312031305108510851155
:1001780005128512051385138316031386100611BD
:100188008611061286128316031786100611861129
:10019800061286128312031386100611861106169C
:1001A800861283160313891483160317891483127E
:1001B800031389100A168A1152220A128A110A1682
:1001C8008A113C220A128A110A168A11F0210A128F
:1001D8008A1100300A168A11FB220A128A11831228
:1001E8000313080883160313DB0006300310DB0C27
:1001F800FF3E031DFA285B080339DC005C08831204
:100208000313D4002630C4009130C5005408831667
:100218000313DB00DC015B0883120313C60083169B
:1002280003135C0883120313C7000A128A150026F9
:100238000A128A1163003C296300FA3083120313FF
:10024800C4009030C500831603134708DB00DC01A7
:100258005B0883120313C600831603135C0883121A
:100268000313C7000A128A1500260A128A113C29AC
:100278000A168A1174230A128A1183160313DB00E3
:1002880058305B02031849294A297329831203133A
:10029800881A4F29502973290A168A112A240A1202
:1002A8008A110A168A11DA220A128A118312031392
:1002B8003E08C6003F08C7004008C8000030C90013
:1002C8000030CA000030CB000A168A11BC260A1278
:1002D8008A11031C70297129202973297329A330D5
:1002E80083120313C4009030C50083160313470814
:1002F800DB00DC015B0883120313C60083160313BB
:100308005C0883120313C7000A128A1500260A1212
:100318008A110A128A11FC230A128A1100300A165D
:100328008A11FB220A128A11630083160313C20181
:10033800C3019E2901300A168A11FB220A128A116A
:100348000A168A1174230A128A1183160313DB0012
:100358005B08E3004208DB005B08E4004308DB00BD
:100368005B08E50083120313530883160313DB00AD
:100378005B08E6004008DB005B08E7004108DB009B
:100388005B08E8000A168A112A240A128A118316C1
:100398000313DB005B08E9005F0883120313B60050
:1003A80083160313600883120313B700831603131D
:1003B800610883120313B8000A168A115A270A1211
:1003C8008A1183120313360883160313DB005B08B4
:1003D800EA005F0883120313B6008316031360084C
:1003E80083120313B70083160313610883120313E0
:1003F800B8000A168A115A270A128A11831203139F
:10040800370883160313DB005B08EB0059306302DF
:1004180003180F2A102A172A83120313881E152A75
:10042800162A432A172A0A168A11FA230A128A1147
:1004380083160313DB005B08E20083120313D31750
:10044800530883160313DB005B08E600E230DB0089
:100458005B0883120313CD000A3083160313DC00F4
:100468005C0883120313CE00B0300A128A150621E5
:100478000A128A1183160313C001C101292B003007
:100488008312C6000030C7000030C800831603136B
:1004980069080A168A11DA220A128A1183120313CA
:1004A8003E08C9003F08CA004008CB000A168A1156
:1004B800BC260A128A110318622A632AB22A8316F2
:1004C800031363084702031C6A2A6B2AB22A8312A1
:1004D80003130618702A712AB22A05110A168A11FE
:1004E800FA230A128A1183160313DB005B08E20061
:1004F8000A168A112A240A128A1183160313DB00AA
:100508005B08E9007F30DB005B0883120313D30527
:10051800530883160313DB005B08E600E230DB00B8
:100528005B0883120313CD000A3083160313DC0023
:100538005C0883120313CE00B0300A128A15062114
:100548000A128A1183120313051500308316031348
:10055800DF002030E0004130E100292B0030831219
:100568000313C6000030C7000030C8008316031309
:1005780069080A168A11DA220A128A1183120313E9
:100588003E08C9003F08CA004008CB000A168A1175
:10059800BC260A128A110318D22AD32A0C2B8316D6
:1005A800031363084702031CDA2ADB2A0C2B831285
:1005B8000313061CE02AE12A0C2B7F308316031351
:1005C800DB005B0883120313D30553088316031358
:1005D800DB005B08E600E230DB005B0883120313F4
:1005E800CD000A3083160313DC005C088312031362
:1005F800CE00B0300A128A1506210A128A1100307C
:1006080083160313DF002030E0004130E100292B7E
:10061800C83083120313C4009030C5008316031337
:100628006308DB00DC015B0883120313C600831632
:1006380003135C0883120313C7000A128A150026E5
:100648000A128A11292B292B292B8312031307112C
:1006580000300A168A11FB220A128A118312031328
:10066800101010308F008E0110140A168A1174238E
:100678000A128A1183160313DB005B08C7001130C6
:1006880083120313C4009130C50054088316031362
:10069800DB00DC015B0883120313C6008316031317
:1006A8005C0883120313C7000A128A1500260A126F
:1006B8008A11831603179401E12B4D30831203131B
:1006C800C4009130C500831603171408831603135A
:1006D800DB00DC015B0883120313C60083160313D7
:1006E8005C0883120313C700831603134608DD0052
:1006F800DE015D0883120313C800831603135E0826
:1007080083120313C9000A128A1500260A128A11D5
:100718000A128A15D8220A128A1183160313460868
:10072800DB00DC015B0883120313BC008316031390
:100738005C0883120313BD00831603134508DD000C
:10074800DE01DD09DE09DD0A0319DE0A44085D075A
:1007580083120313B600831603135E0803185E0A98
:1007680083120313B7008316031344084507831243
:100778000313B800B901B90D0A168A119F230A128A
:100788008A11831203133708BF01BF073608BE0159
:10079800BE070A128A1188270A128A1183120313C4
:1007A8003C0883160313C0070318C10A83120313F6
:1007B8003D0883160313C107E12B01308316031785
:1007C8009407FF30140783160313DB0046085B0207
:1007D800031CEF2BF02B612BF12B0130C207031800
:1007E800C30A0030C3079E299E290A128A111228BB
:1007F800033083120313C1000830C0007830BF00F3
:10080800BF0B042CC00B042CC10B042C00300A12A3
:100818008A150C200A128A1183160313D401143086
:100828005402031C182C192C1B2C532C532C031466
:10083800540D4A3E840090300318013E831203137E
:10084800FF000A168A1100200A128A11BF003F0809
:10085800B90083160313540883120313C00040071A
:100868004A3E840090300318013EFF000A168A11A0
:1008780000200A128A1120380A168A1126220A1222
:100888008A11013083120313BF003F088316031334
:10089800D40714305402031C522C532C1B2CD501A2
:1008A80005305502031C592C5A2C5C2C822C822CA6
:1008B8005508953E840090300318013E83120313B7
:1008C800FF000A168A1100200A128A11BF00831637
:1008D80003135508C83E8400831203133F0883138B
:1008E80080000130BF003F0883160313D507053089
:1008F8005502031C802C812C5C2C822CC83083125E
:100908000313BF003F08B9000530C0004008BA0013
:100918002A300A168A1120230A128A118316031311
:10092800D50105305502031C9A2C9B2C9D2CC32CF9
:10093800C32C55089A3E840090300318013E831258
:100948000313FF000A168A1100200A128A11BF0039
:10095800831603135508C83E8400831203133F0807
:10096800831380000130BF003F0883160313D507A7
:1009780005305502031CC12CC22C9D2CC32CC83039
:1009880083120313BF003F08B9000530C0004008B8
:10099800BA002B300A168A1120230A128A118316EC
:1009A8000313D50105305502031CDB2CDC2CDE2C8F
:1009B800042D042D5508953E840090300318013EFF
:1009C80083120313FF000A168A1100200A128A11E3
:1009D800BF00831603135508C83E8400831203130F
:1009E8003F08831380000130BF003F0883160313BC
:1009F800D50705305502031C022D032DDE2C042DCE
:100A0800C83083120313BF003F08B9000530C00087
:100A18004008BA0030300A168A1120230A128A11B7
:100A28001D300A168A1183220A128A1183120313AF
:100A3800BF003F0883160313D400D408031D252DD7
:100A4800262D332D733083120313BF003F08B900DE
:100A580050300A168A1126220A128A11332D1630AE
:100A680083120313BF003F0883160313D400153005
:100A780054020318402D412D432D782D782D031451
:100A8800540D4A3E840090300318013E831203132C
:100A9800FF000A168A1100200A128A11BF003F08B7
:100AA800B90083160313540883120313C0004007C8
:100AB8004A3E840090300318013EFF000A168A114E
:100AC80000200A128A1120380A168A1126220A12D0
:100AD8008A11013083160313D40215305402031807
:100AE800762D772D432D782D01300A128A150C208A
:100AF8000A128A1183160313D40109305402031C05
:100B0800862D872D892D0F2E0F2ED50104305502E5
:100B1800031C8F2D902D922DED2DED2D5408831251
:100B28000313BF0001300310BF0DFF3E031D972DB7
:100B380003103F0D123E840090300318013EFF0061
:100B48000A168A1100200A128A11C0000A168A1190
:100B580000200A128A11C1000A168A1100200A12FE
:100B68008A11C2000A168A1100200A128A11C300CB
:100B780083160313550883120313C40002300310AD
:100B8800C40DFF3E031DC32D0310440D013ED12D9E
:100B98000310C30CC20CC10CC00CFF3E031DCC2DAE
:100BA8004008C500831603135508C83E8400831205
:100BB80003134508831380000130BF003F088316E4
:100BC8000313D50704305502031CEB2DEC2D922D91
:100BD800ED2DC83083120313BF003F08B90004305D
:100BE800C0004008BA0083160313540820380A16B8
:100BF8008A1120230A128A11013083120313BF00BD
:100C08003F0883160313D40709305402031C0D2E22
:100C18000E2E892D0F2E093083120313BF003F08B3
:100C280083160313D4000E305402031C1C2E1D2EF1
:100C38001F2EA62EA62ED50104305502031C252EE4
:100C4800262E282E852E852E540883120313BF00C6
:100C580001300310BF0DFF3E031D2D2E03103F0D65
:100C6800123E840090300318013EFF000A168A11D4
:100C780000200A128A11C0000A168A1100200A12DE
:100C88008A11C1000A168A1100200A128A11C200AC
:100C98000A168A1100200A128A11C3008316031348
:100CA8005503FF3A83120313C40002300310C40D26
:100CB800FF3E031D5A2E0310440D183E013E692EB7
:100CC8000310C30CC20CC10CC00CFF3E031D642EE4
:100CD8004008C500831603135508C83E84008312D4
:100CE80003134508831380000130BF003F088316B3
:100CF8000313D50704305502031C832E842E282E97
:100D0800852EC83083120313BF003F08B900043092
:100D1800C0004008BA0083160313540820380A1686
:100D28008A1120230A128A11013083120313BF008B
:100D38003F0883160313D4070E305402031CA52E54
:100D4800A62E1F2ED5010B305502031CAC2EAD2E3E
:100D5800AF2ED52ED52E5508783E84009030031836
:100D6800013E83120313FF000A168A1100200A129B
:100D78008A11BF00831603135508C83E84008312E6
:100D880003133F08831380000130BF003F08831618
:100D98000313D5070B305502031CD32ED42EAF2EC8
:100DA800D52EC83083120313BF003F08B9000B309B
:100DB800C0004008BA002E300A168A1120230A12F1
:100DC8008A1183160313D50104305502031CED2E36
:100DD800EE2EF02E3F2F3F2F2230840090308312CA
:100DE8000313FF000A168A1100200A128A11BF0095
:100DF8000A168A1100200A128A11C0000A168A11DE
:100E080000200A128A11C1000A168A1100200A124B
:100E18008A11C20083160313550883120313C300F3
:100E280002300310C30DFF3E031D152F0310430DA1
:100E3800013E232F0310C20CC10CC00CBF0CFF3E97
:100E4800031D1E2F3F08C400831603135508C83E10
:100E58008400831203134408831380000130BF0009
:100E68003F0883160313D50704305502031C3D2F92
:100E78003E2FF02E3F2F4808063883120313BF0079
:100E88003F0883160313C800C83083120313BF003A
:100E98003F08B9000430C0004008BA0024300A16E0
:100EA8008A1120230A128A11831603134808F93974
:100EB80083120313BF003F0883160313C800C8300A
:100EC80083120313BF003F08B9000430C000400874
:100ED800BA0024300A168A1120230A128A11823095
:100EE80083120313C000DD30BF00BF0B792FC00B86
:100EF800792F7E2F00300A128A150C200A128A11C7
:100F0800831203130711080083120313C201BD1FC4
:100F18008E2F8F2F972FBC09BD09BC0A0319BD0A54
:100F2800C201C20A972FBF1F9A2F9B2FA52FBE0958
:100F3800BF09BE0A0319BF0A0130C0004008C20633
:100F4800A52FC301C4013D083C040319AC2FAD2FE4
:100F5800EA2FC101C10ABC2F01300310BC0DBD0D21
:100F6800FF3E031DB12F0130C0004008C107BC2F50
:100F7800BD1FBF2FC02FB02FC22FC22F01300310AB
:100F8800C30DC40DFF3E031DC32F3D083F02031DC3
:100F9800CF2F3C083E02031CD22FD32FDB2F3C0857
:100FA800BE023D08031CBF03BF024314DB2F013000
:100FB8000310BD0CBC0CFF3E031DDC2F0130C10229
:100FC800031DE72FE82FC22FEA2FEA2F4208031D3F
:100FD800EE2FF42FC309C409C30A0319C40AF42F56
:100FE8004408BD01BD074308BC01BC07FB2F08002E
:060FF8001A34003401343C
:1010000083120313B60004280C1E0728082804289E
:10101000092836089900080083120313BD00073021
:101020000A168A1183220A128A1583120313BC003E
:101030003C08BE003E088039BC003C08BE003E08AB
:10104000031D232828283D08031D27283228282887
:10105000BE08031D2C282D283D283D08031D3128DE
:101060003D2832285330BC003C08B90050300A16E5
:101070008A1126220A128A153D28080083120313BA
:101080004108C4004208C5004308C6000310450DCE
:10109000460DC7004708CC00CC08031D5028512836
:1010A00059280030BE000030BF000030C0000529C4
:1010B00005293E08C4003F08C5004008C6000310CB
:1010C000450D460DC7004708CD00CD08031D692812
:1010D0006A2872280030BE000030BF000030C00017
:1010E000052905290030C9000030CA000030CB00B6
:1010F00089304D07C4004408CC024108C4004208AE
:10110000C5004308C60010300310C60CC50CC40C43
:10111000FF3E031D84284408C7004708CD003E0851
:10112000C4003F08C5004008C60010300310C60CBC
:10113000C50CC40CFF3E031D96284408C700470891
:10114000CD068030C4004408CD05C217FF30C1056C
:10115000FF30C2050030C305BF17FF30BE05FF30AA
:10116000BF050030C0051830C4004408C800B828C6
:1011700001300310C90DCA0DCB0DFF3E031DB92868
:1011800040084302031DCA283F084202031DCA2823
:101190003E084102031CCD28CE28DA283E08C102B1
:1011A0003F08031C3F0FC2024008031C400AC30251
:1011B0004914DA2801300310C10DC20DC30DFF3EE2
:1011C000031DDB280130C802031DE728E828B828E2
:1011D000E9284908B6004A08B7004B08B8004C088F
:1011E000C4004408B9004D08C5004508BA000A16F5
:1011F0008A11BD250A128A15831203133608BE0010
:101200003708BF003808C0000529080083160313FB
:10121000D4000A168A114A230A128A1517300A16B0
:101220008A1183220A128A1583160313D1005108EA
:10123000D500D51A1C291D29E9298D3083120313E5
:10124000C4009130C5000A128A1500260A128A15B8
:1012500083160313D60157299C3083120313C4004D
:101260009130C500831603135608831203134D07EC
:1012700083160313D1005108840083130008D200A1
:10128000D301520883120313C600831603135308B5
:1012900083120313C7000A128A1500260A128A1540
:1012A000013083160313D1005108D6075729831242
:1012B00003134E08831603135602031C6029612989
:1012C0002C296229993083120313C4009130C50080
:1012D0000A128A1500260A128A15831203130711AF
:1012E0004D0883160313D100510883120313B9006C
:1012F0004E0883160313D200520883120313BA0058
:101300008316031354080A168A1120230A128A1519
:10131000831203130715063083160313D100D10B74
:101320008F29000083120313071103308316031360
:10133000D2009730D100D10B9B29D20B9B29A02939
:10134000D8290A168A11BB220A128A15003A0319F3
:10135000AA29AB29BC29703083120313C400913031
:10136000C5000A128A1500260A128A150A168A1161
:101370005A240A128A15BC290A168A119C220A12BA
:101380008A15003A0319C529C629D829E2308312E3
:101390000313C4009030C5000A128A1500260A12F1
:1013A0008A150A168A115A240A128A15D829D829A8
:1013B00083120313881CDD29DE29A129DF29973038
:1013C000C4009130C5000A128A1500260A128A1537
:1013D000E9290800831203133E08C4003F08C50032
:1013E0004008C6000310450D460DC7004708C80059
:1013F000C808031DFC29FD29052A0030BE00003065
:10140000BF000030C000D72AD72A4108C4004208D4
:10141000C5004308C6000310450D460DC700470828
:10142000CD00CD08031D152A162A1E2A0030BE0045
:101430000030BF000030C000D72AD72A4D087B3EBD
:10144000C4004408C8073E08C4003F08C50040085F
:10145000C60010300310C60CC50CC40CFF3E031DA3
:101460002A2A4408C7004708CD004108C4004208A2
:10147000C5004308C60010300310C60CC50CC40CD0
:10148000FF3E031D3C2A4408C7004708CD068030B4
:10149000C4004408CD05BF17C217FF30C105FF3097
:1014A000C2050030C3050030C9000030CA0000305A
:1014B000CB000730C4004408CC005E2A3E1C612AE1
:1014C000622A732A4108C907420803110318420A15
:1014D00003196B2ACA07430803110318430A0319A7
:1014E000722ACB07732A01300310C00CBF0CBE0C4C
:1014F000FF3E031D742A01300310C10DC20DC30D40
:10150000FF3E031D7C2A0130CC02031D882A892A54
:101510005E2A8A2A0930C4004408CC008F2A3E1C67
:10152000922A932AA42A4108C907420803110318E2
:10153000420A03199C2ACA07430803110318430AE5
:101540000319A32ACB07A42A01300310C00CBF0C37
:10155000BE0CFF3E031DA52A01300310CB0CCA0CA4
:10156000C90CFF3E031DAD2A0130CC02031DB92A70
:10157000BA2A8F2ABB2A4908B6004A08B7004B0886
:10158000B8004808C4004408B9004D08C500450823
:10159000BA000A168A11BD250A128A15831203138E
:1015A0003608BE003708BF003808C000D72A080038
:1015B0000A168A1174230A128A1583160313CE00A1
:1015C0004E08C7005F0883120313B6008316031387
:1015D000600883120313B700831603136108831294
:1015E0000313B8000A168A115A270A128A158312A1
:1015F00003133708D001D0073608CF01CF077A3060
:10160000831603134702031C062B072B452C83125A
:10161000031350084F0403190E2B0F2B452C881A67
:10162000122B132B452C831203179401A030930027
:10163000831203131010500883160313CF00831274
:1016400003134F0883160313CE000230FF0003106C
:10165000CE0DCF0DFF0B272BCE09CF09CE0A0319D4
:10166000CF0A4E0883120313D100831603134F08C9
:1016700083120313D20052088F0051088E001014F9
:1016800063008312031793018312031305150A16CF
:101690008A1174230A128A1583160313CE004E088A
:1016A00083120313CE00510983160313CE00831255
:1016B0000313520983160313CF00CE0A0319CF0A6E
:1016C0004E08003E83120313D100831603134F0804
:1016D0000318013E103E83120313D200101052086B
:1016E0008F0051088E0010146300831203134E08FC
:1016F00083160313470203187E2B7F2B852B470885
:10170000CE004E0883120313CE008316031347083E
:10171000CE004E08C400831203134E088316031331
:10172000CE004E08C5005930831203134E02031C2D
:101730009A2B9B2BEF2B831603135F088312031343
:10174000C60083160313600883120313C7008316B1
:101750000313610883120313C8004030C9001C3012
:10176000CA004630CB000A168A11BC260A128A1516
:101770000318BB2BBC2B512C663083120313BE0005
:101780008630BF003F30C000831603135F0883120A
:101790000313C10083160313600883120313C200EE
:1017A00083160313610883120313C3000A128A15F8
:1017B000EA210A128A15831203133E0883160313C3
:1017C000DF00831203133F0883160313E000831224
:1017D0000313400883160313E100512C512C0030F1
:1017E0008312C6000030C7000030C8008316031300
:1017F0005F0883120313C900831603136008831262
:101800000313CA0083160313610883120313CB006A
:101810000A168A11BC260A128A150318102C112CDC
:10182000512C663083120313BE008630BF003F3058
:10183000C000831603135F0883120313C1008316CD
:101840000313600883120313C20083160313610895
:1018500083120313C3000A128A153E200A128A1546
:10186000831203133E0883160313DF00831203134E
:101870003F0883160313E000831203134008831606
:101880000313E100512C512C512C831210101030F5
:101890008F008E011014630083160313C401C50169
:1018A000512C0800223083120313A2002208A60044
:1018B000E22D2D08253A03195E2C5F2C662C2D088D
:1018C0000A168A11FA210A128A15E22DA801752C2E
:1018D000FF2D992C992CA817992C2D080A168A11DE
:1018E000FA210A128A15E22D992C8312031321087A
:1018F000A3002008A2000130A0070318A10A2308B2
:10190000FF00220884000A168A1100200A128A1594
:10191000AD00003A0319FF2D583A03196B2C3C3ADD
:101920000319992C0D3A0319992C113A03196B2CB0
:101930006D2C83120313A81B9E2C9F2CBA2C2608F7
:10194000840083130008A900840A0008AA0002305A
:10195000A2002208A607AA1FAE2CAF2C372D0330F9
:10196000A2002208A804A909AA09A90A0319AA0A17
:10197000372D372D2608840083130008A900840A18
:101980000008AA000230A2002208A607372D372D32
:10199000AD01AD0A2D08053A031DCF2CD02CD22C59
:1019A000402D402D2D08A2002207833E8400903058
:1019B0000318013EFF000A168A1100200A128A1538
:1019C000A3000A168A1100200A128A15A40024080E
:1019D0002A02031DED2C230829020318F02CF12CF8
:1019E000F32C402D402D0130A2002208AD072D0818
:1019F000053A031DFC2CFD2CD22C402D402DAD01B1
:101A0000AD0A2D08043A031D062D072D092D402D82
:101A1000402D2D08A20022078D3E8400903003182F
:101A2000013EFF000A168A1100200A128A15A3003F
:101A30000A168A1100200A128A15A40024082A0214
:101A4000031D242D230829020318272D282D2A2DB4
:101A5000402D402D0130A2002208AD072D08043A88
:101A6000031D332D342D092D402D402D402D2808E8
:101A70008039003A0319C82C803A0319FF2C402DF5
:101A8000280803390319452D462D4D2D2D300A16F2
:101A90008A11FA210A128A154D2D831203132D087B
:101AA000A2002208A700D42DC42D0A30F80000306F
:101AB000F9002708A2002207833E84009030031813
:101AC000013EFF000A168A1100200A128A15F00052
:101AD0000A168A1100200A128A15F1002A08F30159
:101AE000F3072908F201F2070A168A1121250A12C2
:101AF0008A157108FB01FB077008FA01FA070A163C
:101B00008A1199240A128A157808303E8312031329
:101B1000A3002308AD00CD2D2708A20022078D3E8B
:101B2000840090300318013EFF000A168A1100203D
:101B30000A128A15F0000A168A1100200A128A1564
:101B4000F1002A08F301F3072908F201F2070A1647
:101B50008A1121250A128A1570080F39831203137E
:101B6000A3002308A50025085F3E840091300318D8
:101B7000013EFF000A168A1100200A128A15A200EF
:101B80002208AD00CD2DCD2D28088039003A03194B
:101B9000552D803A03198C2DCD2D2D080A168A114A
:101BA000FA210A128A15D42DFF3083120313A200E2
:101BB0002208A7072708FF3A031DDF2DE02DC42DBB
:101BC000E22DE22D831203132108A3002008A200B6
:101BD0000130A0070318A10A2308FF00220884008F
:101BE0000A168A1100200A128A15A4002408AD00E2
:101BF000AD08031DFC2DFD2D592CFF2DFF2D0800D8
:101C0000463083120313CA004A0883160313C9001F
:101C1000E02F5008253A03190E2E0F2E162E5008CD
:101C20000A128A1500200A128A15E02FCB01252EF0
:101C3000FF2F4B2E4B2ECB174B2E50080A128A1516
:101C400000200A128A15E02F4B2E83120313450839
:101C5000CB004408CA000130C4070318C50A4B086A
:101C6000FF004A0884000A168A1100200A128A1509
:101C700083160313D000003A0319FF2F583A0319B3
:101C80001B2E3C3A03194B2E0D3A03194B2E113AD9
:101C900003191B2E1D2E83160313CB1B502E512E02
:101CA000742E4908840083130008CC00840A0008BD
:101CB000CD00023083120313CA004A0883160313AF
:101CC000C907CD1F642E652E0D2F03308312031319
:101CD000CA004A0883160313CB04CC09CD09CC0AE9
:101CE0000319CD0A0D2F0D2F490884008313000816
:101CF000CC00840A0008CD00023083120313CA000E
:101D00004A0883160313C9070D2F0D2FD001D00ADF
:101D10005008053A031D8D2E8E2E902E162F162F4D
:101D2000500883120313CA004A07833E8400903090
:101D30000318013EFF000A168A1100200A128A15B4
:101D4000CB000A168A1100200A128A15CC004C0812
:101D5000831603134D02031DB32E831203134B0886
:101D6000831603134C020318B62EB72EB92E162F66
:101D7000162F013083120313CA004A088316031377
:101D8000D0075008053A031DC62EC72E902E162FD9
:101D9000162FD001D00A5008043A031DD02ED12EA0
:101DA000D32E162F162F500883120313CA004A078A
:101DB0008D3E840090300318013EFF000A168A1100
:101DC00000200A128A15CB000A168A1100200A1276
:101DD0008A15CC004C08831603134D02031DF62E02
:101DE000831203134B08831603134C020318F92EB6
:101DF000FA2EFC2E162F162F013083120313CA0061
:101E00004A0883160313D0075008043A031D092F0C
:101E10000A2FD32E162F162F162F4B088039003A73
:101E20000319862E803A0319C92E162F4B08033941
:101E300003191B2F1C2F232F2D300A128A15002067
:101E40000A128A15232F83160313500883120313D3
:101E5000CA004A0883160313CA00D02FC02F0A30C5
:101E600083120313BE000030BF00831603134A0819
:101E700083120313CA004A07833E8400903003187C
:101E8000013EFF000A168A1100200A128A15B600C8
:101E90000A168A1100200A128A15B7008316031346
:101EA0004D0883120313B901B907831603134C08B5
:101EB00083120313B801B8070A168A116E250A1295
:101EC0008A15831203133708C101C1073608C00100
:101ED000C0070A168A11DC240A128A15831203131A
:101EE0003E08303ECB004B0883160313D000C92FA9
:101EF0004A0883120313CA004A078D3E84009030BB
:101F00000318013EFF000A168A1100200A128A15E2
:101F1000B6000A168A1100200A128A15B700831625
:101F200003134D0883120313B901B9078316031372
:101F30004C0883120313B801B8070A168A116E25DC
:101F40000A128A158312031336080F39CB004B0887
:101F500083160313C80048085F3E840091300318BD
:101F6000013E83120313FF000A168A1100200A1291
:101F70008A15CA004A0883160313D000C92FC92F37
:101F80004B088039003A03192F2F803A0319782F14
:101F9000C92F50080A128A1500200A128A15D02F5C
:101FA000FF3083120313CA004A0883160313CA07BB
:101FB0004A08FF3A031DDD2FDE2FC02FE02FE02F50
:101FC000831203134508CB004408CA000130C4073C
:101FD0000318C50A4B08FF004A0884000A168A1134
:101FE00000200A128A15CC004C0883160313D00077
:101FF000D008031DFC2FFD2F092EFF2FFF2F0800F7
:10200000FF1B0A2883137F1883170008840A03190B
:10201000FF0A08007F087F398A000408840A031930
:10202000FF0A820040344B340134E234C0344B3474
:1020300000340034D034FC348C340234993400340D
:1020400039344134F9349E3486340B342434063424
:102050007F34A634003400340034003400340034BB
:1020600000340034003400340034003400340034D0
:1020700000340034003400340034003400340034C0
:1020800000340034003473341234003400348034AB
:10209000B434363400340F3401343F3402343F3426
:1020A000033403340434FF34053417340634013464
:1020B0000734073408340034093400340C34C33492
:1020C0000D34C4340E34C5340F34C63411342034C6
:1020D0001234203413342034143420341534203492
:1020E00016342034173400341C343F341D34073484
:1020F000413420340834043481342034CF34F7346C
:10210000FE34FF34FF34013400340A3400346434C4
:102110000034E834033410342734013400341034EC
:102120000034003401340034103434344334103477
:10213000103401343934383437343634C2341C3432
:102140003F341D3407345634733474346F3472346E
:1021500061346734653420344F344B3420346F3469
:10216000723420346D3465346134733475347234B0
:102170006534203473346B346934703470346534AE
:1021800064343A342034253464340D340A34003451
:102190005634533474346F34723461346734653474
:1021A0003A34203425346434203420343D343E34F1
:1021B00020346E346F34743420344F344B340D3447
:1021C0000A3400344E346F3420346434613474344F
:1021D00061342034733465346E3474343A342034CA
:1021E0004534523452344F34523420340D340A348E
:1021F000203400345634733474346F3472346134A0
:1022000067346534203474346F346F3420346C3464
:102210006F3477343A342034253464340D340A343E
:10222000003453346C346534653470342034633492
:102230006F3475346E3474346534723420343D3404
:102240002034253464340D340A34003453346C346F
:10225000653465347034203463346F3475346E34CF
:102260007434653472343A342034253458340D349F
:102270000A3400344534633463346F346D34693464
:1022800020346E3465346C346C3427344934533420
:10229000523421340D340A34003453346C346534F0
:1022A000653470343A3420342534643420346F3447
:1022B0006E342034253464340D340A340034303420
:1022C00031343234333434343534363437343834CA
:1022D0003934413442344334443445344634003490
:1022E00044346134743461342034733465346E346E
:1022F00074343A3420344F344B3420340D340A349F
:102300000034523465346334653469347634693466
:102310006E3467343A3420340034533465346E34C8
:10232000643469346E3467343A34203400340A3407
:0E2330000D340A340D34003425345834003492
:1023D00064008001840A0406031900340406E92914
:1023E000831603131F088F3910389F0003309F0492
:1023F0001D170800F000FC29831203130C1E012A8C
:10240000022AFC29032A70089900080000342034AD
:10241000413400340034003400340034AA34AA3487
:10242000AA34AA3400347E088A007F0882000A1683
:102430008A1113220A168A118000840A04087D0674
:1024400003190034FF0A0319FE0A172A8312031323
:10245000BA0008113A080A168A116A220A168A1165
:102460008312031339080A168A116A220A168A117E
:102470008312031308150800831603138717071325
:102480000230980083120313980183160313181166
:1024900018120C3099008312031398178316031334
:1024A0009816080083120313941614121408F039B6
:1024B0000238940083160313941314178230831286
:1024C0000313B700DD30B600B60B642AB70B642ADD
:1024D000692A080083120313B800380893000330F8
:1024E000B7009730B600B60B732AB70B732A782A59
:1024F000792A831203138C1D7E2A7F2A792A802A47
:102500001308822A080083120313BA0008113A083C
:102510000A168A116A220A168A1100300A168A11CE
:102520006A220A168A1183120313B9003908BB0004
:1025300008153B089B2A080007300A168A118322D7
:102540000A168A1183120313BC00BC1EA82AA92AEA
:10255000B72A1030BC003C08B90027300A168A118F
:1025600026220A168A110130BA2ABA2ABA2A00305B
:10257000BA2ABA2A080007300A168A1183220A16D4
:102580008A1183120313BC00BC1EC72AC82AD62A8C
:102590002030BC003C08B90027300A168A112622D8
:1025A0000A168A110130D92AD92AD92A0030D92A03
:1025B000D92A080083120313C5004508C100C201CF
:1025C000C3014108B6004208B7004308B8008E3086
:1025D000C4004408B900BA010A168A11BD250A16BA
:1025E0008A11831203133608BE003708BF0038086B
:1025F000C000FA2A080083120313BD0000300A1637
:102600008A1183220A168A1183120313BC003C0824
:10261000BE00BD08031D0D2B0E2B132BFD30BC007F
:102620003C08BE05152BBE14152B3E08BC003C080B
:10263000B90020300A168A1126220A168A110800CB
:1026400083120313BC0008113C080A168A116A227F
:102650000A168A1183120313BD01422B3908840024
:10266000831300080A168A116A220A168A11013099
:1026700083120313BB003B08B9070130BB003B08C2
:10268000BD07422B3A083D02031C472B482B2E2B3B
:102690000815080083120313B901E1300A168A11E4
:1026A00026220A168A1183120313071100300A1614
:1026B0008A1183220A168A1183120313BC003C0874
:1026C000BD003D08FE39BC003C08BD003D08BC0013
:1026D0003C08B90020300A168A1126220A168A11EF
:1026E0008312031307150800831203131F08C3394D
:1026F00014389F00831603131D08FC3902389D000F
:10270000831203131F1488150330B7009730B600E7
:10271000B60B882BB70B882B8D2B831203139F14BA
:10272000912B9F18942B952B912B962B1E08B6005E
:102730003608B8001F10881138089E2B0800831235
:102740000313BA01BB01A42B361CA72BA82BAE2B5D
:102750003808BA070318BB0A3908BB070130031051
:10276000B80DB90DFF3E031DAF2B01300310B70CA0
:10277000B60CFF3E031DB62B37083604031DC12BD4
:10278000C22BA42BC32B3B08B701B7073A08B601ED
:10279000B607CA2B0800D901CF01D001D101D2015F
:1027A000D301D401D5018313A0308400C8300A16A8
:1027B0008A11E8210A168A11EC30FD001230FE0061
:1027C0000630FF00DF3084000A168A1117220A162D
:1027D0008A115930FD000730FE00FC30FF005630F2
:1027E00084000A168A1117220A168A1183010A1216
:1027F0008A111528831203131F08C3391C389F0040
:10280000831603131D08FC3901389D00072C9D1FFA
:102810000A2C0B2C072C831203131F1408140330EB
:10282000B7009730B600B60B132CB70B132C182C2F
:10283000831203139F141C2C9F181F2C202C1C2C5C
:10284000212C1E08B6003608B8001F1008103808E2
:10285000292C0800831203131F08C33918389F005E
:10286000831603131D08FC3901389D00372C9D1F6A
:102870003A2C3B2C372C831203131F1408160330F9
:10288000B7009730B600B60B432CB70B432C482C3F
:10289000831203139F144C2C9F184F2C502C4C2C3C
:1028A000512C1E08B6003608B8001F100812380850
:1028B000592C080083120313B901E2300A168A1159
:1028C00026220A168A1107300A168A1183220A164E
:1028D0008A1183120313BC003C08BD003D08BC00F4
:1028E0003C08B90027300A168A1126220A168A11D6
:1028F00083120313071100300A168A1183220A1665
:102900008A1183120313BC003C08BD003D08013846
:10291000BC003C08BD003D08BC003C08B9002030AC
:102920000A168A1126220A168A1183120313071522
:1029300008007908780403199E2C9F2CD42CFD01E3
:10294000FD0AAE2C01300310F80DF90DFF3E031DFA
:10295000A32C0130FC007C08FD07AE2CF91FB12C24
:10296000B22CA22CB42CB42C79087B02031DBA2CF7
:1029700078087A02031CBD2CBE2CC52C7808FA02FC
:102980007908031CFB03FB02C52C01300310F90C72
:10299000F80CFF3E031DC62C0130FD02031DD12C97
:1029A000D22CB42CD42CD42C7B08F901F9077A084A
:1029B000F801F807DB2C0800831203133F083E04DC
:1029C0000319E32CE42C192DC301C30AF32C0130A5
:1029D0000310BE0DBF0DFF3E031DE82C0130C200E9
:1029E0004208C307F32CBF1FF62CF72CE72CF92C59
:1029F000F92C3F084102031DFF2C3E084002031C36
:102A0000022D032D0A2D3E08C0023F08031CC103FE
:102A1000C1020A2D01300310BF0CBE0CFF3E031D86
:102A20000B2D0130C302031D162D172DF92C192D66
:102A3000192D4108BF01BF074008BE01BE07202D68
:102A40000800F601F701710870040319282D292DDB
:102A5000662DF501F50A382D01300310F00DF10D4A
:102A6000FF3E031D2D2D0130F4007408F507382DAD
:102A7000F11F3B2D3C2D2C2D3E2D3E2D0130031002
:102A8000F60DF70DFF3E031D3F2D71087302031D68
:102A90004B2D70087202031C4E2D4F2D572D7008C0
:102AA000F2027108031CF303F3027614572D013070
:102AB0000310F10CF00CFF3E031D582D0130F50200
:102AC000031D632D642D3E2D662D662D7708F101C3
:102AD000F1077608F001F0076D2D0800831203134B
:102AE000BC01BD01370836040319772D782DB52DAB
:102AF000BB01BB0A872D01300310B60DB70DFF3E99
:102B0000031D7C2D0130BA003A08BB07872DB71F83
:102B10008A2D8B2D7B2D8D2D8D2D01300310BC0D1D
:102B2000BD0DFF3E031D8E2D37083902031D9A2D62
:102B300036083802031C9D2D9E2DA62D3608B8029E
:102B40003708031CB903B9023C14A62D0130031049
:102B5000B70CB60CFF3E031DA72D0130BB02031DB1
:102B6000B22DB32D8D2DB52DB52D3D08B701B7076D
:102B70003C08B601B607BC2D0800831203133908C0
:102B8000031DC32DCB2D380837043604031DC92D72
:102B9000CA2DE12DCB2D0030B6000030B70000303B
:102BA000B800392E392EE12D0130BB003B08B907A2
:102BB00001300310B80CB70CB60CFF3E031DD92D25
:102BC000E12DFE303805031DE62DE72DD42DFF2D18
:102BD000FF2D0130BB003B08B9070130B6070030BC
:102BE00003180130B707003003180130B80701306F
:102BF0000310B80CB70CB60CFF3E031DF82DFF30C8
:102C00003805031D042E052EE92D122E122E01303B
:102C1000B90201300310B60DB70DB80DFF3E031D0C
:102C20000A2E122EB71F152E162E072E3918192E02
:102C30001A2E202EFF30B6057F30B705FF30B805BD
:102C40000310B90C3908BB00BC01BD0110300310E2
:102C5000BB0DBC0DBD0DFF3E031D272E3B08B6046A
:102C60003C08B7043D08B8043A08031D382E392E35
:102C7000B81708000C1C3D2E3E2EB12E0130AE00C0
:102C80002E08D50710308F008E0155085806031DF9
:102C90004A2E4B2EAF2E3A30A0009130A1000A12DE
:102CA0008A1552240A168A11831203130608013961
:102CB000AE0006300310AE0DFF3E031D5A2E08086D
:102CC000AF0005300310AF0CFF3E031D622E07302E
:102CD0002F05B0005308803930042E04B1003108AC
:102CE000D3000808AE0006300310AE0CFF3E031DF3
:102CF000742E2E080339AF002F08D4009D2E8316A2
:102D00000313C601C60AAC2E14308312AE002E087F
:102D100083160313C600AC2E28308312AE002E0893
:102D200083160313C600AC2E78308312AE002E0833
:102D300083160313C600AC2EAC2E83125408003A3F
:102D400003197F2E013A0319842E033A03198C2E9E
:102D5000013A0319942EAC2E8312D50159140C108C
:102D6000B12E3508FF0034088A0033088400320E83
:102D70008300FE0E7E0E090083120313C81FC12EAE
:102D8000C22E002F003083160313C8000030C90084
:102D90008030CA0083120313460983160313CB0045
:102DA00083120313470983160313CC008312031302
:102DB000480983160313CD00CB0A0319CC0A031963
:102DC000CD0A4B08C8074C0803184C0FE82EE92E13
:102DD000C9074D0803184D0FEE2EEF2ECA074808FD
:102DE00083120313C60083160313490883120313C7
:102DF000C700831603134A0883120313C800002F69
:102E0000CB1F032F042F422F003083160313C8005B
:102E10000030C9008030CA008312031349098316A9
:102E20000313CB00831203134A0983160313CC0048
:102E3000831203134B0983160313CD00CB0A031926
:102E4000CC0A0319CD0A4B08C8074C0803184C0FCD
:102E50002A2F2B2FC9074D0803184D0F302F312F64
:102E6000CA07480883120313C900831603134908CD
:102E700083120313CA00831603134A088312031331
:102E8000CB00422F8030C8068030CB064B0848026A
:102E9000031D502F4A084702031D502F49084602C0
:102EA0000318532F542F562F0310592F0314592F43
:102EB000592F0800831203133608BA003708BB00E5
:102EC0003808BC0003103B0D3C0DBD003D08C3009D
:102ED000C308031D6C2F6D2F772F0030B900003011
:102EE000B8000030B7000030B600FF2FFF2F3608C3
:102EF000BA003708BB003808BC0017300310BC0C00
:102F0000BB0CBA0CFF3E031D7E2F3A08BD003D08E6
:102F1000BE00B717FF30B605FF30B7050030B80563
:102F20003608BF003708C0003808C100C2018E3023
:102F3000C302C31F9C2F9D2FC22F4308803A8F3E90
:102F40000318A32FA42FAF2F0030B9000030B80012
:102F50000030B7000030B600FF2FFF2FAF2F013039
:102F60000310C20CC10CC00CBF0CFF3E031DB02FE0
:102F70000130BA003A08C307031DBF2FC02FAF2F7F
:102F8000E62FE62F18304302031CC72FC82FDF2F70
:102F90000030B9000030B8000030B7000030B60093
:102FA000FF2FFF2FDF2F0130BA000310BF0DC00D20
:102FB000C10DC20DBA0BD52F0130C302DF2FC308DC
:102FC000031DE32FE42FD32FE62FE62F3E08031D2A
:102FD000EA2FF62FBF09C009C109C209BF0A0319A8
:102FE000C00A0319C10A0319C20AF62F4208B90020
:102FF0004108B8004008B7003F08B600FF2F08009E
:02400E00F5FCBF
:00000001FF
